{
  "_format": "hh-sol-artifact-1",
  "contractName": "Timelock",
  "sourceName": "contracts/timelock.sol",
  "abi": [
    {
      "inputs": [
        {
          "internalType": "uint256",
          "name": "delay_",
          "type": "uint256"
        }
      ],
      "stateMutability": "nonpayable",
      "type": "constructor"
    },
    {
      "anonymous": false,
      "inputs": [
        {
          "indexed": true,
          "internalType": "bytes32",
          "name": "txHash",
          "type": "bytes32"
        },
        {
          "indexed": true,
          "internalType": "address",
          "name": "target",
          "type": "address"
        },
        {
          "indexed": false,
          "internalType": "uint256",
          "name": "value",
          "type": "uint256"
        },
        {
          "indexed": false,
          "internalType": "string",
          "name": "signature",
          "type": "string"
        },
        {
          "indexed": false,
          "internalType": "bytes",
          "name": "data",
          "type": "bytes"
        },
        {
          "indexed": false,
          "internalType": "uint256",
          "name": "eta",
          "type": "uint256"
        }
      ],
      "name": "CancelTransaction",
      "type": "event"
    },
    {
      "anonymous": false,
      "inputs": [
        {
          "indexed": true,
          "internalType": "bytes32",
          "name": "txHash",
          "type": "bytes32"
        },
        {
          "indexed": true,
          "internalType": "address",
          "name": "target",
          "type": "address"
        },
        {
          "indexed": false,
          "internalType": "uint256",
          "name": "value",
          "type": "uint256"
        },
        {
          "indexed": false,
          "internalType": "string",
          "name": "signature",
          "type": "string"
        },
        {
          "indexed": false,
          "internalType": "bytes",
          "name": "data",
          "type": "bytes"
        },
        {
          "indexed": false,
          "internalType": "uint256",
          "name": "eta",
          "type": "uint256"
        }
      ],
      "name": "ExecuteTransaction",
      "type": "event"
    },
    {
      "anonymous": false,
      "inputs": [
        {
          "indexed": true,
          "internalType": "address",
          "name": "newAdmin",
          "type": "address"
        }
      ],
      "name": "NewAdmin",
      "type": "event"
    },
    {
      "anonymous": false,
      "inputs": [
        {
          "indexed": true,
          "internalType": "uint256",
          "name": "newDelay",
          "type": "uint256"
        }
      ],
      "name": "NewDelay",
      "type": "event"
    },
    {
      "anonymous": false,
      "inputs": [
        {
          "indexed": true,
          "internalType": "address",
          "name": "newPendingAdmin",
          "type": "address"
        }
      ],
      "name": "NewPendingAdmin",
      "type": "event"
    },
    {
      "anonymous": false,
      "inputs": [
        {
          "indexed": true,
          "internalType": "bytes32",
          "name": "txHash",
          "type": "bytes32"
        },
        {
          "indexed": true,
          "internalType": "address",
          "name": "target",
          "type": "address"
        },
        {
          "indexed": false,
          "internalType": "uint256",
          "name": "value",
          "type": "uint256"
        },
        {
          "indexed": false,
          "internalType": "string",
          "name": "signature",
          "type": "string"
        },
        {
          "indexed": false,
          "internalType": "bytes",
          "name": "data",
          "type": "bytes"
        },
        {
          "indexed": false,
          "internalType": "uint256",
          "name": "eta",
          "type": "uint256"
        }
      ],
      "name": "QueueTransaction",
      "type": "event"
    },
    {
      "stateMutability": "payable",
      "type": "fallback"
    },
    {
      "inputs": [],
      "name": "GRACE_PERIOD",
      "outputs": [
        {
          "internalType": "uint256",
          "name": "",
          "type": "uint256"
        }
      ],
      "stateMutability": "view",
      "type": "function"
    },
    {
      "inputs": [],
      "name": "MAXIMUM_DELAY",
      "outputs": [
        {
          "internalType": "uint256",
          "name": "",
          "type": "uint256"
        }
      ],
      "stateMutability": "view",
      "type": "function"
    },
    {
      "inputs": [],
      "name": "MINIMUM_DELAY",
      "outputs": [
        {
          "internalType": "uint256",
          "name": "",
          "type": "uint256"
        }
      ],
      "stateMutability": "view",
      "type": "function"
    },
    {
      "inputs": [
        {
          "internalType": "address",
          "name": "_address",
          "type": "address"
        }
      ],
      "name": "SetTempSender",
      "outputs": [],
      "stateMutability": "nonpayable",
      "type": "function"
    },
    {
      "inputs": [],
      "name": "acceptAdmin",
      "outputs": [],
      "stateMutability": "nonpayable",
      "type": "function"
    },
    {
      "inputs": [],
      "name": "admin",
      "outputs": [
        {
          "internalType": "address",
          "name": "",
          "type": "address"
        }
      ],
      "stateMutability": "view",
      "type": "function"
    },
    {
      "inputs": [
        {
          "internalType": "address",
          "name": "target",
          "type": "address"
        },
        {
          "internalType": "uint256",
          "name": "value",
          "type": "uint256"
        },
        {
          "internalType": "string",
          "name": "signature",
          "type": "string"
        },
        {
          "internalType": "bytes",
          "name": "data",
          "type": "bytes"
        },
        {
          "internalType": "uint256",
          "name": "eta",
          "type": "uint256"
        }
      ],
      "name": "cancelTransaction",
      "outputs": [],
      "stateMutability": "nonpayable",
      "type": "function"
    },
    {
      "inputs": [],
      "name": "delay",
      "outputs": [
        {
          "internalType": "uint256",
          "name": "",
          "type": "uint256"
        }
      ],
      "stateMutability": "view",
      "type": "function"
    },
    {
      "inputs": [
        {
          "internalType": "address",
          "name": "target",
          "type": "address"
        },
        {
          "internalType": "uint256",
          "name": "value",
          "type": "uint256"
        },
        {
          "internalType": "string",
          "name": "signature",
          "type": "string"
        },
        {
          "internalType": "bytes",
          "name": "data",
          "type": "bytes"
        },
        {
          "internalType": "uint256",
          "name": "eta",
          "type": "uint256"
        }
      ],
      "name": "executeTransaction",
      "outputs": [
        {
          "internalType": "bytes",
          "name": "",
          "type": "bytes"
        }
      ],
      "stateMutability": "payable",
      "type": "function"
    },
    {
      "inputs": [],
      "name": "getBlockTimestamp",
      "outputs": [
        {
          "internalType": "uint256",
          "name": "",
          "type": "uint256"
        }
      ],
      "stateMutability": "view",
      "type": "function"
    },
    {
      "inputs": [],
      "name": "pendingAdmin",
      "outputs": [
        {
          "internalType": "address",
          "name": "",
          "type": "address"
        }
      ],
      "stateMutability": "view",
      "type": "function"
    },
    {
      "inputs": [
        {
          "internalType": "address",
          "name": "target",
          "type": "address"
        },
        {
          "internalType": "uint256",
          "name": "value",
          "type": "uint256"
        },
        {
          "internalType": "string",
          "name": "signature",
          "type": "string"
        },
        {
          "internalType": "bytes",
          "name": "data",
          "type": "bytes"
        },
        {
          "internalType": "uint256",
          "name": "eta",
          "type": "uint256"
        }
      ],
      "name": "queueTransaction",
      "outputs": [
        {
          "internalType": "bytes32",
          "name": "",
          "type": "bytes32"
        }
      ],
      "stateMutability": "nonpayable",
      "type": "function"
    },
    {
      "inputs": [
        {
          "internalType": "bytes32",
          "name": "",
          "type": "bytes32"
        }
      ],
      "name": "queuedTransactions",
      "outputs": [
        {
          "internalType": "bool",
          "name": "",
          "type": "bool"
        }
      ],
      "stateMutability": "view",
      "type": "function"
    },
    {
      "inputs": [
        {
          "internalType": "uint256",
          "name": "delay_",
          "type": "uint256"
        }
      ],
      "name": "setDelay",
      "outputs": [],
      "stateMutability": "nonpayable",
      "type": "function"
    },
    {
      "inputs": [
        {
          "internalType": "address",
          "name": "pendingAdmin_",
          "type": "address"
        }
      ],
      "name": "setPendingAdmin",
      "outputs": [],
      "stateMutability": "nonpayable",
      "type": "function"
    },
    {
      "inputs": [],
      "name": "temp_sender",
      "outputs": [
        {
          "internalType": "address",
          "name": "",
          "type": "address"
        }
      ],
      "stateMutability": "view",
      "type": "function"
    },
    {
      "stateMutability": "payable",
      "type": "receive"
    }
  ],
  "bytecode": "0x60806040523480156200001157600080fd5b5060405162001f2938038062001f29833981810160405281019062000037919062000155565b6102588110156200007f576040517f08c379a000000000000000000000000000000000000000000000000000000000815260040162000076906200020e565b60405180910390fd5b610384811115620000c7576040517f08c379a0000000000000000000000000000000000000000000000000000000008152600401620000be90620002a6565b60405180910390fd5b336000806101000a81548173ffffffffffffffffffffffffffffffffffffffff021916908373ffffffffffffffffffffffffffffffffffffffff1602179055508060028190555050620002c8565b600080fd5b6000819050919050565b6200012f816200011a565b81146200013b57600080fd5b50565b6000815190506200014f8162000124565b92915050565b6000602082840312156200016e576200016d62000115565b5b60006200017e848285016200013e565b91505092915050565b600082825260208201905092915050565b7f2044656c6179206d75737420657863656564206d696e696d756d2064656c617960008201527f2e00000000000000000000000000000000000000000000000000000000000000602082015250565b6000620001f660218362000187565b9150620002038262000198565b604082019050919050565b600060208201905081810360008301526200022981620001e7565b9050919050565b7f2044656c6179206d757374206e6f7420657863656564206d6178696d756d206460008201527f656c61792e000000000000000000000000000000000000000000000000000000602082015250565b60006200028e60258362000187565b91506200029b8262000230565b604082019050919050565b60006020820190508181036000830152620002c1816200027f565b9050919050565b611c5180620002d86000396000f3fe6080604052600436106100f75760003560e01c80637d645fab1161008a578063e177246e11610059578063e177246e14610301578063f2b065371461032a578063f2e477ad14610367578063f851a44014610392576100fe565b80637d645fab14610257578063abc203bd14610282578063b1b43ae5146102ab578063c1a287e2146102d6576100fe565b80634dd18bf5116100c65780634dd18bf5146101af578063591fcdfe146101d85780636a42b8f814610201578063796b89b91461022c576100fe565b80630825f38f146101005780630e18b6811461013057806326782247146101475780633a66f90114610172576100fe565b366100fe57005b005b61011a600480360381019061011591906111e6565b6103bd565b6040516101279190611318565b60405180910390f35b34801561013c57600080fd5b50610145610708565b005b34801561015357600080fd5b5061015c6108c3565b6040516101699190611349565b60405180910390f35b34801561017e57600080fd5b50610199600480360381019061019491906111e6565b6108e9565b6040516101a6919061137d565b60405180910390f35b3480156101bb57600080fd5b506101d660048036038101906101d19190611398565b610a99565b005b3480156101e457600080fd5b506101ff60048036038101906101fa91906111e6565b610bb0565b005b34801561020d57600080fd5b50610216610cfa565b60405161022391906113d4565b60405180910390f35b34801561023857600080fd5b50610241610d00565b60405161024e91906113d4565b60405180910390f35b34801561026357600080fd5b5061026c610d08565b60405161027991906113d4565b60405180910390f35b34801561028e57600080fd5b506102a960048036038101906102a49190611398565b610d0e565b005b3480156102b757600080fd5b506102c0610d52565b6040516102cd91906113d4565b60405180910390f35b3480156102e257600080fd5b506102eb610d58565b6040516102f891906113d4565b60405180910390f35b34801561030d57600080fd5b50610328600480360381019061032391906113ef565b610d5e565b005b34801561033657600080fd5b50610351600480360381019061034c9190611448565b610e8f565b60405161035e9190611490565b60405180910390f35b34801561037357600080fd5b5061037c610eaf565b6040516103899190611349565b60405180910390f35b34801561039e57600080fd5b506103a7610ed5565b6040516103b49190611349565b60405180910390f35b606060008054906101000a900473ffffffffffffffffffffffffffffffffffffffff1673ffffffffffffffffffffffffffffffffffffffff163373ffffffffffffffffffffffffffffffffffffffff161461044d576040517f08c379a000000000000000000000000000000000000000000000000000000000815260040161044490611508565b60405180910390fd5b6000868686868660405160200161046895949392919061156c565b6040516020818303038152906040528051906020012090506004600082815260200190815260200160002060009054906101000a900460ff166104e0576040517f08c379a00000000000000000000000000000000000000000000000000000000081526004016104d790611619565b60405180910390fd5b826104e9610d00565b101561052a576040517f08c379a0000000000000000000000000000000000000000000000000000000008152600401610521906116ab565b60405180910390fd5b61053f61012c84610ef990919063ffffffff16565b610547610d00565b1115610588576040517f08c379a000000000000000000000000000000000000000000000000000000000815260040161057f90611717565b60405180910390fd5b60006004600083815260200190815260200160002060006101000a81548160ff021916908315150217905550606060008651036105c7578490506105f3565b8580519060200120856040516020016105e19291906117c0565b60405160208183030381529060405290505b6000808973ffffffffffffffffffffffffffffffffffffffff16898460405161061c91906117e8565b60006040518083038185875af1925050503d8060008114610659576040519150601f19603f3d011682016040523d82523d6000602084013e61065e565b606091505b5091509150816106a3576040517f08c379a000000000000000000000000000000000000000000000000000000000815260040161069a9061184b565b60405180910390fd5b8973ffffffffffffffffffffffffffffffffffffffff16847fa560e3198060a2f10670c1ec5b403077ea6ae93ca8de1c32b451dc1a943cd6e78b8b8b8b6040516106f0949392919061186b565b60405180910390a38094505050505095945050505050565b600160009054906101000a900473ffffffffffffffffffffffffffffffffffffffff1673ffffffffffffffffffffffffffffffffffffffff16600360009054906101000a900473ffffffffffffffffffffffffffffffffffffffff1673ffffffffffffffffffffffffffffffffffffffff16146107ba576040517f08c379a00000000000000000000000000000000000000000000000000000000081526004016107b190611930565b60405180910390fd5b600360009054906101000a900473ffffffffffffffffffffffffffffffffffffffff166000806101000a81548173ffffffffffffffffffffffffffffffffffffffff021916908373ffffffffffffffffffffffffffffffffffffffff1602179055506000600160006101000a81548173ffffffffffffffffffffffffffffffffffffffff021916908373ffffffffffffffffffffffffffffffffffffffff16021790555060008054906101000a900473ffffffffffffffffffffffffffffffffffffffff1673ffffffffffffffffffffffffffffffffffffffff167f71614071b88dee5e0b2ae578a9dd7b2ebbe9ae832ba419dc0242cd065a290b6c60405160405180910390a2565b600160009054906101000a900473ffffffffffffffffffffffffffffffffffffffff1681565b60008060009054906101000a900473ffffffffffffffffffffffffffffffffffffffff1673ffffffffffffffffffffffffffffffffffffffff163373ffffffffffffffffffffffffffffffffffffffff161461097a576040517f08c379a000000000000000000000000000000000000000000000000000000000815260040161097190611508565b60405180910390fd5b610996600254610988610d00565b610ef990919063ffffffff16565b8210156109d8576040517f08c379a00000000000000000000000000000000000000000000000000000000081526004016109cf906119c2565b60405180910390fd5b600086868686866040516020016109f395949392919061156c565b60405160208183030381529060405280519060200120905060016004600083815260200190815260200160002060006101000a81548160ff0219169083151502179055508673ffffffffffffffffffffffffffffffffffffffff16817f76e2796dc3a81d57b0e8504b647febcbeeb5f4af818e164f11eef8131a6a763f88888888604051610a84949392919061186b565b60405180910390a38091505095945050505050565b3073ffffffffffffffffffffffffffffffffffffffff163373ffffffffffffffffffffffffffffffffffffffff1614610b07576040517f08c379a0000000000000000000000000000000000000000000000000000000008152600401610afe90611a2e565b60405180910390fd5b80600160006101000a81548173ffffffffffffffffffffffffffffffffffffffff021916908373ffffffffffffffffffffffffffffffffffffffff160217905550600160009054906101000a900473ffffffffffffffffffffffffffffffffffffffff1673ffffffffffffffffffffffffffffffffffffffff167f69d78e38a01985fbb1462961809b4b2d65531bc93b2b94037f3334b82ca4a75660405160405180910390a250565b60008054906101000a900473ffffffffffffffffffffffffffffffffffffffff1673ffffffffffffffffffffffffffffffffffffffff163373ffffffffffffffffffffffffffffffffffffffff1614610c3e576040517f08c379a0000000000000000000000000000000000000000000000000000000008152600401610c3590611508565b60405180910390fd5b60008585858585604051602001610c5995949392919061156c565b60405160208183030381529060405280519060200120905060006004600083815260200190815260200160002060006101000a81548160ff0219169083151502179055508573ffffffffffffffffffffffffffffffffffffffff16817f2fffc091a501fd91bfbff27141450d3acb40fb8e6d8382b243ec7a812a3aaf8787878787604051610cea949392919061186b565b60405180910390a3505050505050565b60025481565b600042905090565b61038481565b80600360006101000a81548173ffffffffffffffffffffffffffffffffffffffff021916908373ffffffffffffffffffffffffffffffffffffffff16021790555050565b61025881565b61012c81565b3073ffffffffffffffffffffffffffffffffffffffff163373ffffffffffffffffffffffffffffffffffffffff1614610dcc576040517f08c379a0000000000000000000000000000000000000000000000000000000008152600401610dc390611a2e565b60405180910390fd5b610258811015610e11576040517f08c379a0000000000000000000000000000000000000000000000000000000008152600401610e0890611a9a565b60405180910390fd5b610384811115610e56576040517f08c379a0000000000000000000000000000000000000000000000000000000008152600401610e4d90611b2c565b60405180910390fd5b806002819055506002547f948b1f6a42ee138b7e34058ba85a37f716d55ff25ff05a763f15bed6a04c8d2c60405160405180910390a250565b60046020528060005260406000206000915054906101000a900460ff1681565b600360009054906101000a900473ffffffffffffffffffffffffffffffffffffffff1681565b60008054906101000a900473ffffffffffffffffffffffffffffffffffffffff1681565b6000808284610f089190611b7b565b905083811015610f4d576040517f08c379a0000000000000000000000000000000000000000000000000000000008152600401610f4490611bfb565b60405180910390fd5b8091505092915050565b6000604051905090565b600080fd5b600080fd5b600073ffffffffffffffffffffffffffffffffffffffff82169050919050565b6000610f9682610f6b565b9050919050565b610fa681610f8b565b8114610fb157600080fd5b50565b600081359050610fc381610f9d565b92915050565b6000819050919050565b610fdc81610fc9565b8114610fe757600080fd5b50565b600081359050610ff981610fd3565b92915050565b600080fd5b600080fd5b6000601f19601f8301169050919050565b7f4e487b7100000000000000000000000000000000000000000000000000000000600052604160045260246000fd5b61105282611009565b810181811067ffffffffffffffff821117156110715761107061101a565b5b80604052505050565b6000611084610f57565b90506110908282611049565b919050565b600067ffffffffffffffff8211156110b0576110af61101a565b5b6110b982611009565b9050602081019050919050565b82818337600083830152505050565b60006110e86110e384611095565b61107a565b90508281526020810184848401111561110457611103611004565b5b61110f8482856110c6565b509392505050565b600082601f83011261112c5761112b610fff565b5b813561113c8482602086016110d5565b91505092915050565b600067ffffffffffffffff8211156111605761115f61101a565b5b61116982611009565b9050602081019050919050565b600061118961118484611145565b61107a565b9050828152602081018484840111156111a5576111a4611004565b5b6111b08482856110c6565b509392505050565b600082601f8301126111cd576111cc610fff565b5b81356111dd848260208601611176565b91505092915050565b600080600080600060a0868803121561120257611201610f61565b5b600061121088828901610fb4565b955050602061122188828901610fea565b945050604086013567ffffffffffffffff81111561124257611241610f66565b5b61124e88828901611117565b935050606086013567ffffffffffffffff81111561126f5761126e610f66565b5b61127b888289016111b8565b925050608061128c88828901610fea565b9150509295509295909350565b600081519050919050565b600082825260208201905092915050565b60005b838110156112d35780820151818401526020810190506112b8565b60008484015250505050565b60006112ea82611299565b6112f481856112a4565b93506113048185602086016112b5565b61130d81611009565b840191505092915050565b6000602082019050818103600083015261133281846112df565b905092915050565b61134381610f8b565b82525050565b600060208201905061135e600083018461133a565b92915050565b6000819050919050565b61137781611364565b82525050565b6000602082019050611392600083018461136e565b92915050565b6000602082840312156113ae576113ad610f61565b5b60006113bc84828501610fb4565b91505092915050565b6113ce81610fc9565b82525050565b60006020820190506113e960008301846113c5565b92915050565b60006020828403121561140557611404610f61565b5b600061141384828501610fea565b91505092915050565b61142581611364565b811461143057600080fd5b50565b6000813590506114428161141c565b92915050565b60006020828403121561145e5761145d610f61565b5b600061146c84828501611433565b91505092915050565b60008115159050919050565b61148a81611475565b82525050565b60006020820190506114a56000830184611481565b92915050565b600082825260208201905092915050565b7f43616c6c206d75737420636f6d652066726f6d2061646d696e2e000000000000600082015250565b60006114f2601a836114ab565b91506114fd826114bc565b602082019050919050565b60006020820190508181036000830152611521816114e5565b9050919050565b600081519050919050565b600061153e82611528565b61154881856114ab565b93506115588185602086016112b5565b61156181611009565b840191505092915050565b600060a082019050611581600083018861133a565b61158e60208301876113c5565b81810360408301526115a08186611533565b905081810360608301526115b481856112df565b90506115c360808301846113c5565b9695505050505050565b7f5472616e73616374696f6e206861736e2774206265656e207175657565642e00600082015250565b6000611603601f836114ab565b915061160e826115cd565b602082019050919050565b60006020820190508181036000830152611632816115f6565b9050919050565b7f5472616e73616374696f6e206861736e2774207375727061737365642074696d60008201527f656c6f636b2e0000000000000000000000000000000000000000000000000000602082015250565b60006116956026836114ab565b91506116a082611639565b604082019050919050565b600060208201905081810360008301526116c481611688565b9050919050565b7f5472616e73616374696f6e206973207374616c652e0000000000000000000000600082015250565b60006117016015836114ab565b915061170c826116cb565b602082019050919050565b60006020820190508181036000830152611730816116f4565b9050919050565b60007fffffffff0000000000000000000000000000000000000000000000000000000082169050919050565b6000819050919050565b61177e61177982611737565b611763565b82525050565b600081905092915050565b600061179a82611299565b6117a48185611784565b93506117b48185602086016112b5565b80840191505092915050565b60006117cc828561176d565b6004820191506117dc828461178f565b91508190509392505050565b60006117f4828461178f565b915081905092915050565b7f7472616e73616374696f6e20657865637574696f6e2072657665727465642e00600082015250565b6000611835601f836114ab565b9150611840826117ff565b602082019050919050565b6000602082019050818103600083015261186481611828565b9050919050565b600060808201905061188060008301876113c5565b81810360208301526118928186611533565b905081810360408301526118a681856112df565b90506118b560608301846113c5565b95945050505050565b7f43616c6c206d75737420636f6d652066726f6d2070656e64696e6741646d696e60008201527f2e00000000000000000000000000000000000000000000000000000000000000602082015250565b600061191a6021836114ab565b9150611925826118be565b604082019050919050565b600060208201905081810360008301526119498161190d565b9050919050565b7f457374696d6174656420657865637574696f6e20626c6f636b206d757374207360008201527f6174697366792064656c61792e00000000000000000000000000000000000000602082015250565b60006119ac602d836114ab565b91506119b782611950565b604082019050919050565b600060208201905081810360008301526119db8161199f565b9050919050565b7f43616c6c206d75737420636f6d652066726f6d2054696d656c6f636b2e000000600082015250565b6000611a18601d836114ab565b9150611a23826119e2565b602082019050919050565b60006020820190508181036000830152611a4781611a0b565b9050919050565b7f44656c6179206d75737420657863656564206d696e696d756d2064656c61792e600082015250565b6000611a846020836114ab565b9150611a8f82611a4e565b602082019050919050565b60006020820190508181036000830152611ab381611a77565b9050919050565b7f44656c6179206d757374206e6f7420657863656564206d6178696d756d20646560008201527f6c61792e00000000000000000000000000000000000000000000000000000000602082015250565b6000611b166024836114ab565b9150611b2182611aba565b604082019050919050565b60006020820190508181036000830152611b4581611b09565b9050919050565b7f4e487b7100000000000000000000000000000000000000000000000000000000600052601160045260246000fd5b6000611b8682610fc9565b9150611b9183610fc9565b9250828201905080821115611ba957611ba8611b4c565b5b92915050565b7f6164646974696f6e206f766572666c6f77000000000000000000000000000000600082015250565b6000611be56011836114ab565b9150611bf082611baf565b602082019050919050565b60006020820190508181036000830152611c1481611bd8565b905091905056fea2646970667358221220f343060df68def11ed473538669f727687c538853ae87b48d3a5df0a8c3cd0ea64736f6c63430008130033",
  "linkReferences": {},
  "deployedLinkReferences": {}
}