{
  "_format": "hh-sol-artifact-1",
  "contractName": "Timelock",
  "sourceName": "contracts/timelock.sol",
  "abi": [
    {
      "inputs": [
        {
          "internalType": "uint256",
          "name": "delay_",
          "type": "uint256"
        }
      ],
      "stateMutability": "nonpayable",
      "type": "constructor"
    },
    {
      "anonymous": false,
      "inputs": [
        {
          "indexed": true,
          "internalType": "bytes32",
          "name": "txHash",
          "type": "bytes32"
        },
        {
          "indexed": true,
          "internalType": "address",
          "name": "target",
          "type": "address"
        },
        {
          "indexed": false,
          "internalType": "uint256",
          "name": "value",
          "type": "uint256"
        },
        {
          "indexed": false,
          "internalType": "string",
          "name": "signature",
          "type": "string"
        },
        {
          "indexed": false,
          "internalType": "bytes",
          "name": "data",
          "type": "bytes"
        },
        {
          "indexed": false,
          "internalType": "uint256",
          "name": "eta",
          "type": "uint256"
        }
      ],
      "name": "CancelTransaction",
      "type": "event"
    },
    {
      "anonymous": false,
      "inputs": [
        {
          "indexed": true,
          "internalType": "bytes32",
          "name": "txHash",
          "type": "bytes32"
        },
        {
          "indexed": true,
          "internalType": "address",
          "name": "target",
          "type": "address"
        },
        {
          "indexed": false,
          "internalType": "uint256",
          "name": "value",
          "type": "uint256"
        },
        {
          "indexed": false,
          "internalType": "string",
          "name": "signature",
          "type": "string"
        },
        {
          "indexed": false,
          "internalType": "bytes",
          "name": "data",
          "type": "bytes"
        },
        {
          "indexed": false,
          "internalType": "uint256",
          "name": "eta",
          "type": "uint256"
        }
      ],
      "name": "ExecuteTransaction",
      "type": "event"
    },
    {
      "anonymous": false,
      "inputs": [
        {
          "indexed": true,
          "internalType": "address",
          "name": "newAdmin",
          "type": "address"
        }
      ],
      "name": "NewAdmin",
      "type": "event"
    },
    {
      "anonymous": false,
      "inputs": [
        {
          "indexed": true,
          "internalType": "uint256",
          "name": "newDelay",
          "type": "uint256"
        }
      ],
      "name": "NewDelay",
      "type": "event"
    },
    {
      "anonymous": false,
      "inputs": [
        {
          "indexed": true,
          "internalType": "address",
          "name": "newPendingAdmin",
          "type": "address"
        }
      ],
      "name": "NewPendingAdmin",
      "type": "event"
    },
    {
      "anonymous": false,
      "inputs": [
        {
          "indexed": true,
          "internalType": "bytes32",
          "name": "txHash",
          "type": "bytes32"
        },
        {
          "indexed": true,
          "internalType": "address",
          "name": "target",
          "type": "address"
        },
        {
          "indexed": false,
          "internalType": "uint256",
          "name": "value",
          "type": "uint256"
        },
        {
          "indexed": false,
          "internalType": "string",
          "name": "signature",
          "type": "string"
        },
        {
          "indexed": false,
          "internalType": "bytes",
          "name": "data",
          "type": "bytes"
        },
        {
          "indexed": false,
          "internalType": "uint256",
          "name": "eta",
          "type": "uint256"
        }
      ],
      "name": "QueueTransaction",
      "type": "event"
    },
    {
      "stateMutability": "payable",
      "type": "fallback"
    },
    {
      "inputs": [],
      "name": "GRACE_PERIOD",
      "outputs": [
        {
          "internalType": "uint256",
          "name": "",
          "type": "uint256"
        }
      ],
      "stateMutability": "view",
      "type": "function"
    },
    {
      "inputs": [],
      "name": "MAXIMUM_DELAY",
      "outputs": [
        {
          "internalType": "uint256",
          "name": "",
          "type": "uint256"
        }
      ],
      "stateMutability": "view",
      "type": "function"
    },
    {
      "inputs": [],
      "name": "MINIMUM_DELAY",
      "outputs": [
        {
          "internalType": "uint256",
          "name": "",
          "type": "uint256"
        }
      ],
      "stateMutability": "view",
      "type": "function"
    },
    {
      "inputs": [
        {
          "internalType": "address",
          "name": "_address",
          "type": "address"
        }
      ],
      "name": "SetTempSender",
      "outputs": [],
      "stateMutability": "nonpayable",
      "type": "function"
    },
    {
      "inputs": [],
      "name": "acceptAdmin",
      "outputs": [],
      "stateMutability": "nonpayable",
      "type": "function"
    },
    {
      "inputs": [],
      "name": "admin",
      "outputs": [
        {
          "internalType": "address",
          "name": "",
          "type": "address"
        }
      ],
      "stateMutability": "view",
      "type": "function"
    },
    {
      "inputs": [
        {
          "internalType": "address",
          "name": "target",
          "type": "address"
        },
        {
          "internalType": "uint256",
          "name": "value",
          "type": "uint256"
        },
        {
          "internalType": "string",
          "name": "signature",
          "type": "string"
        },
        {
          "internalType": "bytes",
          "name": "data",
          "type": "bytes"
        },
        {
          "internalType": "uint256",
          "name": "eta",
          "type": "uint256"
        }
      ],
      "name": "cancelTransaction",
      "outputs": [],
      "stateMutability": "nonpayable",
      "type": "function"
    },
    {
      "inputs": [],
      "name": "delay",
      "outputs": [
        {
          "internalType": "uint256",
          "name": "",
          "type": "uint256"
        }
      ],
      "stateMutability": "view",
      "type": "function"
    },
    {
      "inputs": [
        {
          "internalType": "address",
          "name": "target",
          "type": "address"
        },
        {
          "internalType": "uint256",
          "name": "value",
          "type": "uint256"
        },
        {
          "internalType": "string",
          "name": "signature",
          "type": "string"
        },
        {
          "internalType": "bytes",
          "name": "data",
          "type": "bytes"
        },
        {
          "internalType": "uint256",
          "name": "eta",
          "type": "uint256"
        }
      ],
      "name": "executeTransaction",
      "outputs": [
        {
          "internalType": "bytes",
          "name": "",
          "type": "bytes"
        }
      ],
      "stateMutability": "payable",
      "type": "function"
    },
    {
      "inputs": [],
      "name": "getBlockTimestamp",
      "outputs": [
        {
          "internalType": "uint256",
          "name": "",
          "type": "uint256"
        }
      ],
      "stateMutability": "view",
      "type": "function"
    },
    {
      "inputs": [],
      "name": "pendingAdmin",
      "outputs": [
        {
          "internalType": "address",
          "name": "",
          "type": "address"
        }
      ],
      "stateMutability": "view",
      "type": "function"
    },
    {
      "inputs": [
        {
          "internalType": "address",
          "name": "target",
          "type": "address"
        },
        {
          "internalType": "uint256",
          "name": "value",
          "type": "uint256"
        },
        {
          "internalType": "string",
          "name": "signature",
          "type": "string"
        },
        {
          "internalType": "bytes",
          "name": "data",
          "type": "bytes"
        },
        {
          "internalType": "uint256",
          "name": "eta",
          "type": "uint256"
        }
      ],
      "name": "queueTransaction",
      "outputs": [
        {
          "internalType": "bytes32",
          "name": "",
          "type": "bytes32"
        }
      ],
      "stateMutability": "nonpayable",
      "type": "function"
    },
    {
      "inputs": [
        {
          "internalType": "bytes32",
          "name": "",
          "type": "bytes32"
        }
      ],
      "name": "queuedTransactions",
      "outputs": [
        {
          "internalType": "bool",
          "name": "",
          "type": "bool"
        }
      ],
      "stateMutability": "view",
      "type": "function"
    },
    {
      "inputs": [
        {
          "internalType": "uint256",
          "name": "delay_",
          "type": "uint256"
        }
      ],
      "name": "setDelay",
      "outputs": [],
      "stateMutability": "nonpayable",
      "type": "function"
    },
    {
      "inputs": [
        {
          "internalType": "address",
          "name": "pendingAdmin_",
          "type": "address"
        }
      ],
      "name": "setPendingAdmin",
      "outputs": [],
      "stateMutability": "nonpayable",
      "type": "function"
    },
    {
      "inputs": [],
      "name": "temp_sender",
      "outputs": [
        {
          "internalType": "address",
          "name": "",
          "type": "address"
        }
      ],
      "stateMutability": "view",
      "type": "function"
    },
    {
      "stateMutability": "payable",
      "type": "receive"
    }
  ],
  "bytecode": "0x60806040523480156200001157600080fd5b5060405162001f8f38038062001f8f833981810160405281019062000037919062000155565b6102588110156200007f576040517f08c379a000000000000000000000000000000000000000000000000000000000815260040162000076906200020e565b60405180910390fd5b610384811115620000c7576040517f08c379a0000000000000000000000000000000000000000000000000000000008152600401620000be90620002a6565b60405180910390fd5b336000806101000a81548173ffffffffffffffffffffffffffffffffffffffff021916908373ffffffffffffffffffffffffffffffffffffffff1602179055508060028190555050620002c8565b600080fd5b6000819050919050565b6200012f816200011a565b81146200013b57600080fd5b50565b6000815190506200014f8162000124565b92915050565b6000602082840312156200016e576200016d62000115565b5b60006200017e848285016200013e565b91505092915050565b600082825260208201905092915050565b7f2044656c6179206d75737420657863656564206d696e696d756d2064656c617960008201527f2e00000000000000000000000000000000000000000000000000000000000000602082015250565b6000620001f660218362000187565b9150620002038262000198565b604082019050919050565b600060208201905081810360008301526200022981620001e7565b9050919050565b7f2044656c6179206d757374206e6f7420657863656564206d6178696d756d206460008201527f656c61792e000000000000000000000000000000000000000000000000000000602082015250565b60006200028e60258362000187565b91506200029b8262000230565b604082019050919050565b60006020820190508181036000830152620002c1816200027f565b9050919050565b611cb780620002d86000396000f3fe6080604052600436106100f75760003560e01c80637d645fab1161008a578063e177246e11610059578063e177246e14610301578063f2b065371461032a578063f2e477ad14610367578063f851a44014610392576100fe565b80637d645fab14610257578063abc203bd14610282578063b1b43ae5146102ab578063c1a287e2146102d6576100fe565b80634dd18bf5116100c65780634dd18bf5146101af578063591fcdfe146101d85780636a42b8f814610201578063796b89b91461022c576100fe565b80630825f38f146101005780630e18b6811461013057806326782247146101475780633a66f90114610172576100fe565b366100fe57005b005b61011a6004803603810190610115919061124c565b6103bd565b604051610127919061137e565b60405180910390f35b34801561013c57600080fd5b5061014561072a565b005b34801561015357600080fd5b5061015c6108e5565b60405161016991906113af565b60405180910390f35b34801561017e57600080fd5b506101996004803603810190610194919061124c565b61090b565b6040516101a691906113e3565b60405180910390f35b3480156101bb57600080fd5b506101d660048036038101906101d191906113fe565b610add565b005b3480156101e457600080fd5b506101ff60048036038101906101fa919061124c565b610bf4565b005b34801561020d57600080fd5b50610216610d60565b604051610223919061143a565b60405180910390f35b34801561023857600080fd5b50610241610d66565b60405161024e919061143a565b60405180910390f35b34801561026357600080fd5b5061026c610d6e565b604051610279919061143a565b60405180910390f35b34801561028e57600080fd5b506102a960048036038101906102a491906113fe565b610d74565b005b3480156102b757600080fd5b506102c0610db8565b6040516102cd919061143a565b60405180910390f35b3480156102e257600080fd5b506102eb610dbe565b6040516102f8919061143a565b60405180910390f35b34801561030d57600080fd5b5061032860048036038101906103239190611455565b610dc4565b005b34801561033657600080fd5b50610351600480360381019061034c91906114ae565b610ef5565b60405161035e91906114f6565b60405180910390f35b34801561037357600080fd5b5061037c610f15565b60405161038991906113af565b60405180910390f35b34801561039e57600080fd5b506103a7610f3b565b6040516103b491906113af565b60405180910390f35b606060008054906101000a900473ffffffffffffffffffffffffffffffffffffffff1673ffffffffffffffffffffffffffffffffffffffff16600360009054906101000a900473ffffffffffffffffffffffffffffffffffffffff1673ffffffffffffffffffffffffffffffffffffffff161461046f576040517f08c379a00000000000000000000000000000000000000000000000000000000081526004016104669061156e565b60405180910390fd5b6000868686868660405160200161048a9594939291906115d2565b6040516020818303038152906040528051906020012090506004600082815260200190815260200160002060009054906101000a900460ff16610502576040517f08c379a00000000000000000000000000000000000000000000000000000000081526004016104f99061167f565b60405180910390fd5b8261050b610d66565b101561054c576040517f08c379a000000000000000000000000000000000000000000000000000000000815260040161054390611711565b60405180910390fd5b61056161012c84610f5f90919063ffffffff16565b610569610d66565b11156105aa576040517f08c379a00000000000000000000000000000000000000000000000000000000081526004016105a19061177d565b60405180910390fd5b60006004600083815260200190815260200160002060006101000a81548160ff021916908315150217905550606060008651036105e957849050610615565b858051906020012085604051602001610603929190611826565b60405160208183030381529060405290505b6000808973ffffffffffffffffffffffffffffffffffffffff16898460405161063e919061184e565b60006040518083038185875af1925050503d806000811461067b576040519150601f19603f3d011682016040523d82523d6000602084013e610680565b606091505b5091509150816106c5576040517f08c379a00000000000000000000000000000000000000000000000000000000081526004016106bc906118b1565b60405180910390fd5b8973ffffffffffffffffffffffffffffffffffffffff16847fa560e3198060a2f10670c1ec5b403077ea6ae93ca8de1c32b451dc1a943cd6e78b8b8b8b60405161071294939291906118d1565b60405180910390a38094505050505095945050505050565b600160009054906101000a900473ffffffffffffffffffffffffffffffffffffffff1673ffffffffffffffffffffffffffffffffffffffff16600360009054906101000a900473ffffffffffffffffffffffffffffffffffffffff1673ffffffffffffffffffffffffffffffffffffffff16146107dc576040517f08c379a00000000000000000000000000000000000000000000000000000000081526004016107d390611996565b60405180910390fd5b600360009054906101000a900473ffffffffffffffffffffffffffffffffffffffff166000806101000a81548173ffffffffffffffffffffffffffffffffffffffff021916908373ffffffffffffffffffffffffffffffffffffffff1602179055506000600160006101000a81548173ffffffffffffffffffffffffffffffffffffffff021916908373ffffffffffffffffffffffffffffffffffffffff16021790555060008054906101000a900473ffffffffffffffffffffffffffffffffffffffff1673ffffffffffffffffffffffffffffffffffffffff167f71614071b88dee5e0b2ae578a9dd7b2ebbe9ae832ba419dc0242cd065a290b6c60405160405180910390a2565b600160009054906101000a900473ffffffffffffffffffffffffffffffffffffffff1681565b60008060009054906101000a900473ffffffffffffffffffffffffffffffffffffffff1673ffffffffffffffffffffffffffffffffffffffff16600360009054906101000a900473ffffffffffffffffffffffffffffffffffffffff1673ffffffffffffffffffffffffffffffffffffffff16146109be576040517f08c379a00000000000000000000000000000000000000000000000000000000081526004016109b59061156e565b60405180910390fd5b6109da6002546109cc610d66565b610f5f90919063ffffffff16565b821015610a1c576040517f08c379a0000000000000000000000000000000000000000000000000000000008152600401610a1390611a28565b60405180910390fd5b60008686868686604051602001610a379594939291906115d2565b60405160208183030381529060405280519060200120905060016004600083815260200190815260200160002060006101000a81548160ff0219169083151502179055508673ffffffffffffffffffffffffffffffffffffffff16817f76e2796dc3a81d57b0e8504b647febcbeeb5f4af818e164f11eef8131a6a763f88888888604051610ac894939291906118d1565b60405180910390a38091505095945050505050565b3073ffffffffffffffffffffffffffffffffffffffff163373ffffffffffffffffffffffffffffffffffffffff1614610b4b576040517f08c379a0000000000000000000000000000000000000000000000000000000008152600401610b4290611a94565b60405180910390fd5b80600160006101000a81548173ffffffffffffffffffffffffffffffffffffffff021916908373ffffffffffffffffffffffffffffffffffffffff160217905550600160009054906101000a900473ffffffffffffffffffffffffffffffffffffffff1673ffffffffffffffffffffffffffffffffffffffff167f69d78e38a01985fbb1462961809b4b2d65531bc93b2b94037f3334b82ca4a75660405160405180910390a250565b60008054906101000a900473ffffffffffffffffffffffffffffffffffffffff1673ffffffffffffffffffffffffffffffffffffffff16600360009054906101000a900473ffffffffffffffffffffffffffffffffffffffff1673ffffffffffffffffffffffffffffffffffffffff1614610ca4576040517f08c379a0000000000000000000000000000000000000000000000000000000008152600401610c9b9061156e565b60405180910390fd5b60008585858585604051602001610cbf9594939291906115d2565b60405160208183030381529060405280519060200120905060006004600083815260200190815260200160002060006101000a81548160ff0219169083151502179055508573ffffffffffffffffffffffffffffffffffffffff16817f2fffc091a501fd91bfbff27141450d3acb40fb8e6d8382b243ec7a812a3aaf8787878787604051610d5094939291906118d1565b60405180910390a3505050505050565b60025481565b600042905090565b61038481565b80600360006101000a81548173ffffffffffffffffffffffffffffffffffffffff021916908373ffffffffffffffffffffffffffffffffffffffff16021790555050565b61025881565b61012c81565b3073ffffffffffffffffffffffffffffffffffffffff163373ffffffffffffffffffffffffffffffffffffffff1614610e32576040517f08c379a0000000000000000000000000000000000000000000000000000000008152600401610e2990611a94565b60405180910390fd5b610258811015610e77576040517f08c379a0000000000000000000000000000000000000000000000000000000008152600401610e6e90611b00565b60405180910390fd5b610384811115610ebc576040517f08c379a0000000000000000000000000000000000000000000000000000000008152600401610eb390611b92565b60405180910390fd5b806002819055506002547f948b1f6a42ee138b7e34058ba85a37f716d55ff25ff05a763f15bed6a04c8d2c60405160405180910390a250565b60046020528060005260406000206000915054906101000a900460ff1681565b600360009054906101000a900473ffffffffffffffffffffffffffffffffffffffff1681565b60008054906101000a900473ffffffffffffffffffffffffffffffffffffffff1681565b6000808284610f6e9190611be1565b905083811015610fb3576040517f08c379a0000000000000000000000000000000000000000000000000000000008152600401610faa90611c61565b60405180910390fd5b8091505092915050565b6000604051905090565b600080fd5b600080fd5b600073ffffffffffffffffffffffffffffffffffffffff82169050919050565b6000610ffc82610fd1565b9050919050565b61100c81610ff1565b811461101757600080fd5b50565b60008135905061102981611003565b92915050565b6000819050919050565b6110428161102f565b811461104d57600080fd5b50565b60008135905061105f81611039565b92915050565b600080fd5b600080fd5b6000601f19601f8301169050919050565b7f4e487b7100000000000000000000000000000000000000000000000000000000600052604160045260246000fd5b6110b88261106f565b810181811067ffffffffffffffff821117156110d7576110d6611080565b5b80604052505050565b60006110ea610fbd565b90506110f682826110af565b919050565b600067ffffffffffffffff82111561111657611115611080565b5b61111f8261106f565b9050602081019050919050565b82818337600083830152505050565b600061114e611149846110fb565b6110e0565b90508281526020810184848401111561116a5761116961106a565b5b61117584828561112c565b509392505050565b600082601f83011261119257611191611065565b5b81356111a284826020860161113b565b91505092915050565b600067ffffffffffffffff8211156111c6576111c5611080565b5b6111cf8261106f565b9050602081019050919050565b60006111ef6111ea846111ab565b6110e0565b90508281526020810184848401111561120b5761120a61106a565b5b61121684828561112c565b509392505050565b600082601f83011261123357611232611065565b5b81356112438482602086016111dc565b91505092915050565b600080600080600060a0868803121561126857611267610fc7565b5b60006112768882890161101a565b955050602061128788828901611050565b945050604086013567ffffffffffffffff8111156112a8576112a7610fcc565b5b6112b48882890161117d565b935050606086013567ffffffffffffffff8111156112d5576112d4610fcc565b5b6112e18882890161121e565b92505060806112f288828901611050565b9150509295509295909350565b600081519050919050565b600082825260208201905092915050565b60005b8381101561133957808201518184015260208101905061131e565b60008484015250505050565b6000611350826112ff565b61135a818561130a565b935061136a81856020860161131b565b6113738161106f565b840191505092915050565b600060208201905081810360008301526113988184611345565b905092915050565b6113a981610ff1565b82525050565b60006020820190506113c460008301846113a0565b92915050565b6000819050919050565b6113dd816113ca565b82525050565b60006020820190506113f860008301846113d4565b92915050565b60006020828403121561141457611413610fc7565b5b60006114228482850161101a565b91505092915050565b6114348161102f565b82525050565b600060208201905061144f600083018461142b565b92915050565b60006020828403121561146b5761146a610fc7565b5b600061147984828501611050565b91505092915050565b61148b816113ca565b811461149657600080fd5b50565b6000813590506114a881611482565b92915050565b6000602082840312156114c4576114c3610fc7565b5b60006114d284828501611499565b91505092915050565b60008115159050919050565b6114f0816114db565b82525050565b600060208201905061150b60008301846114e7565b92915050565b600082825260208201905092915050565b7f43616c6c206d75737420636f6d652066726f6d2061646d696e2e000000000000600082015250565b6000611558601a83611511565b915061156382611522565b602082019050919050565b600060208201905081810360008301526115878161154b565b9050919050565b600081519050919050565b60006115a48261158e565b6115ae8185611511565b93506115be81856020860161131b565b6115c78161106f565b840191505092915050565b600060a0820190506115e760008301886113a0565b6115f4602083018761142b565b81810360408301526116068186611599565b9050818103606083015261161a8185611345565b9050611629608083018461142b565b9695505050505050565b7f5472616e73616374696f6e206861736e2774206265656e207175657565642e00600082015250565b6000611669601f83611511565b915061167482611633565b602082019050919050565b600060208201905081810360008301526116988161165c565b9050919050565b7f5472616e73616374696f6e206861736e2774207375727061737365642074696d60008201527f656c6f636b2e0000000000000000000000000000000000000000000000000000602082015250565b60006116fb602683611511565b91506117068261169f565b604082019050919050565b6000602082019050818103600083015261172a816116ee565b9050919050565b7f5472616e73616374696f6e206973207374616c652e0000000000000000000000600082015250565b6000611767601583611511565b915061177282611731565b602082019050919050565b600060208201905081810360008301526117968161175a565b9050919050565b60007fffffffff0000000000000000000000000000000000000000000000000000000082169050919050565b6000819050919050565b6117e46117df8261179d565b6117c9565b82525050565b600081905092915050565b6000611800826112ff565b61180a81856117ea565b935061181a81856020860161131b565b80840191505092915050565b600061183282856117d3565b60048201915061184282846117f5565b91508190509392505050565b600061185a82846117f5565b915081905092915050565b7f7472616e73616374696f6e20657865637574696f6e2072657665727465642e00600082015250565b600061189b601f83611511565b91506118a682611865565b602082019050919050565b600060208201905081810360008301526118ca8161188e565b9050919050565b60006080820190506118e6600083018761142b565b81810360208301526118f88186611599565b9050818103604083015261190c8185611345565b905061191b606083018461142b565b95945050505050565b7f43616c6c206d75737420636f6d652066726f6d2070656e64696e6741646d696e60008201527f2e00000000000000000000000000000000000000000000000000000000000000602082015250565b6000611980602183611511565b915061198b82611924565b604082019050919050565b600060208201905081810360008301526119af81611973565b9050919050565b7f457374696d6174656420657865637574696f6e20626c6f636b206d757374207360008201527f6174697366792064656c61792e00000000000000000000000000000000000000602082015250565b6000611a12602d83611511565b9150611a1d826119b6565b604082019050919050565b60006020820190508181036000830152611a4181611a05565b9050919050565b7f43616c6c206d75737420636f6d652066726f6d2054696d656c6f636b2e000000600082015250565b6000611a7e601d83611511565b9150611a8982611a48565b602082019050919050565b60006020820190508181036000830152611aad81611a71565b9050919050565b7f44656c6179206d75737420657863656564206d696e696d756d2064656c61792e600082015250565b6000611aea602083611511565b9150611af582611ab4565b602082019050919050565b60006020820190508181036000830152611b1981611add565b9050919050565b7f44656c6179206d757374206e6f7420657863656564206d6178696d756d20646560008201527f6c61792e00000000000000000000000000000000000000000000000000000000602082015250565b6000611b7c602483611511565b9150611b8782611b20565b604082019050919050565b60006020820190508181036000830152611bab81611b6f565b9050919050565b7f4e487b7100000000000000000000000000000000000000000000000000000000600052601160045260246000fd5b6000611bec8261102f565b9150611bf78361102f565b9250828201905080821115611c0f57611c0e611bb2565b5b92915050565b7f6164646974696f6e206f766572666c6f77000000000000000000000000000000600082015250565b6000611c4b601183611511565b9150611c5682611c15565b602082019050919050565b60006020820190508181036000830152611c7a81611c3e565b905091905056fea264697066735822122036d461bfdaec5f20a42b267090a864c63bd5ffccd4d4fa0188f8150a142dcf7a64736f6c63430008130033",
  "linkReferences": {},
  "deployedLinkReferences": {}
}