{
  "_format": "hh-sol-artifact-1",
  "contractName": "LangToken",
  "sourceName": "contracts/langDAOToken.sol",
  "abi": [
    {
      "inputs": [],
      "stateMutability": "nonpayable",
      "type": "constructor"
    },
    {
      "anonymous": false,
      "inputs": [
        {
          "indexed": true,
          "internalType": "address",
          "name": "owner",
          "type": "address"
        },
        {
          "indexed": true,
          "internalType": "address",
          "name": "spender",
          "type": "address"
        },
        {
          "indexed": false,
          "internalType": "uint256",
          "name": "amount",
          "type": "uint256"
        }
      ],
      "name": "Approval",
      "type": "event"
    },
    {
      "anonymous": false,
      "inputs": [
        {
          "indexed": true,
          "internalType": "address",
          "name": "delegator",
          "type": "address"
        },
        {
          "indexed": true,
          "internalType": "address",
          "name": "fromDelegate",
          "type": "address"
        },
        {
          "indexed": true,
          "internalType": "address",
          "name": "toDelegate",
          "type": "address"
        }
      ],
      "name": "DelegateChanged",
      "type": "event"
    },
    {
      "anonymous": false,
      "inputs": [
        {
          "indexed": true,
          "internalType": "address",
          "name": "delegate",
          "type": "address"
        },
        {
          "indexed": false,
          "internalType": "uint256",
          "name": "previousBalance",
          "type": "uint256"
        },
        {
          "indexed": false,
          "internalType": "uint256",
          "name": "newBalance",
          "type": "uint256"
        }
      ],
      "name": "DelegateVotesChanged",
      "type": "event"
    },
    {
      "anonymous": false,
      "inputs": [
        {
          "indexed": true,
          "internalType": "address",
          "name": "from",
          "type": "address"
        },
        {
          "indexed": true,
          "internalType": "address",
          "name": "to",
          "type": "address"
        },
        {
          "indexed": false,
          "internalType": "uint256",
          "name": "amount",
          "type": "uint256"
        }
      ],
      "name": "Transfer",
      "type": "event"
    },
    {
      "inputs": [],
      "name": "DELEGATION_TYPEHASH",
      "outputs": [
        {
          "internalType": "bytes32",
          "name": "",
          "type": "bytes32"
        }
      ],
      "stateMutability": "view",
      "type": "function"
    },
    {
      "inputs": [],
      "name": "DOMAIN_TYPEHASH",
      "outputs": [
        {
          "internalType": "bytes32",
          "name": "",
          "type": "bytes32"
        }
      ],
      "stateMutability": "view",
      "type": "function"
    },
    {
      "inputs": [
        {
          "internalType": "address",
          "name": "admin",
          "type": "address"
        },
        {
          "internalType": "address",
          "name": "spender",
          "type": "address"
        }
      ],
      "name": "allowance",
      "outputs": [
        {
          "internalType": "uint256",
          "name": "",
          "type": "uint256"
        }
      ],
      "stateMutability": "view",
      "type": "function"
    },
    {
      "inputs": [
        {
          "internalType": "address",
          "name": "spender",
          "type": "address"
        },
        {
          "internalType": "uint256",
          "name": "val",
          "type": "uint256"
        }
      ],
      "name": "approve",
      "outputs": [
        {
          "internalType": "bool",
          "name": "",
          "type": "bool"
        }
      ],
      "stateMutability": "nonpayable",
      "type": "function"
    },
    {
      "inputs": [
        {
          "internalType": "address",
          "name": "account",
          "type": "address"
        }
      ],
      "name": "balanceOf",
      "outputs": [
        {
          "internalType": "uint256",
          "name": "",
          "type": "uint256"
        }
      ],
      "stateMutability": "view",
      "type": "function"
    },
    {
      "inputs": [
        {
          "internalType": "address",
          "name": "",
          "type": "address"
        },
        {
          "internalType": "uint32",
          "name": "",
          "type": "uint32"
        }
      ],
      "name": "checkpoints",
      "outputs": [
        {
          "internalType": "uint32",
          "name": "fromBlock",
          "type": "uint32"
        },
        {
          "internalType": "uint96",
          "name": "votes",
          "type": "uint96"
        }
      ],
      "stateMutability": "view",
      "type": "function"
    },
    {
      "inputs": [],
      "name": "decimals",
      "outputs": [
        {
          "internalType": "uint256",
          "name": "",
          "type": "uint256"
        }
      ],
      "stateMutability": "view",
      "type": "function"
    },
    {
      "inputs": [
        {
          "internalType": "address",
          "name": "to",
          "type": "address"
        }
      ],
      "name": "delegate",
      "outputs": [],
      "stateMutability": "payable",
      "type": "function"
    },
    {
      "inputs": [
        {
          "internalType": "address",
          "name": "delegatee",
          "type": "address"
        },
        {
          "internalType": "uint256",
          "name": "nonce",
          "type": "uint256"
        },
        {
          "internalType": "uint256",
          "name": "expiry",
          "type": "uint256"
        },
        {
          "internalType": "uint8",
          "name": "v",
          "type": "uint8"
        },
        {
          "internalType": "bytes32",
          "name": "r",
          "type": "bytes32"
        },
        {
          "internalType": "bytes32",
          "name": "s",
          "type": "bytes32"
        }
      ],
      "name": "delegateBySig",
      "outputs": [],
      "stateMutability": "nonpayable",
      "type": "function"
    },
    {
      "inputs": [
        {
          "internalType": "address",
          "name": "from",
          "type": "address"
        },
        {
          "internalType": "address",
          "name": "to",
          "type": "address"
        }
      ],
      "name": "delegateTransfer",
      "outputs": [],
      "stateMutability": "nonpayable",
      "type": "function"
    },
    {
      "inputs": [
        {
          "internalType": "address",
          "name": "",
          "type": "address"
        }
      ],
      "name": "delegates",
      "outputs": [
        {
          "internalType": "address",
          "name": "",
          "type": "address"
        }
      ],
      "stateMutability": "view",
      "type": "function"
    },
    {
      "inputs": [
        {
          "internalType": "address",
          "name": "account",
          "type": "address"
        }
      ],
      "name": "getCurrentVotes",
      "outputs": [
        {
          "internalType": "uint96",
          "name": "",
          "type": "uint96"
        }
      ],
      "stateMutability": "view",
      "type": "function"
    },
    {
      "inputs": [
        {
          "internalType": "address",
          "name": "account",
          "type": "address"
        },
        {
          "internalType": "uint256",
          "name": "blockNumber",
          "type": "uint256"
        }
      ],
      "name": "getPriorVotes",
      "outputs": [
        {
          "internalType": "uint96",
          "name": "",
          "type": "uint96"
        }
      ],
      "stateMutability": "view",
      "type": "function"
    },
    {
      "inputs": [],
      "name": "getTokenPrice",
      "outputs": [
        {
          "internalType": "uint256",
          "name": "",
          "type": "uint256"
        }
      ],
      "stateMutability": "view",
      "type": "function"
    },
    {
      "inputs": [
        {
          "internalType": "address",
          "name": "srcRep",
          "type": "address"
        },
        {
          "internalType": "address",
          "name": "destRep",
          "type": "address"
        },
        {
          "internalType": "uint96",
          "name": "amt",
          "type": "uint96"
        }
      ],
      "name": "moveDelegates",
      "outputs": [],
      "stateMutability": "nonpayable",
      "type": "function"
    },
    {
      "inputs": [],
      "name": "name",
      "outputs": [
        {
          "internalType": "string",
          "name": "",
          "type": "string"
        }
      ],
      "stateMutability": "view",
      "type": "function"
    },
    {
      "inputs": [
        {
          "internalType": "address",
          "name": "",
          "type": "address"
        }
      ],
      "name": "nonces",
      "outputs": [
        {
          "internalType": "uint256",
          "name": "",
          "type": "uint256"
        }
      ],
      "stateMutability": "view",
      "type": "function"
    },
    {
      "inputs": [
        {
          "internalType": "address",
          "name": "",
          "type": "address"
        }
      ],
      "name": "numCheckpoints",
      "outputs": [
        {
          "internalType": "uint32",
          "name": "",
          "type": "uint32"
        }
      ],
      "stateMutability": "view",
      "type": "function"
    },
    {
      "inputs": [
        {
          "internalType": "uint256",
          "name": "_tokenPrice",
          "type": "uint256"
        }
      ],
      "name": "setTokenprice",
      "outputs": [],
      "stateMutability": "nonpayable",
      "type": "function"
    },
    {
      "inputs": [],
      "name": "symbol",
      "outputs": [
        {
          "internalType": "string",
          "name": "",
          "type": "string"
        }
      ],
      "stateMutability": "view",
      "type": "function"
    },
    {
      "inputs": [],
      "name": "totalSupply",
      "outputs": [
        {
          "internalType": "uint256",
          "name": "",
          "type": "uint256"
        }
      ],
      "stateMutability": "view",
      "type": "function"
    },
    {
      "inputs": [
        {
          "internalType": "address",
          "name": "dst",
          "type": "address"
        },
        {
          "internalType": "uint96",
          "name": "rawAmount",
          "type": "uint96"
        }
      ],
      "name": "transfer",
      "outputs": [
        {
          "internalType": "bool",
          "name": "",
          "type": "bool"
        }
      ],
      "stateMutability": "payable",
      "type": "function"
    },
    {
      "inputs": [
        {
          "internalType": "address",
          "name": "src",
          "type": "address"
        },
        {
          "internalType": "address",
          "name": "dest",
          "type": "address"
        },
        {
          "internalType": "uint96",
          "name": "rawAmount",
          "type": "uint96"
        }
      ],
      "name": "transferFrom",
      "outputs": [
        {
          "internalType": "bool",
          "name": "",
          "type": "bool"
        }
      ],
      "stateMutability": "payable",
      "type": "function"
    },
    {
      "inputs": [
        {
          "internalType": "address",
          "name": "src",
          "type": "address"
        },
        {
          "internalType": "address",
          "name": "dest",
          "type": "address"
        },
        {
          "internalType": "uint96",
          "name": "amt",
          "type": "uint96"
        }
      ],
      "name": "transferTokens",
      "outputs": [],
      "stateMutability": "nonpayable",
      "type": "function"
    },
    {
      "inputs": [
        {
          "internalType": "address",
          "name": "delegatee",
          "type": "address"
        },
        {
          "internalType": "uint32",
          "name": "nCheckpoints",
          "type": "uint32"
        },
        {
          "internalType": "uint96",
          "name": "oldVotes",
          "type": "uint96"
        },
        {
          "internalType": "uint96",
          "name": "newVotes",
          "type": "uint96"
        }
      ],
      "name": "writeCheckpoint",
      "outputs": [],
      "stateMutability": "nonpayable",
      "type": "function"
    }
  ],
  "bytecode": "0x6080604052678ac7230489e800006000553480156200001d57600080fd5b50683635c9adc5dea00000600160003373ffffffffffffffffffffffffffffffffffffffff1673ffffffffffffffffffffffffffffffffffffffff16815260200190815260200160002060006101000a8154816bffffffffffffffffffffffff02191690836bffffffffffffffffffffffff1602179055503373ffffffffffffffffffffffffffffffffffffffff16600073ffffffffffffffffffffffffffffffffffffffff167fddf252ad1be2c89b69c2b068fc378daa952ba7f163c4a11628f55a4df523b3ef683635c9adc5dea00000604051620000fe919062000127565b60405180910390a362000144565b6000819050919050565b62000121816200010c565b82525050565b60006020820190506200013e600083018462000116565b92915050565b6133da80620001546000396000f3fe6080604052600436106101665760003560e01c80638ecb987e116100d1578063c3cda5201161008a578063e7a324dc11610064578063e7a324dc14610575578063f1127ed8146105a0578063f582d12e146105de578063f85138131461060757610166565b8063c3cda520146104e6578063cd2eaaf91461050f578063dd62ed3e1461053857610166565b80638ecb987e146103cc57806395d89b41146103f55780639a23b2b414610420578063a001793814610450578063a71d451c14610480578063b4b5ea57146104a957610166565b8063587cde1e11610123578063587cde1e1461027f5780635c19a95c146102bc5780636fcfff45146102d857806370a0823114610315578063782d6fe1146103525780637ecebe001461038f57610166565b806306fdde031461016b578063095ea7b31461019657806318160ddd146101d357806320606b70146101fe578063313ce567146102295780634b94f50e14610254575b600080fd5b34801561017757600080fd5b50610180610630565b60405161018d919061269f565b60405180910390f35b3480156101a257600080fd5b506101bd60048036038101906101b8919061275a565b610669565b6040516101ca91906127b5565b60405180910390f35b3480156101df57600080fd5b506101e8610804565b6040516101f591906127df565b60405180910390f35b34801561020a57600080fd5b50610213610811565b6040516102209190612813565b60405180910390f35b34801561023557600080fd5b5061023e610835565b60405161024b91906127df565b60405180910390f35b34801561026057600080fd5b5061026961083a565b60405161027691906127df565b60405180910390f35b34801561028b57600080fd5b506102a660048036038101906102a1919061282e565b610843565b6040516102b3919061286a565b60405180910390f35b6102d660048036038101906102d1919061282e565b610876565b005b3480156102e457600080fd5b506102ff60048036038101906102fa919061282e565b610883565b60405161030c91906128a4565b60405180910390f35b34801561032157600080fd5b5061033c6004803603810190610337919061282e565b6108a6565b60405161034991906127df565b60405180910390f35b34801561035e57600080fd5b506103796004803603810190610374919061275a565b610915565b60405161038691906128e6565b60405180910390f35b34801561039b57600080fd5b506103b660048036038101906103b1919061282e565b610d4e565b6040516103c391906127df565b60405180910390f35b3480156103d857600080fd5b506103f360048036038101906103ee9190612901565b610d66565b005b34801561040157600080fd5b5061040a610d70565b604051610417919061269f565b60405180910390f35b61043a6004803603810190610435919061295a565b610da9565b60405161044791906127b5565b60405180910390f35b61046a600480360381019061046591906129ad565b611048565b60405161047791906127b5565b60405180910390f35b34801561048c57600080fd5b506104a760048036038101906104a291906129ed565b6110b0565b005b3480156104b557600080fd5b506104d060048036038101906104cb919061282e565b611270565b6040516104dd91906128e6565b60405180910390f35b3480156104f257600080fd5b5061050d60048036038101906105089190612a92565b611367565b005b34801561051b57600080fd5b506105366004803603810190610531919061295a565b611629565b005b34801561054457600080fd5b5061055f600480360381019061055a91906129ed565b6119eb565b60405161056c91906127df565b60405180910390f35b34801561058157600080fd5b5061058a611a98565b6040516105979190612813565b60405180910390f35b3480156105ac57600080fd5b506105c760048036038101906105c29190612b4b565b611abc565b6040516105d5929190612b8b565b60405180910390f35b3480156105ea57600080fd5b5061060560048036038101906106009190612bb4565b611b15565b005b34801561061357600080fd5b5061062e6004803603810190610629919061295a565b612059565b005b6040518060400160405280600981526020017f4c616e67546f6b656e000000000000000000000000000000000000000000000081525081565b6000807fffffffffffffffffffffffffffffffffffffffffffffffffffffffffffffffff83036106a7576bffffffffffffffffffffffff90506106e9565b6106e6836040518060400160405280601681526020017f616d6f756e742065786365656473203936206269747300000000000000000000815250612455565b90505b80600560003373ffffffffffffffffffffffffffffffffffffffff1673ffffffffffffffffffffffffffffffffffffffff16815260200190815260200160002060008673ffffffffffffffffffffffffffffffffffffffff1673ffffffffffffffffffffffffffffffffffffffff16815260200190815260200160002060006101000a8154816bffffffffffffffffffffffff02191690836bffffffffffffffffffffffff1602179055508373ffffffffffffffffffffffffffffffffffffffff163373ffffffffffffffffffffffffffffffffffffffff167f8c5be1e5ebec7d5bd14f71427d1e84f3dd0314c0f7b2291e5b200ac8c7c3b925836040516107f19190612c56565b60405180910390a3600191505092915050565b683635c9adc5dea0000081565b7f8cad95687ba82c2ce50e74f7b754645e5117c3a5bec8151c0726d5857980a86681565b601281565b60008054905090565b60026020528060005260406000206000915054906101000a900473ffffffffffffffffffffffffffffffffffffffff1681565b61088033826110b0565b50565b60046020528060005260406000206000915054906101000a900463ffffffff1681565b6000600160008373ffffffffffffffffffffffffffffffffffffffff1673ffffffffffffffffffffffffffffffffffffffff16815260200190815260200160002060009054906101000a90046bffffffffffffffffffffffff166bffffffffffffffffffffffff169050919050565b6000438210610959576040517f08c379a000000000000000000000000000000000000000000000000000000000815260040161095090612ce3565b60405180910390fd5b6000600460008573ffffffffffffffffffffffffffffffffffffffff1673ffffffffffffffffffffffffffffffffffffffff16815260200190815260200160002060009054906101000a900463ffffffff16905060008163ffffffff16036109c5576000915050610d48565b82600360008673ffffffffffffffffffffffffffffffffffffffff1673ffffffffffffffffffffffffffffffffffffffff1681526020019081526020016000206000600184610a149190612d32565b63ffffffff1663ffffffff16815260200190815260200160002060000160009054906101000a900463ffffffff1663ffffffff1611610ad957600360008573ffffffffffffffffffffffffffffffffffffffff1673ffffffffffffffffffffffffffffffffffffffff1681526020019081526020016000206000600183610a9b9190612d32565b63ffffffff1663ffffffff16815260200190815260200160002060000160049054906101000a90046bffffffffffffffffffffffff16915050610d48565b82600360008673ffffffffffffffffffffffffffffffffffffffff1673ffffffffffffffffffffffffffffffffffffffff16815260200190815260200160002060008063ffffffff16815260200190815260200160002060000160009054906101000a900463ffffffff1663ffffffff161115610b5a576000915050610d48565b600080600183610b6a9190612d32565b90505b8163ffffffff168163ffffffff161115610cca57600060028383610b919190612d32565b610b9b9190612d99565b82610ba69190612d32565b90506000600360008973ffffffffffffffffffffffffffffffffffffffff1673ffffffffffffffffffffffffffffffffffffffff16815260200190815260200160002060008363ffffffff1663ffffffff1681526020019081526020016000206040518060400160405290816000820160009054906101000a900463ffffffff1663ffffffff1663ffffffff1681526020016000820160049054906101000a90046bffffffffffffffffffffffff166bffffffffffffffffffffffff166bffffffffffffffffffffffff1681525050905086816000015163ffffffff1603610c9957806020015195505050505050610d48565b86816000015163ffffffff161015610cb357819350610cc3565b600182610cc09190612d32565b92505b5050610b6d565b600360008773ffffffffffffffffffffffffffffffffffffffff1673ffffffffffffffffffffffffffffffffffffffff16815260200190815260200160002060008363ffffffff1663ffffffff16815260200190815260200160002060000160049054906101000a90046bffffffffffffffffffffffff1693505050505b92915050565b60066020528060005260406000206000915090505481565b8060008190555050565b6040518060400160405280600381526020017f4c544b000000000000000000000000000000000000000000000000000000000081525081565b6000803390506000600560008773ffffffffffffffffffffffffffffffffffffffff1673ffffffffffffffffffffffffffffffffffffffff16815260200190815260200160002060008373ffffffffffffffffffffffffffffffffffffffff1673ffffffffffffffffffffffffffffffffffffffff16815260200190815260200160002060009054906101000a90046bffffffffffffffffffffffff1690506000610e97856bffffffffffffffffffffffff166040518060400160405280601781526020017f20616d6f756e7420657863656564732039362062697473000000000000000000815250612455565b90508673ffffffffffffffffffffffffffffffffffffffff168373ffffffffffffffffffffffffffffffffffffffff1614158015610ef157506bffffffffffffffffffffffff8016826bffffffffffffffffffffffff1614155b1561102f576000610f1b838360405180606001604052806029815260200161335b602991396124b3565b905080600560008a73ffffffffffffffffffffffffffffffffffffffff1673ffffffffffffffffffffffffffffffffffffffff16815260200190815260200160002060008673ffffffffffffffffffffffffffffffffffffffff1673ffffffffffffffffffffffffffffffffffffffff16815260200190815260200160002060006101000a8154816bffffffffffffffffffffffff02191690836bffffffffffffffffffffffff1602179055508373ffffffffffffffffffffffffffffffffffffffff168873ffffffffffffffffffffffffffffffffffffffff167f8c5be1e5ebec7d5bd14f71427d1e84f3dd0314c0f7b2291e5b200ac8c7c3b925836040516110259190612c56565b60405180910390a3505b61103a878783612059565b600193505050509392505050565b600080611098836bffffffffffffffffffffffff166040518060400160405280602081526020017f7472616e736665723a20616d6f756e7420657863656564732039362062697473815250612455565b90506110a5338583612059565b600191505092915050565b6000600260008473ffffffffffffffffffffffffffffffffffffffff1673ffffffffffffffffffffffffffffffffffffffff16815260200190815260200160002060009054906101000a900473ffffffffffffffffffffffffffffffffffffffff1690506000600160008573ffffffffffffffffffffffffffffffffffffffff1673ffffffffffffffffffffffffffffffffffffffff16815260200190815260200160002060009054906101000a90046bffffffffffffffffffffffff16905082600260008673ffffffffffffffffffffffffffffffffffffffff1673ffffffffffffffffffffffffffffffffffffffff16815260200190815260200160002060006101000a81548173ffffffffffffffffffffffffffffffffffffffff021916908373ffffffffffffffffffffffffffffffffffffffff1602179055508273ffffffffffffffffffffffffffffffffffffffff168273ffffffffffffffffffffffffffffffffffffffff168573ffffffffffffffffffffffffffffffffffffffff167f3134e8a2e6d97e929a7e54011ea5485d7d196dd5f0ba4d4ef95803e8e3fc257f60405160405180910390a461126a828483611629565b50505050565b600080600460008473ffffffffffffffffffffffffffffffffffffffff1673ffffffffffffffffffffffffffffffffffffffff16815260200190815260200160002060009054906101000a900463ffffffff16905060008163ffffffff16116112da57600061135f565b600360008473ffffffffffffffffffffffffffffffffffffffff1673ffffffffffffffffffffffffffffffffffffffff16815260200190815260200160002060006001836113289190612d32565b63ffffffff1663ffffffff16815260200190815260200160002060000160049054906101000a90046bffffffffffffffffffffffff165b915050919050565b60007f8cad95687ba82c2ce50e74f7b754645e5117c3a5bec8151c0726d5857980a8666040518060400160405280600981526020017f4c616e67546f6b656e0000000000000000000000000000000000000000000000815250805190602001206113cf61252d565b306040516020016113e39493929190612dca565b60405160208183030381529060405280519060200120905060007fe48329057bfd03d55e49b547132e39cffd9c1820ad7b9d4c5307691425d15adf8888886040516020016114349493929190612e0f565b60405160208183030381529060405280519060200120905060008282604051602001611461929190612ecc565b60405160208183030381529060405280519060200120905060006001828888886040516000815260200160405260405161149e9493929190612f12565b6020604051602081039080840390855afa1580156114c0573d6000803e3d6000fd5b505050602060405103519050600073ffffffffffffffffffffffffffffffffffffffff168173ffffffffffffffffffffffffffffffffffffffff160361153b576040517f08c379a000000000000000000000000000000000000000000000000000000000815260040161153290612fa3565b60405180910390fd5b600660008273ffffffffffffffffffffffffffffffffffffffff1673ffffffffffffffffffffffffffffffffffffffff168152602001908152602001600020600081548092919061158b90612fc3565b9190505589146115d0576040517f08c379a00000000000000000000000000000000000000000000000000000000081526004016115c790613057565b60405180910390fd5b87421115611613576040517f08c379a000000000000000000000000000000000000000000000000000000000815260040161160a906130c3565b60405180910390fd5b61161d818b6110b0565b50505050505050505050565b8173ffffffffffffffffffffffffffffffffffffffff168373ffffffffffffffffffffffffffffffffffffffff161415801561167357506000816bffffffffffffffffffffffff16115b156119e657600073ffffffffffffffffffffffffffffffffffffffff168373ffffffffffffffffffffffffffffffffffffffff161461186c576000600460008573ffffffffffffffffffffffffffffffffffffffff1673ffffffffffffffffffffffffffffffffffffffff16815260200190815260200160002060009054906101000a900463ffffffff1690506000808263ffffffff161161171657600061179b565b600360008673ffffffffffffffffffffffffffffffffffffffff1673ffffffffffffffffffffffffffffffffffffffff16815260200190815260200160002060006001846117649190612d32565b63ffffffff1663ffffffff16815260200190815260200160002060000160049054906101000a90046bffffffffffffffffffffffff165b9050826bffffffffffffffffffffffff16816bffffffffffffffffffffffff16101580156117d95750612710816bffffffffffffffffffffffff1610155b611818576040517f08c379a000000000000000000000000000000000000000000000000000000000815260040161180f90613155565b60405180910390fd5b600061185a82856040518060400160405280601481526020017f766f74657320616d7420756e646572666c6f77730000000000000000000000008152506124b3565b905061186886848484611b15565b5050505b600073ffffffffffffffffffffffffffffffffffffffff168273ffffffffffffffffffffffffffffffffffffffff16146119e5576000600460008473ffffffffffffffffffffffffffffffffffffffff1673ffffffffffffffffffffffffffffffffffffffff16815260200190815260200160002060009054906101000a900463ffffffff1690506000808263ffffffff161161190a57600061198f565b600360008573ffffffffffffffffffffffffffffffffffffffff1673ffffffffffffffffffffffffffffffffffffffff16815260200190815260200160002060006001846119589190612d32565b63ffffffff1663ffffffff16815260200190815260200160002060000160049054906101000a90046bffffffffffffffffffffffff165b905060006119d382856040518060400160405280601381526020017f766f74657320616d74206f766572666c6f77730000000000000000000000000081525061253a565b90506119e185848484611b15565b5050505b5b505050565b6000600560008473ffffffffffffffffffffffffffffffffffffffff1673ffffffffffffffffffffffffffffffffffffffff16815260200190815260200160002060008373ffffffffffffffffffffffffffffffffffffffff1673ffffffffffffffffffffffffffffffffffffffff16815260200190815260200160002060009054906101000a90046bffffffffffffffffffffffff166bffffffffffffffffffffffff16905092915050565b7fe48329057bfd03d55e49b547132e39cffd9c1820ad7b9d4c5307691425d15adf81565b6003602052816000526040600020602052806000526040600020600091509150508060000160009054906101000a900463ffffffff16908060000160049054906101000a90046bffffffffffffffffffffffff16905082565b6000611b56436040518060400160405280601c81526020017f626c6f636b206e756d62657220657863656564732033322062697473000000008152506125b9565b905060008463ffffffff16118015611bf457508063ffffffff16600360008773ffffffffffffffffffffffffffffffffffffffff1673ffffffffffffffffffffffffffffffffffffffff1681526020019081526020016000206000600187611bbe9190612d32565b63ffffffff1663ffffffff16815260200190815260200160002060000160009054906101000a900463ffffffff1663ffffffff16145b15611c985781600360008773ffffffffffffffffffffffffffffffffffffffff1673ffffffffffffffffffffffffffffffffffffffff1681526020019081526020016000206000600187611c489190612d32565b63ffffffff1663ffffffff16815260200190815260200160002060000160046101000a8154816bffffffffffffffffffffffff02191690836bffffffffffffffffffffffff160217905550612002565b60008463ffffffff16118015611d3457508063ffffffff16600360008773ffffffffffffffffffffffffffffffffffffffff1673ffffffffffffffffffffffffffffffffffffffff1681526020019081526020016000206000600187611cfe9190612d32565b63ffffffff1663ffffffff16815260200190815260200160002060000160009054906101000a900463ffffffff1663ffffffff16105b15611eb15760405180604001604052808263ffffffff168152602001600360008873ffffffffffffffffffffffffffffffffffffffff1673ffffffffffffffffffffffffffffffffffffffff1681526020019081526020016000206000600188611d9e9190612d32565b63ffffffff1663ffffffff16815260200190815260200160002060000160049054906101000a90046bffffffffffffffffffffffff166bffffffffffffffffffffffff16815250600360008773ffffffffffffffffffffffffffffffffffffffff1673ffffffffffffffffffffffffffffffffffffffff16815260200190815260200160002060008663ffffffff1663ffffffff16815260200190815260200160002060008201518160000160006101000a81548163ffffffff021916908363ffffffff16021790555060208201518160000160046101000a8154816bffffffffffffffffffffffff02191690836bffffffffffffffffffffffff1602179055509050508380611ead90613175565b9450505b60405180604001604052808263ffffffff168152602001836bffffffffffffffffffffffff16815250600360008773ffffffffffffffffffffffffffffffffffffffff1673ffffffffffffffffffffffffffffffffffffffff16815260200190815260200160002060008663ffffffff1663ffffffff16815260200190815260200160002060008201518160000160006101000a81548163ffffffff021916908363ffffffff16021790555060208201518160000160046101000a8154816bffffffffffffffffffffffff02191690836bffffffffffffffffffffffff160217905550905050600184611fa491906131a1565b600460008773ffffffffffffffffffffffffffffffffffffffff1673ffffffffffffffffffffffffffffffffffffffff16815260200190815260200160002060006101000a81548163ffffffff021916908363ffffffff1602179055505b8473ffffffffffffffffffffffffffffffffffffffff167fdec2bacdd2f05b59de34da9b523dff8be42e5e38e818c82fdb0bae774387a724848460405161204a9291906131d9565b60405180910390a25050505050565b600073ffffffffffffffffffffffffffffffffffffffff168373ffffffffffffffffffffffffffffffffffffffff16036120c8576040517f08c379a00000000000000000000000000000000000000000000000000000000081526004016120bf9061324e565b60405180910390fd5b600073ffffffffffffffffffffffffffffffffffffffff168273ffffffffffffffffffffffffffffffffffffffff1603612137576040517f08c379a000000000000000000000000000000000000000000000000000000000815260040161212e906132ba565b60405180910390fd5b6121b1600160008573ffffffffffffffffffffffffffffffffffffffff1673ffffffffffffffffffffffffffffffffffffffff16815260200190815260200160002060009054906101000a90046bffffffffffffffffffffffff1682604051806060016040528060218152602001613384602191396124b3565b600160008573ffffffffffffffffffffffffffffffffffffffff1673ffffffffffffffffffffffffffffffffffffffff16815260200190815260200160002060006101000a8154816bffffffffffffffffffffffff02191690836bffffffffffffffffffffffff1602179055506122b5600160008473ffffffffffffffffffffffffffffffffffffffff1673ffffffffffffffffffffffffffffffffffffffff16815260200190815260200160002060009054906101000a90046bffffffffffffffffffffffff16826040518060400160405280601981526020017f7472616e7366657220616d6f756e74206f766572666c6f77730000000000000081525061253a565b600160008473ffffffffffffffffffffffffffffffffffffffff1673ffffffffffffffffffffffffffffffffffffffff16815260200190815260200160002060006101000a8154816bffffffffffffffffffffffff02191690836bffffffffffffffffffffffff1602179055508173ffffffffffffffffffffffffffffffffffffffff168373ffffffffffffffffffffffffffffffffffffffff167fddf252ad1be2c89b69c2b068fc378daa952ba7f163c4a11628f55a4df523b3ef8360405161237f9190612c56565b60405180910390a3612450600260008573ffffffffffffffffffffffffffffffffffffffff1673ffffffffffffffffffffffffffffffffffffffff16815260200190815260200160002060009054906101000a900473ffffffffffffffffffffffffffffffffffffffff16600260008573ffffffffffffffffffffffffffffffffffffffff1673ffffffffffffffffffffffffffffffffffffffff16815260200190815260200160002060009054906101000a900473ffffffffffffffffffffffffffffffffffffffff1683611629565b505050565b60006c01000000000000000000000000831082906124a9576040517f08c379a00000000000000000000000000000000000000000000000000000000081526004016124a0919061269f565b60405180910390fd5b5082905092915050565b6000836bffffffffffffffffffffffff16836bffffffffffffffffffffffff1611158290612517576040517f08c379a000000000000000000000000000000000000000000000000000000000815260040161250e919061269f565b60405180910390fd5b50828461252491906132da565b90509392505050565b6000804690508091505090565b6000808385612549919061331a565b9050836bffffffffffffffffffffffff16816bffffffffffffffffffffffff16101583906125ad576040517f08c379a00000000000000000000000000000000000000000000000000000000081526004016125a4919061269f565b60405180910390fd5b50809150509392505050565b600064010000000083108290612605576040517f08c379a00000000000000000000000000000000000000000000000000000000081526004016125fc919061269f565b60405180910390fd5b5082905092915050565b600081519050919050565b600082825260208201905092915050565b60005b8381101561264957808201518184015260208101905061262e565b60008484015250505050565b6000601f19601f8301169050919050565b60006126718261260f565b61267b818561261a565b935061268b81856020860161262b565b61269481612655565b840191505092915050565b600060208201905081810360008301526126b98184612666565b905092915050565b600080fd5b600073ffffffffffffffffffffffffffffffffffffffff82169050919050565b60006126f1826126c6565b9050919050565b612701816126e6565b811461270c57600080fd5b50565b60008135905061271e816126f8565b92915050565b6000819050919050565b61273781612724565b811461274257600080fd5b50565b6000813590506127548161272e565b92915050565b60008060408385031215612771576127706126c1565b5b600061277f8582860161270f565b925050602061279085828601612745565b9150509250929050565b60008115159050919050565b6127af8161279a565b82525050565b60006020820190506127ca60008301846127a6565b92915050565b6127d981612724565b82525050565b60006020820190506127f460008301846127d0565b92915050565b6000819050919050565b61280d816127fa565b82525050565b60006020820190506128286000830184612804565b92915050565b600060208284031215612844576128436126c1565b5b60006128528482850161270f565b91505092915050565b612864816126e6565b82525050565b600060208201905061287f600083018461285b565b92915050565b600063ffffffff82169050919050565b61289e81612885565b82525050565b60006020820190506128b96000830184612895565b92915050565b60006bffffffffffffffffffffffff82169050919050565b6128e0816128bf565b82525050565b60006020820190506128fb60008301846128d7565b92915050565b600060208284031215612917576129166126c1565b5b600061292584828501612745565b91505092915050565b612937816128bf565b811461294257600080fd5b50565b6000813590506129548161292e565b92915050565b600080600060608486031215612973576129726126c1565b5b60006129818682870161270f565b93505060206129928682870161270f565b92505060406129a386828701612945565b9150509250925092565b600080604083850312156129c4576129c36126c1565b5b60006129d28582860161270f565b92505060206129e385828601612945565b9150509250929050565b60008060408385031215612a0457612a036126c1565b5b6000612a128582860161270f565b9250506020612a238582860161270f565b9150509250929050565b600060ff82169050919050565b612a4381612a2d565b8114612a4e57600080fd5b50565b600081359050612a6081612a3a565b92915050565b612a6f816127fa565b8114612a7a57600080fd5b50565b600081359050612a8c81612a66565b92915050565b60008060008060008060c08789031215612aaf57612aae6126c1565b5b6000612abd89828a0161270f565b9650506020612ace89828a01612745565b9550506040612adf89828a01612745565b9450506060612af089828a01612a51565b9350506080612b0189828a01612a7d565b92505060a0612b1289828a01612a7d565b9150509295509295509295565b612b2881612885565b8114612b3357600080fd5b50565b600081359050612b4581612b1f565b92915050565b60008060408385031215612b6257612b616126c1565b5b6000612b708582860161270f565b9250506020612b8185828601612b36565b9150509250929050565b6000604082019050612ba06000830185612895565b612bad60208301846128d7565b9392505050565b60008060008060808587031215612bce57612bcd6126c1565b5b6000612bdc8782880161270f565b9450506020612bed87828801612b36565b9350506040612bfe87828801612945565b9250506060612c0f87828801612945565b91505092959194509250565b6000819050919050565b6000612c40612c3b612c36846128bf565b612c1b565b612724565b9050919050565b612c5081612c25565b82525050565b6000602082019050612c6b6000830184612c47565b92915050565b7f6765745072696f72566f7465733a206e6f74207965742064657465726d696e6560008201527f6400000000000000000000000000000000000000000000000000000000000000602082015250565b6000612ccd60218361261a565b9150612cd882612c71565b604082019050919050565b60006020820190508181036000830152612cfc81612cc0565b9050919050565b7f4e487b7100000000000000000000000000000000000000000000000000000000600052601160045260246000fd5b6000612d3d82612885565b9150612d4883612885565b9250828203905063ffffffff811115612d6457612d63612d03565b5b92915050565b7f4e487b7100000000000000000000000000000000000000000000000000000000600052601260045260246000fd5b6000612da482612885565b9150612daf83612885565b925082612dbf57612dbe612d6a565b5b828204905092915050565b6000608082019050612ddf6000830187612804565b612dec6020830186612804565b612df960408301856127d0565b612e06606083018461285b565b95945050505050565b6000608082019050612e246000830187612804565b612e31602083018661285b565b612e3e60408301856127d0565b612e4b60608301846127d0565b95945050505050565b600081905092915050565b7f1901000000000000000000000000000000000000000000000000000000000000600082015250565b6000612e95600283612e54565b9150612ea082612e5f565b600282019050919050565b6000819050919050565b612ec6612ec1826127fa565b612eab565b82525050565b6000612ed782612e88565b9150612ee38285612eb5565b602082019150612ef38284612eb5565b6020820191508190509392505050565b612f0c81612a2d565b82525050565b6000608082019050612f276000830187612804565b612f346020830186612f03565b612f416040830185612804565b612f4e6060830184612804565b95945050505050565b7f696e76616c6964207369676e6174757265000000000000000000000000000000600082015250565b6000612f8d60118361261a565b9150612f9882612f57565b602082019050919050565b60006020820190508181036000830152612fbc81612f80565b9050919050565b6000612fce82612724565b91507fffffffffffffffffffffffffffffffffffffffffffffffffffffffffffffffff820361300057612fff612d03565b5b600182019050919050565b7f696e76616c6964206e6f6e636500000000000000000000000000000000000000600082015250565b6000613041600d8361261a565b915061304c8261300b565b602082019050919050565b6000602082019050818103600083015261307081613034565b9050919050565b7f7369676e61747572652065787069726564000000000000000000000000000000600082015250565b60006130ad60118361261a565b91506130b882613077565b602082019050919050565b600060208201905081810360008301526130dc816130a0565b9050919050565b7f496e73756666696369656e7420766f74696e6720706f776572206f722062616c60008201527f616e636500000000000000000000000000000000000000000000000000000000602082015250565b600061313f60248361261a565b915061314a826130e3565b604082019050919050565b6000602082019050818103600083015261316e81613132565b9050919050565b600061318082612885565b915063ffffffff820361319657613195612d03565b5b600182019050919050565b60006131ac82612885565b91506131b783612885565b9250828201905063ffffffff8111156131d3576131d2612d03565b5b92915050565b60006040820190506131ee6000830185612c47565b6131fb6020830184612c47565b9392505050565b7f63616e6e6f74207472616e736665722066726f6d203020616464726573730000600082015250565b6000613238601e8361261a565b915061324382613202565b602082019050919050565b600060208201905081810360008301526132678161322b565b9050919050565b7f63616e6e6f74207472616e7366657220746f2030206164647265737300000000600082015250565b60006132a4601c8361261a565b91506132af8261326e565b602082019050919050565b600060208201905081810360008301526132d381613297565b9050919050565b60006132e5826128bf565b91506132f0836128bf565b925082820390506bffffffffffffffffffffffff81111561331457613313612d03565b5b92915050565b6000613325826128bf565b9150613330836128bf565b925082820190506bffffffffffffffffffffffff81111561335457613353612d03565b5b9291505056fe7472616e7366657220616d6f756e742065786365656473207370656e64657220616c6c6f77616e63657472616e7366657220616d74206973206d6f7265207468616e2062616c616e6365a26469706673582212207a9b8158bfaafca40193ff630198d076710f04a5f87049b72ebeae232f15295064736f6c63430008130033",
  "linkReferences": {},
  "deployedLinkReferences": {}
}