{
  "_format": "hh-sol-artifact-1",
  "contractName": "Samhita",
  "sourceName": "contracts/samhita.sol",
  "abi": [
    {
      "inputs": [
        {
          "internalType": "address",
          "name": "timelock_",
          "type": "address"
        },
        {
          "internalType": "address",
          "name": "token_",
          "type": "address"
        },
        {
          "internalType": "address",
          "name": "templateNFT_",
          "type": "address"
        },
        {
          "internalType": "string",
          "name": "_nftUri",
          "type": "string"
        }
      ],
      "stateMutability": "nonpayable",
      "type": "constructor"
    },
    {
      "anonymous": false,
      "inputs": [
        {
          "indexed": false,
          "internalType": "uint256",
          "name": "id",
          "type": "uint256"
        }
      ],
      "name": "ProposalCanceled",
      "type": "event"
    },
    {
      "anonymous": false,
      "inputs": [
        {
          "indexed": false,
          "internalType": "uint256",
          "name": "id",
          "type": "uint256"
        },
        {
          "indexed": false,
          "internalType": "address",
          "name": "proposer",
          "type": "address"
        },
        {
          "indexed": false,
          "internalType": "address[]",
          "name": "targets",
          "type": "address[]"
        },
        {
          "indexed": false,
          "internalType": "uint256[]",
          "name": "values",
          "type": "uint256[]"
        },
        {
          "indexed": false,
          "internalType": "string[]",
          "name": "signatures",
          "type": "string[]"
        },
        {
          "indexed": false,
          "internalType": "bytes[]",
          "name": "calldatas",
          "type": "bytes[]"
        },
        {
          "indexed": false,
          "internalType": "string",
          "name": "title",
          "type": "string"
        },
        {
          "indexed": false,
          "internalType": "uint256",
          "name": "startBlock",
          "type": "uint256"
        },
        {
          "indexed": false,
          "internalType": "uint256",
          "name": "endBlock",
          "type": "uint256"
        }
      ],
      "name": "ProposalCreated",
      "type": "event"
    },
    {
      "anonymous": false,
      "inputs": [
        {
          "indexed": false,
          "internalType": "uint256",
          "name": "id",
          "type": "uint256"
        }
      ],
      "name": "ProposalExecuted",
      "type": "event"
    },
    {
      "anonymous": false,
      "inputs": [
        {
          "indexed": false,
          "internalType": "uint256",
          "name": "id",
          "type": "uint256"
        },
        {
          "indexed": false,
          "internalType": "uint256",
          "name": "eta",
          "type": "uint256"
        }
      ],
      "name": "ProposalQueued",
      "type": "event"
    },
    {
      "anonymous": false,
      "inputs": [
        {
          "indexed": false,
          "internalType": "address",
          "name": "voter",
          "type": "address"
        },
        {
          "indexed": false,
          "internalType": "uint256",
          "name": "proposalId",
          "type": "uint256"
        },
        {
          "indexed": false,
          "internalType": "bool",
          "name": "support",
          "type": "bool"
        },
        {
          "indexed": false,
          "internalType": "uint256",
          "name": "votes",
          "type": "uint256"
        }
      ],
      "name": "VoteCast",
      "type": "event"
    },
    {
      "inputs": [
        {
          "internalType": "uint96",
          "name": "_tokens",
          "type": "uint96"
        }
      ],
      "name": "addMember",
      "outputs": [],
      "stateMutability": "payable",
      "type": "function"
    },
    {
      "inputs": [
        {
          "internalType": "uint256",
          "name": "_proposalId",
          "type": "uint256"
        }
      ],
      "name": "cancel",
      "outputs": [],
      "stateMutability": "nonpayable",
      "type": "function"
    },
    {
      "inputs": [
        {
          "internalType": "uint256",
          "name": "_proposalId",
          "type": "uint256"
        },
        {
          "internalType": "bool",
          "name": "support",
          "type": "bool"
        }
      ],
      "name": "castVote",
      "outputs": [],
      "stateMutability": "nonpayable",
      "type": "function"
    },
    {
      "inputs": [
        {
          "internalType": "string",
          "name": "_nftUri",
          "type": "string"
        }
      ],
      "name": "claimMemberNft",
      "outputs": [],
      "stateMutability": "nonpayable",
      "type": "function"
    },
    {
      "inputs": [
        {
          "internalType": "uint256",
          "name": "_proposalId",
          "type": "uint256"
        }
      ],
      "name": "execute",
      "outputs": [],
      "stateMutability": "payable",
      "type": "function"
    },
    {
      "inputs": [
        {
          "internalType": "uint256",
          "name": "proposalId",
          "type": "uint256"
        }
      ],
      "name": "getForVotes",
      "outputs": [
        {
          "internalType": "uint256",
          "name": "",
          "type": "uint256"
        }
      ],
      "stateMutability": "view",
      "type": "function"
    },
    {
      "inputs": [],
      "name": "guardian",
      "outputs": [
        {
          "internalType": "address",
          "name": "",
          "type": "address"
        }
      ],
      "stateMutability": "view",
      "type": "function"
    },
    {
      "inputs": [
        {
          "internalType": "address",
          "name": "",
          "type": "address"
        }
      ],
      "name": "isMemberAdded",
      "outputs": [
        {
          "internalType": "bool",
          "name": "",
          "type": "bool"
        }
      ],
      "stateMutability": "view",
      "type": "function"
    },
    {
      "inputs": [
        {
          "internalType": "address",
          "name": "",
          "type": "address"
        }
      ],
      "name": "latestProposalIds",
      "outputs": [
        {
          "internalType": "uint256",
          "name": "",
          "type": "uint256"
        }
      ],
      "stateMutability": "view",
      "type": "function"
    },
    {
      "inputs": [
        {
          "internalType": "address",
          "name": "",
          "type": "address"
        }
      ],
      "name": "memberProposals",
      "outputs": [
        {
          "internalType": "uint256",
          "name": "",
          "type": "uint256"
        }
      ],
      "stateMutability": "view",
      "type": "function"
    },
    {
      "inputs": [
        {
          "internalType": "address",
          "name": "",
          "type": "address"
        }
      ],
      "name": "memberVotes",
      "outputs": [
        {
          "internalType": "uint256",
          "name": "",
          "type": "uint256"
        }
      ],
      "stateMutability": "view",
      "type": "function"
    },
    {
      "inputs": [
        {
          "internalType": "address",
          "name": "",
          "type": "address"
        }
      ],
      "name": "memberWithdrawAmount",
      "outputs": [
        {
          "internalType": "uint256",
          "name": "",
          "type": "uint256"
        }
      ],
      "stateMutability": "view",
      "type": "function"
    },
    {
      "inputs": [],
      "name": "name",
      "outputs": [
        {
          "internalType": "string",
          "name": "",
          "type": "string"
        }
      ],
      "stateMutability": "view",
      "type": "function"
    },
    {
      "inputs": [],
      "name": "proposalCount",
      "outputs": [
        {
          "internalType": "uint256",
          "name": "",
          "type": "uint256"
        }
      ],
      "stateMutability": "view",
      "type": "function"
    },
    {
      "inputs": [],
      "name": "proposalMaxOperations",
      "outputs": [
        {
          "internalType": "uint256",
          "name": "",
          "type": "uint256"
        }
      ],
      "stateMutability": "pure",
      "type": "function"
    },
    {
      "inputs": [
        {
          "internalType": "uint256",
          "name": "",
          "type": "uint256"
        },
        {
          "internalType": "address",
          "name": "",
          "type": "address"
        }
      ],
      "name": "proposalReceipts",
      "outputs": [
        {
          "internalType": "bool",
          "name": "hasVoted",
          "type": "bool"
        },
        {
          "internalType": "bool",
          "name": "support",
          "type": "bool"
        },
        {
          "internalType": "uint96",
          "name": "votes",
          "type": "uint96"
        }
      ],
      "stateMutability": "view",
      "type": "function"
    },
    {
      "inputs": [],
      "name": "proposalStake",
      "outputs": [
        {
          "internalType": "uint96",
          "name": "",
          "type": "uint96"
        }
      ],
      "stateMutability": "view",
      "type": "function"
    },
    {
      "inputs": [],
      "name": "proposalThreshold",
      "outputs": [
        {
          "internalType": "uint256",
          "name": "",
          "type": "uint256"
        }
      ],
      "stateMutability": "pure",
      "type": "function"
    },
    {
      "inputs": [
        {
          "internalType": "uint256",
          "name": "",
          "type": "uint256"
        }
      ],
      "name": "proposalToNFTOwner",
      "outputs": [
        {
          "internalType": "address",
          "name": "",
          "type": "address"
        }
      ],
      "stateMutability": "view",
      "type": "function"
    },
    {
      "inputs": [
        {
          "internalType": "uint256",
          "name": "",
          "type": "uint256"
        }
      ],
      "name": "proposals",
      "outputs": [
        {
          "internalType": "uint256",
          "name": "id",
          "type": "uint256"
        },
        {
          "internalType": "uint256",
          "name": "eta",
          "type": "uint256"
        },
        {
          "internalType": "uint256",
          "name": "startBlock",
          "type": "uint256"
        },
        {
          "internalType": "uint256",
          "name": "endBlock",
          "type": "uint256"
        },
        {
          "internalType": "address",
          "name": "creator",
          "type": "address"
        },
        {
          "internalType": "bool",
          "name": "cancel",
          "type": "bool"
        },
        {
          "internalType": "bool",
          "name": "executed",
          "type": "bool"
        }
      ],
      "stateMutability": "view",
      "type": "function"
    },
    {
      "inputs": [
        {
          "internalType": "uint256",
          "name": "",
          "type": "uint256"
        }
      ],
      "name": "proposalsBasicData",
      "outputs": [
        {
          "internalType": "uint256",
          "name": "id",
          "type": "uint256"
        },
        {
          "internalType": "address",
          "name": "creator",
          "type": "address"
        },
        {
          "internalType": "uint256",
          "name": "forVotes",
          "type": "uint256"
        },
        {
          "internalType": "uint256",
          "name": "againstVotes",
          "type": "uint256"
        },
        {
          "internalType": "string",
          "name": "title",
          "type": "string"
        },
        {
          "internalType": "string",
          "name": "description",
          "type": "string"
        },
        {
          "internalType": "string",
          "name": "proposalFile",
          "type": "string"
        },
        {
          "internalType": "string",
          "name": "category",
          "type": "string"
        },
        {
          "internalType": "bool",
          "name": "isScrape",
          "type": "bool"
        }
      ],
      "stateMutability": "view",
      "type": "function"
    },
    {
      "inputs": [
        {
          "internalType": "address[]",
          "name": "targets",
          "type": "address[]"
        },
        {
          "internalType": "uint256[]",
          "name": "values",
          "type": "uint256[]"
        },
        {
          "internalType": "string[]",
          "name": "signatures",
          "type": "string[]"
        },
        {
          "internalType": "bytes[]",
          "name": "calldatas",
          "type": "bytes[]"
        },
        {
          "internalType": "string",
          "name": "title",
          "type": "string"
        },
        {
          "internalType": "string",
          "name": "description",
          "type": "string"
        },
        {
          "internalType": "string",
          "name": "proposalFile",
          "type": "string"
        },
        {
          "internalType": "string",
          "name": "category",
          "type": "string"
        },
        {
          "internalType": "bool",
          "name": "_isScrape",
          "type": "bool"
        }
      ],
      "name": "propose",
      "outputs": [
        {
          "internalType": "uint256",
          "name": "",
          "type": "uint256"
        }
      ],
      "stateMutability": "payable",
      "type": "function"
    },
    {
      "inputs": [
        {
          "internalType": "uint256",
          "name": "_proposalId",
          "type": "uint256"
        }
      ],
      "name": "queue",
      "outputs": [],
      "stateMutability": "nonpayable",
      "type": "function"
    },
    {
      "inputs": [],
      "name": "quorumVotes",
      "outputs": [
        {
          "internalType": "uint256",
          "name": "",
          "type": "uint256"
        }
      ],
      "stateMutability": "pure",
      "type": "function"
    },
    {
      "inputs": [
        {
          "internalType": "address",
          "name": "",
          "type": "address"
        }
      ],
      "name": "receivedMemberNFT",
      "outputs": [
        {
          "internalType": "bool",
          "name": "",
          "type": "bool"
        }
      ],
      "stateMutability": "view",
      "type": "function"
    },
    {
      "inputs": [
        {
          "internalType": "uint256",
          "name": "_proposalId",
          "type": "uint256"
        }
      ],
      "name": "state",
      "outputs": [
        {
          "internalType": "enum Samhita.ProposalState",
          "name": "",
          "type": "uint8"
        }
      ],
      "stateMutability": "view",
      "type": "function"
    },
    {
      "inputs": [],
      "name": "templateNFT",
      "outputs": [
        {
          "internalType": "contract ITemplateNFT",
          "name": "",
          "type": "address"
        }
      ],
      "stateMutability": "view",
      "type": "function"
    },
    {
      "inputs": [],
      "name": "timelock",
      "outputs": [
        {
          "internalType": "contract ITimelock",
          "name": "",
          "type": "address"
        }
      ],
      "stateMutability": "view",
      "type": "function"
    },
    {
      "inputs": [],
      "name": "token",
      "outputs": [
        {
          "internalType": "contract ISamhitaToken",
          "name": "",
          "type": "address"
        }
      ],
      "stateMutability": "view",
      "type": "function"
    },
    {
      "inputs": [],
      "name": "votingDelay",
      "outputs": [
        {
          "internalType": "uint256",
          "name": "",
          "type": "uint256"
        }
      ],
      "stateMutability": "pure",
      "type": "function"
    },
    {
      "inputs": [],
      "name": "votingPeriod",
      "outputs": [
        {
          "internalType": "uint256",
          "name": "",
          "type": "uint256"
        }
      ],
      "stateMutability": "pure",
      "type": "function"
    }
  ],
  "bytecode": "0x6080604052674563918244f40000601060006101000a8154816bffffffffffffffffffffffff02191690836bffffffffffffffffffffffff160217905550600a6010600c6101000a8154816bffffffffffffffffffffffff02191690836bffffffffffffffffffffffff1602179055503480156200007c57600080fd5b506040516200633f3803806200633f8339818101604052810190620000a291906200043a565b836000806101000a81548173ffffffffffffffffffffffffffffffffffffffff021916908373ffffffffffffffffffffffffffffffffffffffff16021790555082600160006101000a81548173ffffffffffffffffffffffffffffffffffffffff021916908373ffffffffffffffffffffffffffffffffffffffff16021790555081600260006101000a81548173ffffffffffffffffffffffffffffffffffffffff021916908373ffffffffffffffffffffffffffffffffffffffff16021790555033600460006101000a81548173ffffffffffffffffffffffffffffffffffffffff021916908373ffffffffffffffffffffffffffffffffffffffff160217905550600260009054906101000a900473ffffffffffffffffffffffffffffffffffffffff1673ffffffffffffffffffffffffffffffffffffffff16638c85826633836040518363ffffffff1660e01b81526004016200020492919062000539565b600060405180830381600087803b1580156200021f57600080fd5b505af115801562000234573d6000803e3d6000fd5b50505050505050506200056d565b6000604051905090565b600080fd5b600080fd5b600073ffffffffffffffffffffffffffffffffffffffff82169050919050565b6000620002838262000256565b9050919050565b620002958162000276565b8114620002a157600080fd5b50565b600081519050620002b5816200028a565b92915050565b600080fd5b600080fd5b6000601f19601f8301169050919050565b7f4e487b7100000000000000000000000000000000000000000000000000000000600052604160045260246000fd5b6200031082620002c5565b810181811067ffffffffffffffff82111715620003325762000331620002d6565b5b80604052505050565b60006200034762000242565b905062000355828262000305565b919050565b600067ffffffffffffffff821115620003785762000377620002d6565b5b6200038382620002c5565b9050602081019050919050565b60005b83811015620003b057808201518184015260208101905062000393565b60008484015250505050565b6000620003d3620003cd846200035a565b6200033b565b905082815260208101848484011115620003f257620003f1620002c0565b5b620003ff84828562000390565b509392505050565b600082601f8301126200041f576200041e620002bb565b5b815162000431848260208601620003bc565b91505092915050565b600080600080608085870312156200045757620004566200024c565b5b60006200046787828801620002a4565b94505060206200047a87828801620002a4565b93505060406200048d87828801620002a4565b925050606085015167ffffffffffffffff811115620004b157620004b062000251565b5b620004bf8782880162000407565b91505092959194509250565b620004d68162000276565b82525050565b600081519050919050565b600082825260208201905092915050565b60006200050582620004dc565b620005118185620004e7565b93506200052381856020860162000390565b6200052e81620002c5565b840191505092915050565b6000604082019050620005506000830185620004cb565b8181036020830152620005648184620004f8565b90509392505050565b615dc2806200057d6000396000f3fe6080604052600436106101d85760003560e01c80636ef6c66d11610102578063d33219b411610095578063e7a4556e11610064578063e7a4556e1461071d578063f646a92c1461074d578063fc0c546a14610792578063fe0d94c1146107bd576101d8565b8063d33219b414610661578063da35c6641461068c578063ddf0b009146106b7578063de0b27e5146106e0576101d8565b8063c377a0c5116100d1578063c377a0c51461058e578063c3c79d85146105cb578063c863b48e146105e7578063cd88717614610624576101d8565b80636ef6c66d146104e25780637bdbe4d01461050d57806388fde90a14610538578063b58131b014610563576101d8565b8063392317cd1161017a578063452a932011610149578063452a9320146104125780634a7fdf2d1461043d5780634a9f914e1461046657806366176743146104a3576101d8565b8063392317cd146103445780633932abb1146103815780633e4f49e6146103ac57806340e58ee5146103e9576101d8565b806308006a15116101b657806308006a151461027657806315373e3d146102b357806317977c61146102dc57806324bc1a6414610319576101d8565b8063013cf08b146101dd57806302a251a31461022057806306fdde031461024b575b600080fd5b3480156101e957600080fd5b5061020460048036038101906101ff91906134fd565b6107d9565b6040516102179796959493929190613595565b60405180910390f35b34801561022c57600080fd5b50610235610855565b6040516102429190613604565b60405180910390f35b34801561025757600080fd5b5061026061085e565b60405161026d91906136af565b60405180910390f35b34801561028257600080fd5b5061029d600480360381019061029891906136fd565b610897565b6040516102aa9190613604565b60405180910390f35b3480156102bf57600080fd5b506102da60048036038101906102d59190613756565b6108af565b005b3480156102e857600080fd5b5061030360048036038101906102fe91906136fd565b6108be565b6040516103109190613604565b60405180910390f35b34801561032557600080fd5b5061032e6108d6565b60405161033b9190613604565b60405180910390f35b34801561035057600080fd5b5061036b600480360381019061036691906136fd565b6108df565b6040516103789190613604565b60405180910390f35b34801561038d57600080fd5b506103966108f7565b6040516103a39190613604565b60405180910390f35b3480156103b857600080fd5b506103d360048036038101906103ce91906134fd565b610900565b6040516103e0919061380d565b60405180910390f35b3480156103f557600080fd5b50610410600480360381019061040b91906134fd565b610b09565b005b34801561041e57600080fd5b50610427610ebb565b6040516104349190613828565b60405180910390f35b34801561044957600080fd5b50610464600480360381019061045f9190613978565b610ee1565b005b34801561047257600080fd5b5061048d600480360381019061048891906136fd565b6110ba565b60405161049a9190613604565b60405180910390f35b3480156104af57600080fd5b506104ca60048036038101906104c591906139c1565b6110d2565b6040516104d993929190613a28565b60405180910390f35b3480156104ee57600080fd5b506104f761113b565b6040516105049190613a5f565b60405180910390f35b34801561051957600080fd5b50610522611159565b60405161052f9190613604565b60405180910390f35b34801561054457600080fd5b5061054d611162565b60405161055a9190613ad9565b60405180910390f35b34801561056f57600080fd5b50610578611188565b6040516105859190613604565b60405180910390f35b34801561059a57600080fd5b506105b560048036038101906105b091906136fd565b611191565b6040516105c29190613af4565b60405180910390f35b6105e560048036038101906105e09190613b3b565b6111b1565b005b3480156105f357600080fd5b5061060e600480360381019061060991906134fd565b6115b2565b60405161061b9190613604565b60405180910390f35b34801561063057600080fd5b5061064b600480360381019061064691906134fd565b611641565b6040516106589190613828565b60405180910390f35b34801561066d57600080fd5b50610676611674565b6040516106839190613b89565b60405180910390f35b34801561069857600080fd5b506106a1611698565b6040516106ae9190613604565b60405180910390f35b3480156106c357600080fd5b506106de60048036038101906106d991906134fd565b61169e565b005b3480156106ec57600080fd5b50610707600480360381019061070291906136fd565b611d5a565b6040516107149190613af4565b60405180910390f35b61073760048036038101906107329190613f92565b611d7a565b6040516107449190613604565b60405180910390f35b34801561075957600080fd5b50610774600480360381019061076f91906134fd565b6125be565b6040516107899998979695949392919061413c565b60405180910390f35b34801561079e57600080fd5b506107a7612859565b6040516107b49190614206565b60405180910390f35b6107d760048036038101906107d291906134fd565b61287f565b005b60066020528060005260406000206000915090508060000154908060010154908060020154908060030154908060040160009054906101000a900473ffffffffffffffffffffffffffffffffffffffff16908060090160009054906101000a900460ff16908060090160019054906101000a900460ff16905087565b60006028905090565b6040518060400160405280600781526020017f53616d686974610000000000000000000000000000000000000000000000000081525081565b600d6020528060005260406000206000915090505481565b6108ba338383612aea565b5050565b60086020528060005260406000206000915090505481565b60006028905090565b60096020528060005260406000206000915090505481565b60006001905090565b600081600354101580156109145750600082115b610953576040517f08c379a000000000000000000000000000000000000000000000000000000000815260040161094a9061426d565b60405180910390fd5b60006006600084815260200190815260200160002090508060090160009054906101000a900460ff161561098b576002915050610b04565b806002015443116109a0576000915050610b04565b806003015443116109b5576001915050610b04565b60076000848152602001908152602001600020600301546007600085815260200190815260200160002060020154111580610a0c57506109f36108d6565b6007600085815260200190815260200160002060020154105b15610a1b576003915050610b04565b6000816001015403610a31576004915050610b04565b8060090160019054906101000a900460ff1615610a52576007915050610b04565b610aee816001015460008054906101000a900473ffffffffffffffffffffffffffffffffffffffff1673ffffffffffffffffffffffffffffffffffffffff1663c1a287e26040518163ffffffff1660e01b8152600401602060405180830381865afa158015610ac5573d6000803e3d6000fd5b505050506040513d601f19601f82011682018060405250810190610ae991906142a2565b612e66565b4210610afe576006915050610b04565b60059150505b919050565b600780811115610b1c57610b1b613796565b5b610b2582610900565b6007811115610b3757610b36613796565b5b03610b77576040517f08c379a0000000000000000000000000000000000000000000000000000000008152600401610b6e9061431b565b60405180910390fd5b6000600660008381526020019081526020016000209050600460009054906101000a900473ffffffffffffffffffffffffffffffffffffffff1673ffffffffffffffffffffffffffffffffffffffff163373ffffffffffffffffffffffffffffffffffffffff161480610cc95750610bed611188565b600160009054906101000a900473ffffffffffffffffffffffffffffffffffffffff1673ffffffffffffffffffffffffffffffffffffffff1663782d6fe18360040160009054906101000a900473ffffffffffffffffffffffffffffffffffffffff16610c5b436001612ec4565b6040518363ffffffff1660e01b8152600401610c7892919061433b565b602060405180830381865afa158015610c95573d6000803e3d6000fd5b505050506040513d601f19601f82011682018060405250810190610cb99190614379565b6bffffffffffffffffffffffff16105b610d08576040517f08c379a0000000000000000000000000000000000000000000000000000000008152600401610cff906143f2565b60405180910390fd5b60018160090160006101000a81548160ff02191690831515021790555060005b8160050180549050811015610e7f5760008054906101000a900473ffffffffffffffffffffffffffffffffffffffff1673ffffffffffffffffffffffffffffffffffffffff1663591fcdfe836005018381548110610d8957610d88614412565b5b9060005260206000200160009054906101000a900473ffffffffffffffffffffffffffffffffffffffff16846006018481548110610dca57610dc9614412565b5b9060005260206000200154856007018581548110610deb57610dea614412565b5b90600052602060002001866008018681548110610e0b57610e0a614412565b5b9060005260206000200187600101546040518663ffffffff1660e01b8152600401610e3a9594939291906145e4565b600060405180830381600087803b158015610e5457600080fd5b505af1158015610e68573d6000803e3d6000fd5b505050508080610e7790614674565b915050610d28565b507f789cf55be980739dad1d0699b93b58e806b51c9d96619bfa8fe0a28abaa7b30c82604051610eaf9190613604565b60405180910390a15050565b600460009054906101000a900473ffffffffffffffffffffffffffffffffffffffff1681565b60001515600b60003373ffffffffffffffffffffffffffffffffffffffff1673ffffffffffffffffffffffffffffffffffffffff16815260200190815260200160002060009054906101000a900460ff161515036110b7576002600d60003373ffffffffffffffffffffffffffffffffffffffff1673ffffffffffffffffffffffffffffffffffffffff1681526020019081526020016000205410158015610fc957506005600c60003373ffffffffffffffffffffffffffffffffffffffff1673ffffffffffffffffffffffffffffffffffffffff1681526020019081526020016000205410155b156110b657600260009054906101000a900473ffffffffffffffffffffffffffffffffffffffff1673ffffffffffffffffffffffffffffffffffffffff1663858f1e9233836040518363ffffffff1660e01b815260040161102b9291906146bc565b600060405180830381600087803b15801561104557600080fd5b505af1158015611059573d6000803e3d6000fd5b505050506001600b60003373ffffffffffffffffffffffffffffffffffffffff1673ffffffffffffffffffffffffffffffffffffffff16815260200190815260200160002060006101000a81548160ff0219169083151502179055505b5b50565b600c6020528060005260406000206000915090505481565b6005602052816000526040600020602052806000526040600020600091509150508060000160009054906101000a900460ff16908060000160019054906101000a900460ff16908060000160029054906101000a90046bffffffffffffffffffffffff16905083565b601060009054906101000a90046bffffffffffffffffffffffff1681565b6000600a905090565b600260009054906101000a900473ffffffffffffffffffffffffffffffffffffffff1681565b6000600a905090565b600b6020528060005260406000206000915054906101000a900460ff1681565b6010600c9054906101000a90046bffffffffffffffffffffffff166bffffffffffffffffffffffff16816bffffffffffffffffffffffff16101561122a576040517f08c379a00000000000000000000000000000000000000000000000000000000081526004016112219061475e565b60405180910390fd5b600160009054906101000a900473ffffffffffffffffffffffffffffffffffffffff1673ffffffffffffffffffffffffffffffffffffffff16634b94f50e6040518163ffffffff1660e01b8152600401602060405180830381865afa158015611297573d6000803e3d6000fd5b505050506040513d601f19601f820116820180604052508101906112bb91906142a2565b816bffffffffffffffffffffffff166112d4919061477e565b3414611315576040517f08c379a000000000000000000000000000000000000000000000000000000000815260040161130c9061480c565b60405180910390fd5b806bffffffffffffffffffffffff16600160009054906101000a900473ffffffffffffffffffffffffffffffffffffffff1673ffffffffffffffffffffffffffffffffffffffff166370a08231306040518263ffffffff1660e01b815260040161137f9190613828565b602060405180830381865afa15801561139c573d6000803e3d6000fd5b505050506040513d601f19601f820116820180604052508101906113c091906142a2565b1015611401576040517f08c379a00000000000000000000000000000000000000000000000000000000081526004016113f89061489e565b60405180910390fd5b600f60003373ffffffffffffffffffffffffffffffffffffffff1673ffffffffffffffffffffffffffffffffffffffff16815260200190815260200160002060009054906101000a900460ff1661150e57600e339080600181540180825580915050600190039060005260206000200160009091909190916101000a81548173ffffffffffffffffffffffffffffffffffffffff021916908373ffffffffffffffffffffffffffffffffffffffff1602179055506001600f60003373ffffffffffffffffffffffffffffffffffffffff1673ffffffffffffffffffffffffffffffffffffffff16815260200190815260200160002060006101000a81548160ff0219169083151502179055505b600160009054906101000a900473ffffffffffffffffffffffffffffffffffffffff1673ffffffffffffffffffffffffffffffffffffffff1663a9059cbb33836040518363ffffffff1660e01b815260040161156b9291906148ef565b6020604051808303816000875af115801561158a573d6000803e3d6000fd5b505050506040513d601f19601f820116820180604052508101906115ae919061492d565b5050565b600080821180156115c557506003548211155b611604576040517f08c379a00000000000000000000000000000000000000000000000000000000081526004016115fb906149a6565b60405180910390fd5b6116236007600084815260200190815260200160002060020154612f1d565b60076000838152602001908152602001600020600201549050919050565b600a6020528060005260406000206000915054906101000a900473ffffffffffffffffffffffffffffffffffffffff1681565b60008054906101000a900473ffffffffffffffffffffffffffffffffffffffff1681565b60035481565b600460078111156116b2576116b1613796565b5b6116bb82610900565b60078111156116cd576116cc613796565b5b1461170d576040517f08c379a000000000000000000000000000000000000000000000000000000000815260040161170490614a38565b60405180910390fd5b601060009054906101000a90046bffffffffffffffffffffffff166bffffffffffffffffffffffff16600960006006600085815260200190815260200160002060040160009054906101000a900473ffffffffffffffffffffffffffffffffffffffff1673ffffffffffffffffffffffffffffffffffffffff1673ffffffffffffffffffffffffffffffffffffffff16815260200190815260200160002060008282546117ba9190614a58565b925050819055506006600082815260200190815260200160002060040160009054906101000a900473ffffffffffffffffffffffffffffffffffffffff16600a600083815260200190815260200160002060006101000a81548173ffffffffffffffffffffffffffffffffffffffff021916908373ffffffffffffffffffffffffffffffffffffffff160217905550600060066000838152602001908152602001600020905060006118fa4260008054906101000a900473ffffffffffffffffffffffffffffffffffffffff1673ffffffffffffffffffffffffffffffffffffffff16636a42b8f86040518163ffffffff1660e01b8152600401602060405180830381865afa1580156118d1573d6000803e3d6000fd5b505050506040513d601f19601f820116820180604052508101906118f591906142a2565b612e66565b905060005b8260050180549050811015611ade57611acb83600501828154811061192757611926614412565b5b9060005260206000200160009054906101000a900473ffffffffffffffffffffffffffffffffffffffff1684600601838154811061196857611967614412565b5b906000526020600020015485600701848154811061198957611988614412565b5b90600052602060002001805461199e90614470565b80601f01602080910402602001604051908101604052809291908181526020018280546119ca90614470565b8015611a175780601f106119ec57610100808354040283529160200191611a17565b820191906000526020600020905b8154815290600101906020018083116119fa57829003601f168201915b5050505050866008018581548110611a3257611a31614412565b5b906000526020600020018054611a4790614470565b80601f0160208091040260200160405190810160405280929190818152602001828054611a7390614470565b8015611ac05780601f10611a9557610100808354040283529160200191611ac0565b820191906000526020600020905b815481529060010190602001808311611aa357829003601f168201915b505050505086612fb6565b8080611ad690614674565b9150506118ff565b50808260010181905550600160009054906101000a900473ffffffffffffffffffffffffffffffffffffffff1673ffffffffffffffffffffffffffffffffffffffff1663a9059cbb6006600086815260200190815260200160002060040160009054906101000a900473ffffffffffffffffffffffffffffffffffffffff16601060009054906101000a90046bffffffffffffffffffffffff166040518363ffffffff1660e01b8152600401611b959291906148ef565b6020604051808303816000875af1158015611bb4573d6000803e3d6000fd5b505050506040513d601f19601f82011682018060405250810190611bd8919061492d565b50604051602001611be890614ae3565b6040516020818303038152906040528051906020012060076000858152602001908152602001600020600701604051602001611c249190614b7b565b6040516020818303038152906040528051906020012003611d1c57600260009054906101000a900473ffffffffffffffffffffffffffffffffffffffff1673ffffffffffffffffffffffffffffffffffffffff1663b971043b6006600086815260200190815260200160002060040160009054906101000a900473ffffffffffffffffffffffffffffffffffffffff1660076000878152602001908152602001600020600601866040518463ffffffff1660e01b8152600401611ce993929190614b92565b600060405180830381600087803b158015611d0357600080fd5b505af1158015611d17573d6000803e3d6000fd5b505050505b7f9a2e42fd6722813d69113e7d0079d3d940171428df7373df9c7f7617cfda28928382604051611d4d929190614bd0565b60405180910390a1505050565b600f6020528060005260406000206000915054906101000a900460ff1681565b6000600f60003373ffffffffffffffffffffffffffffffffffffffff1673ffffffffffffffffffffffffffffffffffffffff16815260200190815260200160002060009054906101000a900460ff16611e08576040517f08c379a0000000000000000000000000000000000000000000000000000000008152600401611dff90614c6b565b60405180910390fd5b601060009054906101000a90046bffffffffffffffffffffffff166bffffffffffffffffffffffff163414611e72576040517f08c379a0000000000000000000000000000000000000000000000000000000008152600401611e6990614cfd565b60405180910390fd5b611e7a611188565b600160009054906101000a900473ffffffffffffffffffffffffffffffffffffffff1673ffffffffffffffffffffffffffffffffffffffff1663782d6fe133611ec4436001612ec4565b6040518363ffffffff1660e01b8152600401611ee192919061433b565b602060405180830381865afa158015611efe573d6000803e3d6000fd5b505050506040513d601f19601f82011682018060405250810190611f229190614379565b6bffffffffffffffffffffffff1611611f70576040517f08c379a0000000000000000000000000000000000000000000000000000000008152600401611f6790614d8f565b60405180910390fd5b88518a51148015611f82575087518a51145b8015611f8f575086518a51145b611fce576040517f08c379a0000000000000000000000000000000000000000000000000000000008152600401611fc590614e21565b60405180910390fd5b60008a5103612012576040517f08c379a000000000000000000000000000000000000000000000000000000000815260040161200990614e8d565b60405180910390fd5b61201a611159565b8a51111561205d576040517f08c379a000000000000000000000000000000000000000000000000000000000815260040161205490614ef9565b60405180910390fd5b6000600860003373ffffffffffffffffffffffffffffffffffffffff1673ffffffffffffffffffffffffffffffffffffffff168152602001908152602001600020549050600081146121865760006120b482610900565b9050600160078111156120ca576120c9613796565b5b8160078111156120dd576120dc613796565b5b0361211d576040517f08c379a000000000000000000000000000000000000000000000000000000000815260040161211490614f65565b60405180910390fd5b6000600781111561213157612130613796565b5b81600781111561214457612143613796565b5b03612184576040517f08c379a000000000000000000000000000000000000000000000000000000000815260040161217b90614ff7565b60405180910390fd5b505b6000612199436121946108f7565b612e66565b905060006121ae826121a9610855565b612e66565b9050600360008154809291906121c390614674565b91905055506040518061016001604052806003548152602001600081526020018381526020018281526020013373ffffffffffffffffffffffffffffffffffffffff1681526020018e81526020018d81526020018c81526020018b8152602001600015158152602001600015158152506006600060035481526020019081526020016000206000820151816000015560208201518160010155604082015181600201556060820151816003015560808201518160040160006101000a81548173ffffffffffffffffffffffffffffffffffffffff021916908373ffffffffffffffffffffffffffffffffffffffff16021790555060a08201518160050190805190602001906122d392919061323b565b5060c08201518160060190805190602001906122f09291906132c5565b5060e082015181600701908051906020019061230d929190613312565b5061010082015181600801908051906020019061232b92919061336b565b506101208201518160090160006101000a81548160ff0219169083151502179055506101408201518160090160016101000a81548160ff02191690831515021790555090505060405180610120016040528060035481526020013373ffffffffffffffffffffffffffffffffffffffff16815260200160008152602001600081526020018a81526020018981526020018881526020018781526020018615158152506007600060035481526020019081526020016000206000820151816000015560208201518160010160006101000a81548173ffffffffffffffffffffffffffffffffffffffff021916908373ffffffffffffffffffffffffffffffffffffffff1602179055506040820151816002015560608201518160030155608082015181600401908161245c91906151a4565b5060a082015181600501908161247291906151a4565b5060c082015181600601908161248891906151a4565b5060e082015181600701908161249e91906151a4565b506101008201518160080160006101000a81548160ff021916908315150217905550905050600354600860003373ffffffffffffffffffffffffffffffffffffffff1673ffffffffffffffffffffffffffffffffffffffff168152602001908152602001600020819055506001600d60003373ffffffffffffffffffffffffffffffffffffffff1673ffffffffffffffffffffffffffffffffffffffff16815260200190815260200160002060008282546125599190614a58565b925050819055507f9c2b0d68f5edfd1bf6158a1867aced894efcfcf77c7a7603cb571e18ce89ae76600354338f8f8f8f8f89896040516125a199989796959493929190615615565b60405180910390a160035493505050509998505050505050505050565b60076020528060005260406000206000915090508060000154908060010160009054906101000a900473ffffffffffffffffffffffffffffffffffffffff169080600201549080600301549080600401805461261990614470565b80601f016020809104026020016040519081016040528092919081815260200182805461264590614470565b80156126925780601f1061266757610100808354040283529160200191612692565b820191906000526020600020905b81548152906001019060200180831161267557829003601f168201915b5050505050908060050180546126a790614470565b80601f01602080910402602001604051908101604052809291908181526020018280546126d390614470565b80156127205780601f106126f557610100808354040283529160200191612720565b820191906000526020600020905b81548152906001019060200180831161270357829003601f168201915b50505050509080600601805461273590614470565b80601f016020809104026020016040519081016040528092919081815260200182805461276190614470565b80156127ae5780601f10612783576101008083540402835291602001916127ae565b820191906000526020600020905b81548152906001019060200180831161279157829003601f168201915b5050505050908060070180546127c390614470565b80601f01602080910402602001604051908101604052809291908181526020018280546127ef90614470565b801561283c5780601f106128115761010080835404028352916020019161283c565b820191906000526020600020905b81548152906001019060200180831161281f57829003601f168201915b5050505050908060080160009054906101000a900460ff16905089565b600160009054906101000a900473ffffffffffffffffffffffffffffffffffffffff1681565b6005600781111561289357612892613796565b5b61289c82610900565b60078111156128ae576128ad613796565b5b146128ee576040517f08c379a00000000000000000000000000000000000000000000000000000000081526004016128e590615737565b60405180910390fd5b600060066000838152602001908152602001600020905060018160090160016101000a81548160ff02191690831515021790555060005b8160050180549050811015612aae5760008054906101000a900473ffffffffffffffffffffffffffffffffffffffff1673ffffffffffffffffffffffffffffffffffffffff16632224fa2583600601838154811061298657612985614412565b5b90600052602060002001548460050184815481106129a7576129a6614412565b5b9060005260206000200160009054906101000a900473ffffffffffffffffffffffffffffffffffffffff168560060185815481106129e8576129e7614412565b5b9060005260206000200154866007018681548110612a0957612a08614412565b5b90600052602060002001876008018781548110612a2957612a28614412565b5b906000526020600020016040518663ffffffff1660e01b8152600401612a529493929190615757565b60006040518083038185885af1158015612a70573d6000803e3d6000fd5b50505050506040513d6000823e3d601f19601f82011682018060405250810190612a9a919061581a565b508080612aa690614674565b915050612925565b507f712ae1383f79ac853f8d882153778e0260ef8f03b504e2866e0593e04d2b291f82604051612ade9190613604565b60405180910390a15050565b60016007811115612afe57612afd613796565b5b612b0783610900565b6007811115612b1957612b18613796565b5b14612b59576040517f08c379a0000000000000000000000000000000000000000000000000000000008152600401612b50906158af565b60405180910390fd5b600060066000848152602001908152602001600020905060006005600085815260200190815260200160002060008673ffffffffffffffffffffffffffffffffffffffff1673ffffffffffffffffffffffffffffffffffffffff1681526020019081526020016000209050600015158160000160009054906101000a900460ff16151514612c1c576040517f08c379a0000000000000000000000000000000000000000000000000000000008152600401612c139061591b565b60405180910390fd5b6000600160009054906101000a900473ffffffffffffffffffffffffffffffffffffffff1673ffffffffffffffffffffffffffffffffffffffff1663782d6fe18785600201546040518363ffffffff1660e01b8152600401612c7f92919061433b565b602060405180830381865afa158015612c9c573d6000803e3d6000fd5b505050506040513d601f19601f82011682018060405250810190612cc09190614379565b90508315612d1557612cf66007600087815260200190815260200160002060020154826bffffffffffffffffffffffff16612e66565b6007600087815260200190815260200160002060020181905550612d5e565b612d436007600087815260200190815260200160002060030154826bffffffffffffffffffffffff16612e66565b60076000878152602001908152602001600020600301819055505b60018260000160006101000a81548160ff021916908315150217905550838260000160016101000a81548160ff021916908315150217905550808260000160026101000a8154816bffffffffffffffffffffffff02191690836bffffffffffffffffffffffff1602179055506001600c60003373ffffffffffffffffffffffffffffffffffffffff1673ffffffffffffffffffffffffffffffffffffffff1681526020019081526020016000206000828254612e1a9190614a58565b925050819055507f877856338e13f63d0c36822ff0ef736b80934cd90574a3a5bc9262c39d217c4686868684604051612e56949392919061593b565b60405180910390a1505050505050565b6000808284612e759190614a58565b905083811015612eba576040517f08c379a0000000000000000000000000000000000000000000000000000000008152600401612eb1906159cc565b60405180910390fd5b8091505092915050565b600082821115612f09576040517f08c379a0000000000000000000000000000000000000000000000000000000008152600401612f0090615a38565b60405180910390fd5b8183612f159190615a58565b905092915050565b612fb381604051602401612f319190613604565b6040516020818303038152906040527ff82c50f1000000000000000000000000000000000000000000000000000000007bffffffffffffffffffffffffffffffffffffffffffffffffffffffff19166020820180517bffffffffffffffffffffffffffffffffffffffffffffffffffffffff83818316178352505050506131f5565b50565b60008054906101000a900473ffffffffffffffffffffffffffffffffffffffff1673ffffffffffffffffffffffffffffffffffffffff1663f2b06537868686868660405160200161300b959493929190615ac5565b604051602081830303815290604052805190602001206040518263ffffffff1660e01b815260040161303d9190615b3f565b602060405180830381865afa15801561305a573d6000803e3d6000fd5b505050506040513d601f19601f8201168201806040525081019061307e919061492d565b156130be576040517f08c379a00000000000000000000000000000000000000000000000000000000081526004016130b590615bcc565b60405180910390fd5b60008054906101000a900473ffffffffffffffffffffffffffffffffffffffff1673ffffffffffffffffffffffffffffffffffffffff1663abc203bd336040518263ffffffff1660e01b81526004016131179190613828565b600060405180830381600087803b15801561313157600080fd5b505af1158015613145573d6000803e3d6000fd5b5050505060008054906101000a900473ffffffffffffffffffffffffffffffffffffffff1673ffffffffffffffffffffffffffffffffffffffff16633a66f90186868686866040518663ffffffff1660e01b81526004016131aa959493929190615ac5565b6020604051808303816000875af11580156131c9573d6000803e3d6000fd5b505050506040513d601f19601f820116820180604052508101906131ed9190615c18565b505050505050565b61320c8161320461320f613230565b63ffffffff16565b50565b60006a636f6e736f6c652e6c6f679050600080835160208501845afa505050565b6133c4819050919050565b8280548282559060005260206000209081019282156132b4579160200282015b828111156132b35782518260006101000a81548173ffffffffffffffffffffffffffffffffffffffff021916908373ffffffffffffffffffffffffffffffffffffffff1602179055509160200191906001019061325b565b5b5090506132c191906133ce565b5090565b828054828255906000526020600020908101928215613301579160200282015b828111156133005782518255916020019190600101906132e5565b5b50905061330e91906133ce565b5090565b82805482825590600052602060002090810192821561335a579160200282015b8281111561335957825182908161334991906151a4565b5091602001919060010190613332565b5b50905061336791906133eb565b5090565b8280548282559060005260206000209081019282156133b3579160200282015b828111156133b25782518290816133a29190615c8b565b509160200191906001019061338b565b5b5090506133c0919061340f565b5090565b6133cc615d5d565b565b5b808211156133e75760008160009055506001016133cf565b5090565b5b8082111561340b57600081816134029190613433565b506001016133ec565b5090565b5b8082111561342f57600081816134269190613473565b50600101613410565b5090565b50805461343f90614470565b6000825580601f106134515750613470565b601f01602090049060005260206000209081019061346f91906133ce565b5b50565b50805461347f90614470565b6000825580601f1061349157506134b0565b601f0160209004906000526020600020908101906134af91906133ce565b5b50565b6000604051905090565b600080fd5b600080fd5b6000819050919050565b6134da816134c7565b81146134e557600080fd5b50565b6000813590506134f7816134d1565b92915050565b600060208284031215613513576135126134bd565b5b6000613521848285016134e8565b91505092915050565b613533816134c7565b82525050565b600073ffffffffffffffffffffffffffffffffffffffff82169050919050565b600061356482613539565b9050919050565b61357481613559565b82525050565b60008115159050919050565b61358f8161357a565b82525050565b600060e0820190506135aa600083018a61352a565b6135b7602083018961352a565b6135c4604083018861352a565b6135d1606083018761352a565b6135de608083018661356b565b6135eb60a0830185613586565b6135f860c0830184613586565b98975050505050505050565b6000602082019050613619600083018461352a565b92915050565b600081519050919050565b600082825260208201905092915050565b60005b8381101561365957808201518184015260208101905061363e565b60008484015250505050565b6000601f19601f8301169050919050565b60006136818261361f565b61368b818561362a565b935061369b81856020860161363b565b6136a481613665565b840191505092915050565b600060208201905081810360008301526136c98184613676565b905092915050565b6136da81613559565b81146136e557600080fd5b50565b6000813590506136f7816136d1565b92915050565b600060208284031215613713576137126134bd565b5b6000613721848285016136e8565b91505092915050565b6137338161357a565b811461373e57600080fd5b50565b6000813590506137508161372a565b92915050565b6000806040838503121561376d5761376c6134bd565b5b600061377b858286016134e8565b925050602061378c85828601613741565b9150509250929050565b7f4e487b7100000000000000000000000000000000000000000000000000000000600052602160045260246000fd5b600881106137d6576137d5613796565b5b50565b60008190506137e7826137c5565b919050565b60006137f7826137d9565b9050919050565b613807816137ec565b82525050565b600060208201905061382260008301846137fe565b92915050565b600060208201905061383d600083018461356b565b92915050565b600080fd5b600080fd5b7f4e487b7100000000000000000000000000000000000000000000000000000000600052604160045260246000fd5b61388582613665565b810181811067ffffffffffffffff821117156138a4576138a361384d565b5b80604052505050565b60006138b76134b3565b90506138c3828261387c565b919050565b600067ffffffffffffffff8211156138e3576138e261384d565b5b6138ec82613665565b9050602081019050919050565b82818337600083830152505050565b600061391b613916846138c8565b6138ad565b90508281526020810184848401111561393757613936613848565b5b6139428482856138f9565b509392505050565b600082601f83011261395f5761395e613843565b5b813561396f848260208601613908565b91505092915050565b60006020828403121561398e5761398d6134bd565b5b600082013567ffffffffffffffff8111156139ac576139ab6134c2565b5b6139b88482850161394a565b91505092915050565b600080604083850312156139d8576139d76134bd565b5b60006139e6858286016134e8565b92505060206139f7858286016136e8565b9150509250929050565b60006bffffffffffffffffffffffff82169050919050565b613a2281613a01565b82525050565b6000606082019050613a3d6000830186613586565b613a4a6020830185613586565b613a576040830184613a19565b949350505050565b6000602082019050613a746000830184613a19565b92915050565b6000819050919050565b6000613a9f613a9a613a9584613539565b613a7a565b613539565b9050919050565b6000613ab182613a84565b9050919050565b6000613ac382613aa6565b9050919050565b613ad381613ab8565b82525050565b6000602082019050613aee6000830184613aca565b92915050565b6000602082019050613b096000830184613586565b92915050565b613b1881613a01565b8114613b2357600080fd5b50565b600081359050613b3581613b0f565b92915050565b600060208284031215613b5157613b506134bd565b5b6000613b5f84828501613b26565b91505092915050565b6000613b7382613aa6565b9050919050565b613b8381613b68565b82525050565b6000602082019050613b9e6000830184613b7a565b92915050565b600067ffffffffffffffff821115613bbf57613bbe61384d565b5b602082029050602081019050919050565b600080fd5b6000613be8613be384613ba4565b6138ad565b90508083825260208201905060208402830185811115613c0b57613c0a613bd0565b5b835b81811015613c345780613c2088826136e8565b845260208401935050602081019050613c0d565b5050509392505050565b600082601f830112613c5357613c52613843565b5b8135613c63848260208601613bd5565b91505092915050565b600067ffffffffffffffff821115613c8757613c8661384d565b5b602082029050602081019050919050565b6000613cab613ca684613c6c565b6138ad565b90508083825260208201905060208402830185811115613cce57613ccd613bd0565b5b835b81811015613cf75780613ce388826134e8565b845260208401935050602081019050613cd0565b5050509392505050565b600082601f830112613d1657613d15613843565b5b8135613d26848260208601613c98565b91505092915050565b600067ffffffffffffffff821115613d4a57613d4961384d565b5b602082029050602081019050919050565b6000613d6e613d6984613d2f565b6138ad565b90508083825260208201905060208402830185811115613d9157613d90613bd0565b5b835b81811015613dd857803567ffffffffffffffff811115613db657613db5613843565b5b808601613dc3898261394a565b85526020850194505050602081019050613d93565b5050509392505050565b600082601f830112613df757613df6613843565b5b8135613e07848260208601613d5b565b91505092915050565b600067ffffffffffffffff821115613e2b57613e2a61384d565b5b602082029050602081019050919050565b600067ffffffffffffffff821115613e5757613e5661384d565b5b613e6082613665565b9050602081019050919050565b6000613e80613e7b84613e3c565b6138ad565b905082815260208101848484011115613e9c57613e9b613848565b5b613ea78482856138f9565b509392505050565b600082601f830112613ec457613ec3613843565b5b8135613ed4848260208601613e6d565b91505092915050565b6000613ef0613eeb84613e10565b6138ad565b90508083825260208201905060208402830185811115613f1357613f12613bd0565b5b835b81811015613f5a57803567ffffffffffffffff811115613f3857613f37613843565b5b808601613f458982613eaf565b85526020850194505050602081019050613f15565b5050509392505050565b600082601f830112613f7957613f78613843565b5b8135613f89848260208601613edd565b91505092915050565b60008060008060008060008060006101208a8c031215613fb557613fb46134bd565b5b60008a013567ffffffffffffffff811115613fd357613fd26134c2565b5b613fdf8c828d01613c3e565b99505060208a013567ffffffffffffffff81111561400057613fff6134c2565b5b61400c8c828d01613d01565b98505060408a013567ffffffffffffffff81111561402d5761402c6134c2565b5b6140398c828d01613de2565b97505060608a013567ffffffffffffffff81111561405a576140596134c2565b5b6140668c828d01613f64565b96505060808a013567ffffffffffffffff811115614087576140866134c2565b5b6140938c828d0161394a565b95505060a08a013567ffffffffffffffff8111156140b4576140b36134c2565b5b6140c08c828d0161394a565b94505060c08a013567ffffffffffffffff8111156140e1576140e06134c2565b5b6140ed8c828d0161394a565b93505060e08a013567ffffffffffffffff81111561410e5761410d6134c2565b5b61411a8c828d0161394a565b92505061010061412c8c828d01613741565b9150509295985092959850929598565b600061012082019050614152600083018c61352a565b61415f602083018b61356b565b61416c604083018a61352a565b614179606083018961352a565b818103608083015261418b8188613676565b905081810360a083015261419f8187613676565b905081810360c08301526141b38186613676565b905081810360e08301526141c78185613676565b90506141d7610100830184613586565b9a9950505050505050505050565b60006141f082613aa6565b9050919050565b614200816141e5565b82525050565b600060208201905061421b60008301846141f7565b92915050565b7f696e76616c69642070726f706f73616c20696400000000000000000000000000600082015250565b600061425760138361362a565b915061426282614221565b602082019050919050565b600060208201905081810360008301526142868161424a565b9050919050565b60008151905061429c816134d1565b92915050565b6000602082840312156142b8576142b76134bd565b5b60006142c68482850161428d565b91505092915050565b7f63616e6e6f742063616e63656c2065786563757465642070726f706f73616c00600082015250565b6000614305601f8361362a565b9150614310826142cf565b602082019050919050565b60006020820190508181036000830152614334816142f8565b9050919050565b6000604082019050614350600083018561356b565b61435d602083018461352a565b9392505050565b60008151905061437381613b0f565b92915050565b60006020828403121561438f5761438e6134bd565b5b600061439d84828501614364565b91505092915050565b7f70726f706f7365722061626f7665207468726573686f6c640000000000000000600082015250565b60006143dc60188361362a565b91506143e7826143a6565b602082019050919050565b6000602082019050818103600083015261440b816143cf565b9050919050565b7f4e487b7100000000000000000000000000000000000000000000000000000000600052603260045260246000fd5b7f4e487b7100000000000000000000000000000000000000000000000000000000600052602260045260246000fd5b6000600282049050600182168061448857607f821691505b60208210810361449b5761449a614441565b5b50919050565b60008190508160005260206000209050919050565b600081546144c381614470565b6144cd818661362a565b945060018216600081146144e857600181146144fe57614531565b60ff198316865281151560200286019350614531565b614507856144a1565b60005b838110156145295781548189015260018201915060208101905061450a565b808801955050505b50505092915050565b600082825260208201905092915050565b60008190508160005260206000209050919050565b6000815461456d81614470565b614577818661453a565b9450600182166000811461459257600181146145a8576145db565b60ff1983168652811515602002860193506145db565b6145b18561454b565b60005b838110156145d3578154818901526001820191506020810190506145b4565b808801955050505b50505092915050565b600060a0820190506145f9600083018861356b565b614606602083018761352a565b818103604083015261461881866144b6565b9050818103606083015261462c8185614560565b905061463b608083018461352a565b9695505050505050565b7f4e487b7100000000000000000000000000000000000000000000000000000000600052601160045260246000fd5b600061467f826134c7565b91507fffffffffffffffffffffffffffffffffffffffffffffffffffffffffffffffff82036146b1576146b0614645565b5b600182019050919050565b60006040820190506146d1600083018561356b565b81810360208301526146e38184613676565b90509392505050565b7f596f75206d757374207075726368617365206174206c6561737420313020746f60008201527f6b656e7320746f206265636f6d652061206d656d626572000000000000000000602082015250565b600061474860378361362a565b9150614753826146ec565b604082019050919050565b600060208201905081810360008301526147778161473b565b9050919050565b6000614789826134c7565b9150614794836134c7565b92508282026147a2816134c7565b915082820484148315176147b9576147b8614645565b5b5092915050565b7f4e6f7420656e6f7567682076616c756500000000000000000000000000000000600082015250565b60006147f660108361362a565b9150614801826147c0565b602082019050919050565b60006020820190508181036000830152614825816147e9565b9050919050565b7f436f6e747261637420646f6573206e6f74206861766520656e6f75676820736160008201527f6d68697461546f6b656e73000000000000000000000000000000000000000000602082015250565b6000614888602b8361362a565b91506148938261482c565b604082019050919050565b600060208201905081810360008301526148b78161487b565b9050919050565b60006148d96148d46148cf84613a01565b613a7a565b6134c7565b9050919050565b6148e9816148be565b82525050565b6000604082019050614904600083018561356b565b61491160208301846148e0565b9392505050565b6000815190506149278161372a565b92915050565b600060208284031215614943576149426134bd565b5b600061495184828501614918565b91505092915050565b7f496e76616c69642070726f706f73616c20494400000000000000000000000000600082015250565b600061499060138361362a565b915061499b8261495a565b602082019050919050565b600060208201905081810360008301526149bf81614983565b9050919050565b7f70726f706f73616c2063616e206f6e6c7920626520717565756564206966206960008201527f7420697320737563636565646564000000000000000000000000000000000000602082015250565b6000614a22602e8361362a565b9150614a2d826149c6565b604082019050919050565b60006020820190508181036000830152614a5181614a15565b9050919050565b6000614a63826134c7565b9150614a6e836134c7565b9250828201905080821115614a8657614a85614645565b5b92915050565b600081905092915050565b7f74656d706c617465000000000000000000000000000000000000000000000000600082015250565b6000614acd600883614a8c565b9150614ad882614a97565b600882019050919050565b6000614aee82614ac0565b9150819050919050565b60008154614b0581614470565b614b0f8186614a8c565b94506001821660008114614b2a5760018114614b3f57614b72565b60ff1983168652811515820286019350614b72565b614b48856144a1565b60005b83811015614b6a57815481890152600182019150602081019050614b4b565b838801955050505b50505092915050565b6000614b878284614af8565b915081905092915050565b6000606082019050614ba7600083018661356b565b8181036020830152614bb981856144b6565b9050614bc8604083018461352a565b949350505050565b6000604082019050614be5600083018561352a565b614bf2602083018461352a565b9392505050565b7f596f7520617265206e6f7420746865206d656d626572206f662074687320536160008201527f6d686974612044414f0000000000000000000000000000000000000000000000602082015250565b6000614c5560298361362a565b9150614c6082614bf9565b604082019050919050565b60006020820190508181036000830152614c8481614c48565b9050919050565b7f596f75206d75737420686176652076616c6964207374616b6520616d6f756e7460008201527f20746f2063726561746520612070726f706f73616c0000000000000000000000602082015250565b6000614ce760358361362a565b9150614cf282614c8b565b604082019050919050565b60006020820190508181036000830152614d1681614cda565b9050919050565b7f70726f706f73657220766f7465732062656c6f772070726f706f73616c20746860008201527f726573686f6c6400000000000000000000000000000000000000000000000000602082015250565b6000614d7960278361362a565b9150614d8482614d1d565b604082019050919050565b60006020820190508181036000830152614da881614d6c565b9050919050565b7f70726f706f73616c2066756e6374696f6e20696e666f726d6174696f6e20617260008201527f697479206d69736d617463680000000000000000000000000000000000000000602082015250565b6000614e0b602c8361362a565b9150614e1682614daf565b604082019050919050565b60006020820190508181036000830152614e3a81614dfe565b9050919050565b7f736f6d6520616374696f6e206d75737420626520746865726500000000000000600082015250565b6000614e7760198361362a565b9150614e8282614e41565b602082019050919050565b60006020820190508181036000830152614ea681614e6a565b9050919050565b7f746f6f206d616e7920616374696f6e7300000000000000000000000000000000600082015250565b6000614ee360108361362a565b9150614eee82614ead565b602082019050919050565b60006020820190508181036000830152614f1281614ed6565b9050919050565b7f466f756e6420616e20616c7265616479206163746976652070726f706f73616c600082015250565b6000614f4f60208361362a565b9150614f5a82614f19565b602082019050919050565b60006020820190508181036000830152614f7e81614f42565b9050919050565b7f466f756e6420616e20616c72656164792070656e64696e672070726f706f736160008201527f6c00000000000000000000000000000000000000000000000000000000000000602082015250565b6000614fe160218361362a565b9150614fec82614f85565b604082019050919050565b6000602082019050818103600083015261501081614fd4565b9050919050565b60006020601f8301049050919050565b600082821b905092915050565b6000600883026150647fffffffffffffffffffffffffffffffffffffffffffffffffffffffffffffffff82615027565b61506e8683615027565b95508019841693508086168417925050509392505050565b60006150a161509c615097846134c7565b613a7a565b6134c7565b9050919050565b6000819050919050565b6150bb83615086565b6150cf6150c7826150a8565b848454615034565b825550505050565b600090565b6150e46150d7565b6150ef8184846150b2565b505050565b5b81811015615113576151086000826150dc565b6001810190506150f5565b5050565b601f82111561515857615129816144a1565b61513284615017565b81016020851015615141578190505b61515561514d85615017565b8301826150f4565b50505b505050565b600082821c905092915050565b600061517b6000198460080261515d565b1980831691505092915050565b6000615194838361516a565b9150826002028217905092915050565b6151ad8261361f565b67ffffffffffffffff8111156151c6576151c561384d565b5b6151d08254614470565b6151db828285615117565b600060209050601f83116001811461520e57600084156151fc578287015190505b6152068582615188565b86555061526e565b601f19841661521c866144a1565b60005b828110156152445784890151825560018201915060208501945060208101905061521f565b86831015615261578489015161525d601f89168261516a565b8355505b6001600288020188555050505b505050505050565b600081519050919050565b600082825260208201905092915050565b6000819050602082019050919050565b6152ab81613559565b82525050565b60006152bd83836152a2565b60208301905092915050565b6000602082019050919050565b60006152e182615276565b6152eb8185615281565b93506152f683615292565b8060005b8381101561532757815161530e88826152b1565b9750615319836152c9565b9250506001810190506152fa565b5085935050505092915050565b600081519050919050565b600082825260208201905092915050565b6000819050602082019050919050565b615369816134c7565b82525050565b600061537b8383615360565b60208301905092915050565b6000602082019050919050565b600061539f82615334565b6153a9818561533f565b93506153b483615350565b8060005b838110156153e55781516153cc888261536f565b97506153d783615387565b9250506001810190506153b8565b5085935050505092915050565b600081519050919050565b600082825260208201905092915050565b6000819050602082019050919050565b600082825260208201905092915050565b600061543a8261361f565b615444818561541e565b935061545481856020860161363b565b61545d81613665565b840191505092915050565b6000615474838361542f565b905092915050565b6000602082019050919050565b6000615494826153f2565b61549e81856153fd565b9350836020820285016154b08561540e565b8060005b858110156154ec57848403895281516154cd8582615468565b94506154d88361547c565b925060208a019950506001810190506154b4565b50829750879550505050505092915050565b600081519050919050565b600082825260208201905092915050565b6000819050602082019050919050565b600081519050919050565b600082825260208201905092915050565b60006155518261552a565b61555b8185615535565b935061556b81856020860161363b565b61557481613665565b840191505092915050565b600061558b8383615546565b905092915050565b6000602082019050919050565b60006155ab826154fe565b6155b58185615509565b9350836020820285016155c78561551a565b8060005b8581101561560357848403895281516155e4858261557f565b94506155ef83615593565b925060208a019950506001810190506155cb565b50829750879550505050505092915050565b60006101208201905061562b600083018c61352a565b615638602083018b61356b565b818103604083015261564a818a6152d6565b9050818103606083015261565e8189615394565b905081810360808301526156728188615489565b905081810360a083015261568681876155a0565b905081810360c083015261569a8186613676565b90506156a960e083018561352a565b6156b761010083018461352a565b9a9950505050505050505050565b7f70726f706f73616c2063616e206f6e6c7920626520657865637574656420696660008201527f2069742069732071756575656400000000000000000000000000000000000000602082015250565b6000615721602d8361362a565b915061572c826156c5565b604082019050919050565b6000602082019050818103600083015261575081615714565b9050919050565b600060808201905061576c600083018761356b565b615779602083018661352a565b818103604083015261578b81856144b6565b9050818103606083015261579f8184614560565b905095945050505050565b60006157bd6157b884613e3c565b6138ad565b9050828152602081018484840111156157d9576157d8613848565b5b6157e484828561363b565b509392505050565b600082601f83011261580157615800613843565b5b81516158118482602086016157aa565b91505092915050565b6000602082840312156158305761582f6134bd565b5b600082015167ffffffffffffffff81111561584e5761584d6134c2565b5b61585a848285016157ec565b91505092915050565b7f766f74696e6720697320636c6f73656400000000000000000000000000000000600082015250565b600061589960108361362a565b91506158a482615863565b602082019050919050565b600060208201905081810360008301526158c88161588c565b9050919050565b7f766f7465722068617320616c726561647920766f746564000000000000000000600082015250565b600061590560178361362a565b9150615910826158cf565b602082019050919050565b60006020820190508181036000830152615934816158f8565b9050919050565b6000608082019050615950600083018761356b565b61595d602083018661352a565b61596a6040830185613586565b61597760608301846148e0565b95945050505050565b7f6164646974696f6e206f766572666c6f77000000000000000000000000000000600082015250565b60006159b660118361362a565b91506159c182615980565b602082019050919050565b600060208201905081810360008301526159e5816159a9565b9050919050565b7f7375627472616374696f6e20756e646572666c6f770000000000000000000000600082015250565b6000615a2260158361362a565b9150615a2d826159ec565b602082019050919050565b60006020820190508181036000830152615a5181615a15565b9050919050565b6000615a63826134c7565b9150615a6e836134c7565b9250828203905081811115615a8657615a85614645565b5b92915050565b6000615a978261552a565b615aa1818561453a565b9350615ab181856020860161363b565b615aba81613665565b840191505092915050565b600060a082019050615ada600083018861356b565b615ae7602083018761352a565b8181036040830152615af98186613676565b90508181036060830152615b0d8185615a8c565b9050615b1c608083018461352a565b9695505050505050565b6000819050919050565b615b3981615b26565b82525050565b6000602082019050615b546000830184615b30565b92915050565b7f2070726f706f73616c20616374696f6e20616c7265616479207175657565642060008201527f6174206574610000000000000000000000000000000000000000000000000000602082015250565b6000615bb660268361362a565b9150615bc182615b5a565b604082019050919050565b60006020820190508181036000830152615be581615ba9565b9050919050565b615bf581615b26565b8114615c0057600080fd5b50565b600081519050615c1281615bec565b92915050565b600060208284031215615c2e57615c2d6134bd565b5b6000615c3c84828501615c03565b91505092915050565b601f821115615c8657615c578161454b565b615c6084615017565b81016020851015615c6f578190505b615c83615c7b85615017565b8301826150f4565b50505b505050565b615c948261552a565b67ffffffffffffffff811115615cad57615cac61384d565b5b615cb78254614470565b615cc2828285615c45565b600060209050601f831160018114615cf55760008415615ce3578287015190505b615ced8582615188565b865550615d55565b601f198416615d038661454b565b60005b82811015615d2b57848901518255600182019150602085019450602081019050615d06565b86831015615d485784890151615d44601f89168261516a565b8355505b6001600288020188555050505b505050505050565b7f4e487b7100000000000000000000000000000000000000000000000000000000600052605160045260246000fdfea26469706673582212203227d57b2c98c24849bfcd543eca76e90b2dc1a622434d8b5029014d6cc5cb8364736f6c63430008130033",
  "linkReferences": {},
  "deployedLinkReferences": {}
}