{
  "_format": "hh-sol-artifact-1",
  "contractName": "Samhita",
  "sourceName": "contracts/samhita.sol",
  "abi": [
    {
      "inputs": [
        {
          "internalType": "address",
          "name": "timelock_",
          "type": "address"
        },
        {
          "internalType": "address",
          "name": "token_",
          "type": "address"
        },
        {
          "internalType": "address",
          "name": "templateNFT_",
          "type": "address"
        }
      ],
      "stateMutability": "nonpayable",
      "type": "constructor"
    },
    {
      "anonymous": false,
      "inputs": [
        {
          "indexed": false,
          "internalType": "uint256",
          "name": "id",
          "type": "uint256"
        }
      ],
      "name": "ProposalCanceled",
      "type": "event"
    },
    {
      "anonymous": false,
      "inputs": [
        {
          "indexed": false,
          "internalType": "uint256",
          "name": "id",
          "type": "uint256"
        },
        {
          "indexed": false,
          "internalType": "address",
          "name": "proposer",
          "type": "address"
        },
        {
          "indexed": false,
          "internalType": "address[]",
          "name": "targets",
          "type": "address[]"
        },
        {
          "indexed": false,
          "internalType": "uint256[]",
          "name": "values",
          "type": "uint256[]"
        },
        {
          "indexed": false,
          "internalType": "string[]",
          "name": "signatures",
          "type": "string[]"
        },
        {
          "indexed": false,
          "internalType": "bytes[]",
          "name": "calldatas",
          "type": "bytes[]"
        },
        {
          "indexed": false,
          "internalType": "uint256",
          "name": "startBlock",
          "type": "uint256"
        },
        {
          "indexed": false,
          "internalType": "uint256",
          "name": "endBlock",
          "type": "uint256"
        },
        {
          "indexed": false,
          "internalType": "string",
          "name": "description",
          "type": "string"
        }
      ],
      "name": "ProposalCreated",
      "type": "event"
    },
    {
      "anonymous": false,
      "inputs": [
        {
          "indexed": false,
          "internalType": "uint256",
          "name": "id",
          "type": "uint256"
        }
      ],
      "name": "ProposalExecuted",
      "type": "event"
    },
    {
      "anonymous": false,
      "inputs": [
        {
          "indexed": false,
          "internalType": "uint256",
          "name": "id",
          "type": "uint256"
        },
        {
          "indexed": false,
          "internalType": "uint256",
          "name": "eta",
          "type": "uint256"
        }
      ],
      "name": "ProposalQueued",
      "type": "event"
    },
    {
      "anonymous": false,
      "inputs": [
        {
          "indexed": false,
          "internalType": "address",
          "name": "voter",
          "type": "address"
        },
        {
          "indexed": false,
          "internalType": "uint256",
          "name": "proposalId",
          "type": "uint256"
        },
        {
          "indexed": false,
          "internalType": "bool",
          "name": "support",
          "type": "bool"
        },
        {
          "indexed": false,
          "internalType": "uint256",
          "name": "votes",
          "type": "uint256"
        }
      ],
      "name": "VoteCast",
      "type": "event"
    },
    {
      "inputs": [
        {
          "internalType": "uint96",
          "name": "_tokens",
          "type": "uint96"
        }
      ],
      "name": "addMember",
      "outputs": [],
      "stateMutability": "payable",
      "type": "function"
    },
    {
      "inputs": [
        {
          "internalType": "uint256",
          "name": "_proposalId",
          "type": "uint256"
        }
      ],
      "name": "cancel",
      "outputs": [],
      "stateMutability": "nonpayable",
      "type": "function"
    },
    {
      "inputs": [
        {
          "internalType": "uint256",
          "name": "_proposalId",
          "type": "uint256"
        },
        {
          "internalType": "bool",
          "name": "support",
          "type": "bool"
        }
      ],
      "name": "castVote",
      "outputs": [],
      "stateMutability": "nonpayable",
      "type": "function"
    },
    {
      "inputs": [
        {
          "internalType": "uint256",
          "name": "_proposalId",
          "type": "uint256"
        }
      ],
      "name": "execute",
      "outputs": [],
      "stateMutability": "payable",
      "type": "function"
    },
    {
      "inputs": [
        {
          "internalType": "uint256",
          "name": "proposalId",
          "type": "uint256"
        }
      ],
      "name": "getForVotes",
      "outputs": [
        {
          "internalType": "uint256",
          "name": "",
          "type": "uint256"
        }
      ],
      "stateMutability": "view",
      "type": "function"
    },
    {
      "inputs": [],
      "name": "guardian",
      "outputs": [
        {
          "internalType": "address",
          "name": "",
          "type": "address"
        }
      ],
      "stateMutability": "view",
      "type": "function"
    },
    {
      "inputs": [
        {
          "internalType": "address",
          "name": "",
          "type": "address"
        }
      ],
      "name": "isMemberAdded",
      "outputs": [
        {
          "internalType": "bool",
          "name": "",
          "type": "bool"
        }
      ],
      "stateMutability": "view",
      "type": "function"
    },
    {
      "inputs": [
        {
          "internalType": "address",
          "name": "",
          "type": "address"
        }
      ],
      "name": "latestProposalIds",
      "outputs": [
        {
          "internalType": "uint256",
          "name": "",
          "type": "uint256"
        }
      ],
      "stateMutability": "view",
      "type": "function"
    },
    {
      "inputs": [
        {
          "internalType": "address",
          "name": "",
          "type": "address"
        }
      ],
      "name": "memberWithdrawAmount",
      "outputs": [
        {
          "internalType": "uint256",
          "name": "",
          "type": "uint256"
        }
      ],
      "stateMutability": "view",
      "type": "function"
    },
    {
      "inputs": [],
      "name": "name",
      "outputs": [
        {
          "internalType": "string",
          "name": "",
          "type": "string"
        }
      ],
      "stateMutability": "view",
      "type": "function"
    },
    {
      "inputs": [],
      "name": "proposalCount",
      "outputs": [
        {
          "internalType": "uint256",
          "name": "",
          "type": "uint256"
        }
      ],
      "stateMutability": "view",
      "type": "function"
    },
    {
      "inputs": [],
      "name": "proposalMaxOperations",
      "outputs": [
        {
          "internalType": "uint256",
          "name": "",
          "type": "uint256"
        }
      ],
      "stateMutability": "pure",
      "type": "function"
    },
    {
      "inputs": [
        {
          "internalType": "uint256",
          "name": "",
          "type": "uint256"
        },
        {
          "internalType": "address",
          "name": "",
          "type": "address"
        }
      ],
      "name": "proposalReceipts",
      "outputs": [
        {
          "internalType": "bool",
          "name": "hasVoted",
          "type": "bool"
        },
        {
          "internalType": "bool",
          "name": "support",
          "type": "bool"
        },
        {
          "internalType": "uint96",
          "name": "votes",
          "type": "uint96"
        }
      ],
      "stateMutability": "view",
      "type": "function"
    },
    {
      "inputs": [],
      "name": "proposalStake",
      "outputs": [
        {
          "internalType": "uint96",
          "name": "",
          "type": "uint96"
        }
      ],
      "stateMutability": "view",
      "type": "function"
    },
    {
      "inputs": [],
      "name": "proposalThreshold",
      "outputs": [
        {
          "internalType": "uint256",
          "name": "",
          "type": "uint256"
        }
      ],
      "stateMutability": "pure",
      "type": "function"
    },
    {
      "inputs": [
        {
          "internalType": "uint256",
          "name": "",
          "type": "uint256"
        }
      ],
      "name": "proposalToNFTOwner",
      "outputs": [
        {
          "internalType": "address",
          "name": "",
          "type": "address"
        }
      ],
      "stateMutability": "view",
      "type": "function"
    },
    {
      "inputs": [
        {
          "internalType": "uint256",
          "name": "",
          "type": "uint256"
        }
      ],
      "name": "proposals",
      "outputs": [
        {
          "internalType": "uint256",
          "name": "id",
          "type": "uint256"
        },
        {
          "internalType": "address",
          "name": "creator",
          "type": "address"
        },
        {
          "internalType": "uint256",
          "name": "eta",
          "type": "uint256"
        },
        {
          "internalType": "uint256",
          "name": "startBlock",
          "type": "uint256"
        },
        {
          "internalType": "uint256",
          "name": "endBlock",
          "type": "uint256"
        },
        {
          "internalType": "uint256",
          "name": "forVotes",
          "type": "uint256"
        },
        {
          "internalType": "uint256",
          "name": "againstVotes",
          "type": "uint256"
        },
        {
          "internalType": "bool",
          "name": "cancel",
          "type": "bool"
        },
        {
          "internalType": "bool",
          "name": "executed",
          "type": "bool"
        },
        {
          "internalType": "bool",
          "name": "isScrape",
          "type": "bool"
        },
        {
          "internalType": "string",
          "name": "category",
          "type": "string"
        },
        {
          "internalType": "string",
          "name": "proposalFile",
          "type": "string"
        }
      ],
      "stateMutability": "view",
      "type": "function"
    },
    {
      "inputs": [
        {
          "internalType": "address[]",
          "name": "targets",
          "type": "address[]"
        },
        {
          "internalType": "uint256[]",
          "name": "values",
          "type": "uint256[]"
        },
        {
          "internalType": "string[]",
          "name": "signatures",
          "type": "string[]"
        },
        {
          "internalType": "bytes[]",
          "name": "calldatas",
          "type": "bytes[]"
        },
        {
          "internalType": "string",
          "name": "description",
          "type": "string"
        },
        {
          "internalType": "string",
          "name": "category",
          "type": "string"
        },
        {
          "internalType": "string",
          "name": "proposalFile",
          "type": "string"
        }
      ],
      "name": "propose",
      "outputs": [
        {
          "internalType": "uint256",
          "name": "",
          "type": "uint256"
        }
      ],
      "stateMutability": "payable",
      "type": "function"
    },
    {
      "inputs": [
        {
          "internalType": "uint256",
          "name": "_proposalId",
          "type": "uint256"
        }
      ],
      "name": "queue",
      "outputs": [],
      "stateMutability": "nonpayable",
      "type": "function"
    },
    {
      "inputs": [],
      "name": "quorumVotes",
      "outputs": [
        {
          "internalType": "uint256",
          "name": "",
          "type": "uint256"
        }
      ],
      "stateMutability": "pure",
      "type": "function"
    },
    {
      "inputs": [
        {
          "internalType": "address",
          "name": "",
          "type": "address"
        }
      ],
      "name": "receivedTemplateNFT",
      "outputs": [
        {
          "internalType": "bool",
          "name": "",
          "type": "bool"
        }
      ],
      "stateMutability": "view",
      "type": "function"
    },
    {
      "inputs": [
        {
          "internalType": "uint256",
          "name": "_proposalId",
          "type": "uint256"
        }
      ],
      "name": "state",
      "outputs": [
        {
          "internalType": "enum Samhita.ProposalState",
          "name": "",
          "type": "uint8"
        }
      ],
      "stateMutability": "view",
      "type": "function"
    },
    {
      "inputs": [],
      "name": "templateNFT",
      "outputs": [
        {
          "internalType": "contract ITemplateNFT",
          "name": "",
          "type": "address"
        }
      ],
      "stateMutability": "view",
      "type": "function"
    },
    {
      "inputs": [],
      "name": "timelock",
      "outputs": [
        {
          "internalType": "contract ITimelock",
          "name": "",
          "type": "address"
        }
      ],
      "stateMutability": "view",
      "type": "function"
    },
    {
      "inputs": [],
      "name": "token",
      "outputs": [
        {
          "internalType": "contract ISamhitaToken",
          "name": "",
          "type": "address"
        }
      ],
      "stateMutability": "view",
      "type": "function"
    },
    {
      "inputs": [],
      "name": "votingDelay",
      "outputs": [
        {
          "internalType": "uint256",
          "name": "",
          "type": "uint256"
        }
      ],
      "stateMutability": "pure",
      "type": "function"
    },
    {
      "inputs": [],
      "name": "votingPeriod",
      "outputs": [
        {
          "internalType": "uint256",
          "name": "",
          "type": "uint256"
        }
      ],
      "stateMutability": "pure",
      "type": "function"
    }
  ],
  "bytecode": "0x6080604052674563918244f40000600d60006101000a8154816bffffffffffffffffffffffff02191690836bffffffffffffffffffffffff160217905550600a600d600c6101000a8154816bffffffffffffffffffffffff02191690836bffffffffffffffffffffffff1602179055503480156200007c57600080fd5b5060405162005a6f38038062005a6f8339818101604052810190620000a2919062000270565b826000806101000a81548173ffffffffffffffffffffffffffffffffffffffff021916908373ffffffffffffffffffffffffffffffffffffffff16021790555081600160006101000a81548173ffffffffffffffffffffffffffffffffffffffff021916908373ffffffffffffffffffffffffffffffffffffffff16021790555080600260006101000a81548173ffffffffffffffffffffffffffffffffffffffff021916908373ffffffffffffffffffffffffffffffffffffffff16021790555033600460006101000a81548173ffffffffffffffffffffffffffffffffffffffff021916908373ffffffffffffffffffffffffffffffffffffffff1602179055506001600c60003373ffffffffffffffffffffffffffffffffffffffff1673ffffffffffffffffffffffffffffffffffffffff16815260200190815260200160002060006101000a81548160ff021916908315150217905550505050620002cc565b600080fd5b600073ffffffffffffffffffffffffffffffffffffffff82169050919050565b600062000238826200020b565b9050919050565b6200024a816200022b565b81146200025657600080fd5b50565b6000815190506200026a816200023f565b92915050565b6000806000606084860312156200028c576200028b62000206565b5b60006200029c8682870162000259565b9350506020620002af8682870162000259565b9250506040620002c28682870162000259565b9150509250925092565b61579380620002dc6000396000f3fe60806040526004361061019c5760003560e01c80637161f8c2116100ec578063cd8871761161008a578063ddf0b00911610064578063ddf0b0091461060d578063de0b27e514610636578063fc0c546a14610673578063fe0d94c11461069e5761019c565b8063cd8871761461057a578063d33219b4146105b7578063da35c664146105e25761019c565b806388fde90a116100c657806388fde90a146104cb578063b58131b0146104f6578063c3c79d8514610521578063c863b48e1461053d5761019c565b80637161f8c2146104335780637bdbe4d01461047057806388e032111461049b5761019c565b8063392317cd1161015957806340e58ee51161013357806340e58ee514610375578063452a93201461039e57806366176743146103c95780636ef6c66d146104085761019c565b8063392317cd146102d05780633932abb11461030d5780633e4f49e6146103385761019c565b8063013cf08b146101a157806302a251a3146101e957806306fdde031461021457806315373e3d1461023f57806317977c611461026857806324bc1a64146102a5575b600080fd5b3480156101ad57600080fd5b506101c860048036038101906101c39190612f6f565b6106ba565b6040516101e09c9b9a99989796959493929190613097565b60405180910390f35b3480156101f557600080fd5b506101fe610871565b60405161020b919061315f565b60405180910390f35b34801561022057600080fd5b5061022961087a565b604051610236919061317a565b60405180910390f35b34801561024b57600080fd5b50610266600480360381019061026191906131c8565b6108b3565b005b34801561027457600080fd5b5061028f600480360381019061028a9190613234565b6108c2565b60405161029c919061315f565b60405180910390f35b3480156102b157600080fd5b506102ba6108da565b6040516102c7919061315f565b60405180910390f35b3480156102dc57600080fd5b506102f760048036038101906102f29190613234565b6108e3565b604051610304919061315f565b60405180910390f35b34801561031957600080fd5b506103226108fb565b60405161032f919061315f565b60405180910390f35b34801561034457600080fd5b5061035f600480360381019061035a9190612f6f565b610904565b60405161036c91906132d8565b60405180910390f35b34801561038157600080fd5b5061039c60048036038101906103979190612f6f565b610ad7565b005b3480156103aa57600080fd5b506103b3610e89565b6040516103c091906132f3565b60405180910390f35b3480156103d557600080fd5b506103f060048036038101906103eb919061330e565b610eaf565b6040516103ff93929190613375565b60405180910390f35b34801561041457600080fd5b5061041d610f18565b60405161042a91906133ac565b60405180910390f35b34801561043f57600080fd5b5061045a60048036038101906104559190613234565b610f36565b60405161046791906133c7565b60405180910390f35b34801561047c57600080fd5b50610485610f56565b604051610492919061315f565b60405180910390f35b6104b560048036038101906104b09190613905565b610f5f565b6040516104c2919061315f565b60405180910390f35b3480156104d757600080fd5b506104e061173b565b6040516104ed9190613aca565b60405180910390f35b34801561050257600080fd5b5061050b611761565b604051610518919061315f565b60405180910390f35b61053b60048036038101906105369190613b11565b61176a565b005b34801561054957600080fd5b50610564600480360381019061055f9190612f6f565b611b6b565b604051610571919061315f565b60405180910390f35b34801561058657600080fd5b506105a1600480360381019061059c9190612f6f565b611bfa565b6040516105ae91906132f3565b60405180910390f35b3480156105c357600080fd5b506105cc611c2d565b6040516105d99190613b5f565b60405180910390f35b3480156105ee57600080fd5b506105f7611c51565b604051610604919061315f565b60405180910390f35b34801561061957600080fd5b50610634600480360381019061062f9190612f6f565b611c57565b005b34801561064257600080fd5b5061065d60048036038101906106589190613234565b61234a565b60405161066a91906133c7565b60405180910390f35b34801561067f57600080fd5b5061068861236a565b6040516106959190613b9b565b60405180910390f35b6106b860048036038101906106b39190612f6f565b612390565b005b60066020528060005260406000206000915090508060000154908060010160009054906101000a900473ffffffffffffffffffffffffffffffffffffffff169080600201549080600701549080600801549080600901549080600a01549080600b0160009054906101000a900460ff169080600b0160019054906101000a900460ff169080600b0160029054906101000a900460ff169080600c01805461076090613be5565b80601f016020809104026020016040519081016040528092919081815260200182805461078c90613be5565b80156107d95780601f106107ae576101008083540402835291602001916107d9565b820191906000526020600020905b8154815290600101906020018083116107bc57829003601f168201915b50505050509080600d0180546107ee90613be5565b80601f016020809104026020016040519081016040528092919081815260200182805461081a90613be5565b80156108675780601f1061083c57610100808354040283529160200191610867565b820191906000526020600020905b81548152906001019060200180831161084a57829003601f168201915b505050505090508c565b60006028905090565b6040518060400160405280600781526020017f53616d686974610000000000000000000000000000000000000000000000000081525081565b6108be3383836125fb565b5050565b60076020528060005260406000206000915090505481565b60006028905090565b60086020528060005260406000206000915090505481565b60006001905090565b600081600354101580156109185750600082115b610957576040517f08c379a000000000000000000000000000000000000000000000000000000000815260040161094e90613c62565b60405180910390fd5b600060066000848152602001908152602001600020905080600b0160009054906101000a900460ff161561098f576002915050610ad2565b806007015443116109a4576000915050610ad2565b806008015443116109b9576001915050610ad2565b80600a015481600901541115806109da57506109d36108da565b8160090154105b156109e9576003915050610ad2565b60008160020154036109ff576004915050610ad2565b80600b0160019054906101000a900460ff1615610a20576007915050610ad2565b610abc816002015460008054906101000a900473ffffffffffffffffffffffffffffffffffffffff1673ffffffffffffffffffffffffffffffffffffffff1663c1a287e26040518163ffffffff1660e01b8152600401602060405180830381865afa158015610a93573d6000803e3d6000fd5b505050506040513d601f19601f82011682018060405250810190610ab79190613c97565b6128d8565b4210610acc576006915050610ad2565b60059150505b919050565b600780811115610aea57610ae9613261565b5b610af382610904565b6007811115610b0557610b04613261565b5b03610b45576040517f08c379a0000000000000000000000000000000000000000000000000000000008152600401610b3c90613d10565b60405180910390fd5b6000600660008381526020019081526020016000209050600460009054906101000a900473ffffffffffffffffffffffffffffffffffffffff1673ffffffffffffffffffffffffffffffffffffffff163373ffffffffffffffffffffffffffffffffffffffff161480610c975750610bbb611761565b600160009054906101000a900473ffffffffffffffffffffffffffffffffffffffff1673ffffffffffffffffffffffffffffffffffffffff1663782d6fe18360010160009054906101000a900473ffffffffffffffffffffffffffffffffffffffff16610c29436001612936565b6040518363ffffffff1660e01b8152600401610c46929190613d30565b602060405180830381865afa158015610c63573d6000803e3d6000fd5b505050506040513d601f19601f82011682018060405250810190610c879190613d6e565b6bffffffffffffffffffffffff16105b610cd6576040517f08c379a0000000000000000000000000000000000000000000000000000000008152600401610ccd90613de7565b60405180910390fd5b600181600b0160006101000a81548160ff02191690831515021790555060005b8160030180549050811015610e4d5760008054906101000a900473ffffffffffffffffffffffffffffffffffffffff1673ffffffffffffffffffffffffffffffffffffffff1663591fcdfe836003018381548110610d5757610d56613e07565b5b9060005260206000200160009054906101000a900473ffffffffffffffffffffffffffffffffffffffff16846004018481548110610d9857610d97613e07565b5b9060005260206000200154856005018581548110610db957610db8613e07565b5b90600052602060002001866006018681548110610dd957610dd8613e07565b5b9060005260206000200187600201546040518663ffffffff1660e01b8152600401610e08959493929190613f79565b600060405180830381600087803b158015610e2257600080fd5b505af1158015610e36573d6000803e3d6000fd5b505050508080610e4590614009565b915050610cf6565b507f789cf55be980739dad1d0699b93b58e806b51c9d96619bfa8fe0a28abaa7b30c82604051610e7d919061315f565b60405180910390a15050565b600460009054906101000a900473ffffffffffffffffffffffffffffffffffffffff1681565b6005602052816000526040600020602052806000526040600020600091509150508060000160009054906101000a900460ff16908060000160019054906101000a900460ff16908060000160029054906101000a90046bffffffffffffffffffffffff16905083565b600d60009054906101000a90046bffffffffffffffffffffffff1681565b600a6020528060005260406000206000915054906101000a900460ff1681565b6000600a905090565b6000600c60003373ffffffffffffffffffffffffffffffffffffffff1673ffffffffffffffffffffffffffffffffffffffff16815260200190815260200160002060009054906101000a900460ff16610fed576040517f08c379a0000000000000000000000000000000000000000000000000000000008152600401610fe4906140c3565b60405180910390fd5b600d60009054906101000a90046bffffffffffffffffffffffff166bffffffffffffffffffffffff163414611057576040517f08c379a000000000000000000000000000000000000000000000000000000000815260040161104e90614155565b60405180910390fd5b61105f611761565b600160009054906101000a900473ffffffffffffffffffffffffffffffffffffffff1673ffffffffffffffffffffffffffffffffffffffff1663782d6fe1336110a9436001612936565b6040518363ffffffff1660e01b81526004016110c6929190613d30565b602060405180830381865afa1580156110e3573d6000803e3d6000fd5b505050506040513d601f19601f820116820180604052508101906111079190613d6e565b6bffffffffffffffffffffffff1611611155576040517f08c379a000000000000000000000000000000000000000000000000000000000815260040161114c906141e7565b60405180910390fd5b86518851148015611167575085518851145b8015611174575084518851145b6111b3576040517f08c379a00000000000000000000000000000000000000000000000000000000081526004016111aa90614279565b60405180910390fd5b60008851036111f7576040517f08c379a00000000000000000000000000000000000000000000000000000000081526004016111ee906142e5565b60405180910390fd5b6111ff610f56565b88511115611242576040517f08c379a000000000000000000000000000000000000000000000000000000000815260040161123990614351565b60405180910390fd5b600160009054906101000a900473ffffffffffffffffffffffffffffffffffffffff1673ffffffffffffffffffffffffffffffffffffffff1663a9059cbb30600d60009054906101000a90046bffffffffffffffffffffffff166040518363ffffffff1660e01b81526004016112b99291906143a2565b6020604051808303816000875af11580156112d8573d6000803e3d6000fd5b505050506040513d601f19601f820116820180604052508101906112fc91906143e0565b506000600760003373ffffffffffffffffffffffffffffffffffffffff1673ffffffffffffffffffffffffffffffffffffffff1681526020019081526020016000205490506000811461142657600061135482610904565b90506001600781111561136a57611369613261565b5b81600781111561137d5761137c613261565b5b036113bd576040517f08c379a00000000000000000000000000000000000000000000000000000000081526004016113b490614459565b60405180910390fd5b600060078111156113d1576113d0613261565b5b8160078111156113e4576113e3613261565b5b03611424576040517f08c379a000000000000000000000000000000000000000000000000000000000815260040161141b906144eb565b60405180910390fd5b505b6000611439436114346108fb565b6128d8565b9050600061144e82611449610871565b6128d8565b90506003600081548092919061146390614009565b919050555060405180610200016040528060035481526020013373ffffffffffffffffffffffffffffffffffffffff168152602001600081526020018c81526020018b81526020018a81526020018981526020018381526020018281526020016000815260200160008152602001600015158152602001600015158152602001600015158152602001878152602001868152506006600060035481526020019081526020016000206000820151816000015560208201518160010160006101000a81548173ffffffffffffffffffffffffffffffffffffffff021916908373ffffffffffffffffffffffffffffffffffffffff160217905550604082015181600201556060820151816003019080519060200190611582929190612cad565b50608082015181600401908051906020019061159f929190612d37565b5060a08201518160050190805190602001906115bc929190612d84565b5060c08201518160060190805190602001906115d9929190612ddd565b5060e082015181600701556101008201518160080155610120820151816009015561014082015181600a015561016082015181600b0160006101000a81548160ff02191690831515021790555061018082015181600b0160016101000a81548160ff0219169083151502179055506101a082015181600b0160026101000a81548160ff0219169083151502179055506101c082015181600c01908161167e9190614698565b506101e082015181600d0190816116959190614698565b50905050600354600760003373ffffffffffffffffffffffffffffffffffffffff1673ffffffffffffffffffffffffffffffffffffffff168152602001908152602001600020819055507f7d84a6263ae0d98d3329bd7b46bb4e8d6f98cd35a7adb45c274c8b7fd5ebd5e0600354338d8d8d8d88888f60405161172099989796959493929190614b09565b60405180910390a16003549350505050979650505050505050565b600260009054906101000a900473ffffffffffffffffffffffffffffffffffffffff1681565b6000600a905090565b600d600c9054906101000a90046bffffffffffffffffffffffff166bffffffffffffffffffffffff16816bffffffffffffffffffffffff1610156117e3576040517f08c379a00000000000000000000000000000000000000000000000000000000081526004016117da90614c2b565b60405180910390fd5b600160009054906101000a900473ffffffffffffffffffffffffffffffffffffffff1673ffffffffffffffffffffffffffffffffffffffff16634b94f50e6040518163ffffffff1660e01b8152600401602060405180830381865afa158015611850573d6000803e3d6000fd5b505050506040513d601f19601f820116820180604052508101906118749190613c97565b816bffffffffffffffffffffffff1661188d9190614c4b565b34146118ce576040517f08c379a00000000000000000000000000000000000000000000000000000000081526004016118c590614cd9565b60405180910390fd5b806bffffffffffffffffffffffff16600160009054906101000a900473ffffffffffffffffffffffffffffffffffffffff1673ffffffffffffffffffffffffffffffffffffffff166370a08231306040518263ffffffff1660e01b815260040161193891906132f3565b602060405180830381865afa158015611955573d6000803e3d6000fd5b505050506040513d601f19601f820116820180604052508101906119799190613c97565b10156119ba576040517f08c379a00000000000000000000000000000000000000000000000000000000081526004016119b190614d6b565b60405180910390fd5b600c60003373ffffffffffffffffffffffffffffffffffffffff1673ffffffffffffffffffffffffffffffffffffffff16815260200190815260200160002060009054906101000a900460ff16611ac757600b339080600181540180825580915050600190039060005260206000200160009091909190916101000a81548173ffffffffffffffffffffffffffffffffffffffff021916908373ffffffffffffffffffffffffffffffffffffffff1602179055506001600c60003373ffffffffffffffffffffffffffffffffffffffff1673ffffffffffffffffffffffffffffffffffffffff16815260200190815260200160002060006101000a81548160ff0219169083151502179055505b600160009054906101000a900473ffffffffffffffffffffffffffffffffffffffff1673ffffffffffffffffffffffffffffffffffffffff1663a9059cbb33836040518363ffffffff1660e01b8152600401611b249291906143a2565b6020604051808303816000875af1158015611b43573d6000803e3d6000fd5b505050506040513d601f19601f82011682018060405250810190611b6791906143e0565b5050565b60008082118015611b7e57506003548211155b611bbd576040517f08c379a0000000000000000000000000000000000000000000000000000000008152600401611bb490614dd7565b60405180910390fd5b611bdc600660008481526020019081526020016000206009015461298f565b60066000838152602001908152602001600020600901549050919050565b60096020528060005260406000206000915054906101000a900473ffffffffffffffffffffffffffffffffffffffff1681565b60008054906101000a900473ffffffffffffffffffffffffffffffffffffffff1681565b60035481565b60046007811115611c6b57611c6a613261565b5b611c7482610904565b6007811115611c8657611c85613261565b5b14611cc6576040517f08c379a0000000000000000000000000000000000000000000000000000000008152600401611cbd90614e69565b60405180910390fd5b604051602001611cd590614ee0565b6040516020818303038152906040528051906020012060066000838152602001908152602001600020600c01604051602001611d119190614f78565b6040516020818303038152906040528051906020012014611d67576040517f08c379a0000000000000000000000000000000000000000000000000000000008152600401611d5e90614fdb565b60405180910390fd5b6006600082815260200190815260200160002060010160009054906101000a900473ffffffffffffffffffffffffffffffffffffffff166009600083815260200190815260200160002060006101000a81548173ffffffffffffffffffffffffffffffffffffffff021916908373ffffffffffffffffffffffffffffffffffffffff1602179055506001600a60003373ffffffffffffffffffffffffffffffffffffffff1673ffffffffffffffffffffffffffffffffffffffff16815260200190815260200160002060006101000a81548160ff02191690831515021790555060006006600083815260200190815260200160002090506000611ef84260008054906101000a900473ffffffffffffffffffffffffffffffffffffffff1673ffffffffffffffffffffffffffffffffffffffff16636a42b8f86040518163ffffffff1660e01b8152600401602060405180830381865afa158015611ecf573d6000803e3d6000fd5b505050506040513d601f19601f82011682018060405250810190611ef39190613c97565b6128d8565b905060005b82600301805490508110156120dc576120c9836003018281548110611f2557611f24613e07565b5b9060005260206000200160009054906101000a900473ffffffffffffffffffffffffffffffffffffffff16846004018381548110611f6657611f65613e07565b5b9060005260206000200154856005018481548110611f8757611f86613e07565b5b906000526020600020018054611f9c90613be5565b80601f0160208091040260200160405190810160405280929190818152602001828054611fc890613be5565b80156120155780601f10611fea57610100808354040283529160200191612015565b820191906000526020600020905b815481529060010190602001808311611ff857829003601f168201915b50505050508660060185815481106120305761202f613e07565b5b90600052602060002001805461204590613be5565b80601f016020809104026020016040519081016040528092919081815260200182805461207190613be5565b80156120be5780601f10612093576101008083540402835291602001916120be565b820191906000526020600020905b8154815290600101906020018083116120a157829003601f168201915b505050505086612a28565b80806120d490614009565b915050611efd565b50808260020181905550600160009054906101000a900473ffffffffffffffffffffffffffffffffffffffff1673ffffffffffffffffffffffffffffffffffffffff1663a9059cbb6006600086815260200190815260200160002060010160009054906101000a900473ffffffffffffffffffffffffffffffffffffffff16600d60009054906101000a90046bffffffffffffffffffffffff166040518363ffffffff1660e01b81526004016121939291906143a2565b6020604051808303816000875af11580156121b2573d6000803e3d6000fd5b505050506040513d601f19601f820116820180604052508101906121d691906143e0565b5060001515600a60003373ffffffffffffffffffffffffffffffffffffffff1673ffffffffffffffffffffffffffffffffffffffff16815260200190815260200160002060009054906101000a900460ff1615150361230c57600260009054906101000a900473ffffffffffffffffffffffffffffffffffffffff1673ffffffffffffffffffffffffffffffffffffffff1663b971043b6006600086815260200190815260200160002060010160009054906101000a900473ffffffffffffffffffffffffffffffffffffffff1660066000878152602001908152602001600020600d01866040518463ffffffff1660e01b81526004016122d993929190614ffb565b600060405180830381600087803b1580156122f357600080fd5b505af1158015612307573d6000803e3d6000fd5b505050505b7f9a2e42fd6722813d69113e7d0079d3d940171428df7373df9c7f7617cfda2892838260405161233d929190615039565b60405180910390a1505050565b600c6020528060005260406000206000915054906101000a900460ff1681565b600160009054906101000a900473ffffffffffffffffffffffffffffffffffffffff1681565b600560078111156123a4576123a3613261565b5b6123ad82610904565b60078111156123bf576123be613261565b5b146123ff576040517f08c379a00000000000000000000000000000000000000000000000000000000081526004016123f6906150d4565b60405180910390fd5b6000600660008381526020019081526020016000209050600181600b0160016101000a81548160ff02191690831515021790555060005b81600301805490508110156125bf5760008054906101000a900473ffffffffffffffffffffffffffffffffffffffff1673ffffffffffffffffffffffffffffffffffffffff16632224fa2583600401838154811061249757612496613e07565b5b90600052602060002001548460030184815481106124b8576124b7613e07565b5b9060005260206000200160009054906101000a900473ffffffffffffffffffffffffffffffffffffffff168560040185815481106124f9576124f8613e07565b5b906000526020600020015486600501868154811061251a57612519613e07565b5b9060005260206000200187600601878154811061253a57612539613e07565b5b906000526020600020016040518663ffffffff1660e01b815260040161256394939291906150f4565b60006040518083038185885af1158015612581573d6000803e3d6000fd5b50505050506040513d6000823e3d601f19601f820116820180604052508101906125ab91906151b7565b5080806125b790614009565b915050612436565b507f712ae1383f79ac853f8d882153778e0260ef8f03b504e2866e0593e04d2b291f826040516125ef919061315f565b60405180910390a15050565b6001600781111561260f5761260e613261565b5b61261883610904565b600781111561262a57612629613261565b5b1461266a576040517f08c379a00000000000000000000000000000000000000000000000000000000081526004016126619061524c565b60405180910390fd5b600060066000848152602001908152602001600020905060006005600085815260200190815260200160002060008673ffffffffffffffffffffffffffffffffffffffff1673ffffffffffffffffffffffffffffffffffffffff1681526020019081526020016000209050600015158160000160009054906101000a900460ff1615151461272d576040517f08c379a0000000000000000000000000000000000000000000000000000000008152600401612724906152b8565b60405180910390fd5b6000600160009054906101000a900473ffffffffffffffffffffffffffffffffffffffff1673ffffffffffffffffffffffffffffffffffffffff1663782d6fe18785600701546040518363ffffffff1660e01b8152600401612790929190613d30565b602060405180830381865afa1580156127ad573d6000803e3d6000fd5b505050506040513d601f19601f820116820180604052508101906127d19190613d6e565b90508315612802576127f58360090154826bffffffffffffffffffffffff166128d8565b8360090181905550612827565b61281e83600a0154826bffffffffffffffffffffffff166128d8565b83600a01819055505b60018260000160006101000a81548160ff021916908315150217905550838260000160016101000a81548160ff021916908315150217905550808260000160026101000a8154816bffffffffffffffffffffffff02191690836bffffffffffffffffffffffff1602179055507f877856338e13f63d0c36822ff0ef736b80934cd90574a3a5bc9262c39d217c46868686846040516128c894939291906152d8565b60405180910390a1505050505050565b60008082846128e7919061531d565b90508381101561292c576040517f08c379a00000000000000000000000000000000000000000000000000000000081526004016129239061539d565b60405180910390fd5b8091505092915050565b60008282111561297b576040517f08c379a000000000000000000000000000000000000000000000000000000000815260040161297290615409565b60405180910390fd5b81836129879190615429565b905092915050565b612a25816040516024016129a3919061315f565b6040516020818303038152906040527ff82c50f1000000000000000000000000000000000000000000000000000000007bffffffffffffffffffffffffffffffffffffffffffffffffffffffff19166020820180517bffffffffffffffffffffffffffffffffffffffffffffffffffffffff8381831617835250505050612c67565b50565b60008054906101000a900473ffffffffffffffffffffffffffffffffffffffff1673ffffffffffffffffffffffffffffffffffffffff1663f2b065378686868686604051602001612a7d959493929190615496565b604051602081830303815290604052805190602001206040518263ffffffff1660e01b8152600401612aaf9190615510565b602060405180830381865afa158015612acc573d6000803e3d6000fd5b505050506040513d601f19601f82011682018060405250810190612af091906143e0565b15612b30576040517f08c379a0000000000000000000000000000000000000000000000000000000008152600401612b279061559d565b60405180910390fd5b60008054906101000a900473ffffffffffffffffffffffffffffffffffffffff1673ffffffffffffffffffffffffffffffffffffffff1663abc203bd336040518263ffffffff1660e01b8152600401612b8991906132f3565b600060405180830381600087803b158015612ba357600080fd5b505af1158015612bb7573d6000803e3d6000fd5b5050505060008054906101000a900473ffffffffffffffffffffffffffffffffffffffff1673ffffffffffffffffffffffffffffffffffffffff16633a66f90186868686866040518663ffffffff1660e01b8152600401612c1c959493929190615496565b6020604051808303816000875af1158015612c3b573d6000803e3d6000fd5b505050506040513d601f19601f82011682018060405250810190612c5f91906155e9565b505050505050565b612c7e81612c76612c81612ca2565b63ffffffff16565b50565b60006a636f6e736f6c652e6c6f679050600080835160208501845afa505050565b612e36819050919050565b828054828255906000526020600020908101928215612d26579160200282015b82811115612d255782518260006101000a81548173ffffffffffffffffffffffffffffffffffffffff021916908373ffffffffffffffffffffffffffffffffffffffff16021790555091602001919060010190612ccd565b5b509050612d339190612e40565b5090565b828054828255906000526020600020908101928215612d73579160200282015b82811115612d72578251825591602001919060010190612d57565b5b509050612d809190612e40565b5090565b828054828255906000526020600020908101928215612dcc579160200282015b82811115612dcb578251829081612dbb9190614698565b5091602001919060010190612da4565b5b509050612dd99190612e5d565b5090565b828054828255906000526020600020908101928215612e25579160200282015b82811115612e24578251829081612e14919061565c565b5091602001919060010190612dfd565b5b509050612e329190612e81565b5090565b612e3e61572e565b565b5b80821115612e59576000816000905550600101612e41565b5090565b5b80821115612e7d5760008181612e749190612ea5565b50600101612e5e565b5090565b5b80821115612ea15760008181612e989190612ee5565b50600101612e82565b5090565b508054612eb190613be5565b6000825580601f10612ec35750612ee2565b601f016020900490600052602060002090810190612ee19190612e40565b5b50565b508054612ef190613be5565b6000825580601f10612f035750612f22565b601f016020900490600052602060002090810190612f219190612e40565b5b50565b6000604051905090565b600080fd5b600080fd5b6000819050919050565b612f4c81612f39565b8114612f5757600080fd5b50565b600081359050612f6981612f43565b92915050565b600060208284031215612f8557612f84612f2f565b5b6000612f9384828501612f5a565b91505092915050565b612fa581612f39565b82525050565b600073ffffffffffffffffffffffffffffffffffffffff82169050919050565b6000612fd682612fab565b9050919050565b612fe681612fcb565b82525050565b60008115159050919050565b61300181612fec565b82525050565b600081519050919050565b600082825260208201905092915050565b60005b83811015613041578082015181840152602081019050613026565b60008484015250505050565b6000601f19601f8301169050919050565b600061306982613007565b6130738185613012565b9350613083818560208601613023565b61308c8161304d565b840191505092915050565b6000610180820190506130ad600083018f612f9c565b6130ba602083018e612fdd565b6130c7604083018d612f9c565b6130d4606083018c612f9c565b6130e1608083018b612f9c565b6130ee60a083018a612f9c565b6130fb60c0830189612f9c565b61310860e0830188612ff8565b613116610100830187612ff8565b613124610120830186612ff8565b818103610140830152613137818561305e565b905081810361016083015261314c818461305e565b90509d9c50505050505050505050505050565b60006020820190506131746000830184612f9c565b92915050565b60006020820190508181036000830152613194818461305e565b905092915050565b6131a581612fec565b81146131b057600080fd5b50565b6000813590506131c28161319c565b92915050565b600080604083850312156131df576131de612f2f565b5b60006131ed85828601612f5a565b92505060206131fe858286016131b3565b9150509250929050565b61321181612fcb565b811461321c57600080fd5b50565b60008135905061322e81613208565b92915050565b60006020828403121561324a57613249612f2f565b5b60006132588482850161321f565b91505092915050565b7f4e487b7100000000000000000000000000000000000000000000000000000000600052602160045260246000fd5b600881106132a1576132a0613261565b5b50565b60008190506132b282613290565b919050565b60006132c2826132a4565b9050919050565b6132d2816132b7565b82525050565b60006020820190506132ed60008301846132c9565b92915050565b60006020820190506133086000830184612fdd565b92915050565b6000806040838503121561332557613324612f2f565b5b600061333385828601612f5a565b92505060206133448582860161321f565b9150509250929050565b60006bffffffffffffffffffffffff82169050919050565b61336f8161334e565b82525050565b600060608201905061338a6000830186612ff8565b6133976020830185612ff8565b6133a46040830184613366565b949350505050565b60006020820190506133c16000830184613366565b92915050565b60006020820190506133dc6000830184612ff8565b92915050565b600080fd5b7f4e487b7100000000000000000000000000000000000000000000000000000000600052604160045260246000fd5b61341f8261304d565b810181811067ffffffffffffffff8211171561343e5761343d6133e7565b5b80604052505050565b6000613451612f25565b905061345d8282613416565b919050565b600067ffffffffffffffff82111561347d5761347c6133e7565b5b602082029050602081019050919050565b600080fd5b60006134a66134a184613462565b613447565b905080838252602082019050602084028301858111156134c9576134c861348e565b5b835b818110156134f257806134de888261321f565b8452602084019350506020810190506134cb565b5050509392505050565b600082601f830112613511576135106133e2565b5b8135613521848260208601613493565b91505092915050565b600067ffffffffffffffff821115613545576135446133e7565b5b602082029050602081019050919050565b60006135696135648461352a565b613447565b9050808382526020820190506020840283018581111561358c5761358b61348e565b5b835b818110156135b557806135a18882612f5a565b84526020840193505060208101905061358e565b5050509392505050565b600082601f8301126135d4576135d36133e2565b5b81356135e4848260208601613556565b91505092915050565b600067ffffffffffffffff821115613608576136076133e7565b5b602082029050602081019050919050565b600080fd5b600067ffffffffffffffff821115613639576136386133e7565b5b6136428261304d565b9050602081019050919050565b82818337600083830152505050565b600061367161366c8461361e565b613447565b90508281526020810184848401111561368d5761368c613619565b5b61369884828561364f565b509392505050565b600082601f8301126136b5576136b46133e2565b5b81356136c584826020860161365e565b91505092915050565b60006136e16136dc846135ed565b613447565b905080838252602082019050602084028301858111156137045761370361348e565b5b835b8181101561374b57803567ffffffffffffffff811115613729576137286133e2565b5b80860161373689826136a0565b85526020850194505050602081019050613706565b5050509392505050565b600082601f83011261376a576137696133e2565b5b813561377a8482602086016136ce565b91505092915050565b600067ffffffffffffffff82111561379e5761379d6133e7565b5b602082029050602081019050919050565b600067ffffffffffffffff8211156137ca576137c96133e7565b5b6137d38261304d565b9050602081019050919050565b60006137f36137ee846137af565b613447565b90508281526020810184848401111561380f5761380e613619565b5b61381a84828561364f565b509392505050565b600082601f830112613837576138366133e2565b5b81356138478482602086016137e0565b91505092915050565b600061386361385e84613783565b613447565b905080838252602082019050602084028301858111156138865761388561348e565b5b835b818110156138cd57803567ffffffffffffffff8111156138ab576138aa6133e2565b5b8086016138b88982613822565b85526020850194505050602081019050613888565b5050509392505050565b600082601f8301126138ec576138eb6133e2565b5b81356138fc848260208601613850565b91505092915050565b600080600080600080600060e0888a03121561392457613923612f2f565b5b600088013567ffffffffffffffff81111561394257613941612f34565b5b61394e8a828b016134fc565b975050602088013567ffffffffffffffff81111561396f5761396e612f34565b5b61397b8a828b016135bf565b965050604088013567ffffffffffffffff81111561399c5761399b612f34565b5b6139a88a828b01613755565b955050606088013567ffffffffffffffff8111156139c9576139c8612f34565b5b6139d58a828b016138d7565b945050608088013567ffffffffffffffff8111156139f6576139f5612f34565b5b613a028a828b016136a0565b93505060a088013567ffffffffffffffff811115613a2357613a22612f34565b5b613a2f8a828b016136a0565b92505060c088013567ffffffffffffffff811115613a5057613a4f612f34565b5b613a5c8a828b016136a0565b91505092959891949750929550565b6000819050919050565b6000613a90613a8b613a8684612fab565b613a6b565b612fab565b9050919050565b6000613aa282613a75565b9050919050565b6000613ab482613a97565b9050919050565b613ac481613aa9565b82525050565b6000602082019050613adf6000830184613abb565b92915050565b613aee8161334e565b8114613af957600080fd5b50565b600081359050613b0b81613ae5565b92915050565b600060208284031215613b2757613b26612f2f565b5b6000613b3584828501613afc565b91505092915050565b6000613b4982613a97565b9050919050565b613b5981613b3e565b82525050565b6000602082019050613b746000830184613b50565b92915050565b6000613b8582613a97565b9050919050565b613b9581613b7a565b82525050565b6000602082019050613bb06000830184613b8c565b92915050565b7f4e487b7100000000000000000000000000000000000000000000000000000000600052602260045260246000fd5b60006002820490506001821680613bfd57607f821691505b602082108103613c1057613c0f613bb6565b5b50919050565b7f696e76616c69642070726f706f73616c20696400000000000000000000000000600082015250565b6000613c4c601383613012565b9150613c5782613c16565b602082019050919050565b60006020820190508181036000830152613c7b81613c3f565b9050919050565b600081519050613c9181612f43565b92915050565b600060208284031215613cad57613cac612f2f565b5b6000613cbb84828501613c82565b91505092915050565b7f63616e6e6f742063616e63656c2065786563757465642070726f706f73616c00600082015250565b6000613cfa601f83613012565b9150613d0582613cc4565b602082019050919050565b60006020820190508181036000830152613d2981613ced565b9050919050565b6000604082019050613d456000830185612fdd565b613d526020830184612f9c565b9392505050565b600081519050613d6881613ae5565b92915050565b600060208284031215613d8457613d83612f2f565b5b6000613d9284828501613d59565b91505092915050565b7f70726f706f7365722061626f7665207468726573686f6c640000000000000000600082015250565b6000613dd1601883613012565b9150613ddc82613d9b565b602082019050919050565b60006020820190508181036000830152613e0081613dc4565b9050919050565b7f4e487b7100000000000000000000000000000000000000000000000000000000600052603260045260246000fd5b60008190508160005260206000209050919050565b60008154613e5881613be5565b613e628186613012565b94506001821660008114613e7d5760018114613e9357613ec6565b60ff198316865281151560200286019350613ec6565b613e9c85613e36565b60005b83811015613ebe57815481890152600182019150602081019050613e9f565b808801955050505b50505092915050565b600082825260208201905092915050565b60008190508160005260206000209050919050565b60008154613f0281613be5565b613f0c8186613ecf565b94506001821660008114613f275760018114613f3d57613f70565b60ff198316865281151560200286019350613f70565b613f4685613ee0565b60005b83811015613f6857815481890152600182019150602081019050613f49565b808801955050505b50505092915050565b600060a082019050613f8e6000830188612fdd565b613f9b6020830187612f9c565b8181036040830152613fad8186613e4b565b90508181036060830152613fc18185613ef5565b9050613fd06080830184612f9c565b9695505050505050565b7f4e487b7100000000000000000000000000000000000000000000000000000000600052601160045260246000fd5b600061401482612f39565b91507fffffffffffffffffffffffffffffffffffffffffffffffffffffffffffffffff820361404657614045613fda565b5b600182019050919050565b7f596f7520617265206e6f7420746865206d656d626572206f662074687320536160008201527f6d686974612044414f0000000000000000000000000000000000000000000000602082015250565b60006140ad602983613012565b91506140b882614051565b604082019050919050565b600060208201905081810360008301526140dc816140a0565b9050919050565b7f596f75206d75737420686176652076616c6964207374616b6520616d6f756e7460008201527f20746f2063726561746520612070726f706f73616c0000000000000000000000602082015250565b600061413f603583613012565b915061414a826140e3565b604082019050919050565b6000602082019050818103600083015261416e81614132565b9050919050565b7f70726f706f73657220766f7465732062656c6f772070726f706f73616c20746860008201527f726573686f6c6400000000000000000000000000000000000000000000000000602082015250565b60006141d1602783613012565b91506141dc82614175565b604082019050919050565b60006020820190508181036000830152614200816141c4565b9050919050565b7f70726f706f73616c2066756e6374696f6e20696e666f726d6174696f6e20617260008201527f697479206d69736d617463680000000000000000000000000000000000000000602082015250565b6000614263602c83613012565b915061426e82614207565b604082019050919050565b6000602082019050818103600083015261429281614256565b9050919050565b7f736f6d6520616374696f6e206d75737420626520746865726500000000000000600082015250565b60006142cf601983613012565b91506142da82614299565b602082019050919050565b600060208201905081810360008301526142fe816142c2565b9050919050565b7f746f6f206d616e7920616374696f6e7300000000000000000000000000000000600082015250565b600061433b601083613012565b915061434682614305565b602082019050919050565b6000602082019050818103600083015261436a8161432e565b9050919050565b600061438c6143876143828461334e565b613a6b565b612f39565b9050919050565b61439c81614371565b82525050565b60006040820190506143b76000830185612fdd565b6143c46020830184614393565b9392505050565b6000815190506143da8161319c565b92915050565b6000602082840312156143f6576143f5612f2f565b5b6000614404848285016143cb565b91505092915050565b7f466f756e6420616e20616c7265616479206163746976652070726f706f73616c600082015250565b6000614443602083613012565b915061444e8261440d565b602082019050919050565b6000602082019050818103600083015261447281614436565b9050919050565b7f466f756e6420616e20616c72656164792070656e64696e672070726f706f736160008201527f6c00000000000000000000000000000000000000000000000000000000000000602082015250565b60006144d5602183613012565b91506144e082614479565b604082019050919050565b60006020820190508181036000830152614504816144c8565b9050919050565b60006020601f8301049050919050565b600082821b905092915050565b6000600883026145587fffffffffffffffffffffffffffffffffffffffffffffffffffffffffffffffff8261451b565b614562868361451b565b95508019841693508086168417925050509392505050565b600061459561459061458b84612f39565b613a6b565b612f39565b9050919050565b6000819050919050565b6145af8361457a565b6145c36145bb8261459c565b848454614528565b825550505050565b600090565b6145d86145cb565b6145e38184846145a6565b505050565b5b81811015614607576145fc6000826145d0565b6001810190506145e9565b5050565b601f82111561464c5761461d81613e36565b6146268461450b565b81016020851015614635578190505b6146496146418561450b565b8301826145e8565b50505b505050565b600082821c905092915050565b600061466f60001984600802614651565b1980831691505092915050565b6000614688838361465e565b9150826002028217905092915050565b6146a182613007565b67ffffffffffffffff8111156146ba576146b96133e7565b5b6146c48254613be5565b6146cf82828561460b565b600060209050601f83116001811461470257600084156146f0578287015190505b6146fa858261467c565b865550614762565b601f19841661471086613e36565b60005b8281101561473857848901518255600182019150602085019450602081019050614713565b868310156147555784890151614751601f89168261465e565b8355505b6001600288020188555050505b505050505050565b600081519050919050565b600082825260208201905092915050565b6000819050602082019050919050565b61479f81612fcb565b82525050565b60006147b18383614796565b60208301905092915050565b6000602082019050919050565b60006147d58261476a565b6147df8185614775565b93506147ea83614786565b8060005b8381101561481b57815161480288826147a5565b975061480d836147bd565b9250506001810190506147ee565b5085935050505092915050565b600081519050919050565b600082825260208201905092915050565b6000819050602082019050919050565b61485d81612f39565b82525050565b600061486f8383614854565b60208301905092915050565b6000602082019050919050565b600061489382614828565b61489d8185614833565b93506148a883614844565b8060005b838110156148d95781516148c08882614863565b97506148cb8361487b565b9250506001810190506148ac565b5085935050505092915050565b600081519050919050565b600082825260208201905092915050565b6000819050602082019050919050565b600082825260208201905092915050565b600061492e82613007565b6149388185614912565b9350614948818560208601613023565b6149518161304d565b840191505092915050565b60006149688383614923565b905092915050565b6000602082019050919050565b6000614988826148e6565b61499281856148f1565b9350836020820285016149a485614902565b8060005b858110156149e057848403895281516149c1858261495c565b94506149cc83614970565b925060208a019950506001810190506149a8565b50829750879550505050505092915050565b600081519050919050565b600082825260208201905092915050565b6000819050602082019050919050565b600081519050919050565b600082825260208201905092915050565b6000614a4582614a1e565b614a4f8185614a29565b9350614a5f818560208601613023565b614a688161304d565b840191505092915050565b6000614a7f8383614a3a565b905092915050565b6000602082019050919050565b6000614a9f826149f2565b614aa981856149fd565b935083602082028501614abb85614a0e565b8060005b85811015614af75784840389528151614ad88582614a73565b9450614ae383614a87565b925060208a01995050600181019050614abf565b50829750879550505050505092915050565b600061012082019050614b1f600083018c612f9c565b614b2c602083018b612fdd565b8181036040830152614b3e818a6147ca565b90508181036060830152614b528189614888565b90508181036080830152614b66818861497d565b905081810360a0830152614b7a8187614a94565b9050614b8960c0830186612f9c565b614b9660e0830185612f9c565b818103610100830152614ba9818461305e565b90509a9950505050505050505050565b7f596f75206d757374207075726368617365206174206c6561737420313020746f60008201527f6b656e7320746f206265636f6d652061206d656d626572000000000000000000602082015250565b6000614c15603783613012565b9150614c2082614bb9565b604082019050919050565b60006020820190508181036000830152614c4481614c08565b9050919050565b6000614c5682612f39565b9150614c6183612f39565b9250828202614c6f81612f39565b91508282048414831517614c8657614c85613fda565b5b5092915050565b7f4e6f7420656e6f7567682076616c756500000000000000000000000000000000600082015250565b6000614cc3601083613012565b9150614cce82614c8d565b602082019050919050565b60006020820190508181036000830152614cf281614cb6565b9050919050565b7f436f6e747261637420646f6573206e6f74206861766520656e6f75676820736160008201527f6d68697461546f6b656e73000000000000000000000000000000000000000000602082015250565b6000614d55602b83613012565b9150614d6082614cf9565b604082019050919050565b60006020820190508181036000830152614d8481614d48565b9050919050565b7f496e76616c69642070726f706f73616c20494400000000000000000000000000600082015250565b6000614dc1601383613012565b9150614dcc82614d8b565b602082019050919050565b60006020820190508181036000830152614df081614db4565b9050919050565b7f70726f706f73616c2063616e206f6e6c7920626520717565756564206966206960008201527f7420697320737563636565646564000000000000000000000000000000000000602082015250565b6000614e53602e83613012565b9150614e5e82614df7565b604082019050919050565b60006020820190508181036000830152614e8281614e46565b9050919050565b600081905092915050565b7f74656d706c617465000000000000000000000000000000000000000000000000600082015250565b6000614eca600883614e89565b9150614ed582614e94565b600882019050919050565b6000614eeb82614ebd565b9150819050919050565b60008154614f0281613be5565b614f0c8186614e89565b94506001821660008114614f275760018114614f3c57614f6f565b60ff1983168652811515820286019350614f6f565b614f4585613e36565b60005b83811015614f6757815481890152600182019150602081019050614f48565b838801955050505b50505092915050565b6000614f848284614ef5565b915081905092915050565b7f4e6f7420612074656d706c6174652070726f706f73616c000000000000000000600082015250565b6000614fc5601783613012565b9150614fd082614f8f565b602082019050919050565b60006020820190508181036000830152614ff481614fb8565b9050919050565b60006060820190506150106000830186612fdd565b81810360208301526150228185613e4b565b90506150316040830184612f9c565b949350505050565b600060408201905061504e6000830185612f9c565b61505b6020830184612f9c565b9392505050565b7f70726f706f73616c2063616e206f6e6c7920626520657865637574656420696660008201527f2069742069732071756575656400000000000000000000000000000000000000602082015250565b60006150be602d83613012565b91506150c982615062565b604082019050919050565b600060208201905081810360008301526150ed816150b1565b9050919050565b60006080820190506151096000830187612fdd565b6151166020830186612f9c565b81810360408301526151288185613e4b565b9050818103606083015261513c8184613ef5565b905095945050505050565b600061515a615155846137af565b613447565b90508281526020810184848401111561517657615175613619565b5b615181848285613023565b509392505050565b600082601f83011261519e5761519d6133e2565b5b81516151ae848260208601615147565b91505092915050565b6000602082840312156151cd576151cc612f2f565b5b600082015167ffffffffffffffff8111156151eb576151ea612f34565b5b6151f784828501615189565b91505092915050565b7f766f74696e6720697320636c6f73656400000000000000000000000000000000600082015250565b6000615236601083613012565b915061524182615200565b602082019050919050565b6000602082019050818103600083015261526581615229565b9050919050565b7f766f7465722068617320616c726561647920766f746564000000000000000000600082015250565b60006152a2601783613012565b91506152ad8261526c565b602082019050919050565b600060208201905081810360008301526152d181615295565b9050919050565b60006080820190506152ed6000830187612fdd565b6152fa6020830186612f9c565b6153076040830185612ff8565b6153146060830184614393565b95945050505050565b600061532882612f39565b915061533383612f39565b925082820190508082111561534b5761534a613fda565b5b92915050565b7f6164646974696f6e206f766572666c6f77000000000000000000000000000000600082015250565b6000615387601183613012565b915061539282615351565b602082019050919050565b600060208201905081810360008301526153b68161537a565b9050919050565b7f7375627472616374696f6e20756e646572666c6f770000000000000000000000600082015250565b60006153f3601583613012565b91506153fe826153bd565b602082019050919050565b60006020820190508181036000830152615422816153e6565b9050919050565b600061543482612f39565b915061543f83612f39565b925082820390508181111561545757615456613fda565b5b92915050565b600061546882614a1e565b6154728185613ecf565b9350615482818560208601613023565b61548b8161304d565b840191505092915050565b600060a0820190506154ab6000830188612fdd565b6154b86020830187612f9c565b81810360408301526154ca818661305e565b905081810360608301526154de818561545d565b90506154ed6080830184612f9c565b9695505050505050565b6000819050919050565b61550a816154f7565b82525050565b60006020820190506155256000830184615501565b92915050565b7f2070726f706f73616c20616374696f6e20616c7265616479207175657565642060008201527f6174206574610000000000000000000000000000000000000000000000000000602082015250565b6000615587602683613012565b91506155928261552b565b604082019050919050565b600060208201905081810360008301526155b68161557a565b9050919050565b6155c6816154f7565b81146155d157600080fd5b50565b6000815190506155e3816155bd565b92915050565b6000602082840312156155ff576155fe612f2f565b5b600061560d848285016155d4565b91505092915050565b601f8211156156575761562881613ee0565b6156318461450b565b81016020851015615640578190505b61565461564c8561450b565b8301826145e8565b50505b505050565b61566582614a1e565b67ffffffffffffffff81111561567e5761567d6133e7565b5b6156888254613be5565b615693828285615616565b600060209050601f8311600181146156c657600084156156b4578287015190505b6156be858261467c565b865550615726565b601f1984166156d486613ee0565b60005b828110156156fc578489015182556001820191506020850194506020810190506156d7565b868310156157195784890151615715601f89168261465e565b8355505b6001600288020188555050505b505050505050565b7f4e487b7100000000000000000000000000000000000000000000000000000000600052605160045260246000fdfea2646970667358221220d32aa77ea51e96f0e17e7f210f88c582694f8d098795ec3747d0507b0d86b90964736f6c63430008130033",
  "linkReferences": {},
  "deployedLinkReferences": {}
}