{
  "_format": "hh-sol-artifact-1",
  "contractName": "Samhita",
  "sourceName": "contracts/samhita.sol",
  "abi": [
    {
      "inputs": [
        {
          "internalType": "address",
          "name": "timelock_",
          "type": "address"
        },
        {
          "internalType": "address",
          "name": "token_",
          "type": "address"
        },
        {
          "internalType": "address",
          "name": "templateNFT_",
          "type": "address"
        },
        {
          "internalType": "string",
          "name": "_nftUri",
          "type": "string"
        }
      ],
      "stateMutability": "nonpayable",
      "type": "constructor"
    },
    {
      "anonymous": false,
      "inputs": [
        {
          "indexed": false,
          "internalType": "uint256",
          "name": "id",
          "type": "uint256"
        }
      ],
      "name": "ProposalCanceled",
      "type": "event"
    },
    {
      "anonymous": false,
      "inputs": [
        {
          "indexed": false,
          "internalType": "uint256",
          "name": "id",
          "type": "uint256"
        },
        {
          "indexed": false,
          "internalType": "address",
          "name": "proposer",
          "type": "address"
        },
        {
          "indexed": false,
          "internalType": "address[]",
          "name": "targets",
          "type": "address[]"
        },
        {
          "indexed": false,
          "internalType": "uint256[]",
          "name": "values",
          "type": "uint256[]"
        },
        {
          "indexed": false,
          "internalType": "string[]",
          "name": "signatures",
          "type": "string[]"
        },
        {
          "indexed": false,
          "internalType": "bytes[]",
          "name": "calldatas",
          "type": "bytes[]"
        },
        {
          "indexed": false,
          "internalType": "uint256",
          "name": "startBlock",
          "type": "uint256"
        },
        {
          "indexed": false,
          "internalType": "uint256",
          "name": "endBlock",
          "type": "uint256"
        },
        {
          "indexed": false,
          "internalType": "string",
          "name": "description",
          "type": "string"
        }
      ],
      "name": "ProposalCreated",
      "type": "event"
    },
    {
      "anonymous": false,
      "inputs": [
        {
          "indexed": false,
          "internalType": "uint256",
          "name": "id",
          "type": "uint256"
        }
      ],
      "name": "ProposalExecuted",
      "type": "event"
    },
    {
      "anonymous": false,
      "inputs": [
        {
          "indexed": false,
          "internalType": "uint256",
          "name": "id",
          "type": "uint256"
        },
        {
          "indexed": false,
          "internalType": "uint256",
          "name": "eta",
          "type": "uint256"
        }
      ],
      "name": "ProposalQueued",
      "type": "event"
    },
    {
      "anonymous": false,
      "inputs": [
        {
          "indexed": false,
          "internalType": "address",
          "name": "voter",
          "type": "address"
        },
        {
          "indexed": false,
          "internalType": "uint256",
          "name": "proposalId",
          "type": "uint256"
        },
        {
          "indexed": false,
          "internalType": "bool",
          "name": "support",
          "type": "bool"
        },
        {
          "indexed": false,
          "internalType": "uint256",
          "name": "votes",
          "type": "uint256"
        }
      ],
      "name": "VoteCast",
      "type": "event"
    },
    {
      "inputs": [
        {
          "internalType": "uint96",
          "name": "_tokens",
          "type": "uint96"
        }
      ],
      "name": "addMember",
      "outputs": [],
      "stateMutability": "payable",
      "type": "function"
    },
    {
      "inputs": [
        {
          "internalType": "uint256",
          "name": "_proposalId",
          "type": "uint256"
        }
      ],
      "name": "cancel",
      "outputs": [],
      "stateMutability": "nonpayable",
      "type": "function"
    },
    {
      "inputs": [
        {
          "internalType": "uint256",
          "name": "_proposalId",
          "type": "uint256"
        },
        {
          "internalType": "bool",
          "name": "support",
          "type": "bool"
        }
      ],
      "name": "castVote",
      "outputs": [],
      "stateMutability": "nonpayable",
      "type": "function"
    },
    {
      "inputs": [
        {
          "internalType": "string",
          "name": "_nftUri",
          "type": "string"
        }
      ],
      "name": "claimMemberNft",
      "outputs": [],
      "stateMutability": "nonpayable",
      "type": "function"
    },
    {
      "inputs": [
        {
          "internalType": "uint256",
          "name": "_proposalId",
          "type": "uint256"
        }
      ],
      "name": "execute",
      "outputs": [],
      "stateMutability": "payable",
      "type": "function"
    },
    {
      "inputs": [
        {
          "internalType": "uint256",
          "name": "proposalId",
          "type": "uint256"
        }
      ],
      "name": "getForVotes",
      "outputs": [
        {
          "internalType": "uint256",
          "name": "",
          "type": "uint256"
        }
      ],
      "stateMutability": "view",
      "type": "function"
    },
    {
      "inputs": [],
      "name": "guardian",
      "outputs": [
        {
          "internalType": "address",
          "name": "",
          "type": "address"
        }
      ],
      "stateMutability": "view",
      "type": "function"
    },
    {
      "inputs": [
        {
          "internalType": "address",
          "name": "",
          "type": "address"
        }
      ],
      "name": "isMemberAdded",
      "outputs": [
        {
          "internalType": "bool",
          "name": "",
          "type": "bool"
        }
      ],
      "stateMutability": "view",
      "type": "function"
    },
    {
      "inputs": [
        {
          "internalType": "address",
          "name": "",
          "type": "address"
        }
      ],
      "name": "latestProposalIds",
      "outputs": [
        {
          "internalType": "uint256",
          "name": "",
          "type": "uint256"
        }
      ],
      "stateMutability": "view",
      "type": "function"
    },
    {
      "inputs": [
        {
          "internalType": "address",
          "name": "",
          "type": "address"
        }
      ],
      "name": "memberProposals",
      "outputs": [
        {
          "internalType": "uint256",
          "name": "",
          "type": "uint256"
        }
      ],
      "stateMutability": "view",
      "type": "function"
    },
    {
      "inputs": [
        {
          "internalType": "address",
          "name": "",
          "type": "address"
        }
      ],
      "name": "memberVotes",
      "outputs": [
        {
          "internalType": "uint256",
          "name": "",
          "type": "uint256"
        }
      ],
      "stateMutability": "view",
      "type": "function"
    },
    {
      "inputs": [
        {
          "internalType": "address",
          "name": "",
          "type": "address"
        }
      ],
      "name": "memberWithdrawAmount",
      "outputs": [
        {
          "internalType": "uint256",
          "name": "",
          "type": "uint256"
        }
      ],
      "stateMutability": "view",
      "type": "function"
    },
    {
      "inputs": [],
      "name": "name",
      "outputs": [
        {
          "internalType": "string",
          "name": "",
          "type": "string"
        }
      ],
      "stateMutability": "view",
      "type": "function"
    },
    {
      "inputs": [],
      "name": "proposalCount",
      "outputs": [
        {
          "internalType": "uint256",
          "name": "",
          "type": "uint256"
        }
      ],
      "stateMutability": "view",
      "type": "function"
    },
    {
      "inputs": [],
      "name": "proposalMaxOperations",
      "outputs": [
        {
          "internalType": "uint256",
          "name": "",
          "type": "uint256"
        }
      ],
      "stateMutability": "pure",
      "type": "function"
    },
    {
      "inputs": [
        {
          "internalType": "uint256",
          "name": "",
          "type": "uint256"
        },
        {
          "internalType": "address",
          "name": "",
          "type": "address"
        }
      ],
      "name": "proposalReceipts",
      "outputs": [
        {
          "internalType": "bool",
          "name": "hasVoted",
          "type": "bool"
        },
        {
          "internalType": "bool",
          "name": "support",
          "type": "bool"
        },
        {
          "internalType": "uint96",
          "name": "votes",
          "type": "uint96"
        }
      ],
      "stateMutability": "view",
      "type": "function"
    },
    {
      "inputs": [],
      "name": "proposalStake",
      "outputs": [
        {
          "internalType": "uint96",
          "name": "",
          "type": "uint96"
        }
      ],
      "stateMutability": "view",
      "type": "function"
    },
    {
      "inputs": [],
      "name": "proposalThreshold",
      "outputs": [
        {
          "internalType": "uint256",
          "name": "",
          "type": "uint256"
        }
      ],
      "stateMutability": "pure",
      "type": "function"
    },
    {
      "inputs": [
        {
          "internalType": "uint256",
          "name": "",
          "type": "uint256"
        }
      ],
      "name": "proposalToNFTOwner",
      "outputs": [
        {
          "internalType": "address",
          "name": "",
          "type": "address"
        }
      ],
      "stateMutability": "view",
      "type": "function"
    },
    {
      "inputs": [
        {
          "internalType": "uint256",
          "name": "",
          "type": "uint256"
        }
      ],
      "name": "proposals",
      "outputs": [
        {
          "internalType": "uint256",
          "name": "id",
          "type": "uint256"
        },
        {
          "internalType": "address",
          "name": "creator",
          "type": "address"
        },
        {
          "internalType": "uint256",
          "name": "eta",
          "type": "uint256"
        },
        {
          "internalType": "uint256",
          "name": "startBlock",
          "type": "uint256"
        },
        {
          "internalType": "uint256",
          "name": "endBlock",
          "type": "uint256"
        },
        {
          "internalType": "uint256",
          "name": "forVotes",
          "type": "uint256"
        },
        {
          "internalType": "uint256",
          "name": "againstVotes",
          "type": "uint256"
        },
        {
          "internalType": "bool",
          "name": "cancel",
          "type": "bool"
        },
        {
          "internalType": "bool",
          "name": "executed",
          "type": "bool"
        },
        {
          "internalType": "bool",
          "name": "isScrape",
          "type": "bool"
        },
        {
          "internalType": "string",
          "name": "category",
          "type": "string"
        },
        {
          "internalType": "string",
          "name": "proposalFile",
          "type": "string"
        }
      ],
      "stateMutability": "view",
      "type": "function"
    },
    {
      "inputs": [
        {
          "internalType": "address[]",
          "name": "targets",
          "type": "address[]"
        },
        {
          "internalType": "uint256[]",
          "name": "values",
          "type": "uint256[]"
        },
        {
          "internalType": "string[]",
          "name": "signatures",
          "type": "string[]"
        },
        {
          "internalType": "bytes[]",
          "name": "calldatas",
          "type": "bytes[]"
        },
        {
          "internalType": "string",
          "name": "description",
          "type": "string"
        },
        {
          "internalType": "string",
          "name": "category",
          "type": "string"
        },
        {
          "internalType": "string",
          "name": "proposalFile",
          "type": "string"
        }
      ],
      "name": "propose",
      "outputs": [
        {
          "internalType": "uint256",
          "name": "",
          "type": "uint256"
        }
      ],
      "stateMutability": "payable",
      "type": "function"
    },
    {
      "inputs": [
        {
          "internalType": "uint256",
          "name": "_proposalId",
          "type": "uint256"
        }
      ],
      "name": "queue",
      "outputs": [],
      "stateMutability": "nonpayable",
      "type": "function"
    },
    {
      "inputs": [],
      "name": "quorumVotes",
      "outputs": [
        {
          "internalType": "uint256",
          "name": "",
          "type": "uint256"
        }
      ],
      "stateMutability": "pure",
      "type": "function"
    },
    {
      "inputs": [
        {
          "internalType": "address",
          "name": "",
          "type": "address"
        }
      ],
      "name": "receivedMemberNFT",
      "outputs": [
        {
          "internalType": "bool",
          "name": "",
          "type": "bool"
        }
      ],
      "stateMutability": "view",
      "type": "function"
    },
    {
      "inputs": [
        {
          "internalType": "uint256",
          "name": "_proposalId",
          "type": "uint256"
        }
      ],
      "name": "state",
      "outputs": [
        {
          "internalType": "enum Samhita.ProposalState",
          "name": "",
          "type": "uint8"
        }
      ],
      "stateMutability": "view",
      "type": "function"
    },
    {
      "inputs": [],
      "name": "templateNFT",
      "outputs": [
        {
          "internalType": "contract ITemplateNFT",
          "name": "",
          "type": "address"
        }
      ],
      "stateMutability": "view",
      "type": "function"
    },
    {
      "inputs": [],
      "name": "timelock",
      "outputs": [
        {
          "internalType": "contract ITimelock",
          "name": "",
          "type": "address"
        }
      ],
      "stateMutability": "view",
      "type": "function"
    },
    {
      "inputs": [],
      "name": "token",
      "outputs": [
        {
          "internalType": "contract ISamhitaToken",
          "name": "",
          "type": "address"
        }
      ],
      "stateMutability": "view",
      "type": "function"
    },
    {
      "inputs": [],
      "name": "votingDelay",
      "outputs": [
        {
          "internalType": "uint256",
          "name": "",
          "type": "uint256"
        }
      ],
      "stateMutability": "pure",
      "type": "function"
    },
    {
      "inputs": [],
      "name": "votingPeriod",
      "outputs": [
        {
          "internalType": "uint256",
          "name": "",
          "type": "uint256"
        }
      ],
      "stateMutability": "pure",
      "type": "function"
    }
  ],
  "bytecode": "0x6080604052674563918244f40000600f60006101000a8154816bffffffffffffffffffffffff02191690836bffffffffffffffffffffffff160217905550600a600f600c6101000a8154816bffffffffffffffffffffffff02191690836bffffffffffffffffffffffff1602179055503480156200007c57600080fd5b506040516200605c3803806200605c8339818101604052810190620000a291906200043a565b836000806101000a81548173ffffffffffffffffffffffffffffffffffffffff021916908373ffffffffffffffffffffffffffffffffffffffff16021790555082600160006101000a81548173ffffffffffffffffffffffffffffffffffffffff021916908373ffffffffffffffffffffffffffffffffffffffff16021790555081600260006101000a81548173ffffffffffffffffffffffffffffffffffffffff021916908373ffffffffffffffffffffffffffffffffffffffff16021790555033600460006101000a81548173ffffffffffffffffffffffffffffffffffffffff021916908373ffffffffffffffffffffffffffffffffffffffff160217905550600260009054906101000a900473ffffffffffffffffffffffffffffffffffffffff1673ffffffffffffffffffffffffffffffffffffffff16638c85826633836040518363ffffffff1660e01b81526004016200020492919062000539565b600060405180830381600087803b1580156200021f57600080fd5b505af115801562000234573d6000803e3d6000fd5b50505050505050506200056d565b6000604051905090565b600080fd5b600080fd5b600073ffffffffffffffffffffffffffffffffffffffff82169050919050565b6000620002838262000256565b9050919050565b620002958162000276565b8114620002a157600080fd5b50565b600081519050620002b5816200028a565b92915050565b600080fd5b600080fd5b6000601f19601f8301169050919050565b7f4e487b7100000000000000000000000000000000000000000000000000000000600052604160045260246000fd5b6200031082620002c5565b810181811067ffffffffffffffff82111715620003325762000331620002d6565b5b80604052505050565b60006200034762000242565b905062000355828262000305565b919050565b600067ffffffffffffffff821115620003785762000377620002d6565b5b6200038382620002c5565b9050602081019050919050565b60005b83811015620003b057808201518184015260208101905062000393565b60008484015250505050565b6000620003d3620003cd846200035a565b6200033b565b905082815260208101848484011115620003f257620003f1620002c0565b5b620003ff84828562000390565b509392505050565b600082601f8301126200041f576200041e620002bb565b5b815162000431848260208601620003bc565b91505092915050565b600080600080608085870312156200045757620004566200024c565b5b60006200046787828801620002a4565b94505060206200047a87828801620002a4565b93505060406200048d87828801620002a4565b925050606085015167ffffffffffffffff811115620004b157620004b062000251565b5b620004bf8782880162000407565b91505092959194509250565b620004d68162000276565b82525050565b600081519050919050565b600082825260208201905092915050565b60006200050582620004dc565b620005118185620004e7565b93506200052381856020860162000390565b6200052e81620002c5565b840191505092915050565b6000604082019050620005506000830185620004cb565b8181036020830152620005648184620004f8565b90509392505050565b615adf806200057d6000396000f3fe6080604052600436106101cd5760003560e01c80636ef6c66d116100f7578063c863b48e11610095578063ddf0b00911610064578063ddf0b009146106e1578063de0b27e51461070a578063fc0c546a14610747578063fe0d94c114610772576101cd565b8063c863b48e14610611578063cd8871761461064e578063d33219b41461068b578063da35c664146106b6576101cd565b806388fde90a116100d157806388fde90a14610562578063b58131b01461058d578063c377a0c5146105b8578063c3c79d85146105f5576101cd565b80636ef6c66d146104dc5780637bdbe4d01461050757806388e0321114610532576101cd565b8063392317cd1161016f578063452a93201161013e578063452a93201461040c5780634a7fdf2d146104375780634a9f914e14610460578063661767431461049d576101cd565b8063392317cd1461033e5780633932abb11461037b5780633e4f49e6146103a657806340e58ee5146103e3576101cd565b806308006a15116101ab57806308006a151461027057806315373e3d146102ad57806317977c61146102d657806324bc1a6414610313576101cd565b8063013cf08b146101d257806302a251a31461021a57806306fdde0314610245575b600080fd5b3480156101de57600080fd5b506101f960048036038101906101f49190613242565b61078e565b6040516102119c9b9a9998979695949392919061336a565b60405180910390f35b34801561022657600080fd5b5061022f610945565b60405161023c9190613432565b60405180910390f35b34801561025157600080fd5b5061025a61094e565b604051610267919061344d565b60405180910390f35b34801561027c57600080fd5b506102976004803603810190610292919061349b565b610987565b6040516102a49190613432565b60405180910390f35b3480156102b957600080fd5b506102d460048036038101906102cf91906134f4565b61099f565b005b3480156102e257600080fd5b506102fd60048036038101906102f8919061349b565b6109ae565b60405161030a9190613432565b60405180910390f35b34801561031f57600080fd5b506103286109c6565b6040516103359190613432565b60405180910390f35b34801561034a57600080fd5b506103656004803603810190610360919061349b565b6109cf565b6040516103729190613432565b60405180910390f35b34801561038757600080fd5b506103906109e7565b60405161039d9190613432565b60405180910390f35b3480156103b257600080fd5b506103cd60048036038101906103c89190613242565b6109f0565b6040516103da91906135ab565b60405180910390f35b3480156103ef57600080fd5b5061040a60048036038101906104059190613242565b610bc3565b005b34801561041857600080fd5b50610421610f75565b60405161042e91906135c6565b60405180910390f35b34801561044357600080fd5b5061045e60048036038101906104599190613716565b610f9b565b005b34801561046c57600080fd5b506104876004803603810190610482919061349b565b611174565b6040516104949190613432565b60405180910390f35b3480156104a957600080fd5b506104c460048036038101906104bf919061375f565b61118c565b6040516104d3939291906137c6565b60405180910390f35b3480156104e857600080fd5b506104f16111f5565b6040516104fe91906137fd565b60405180910390f35b34801561051357600080fd5b5061051c611213565b6040516105299190613432565b60405180910390f35b61054c60048036038101906105479190613c06565b61121c565b6040516105599190613432565b60405180910390f35b34801561056e57600080fd5b50610577611994565b6040516105849190613dcb565b60405180910390f35b34801561059957600080fd5b506105a26119ba565b6040516105af9190613432565b60405180910390f35b3480156105c457600080fd5b506105df60048036038101906105da919061349b565b6119c3565b6040516105ec9190613de6565b60405180910390f35b61060f600480360381019061060a9190613e2d565b6119e3565b005b34801561061d57600080fd5b5061063860048036038101906106339190613242565b611de4565b6040516106459190613432565b60405180910390f35b34801561065a57600080fd5b5061067560048036038101906106709190613242565b611e73565b60405161068291906135c6565b60405180910390f35b34801561069757600080fd5b506106a0611ea6565b6040516106ad9190613e7b565b60405180910390f35b3480156106c257600080fd5b506106cb611eca565b6040516106d89190613432565b60405180910390f35b3480156106ed57600080fd5b5061070860048036038101906107039190613242565b611ed0565b005b34801561071657600080fd5b50610731600480360381019061072c919061349b565b6125c6565b60405161073e9190613de6565b60405180910390f35b34801561075357600080fd5b5061075c6125e6565b6040516107699190613eb7565b60405180910390f35b61078c60048036038101906107879190613242565b61260c565b005b60066020528060005260406000206000915090508060000154908060010160009054906101000a900473ffffffffffffffffffffffffffffffffffffffff169080600201549080600701549080600801549080600901549080600a01549080600b0160009054906101000a900460ff169080600b0160019054906101000a900460ff169080600b0160029054906101000a900460ff169080600c01805461083490613f01565b80601f016020809104026020016040519081016040528092919081815260200182805461086090613f01565b80156108ad5780601f10610882576101008083540402835291602001916108ad565b820191906000526020600020905b81548152906001019060200180831161089057829003601f168201915b50505050509080600d0180546108c290613f01565b80601f01602080910402602001604051908101604052809291908181526020018280546108ee90613f01565b801561093b5780601f106109105761010080835404028352916020019161093b565b820191906000526020600020905b81548152906001019060200180831161091e57829003601f168201915b505050505090508c565b60006028905090565b6040518060400160405280600781526020017f53616d686974610000000000000000000000000000000000000000000000000081525081565b600c6020528060005260406000206000915090505481565b6109aa338383612877565b5050565b60076020528060005260406000206000915090505481565b60006028905090565b60086020528060005260406000206000915090505481565b60006001905090565b60008160035410158015610a045750600082115b610a43576040517f08c379a0000000000000000000000000000000000000000000000000000000008152600401610a3a90613f7e565b60405180910390fd5b600060066000848152602001908152602001600020905080600b0160009054906101000a900460ff1615610a7b576002915050610bbe565b80600701544311610a90576000915050610bbe565b80600801544311610aa5576001915050610bbe565b80600a01548160090154111580610ac65750610abf6109c6565b8160090154105b15610ad5576003915050610bbe565b6000816002015403610aeb576004915050610bbe565b80600b0160019054906101000a900460ff1615610b0c576007915050610bbe565b610ba8816002015460008054906101000a900473ffffffffffffffffffffffffffffffffffffffff1673ffffffffffffffffffffffffffffffffffffffff1663c1a287e26040518163ffffffff1660e01b8152600401602060405180830381865afa158015610b7f573d6000803e3d6000fd5b505050506040513d601f19601f82011682018060405250810190610ba39190613fb3565b612bab565b4210610bb8576006915050610bbe565b60059150505b919050565b600780811115610bd657610bd5613534565b5b610bdf826109f0565b6007811115610bf157610bf0613534565b5b03610c31576040517f08c379a0000000000000000000000000000000000000000000000000000000008152600401610c289061402c565b60405180910390fd5b6000600660008381526020019081526020016000209050600460009054906101000a900473ffffffffffffffffffffffffffffffffffffffff1673ffffffffffffffffffffffffffffffffffffffff163373ffffffffffffffffffffffffffffffffffffffff161480610d835750610ca76119ba565b600160009054906101000a900473ffffffffffffffffffffffffffffffffffffffff1673ffffffffffffffffffffffffffffffffffffffff1663782d6fe18360010160009054906101000a900473ffffffffffffffffffffffffffffffffffffffff16610d15436001612c09565b6040518363ffffffff1660e01b8152600401610d3292919061404c565b602060405180830381865afa158015610d4f573d6000803e3d6000fd5b505050506040513d601f19601f82011682018060405250810190610d73919061408a565b6bffffffffffffffffffffffff16105b610dc2576040517f08c379a0000000000000000000000000000000000000000000000000000000008152600401610db990614103565b60405180910390fd5b600181600b0160006101000a81548160ff02191690831515021790555060005b8160030180549050811015610f395760008054906101000a900473ffffffffffffffffffffffffffffffffffffffff1673ffffffffffffffffffffffffffffffffffffffff1663591fcdfe836003018381548110610e4357610e42614123565b5b9060005260206000200160009054906101000a900473ffffffffffffffffffffffffffffffffffffffff16846004018481548110610e8457610e83614123565b5b9060005260206000200154856005018581548110610ea557610ea4614123565b5b90600052602060002001866006018681548110610ec557610ec4614123565b5b9060005260206000200187600201546040518663ffffffff1660e01b8152600401610ef4959493929190614295565b600060405180830381600087803b158015610f0e57600080fd5b505af1158015610f22573d6000803e3d6000fd5b505050508080610f3190614325565b915050610de2565b507f789cf55be980739dad1d0699b93b58e806b51c9d96619bfa8fe0a28abaa7b30c82604051610f699190613432565b60405180910390a15050565b600460009054906101000a900473ffffffffffffffffffffffffffffffffffffffff1681565b60001515600a60003373ffffffffffffffffffffffffffffffffffffffff1673ffffffffffffffffffffffffffffffffffffffff16815260200190815260200160002060009054906101000a900460ff16151503611171576002600c60003373ffffffffffffffffffffffffffffffffffffffff1673ffffffffffffffffffffffffffffffffffffffff168152602001908152602001600020541015801561108357506005600b60003373ffffffffffffffffffffffffffffffffffffffff1673ffffffffffffffffffffffffffffffffffffffff1681526020019081526020016000205410155b1561117057600260009054906101000a900473ffffffffffffffffffffffffffffffffffffffff1673ffffffffffffffffffffffffffffffffffffffff1663858f1e9233836040518363ffffffff1660e01b81526004016110e592919061436d565b600060405180830381600087803b1580156110ff57600080fd5b505af1158015611113573d6000803e3d6000fd5b505050506001600a60003373ffffffffffffffffffffffffffffffffffffffff1673ffffffffffffffffffffffffffffffffffffffff16815260200190815260200160002060006101000a81548160ff0219169083151502179055505b5b50565b600b6020528060005260406000206000915090505481565b6005602052816000526040600020602052806000526040600020600091509150508060000160009054906101000a900460ff16908060000160019054906101000a900460ff16908060000160029054906101000a90046bffffffffffffffffffffffff16905083565b600f60009054906101000a90046bffffffffffffffffffffffff1681565b6000600a905090565b6000600e60003373ffffffffffffffffffffffffffffffffffffffff1673ffffffffffffffffffffffffffffffffffffffff16815260200190815260200160002060009054906101000a900460ff166112aa576040517f08c379a00000000000000000000000000000000000000000000000000000000081526004016112a19061440f565b60405180910390fd5b600f60009054906101000a90046bffffffffffffffffffffffff166bffffffffffffffffffffffff163414611314576040517f08c379a000000000000000000000000000000000000000000000000000000000815260040161130b906144a1565b60405180910390fd5b61131c6119ba565b600160009054906101000a900473ffffffffffffffffffffffffffffffffffffffff1673ffffffffffffffffffffffffffffffffffffffff1663782d6fe133611366436001612c09565b6040518363ffffffff1660e01b815260040161138392919061404c565b602060405180830381865afa1580156113a0573d6000803e3d6000fd5b505050506040513d601f19601f820116820180604052508101906113c4919061408a565b6bffffffffffffffffffffffff1611611412576040517f08c379a000000000000000000000000000000000000000000000000000000000815260040161140990614533565b60405180910390fd5b86518851148015611424575085518851145b8015611431575084518851145b611470576040517f08c379a0000000000000000000000000000000000000000000000000000000008152600401611467906145c5565b60405180910390fd5b60008851036114b4576040517f08c379a00000000000000000000000000000000000000000000000000000000081526004016114ab90614631565b60405180910390fd5b6114bc611213565b885111156114ff576040517f08c379a00000000000000000000000000000000000000000000000000000000081526004016114f69061469d565b60405180910390fd5b6000600760003373ffffffffffffffffffffffffffffffffffffffff1673ffffffffffffffffffffffffffffffffffffffff16815260200190815260200160002054905060008114611628576000611556826109f0565b90506001600781111561156c5761156b613534565b5b81600781111561157f5761157e613534565b5b036115bf576040517f08c379a00000000000000000000000000000000000000000000000000000000081526004016115b690614709565b60405180910390fd5b600060078111156115d3576115d2613534565b5b8160078111156115e6576115e5613534565b5b03611626576040517f08c379a000000000000000000000000000000000000000000000000000000000815260040161161d9061479b565b60405180910390fd5b505b600061163b436116366109e7565b612bab565b905060006116508261164b610945565b612bab565b90506003600081548092919061166590614325565b919050555060405180610200016040528060035481526020013373ffffffffffffffffffffffffffffffffffffffff168152602001600081526020018c81526020018b81526020018a81526020018981526020018381526020018281526020016000815260200160008152602001600015158152602001600015158152602001600015158152602001878152602001868152506006600060035481526020019081526020016000206000820151816000015560208201518160010160006101000a81548173ffffffffffffffffffffffffffffffffffffffff021916908373ffffffffffffffffffffffffffffffffffffffff160217905550604082015181600201556060820151816003019080519060200190611784929190612f80565b5060808201518160040190805190602001906117a192919061300a565b5060a08201518160050190805190602001906117be929190613057565b5060c08201518160060190805190602001906117db9291906130b0565b5060e082015181600701556101008201518160080155610120820151816009015561014082015181600a015561016082015181600b0160006101000a81548160ff02191690831515021790555061018082015181600b0160016101000a81548160ff0219169083151502179055506101a082015181600b0160026101000a81548160ff0219169083151502179055506101c082015181600c0190816118809190614948565b506101e082015181600d0190816118979190614948565b50905050600354600760003373ffffffffffffffffffffffffffffffffffffffff1673ffffffffffffffffffffffffffffffffffffffff168152602001908152602001600020819055506001600c60003373ffffffffffffffffffffffffffffffffffffffff1673ffffffffffffffffffffffffffffffffffffffff16815260200190815260200160002060008282546119319190614a1a565b925050819055507f7d84a6263ae0d98d3329bd7b46bb4e8d6f98cd35a7adb45c274c8b7fd5ebd5e0600354338d8d8d8d88888f60405161197999989796959493929190614ded565b60405180910390a16003549350505050979650505050505050565b600260009054906101000a900473ffffffffffffffffffffffffffffffffffffffff1681565b6000600a905090565b600a6020528060005260406000206000915054906101000a900460ff1681565b600f600c9054906101000a90046bffffffffffffffffffffffff166bffffffffffffffffffffffff16816bffffffffffffffffffffffff161015611a5c576040517f08c379a0000000000000000000000000000000000000000000000000000000008152600401611a5390614f0f565b60405180910390fd5b600160009054906101000a900473ffffffffffffffffffffffffffffffffffffffff1673ffffffffffffffffffffffffffffffffffffffff16634b94f50e6040518163ffffffff1660e01b8152600401602060405180830381865afa158015611ac9573d6000803e3d6000fd5b505050506040513d601f19601f82011682018060405250810190611aed9190613fb3565b816bffffffffffffffffffffffff16611b069190614f2f565b3414611b47576040517f08c379a0000000000000000000000000000000000000000000000000000000008152600401611b3e90614fbd565b60405180910390fd5b806bffffffffffffffffffffffff16600160009054906101000a900473ffffffffffffffffffffffffffffffffffffffff1673ffffffffffffffffffffffffffffffffffffffff166370a08231306040518263ffffffff1660e01b8152600401611bb191906135c6565b602060405180830381865afa158015611bce573d6000803e3d6000fd5b505050506040513d601f19601f82011682018060405250810190611bf29190613fb3565b1015611c33576040517f08c379a0000000000000000000000000000000000000000000000000000000008152600401611c2a9061504f565b60405180910390fd5b600e60003373ffffffffffffffffffffffffffffffffffffffff1673ffffffffffffffffffffffffffffffffffffffff16815260200190815260200160002060009054906101000a900460ff16611d4057600d339080600181540180825580915050600190039060005260206000200160009091909190916101000a81548173ffffffffffffffffffffffffffffffffffffffff021916908373ffffffffffffffffffffffffffffffffffffffff1602179055506001600e60003373ffffffffffffffffffffffffffffffffffffffff1673ffffffffffffffffffffffffffffffffffffffff16815260200190815260200160002060006101000a81548160ff0219169083151502179055505b600160009054906101000a900473ffffffffffffffffffffffffffffffffffffffff1673ffffffffffffffffffffffffffffffffffffffff1663a9059cbb33836040518363ffffffff1660e01b8152600401611d9d9291906150a0565b6020604051808303816000875af1158015611dbc573d6000803e3d6000fd5b505050506040513d601f19601f82011682018060405250810190611de091906150de565b5050565b60008082118015611df757506003548211155b611e36576040517f08c379a0000000000000000000000000000000000000000000000000000000008152600401611e2d90615157565b60405180910390fd5b611e556006600084815260200190815260200160002060090154612c62565b60066000838152602001908152602001600020600901549050919050565b60096020528060005260406000206000915054906101000a900473ffffffffffffffffffffffffffffffffffffffff1681565b60008054906101000a900473ffffffffffffffffffffffffffffffffffffffff1681565b60035481565b60046007811115611ee457611ee3613534565b5b611eed826109f0565b6007811115611eff57611efe613534565b5b14611f3f576040517f08c379a0000000000000000000000000000000000000000000000000000000008152600401611f36906151e9565b60405180910390fd5b604051602001611f4e90615260565b6040516020818303038152906040528051906020012060066000838152602001908152602001600020600c01604051602001611f8a91906152f8565b6040516020818303038152906040528051906020012014611fe0576040517f08c379a0000000000000000000000000000000000000000000000000000000008152600401611fd79061535b565b60405180910390fd5b600f60009054906101000a90046bffffffffffffffffffffffff166bffffffffffffffffffffffff16600860006006600085815260200190815260200160002060010160009054906101000a900473ffffffffffffffffffffffffffffffffffffffff1673ffffffffffffffffffffffffffffffffffffffff1673ffffffffffffffffffffffffffffffffffffffff168152602001908152602001600020600082825461208d9190614a1a565b925050819055506006600082815260200190815260200160002060010160009054906101000a900473ffffffffffffffffffffffffffffffffffffffff166009600083815260200190815260200160002060006101000a81548173ffffffffffffffffffffffffffffffffffffffff021916908373ffffffffffffffffffffffffffffffffffffffff160217905550600060066000838152602001908152602001600020905060006121cd4260008054906101000a900473ffffffffffffffffffffffffffffffffffffffff1673ffffffffffffffffffffffffffffffffffffffff16636a42b8f86040518163ffffffff1660e01b8152600401602060405180830381865afa1580156121a4573d6000803e3d6000fd5b505050506040513d601f19601f820116820180604052508101906121c89190613fb3565b612bab565b905060005b82600301805490508110156123b15761239e8360030182815481106121fa576121f9614123565b5b9060005260206000200160009054906101000a900473ffffffffffffffffffffffffffffffffffffffff1684600401838154811061223b5761223a614123565b5b906000526020600020015485600501848154811061225c5761225b614123565b5b90600052602060002001805461227190613f01565b80601f016020809104026020016040519081016040528092919081815260200182805461229d90613f01565b80156122ea5780601f106122bf576101008083540402835291602001916122ea565b820191906000526020600020905b8154815290600101906020018083116122cd57829003601f168201915b505050505086600601858154811061230557612304614123565b5b90600052602060002001805461231a90613f01565b80601f016020809104026020016040519081016040528092919081815260200182805461234690613f01565b80156123935780601f1061236857610100808354040283529160200191612393565b820191906000526020600020905b81548152906001019060200180831161237657829003601f168201915b505050505086612cfb565b80806123a990614325565b9150506121d2565b50808260020181905550600160009054906101000a900473ffffffffffffffffffffffffffffffffffffffff1673ffffffffffffffffffffffffffffffffffffffff1663a9059cbb6006600086815260200190815260200160002060010160009054906101000a900473ffffffffffffffffffffffffffffffffffffffff16600f60009054906101000a90046bffffffffffffffffffffffff166040518363ffffffff1660e01b81526004016124689291906150a0565b6020604051808303816000875af1158015612487573d6000803e3d6000fd5b505050506040513d601f19601f820116820180604052508101906124ab91906150de565b50600260009054906101000a900473ffffffffffffffffffffffffffffffffffffffff1673ffffffffffffffffffffffffffffffffffffffff1663b971043b6006600086815260200190815260200160002060010160009054906101000a900473ffffffffffffffffffffffffffffffffffffffff1660066000878152602001908152602001600020600d01866040518463ffffffff1660e01b81526004016125569392919061537b565b600060405180830381600087803b15801561257057600080fd5b505af1158015612584573d6000803e3d6000fd5b505050507f9a2e42fd6722813d69113e7d0079d3d940171428df7373df9c7f7617cfda289283826040516125b99291906153b9565b60405180910390a1505050565b600e6020528060005260406000206000915054906101000a900460ff1681565b600160009054906101000a900473ffffffffffffffffffffffffffffffffffffffff1681565b600560078111156126205761261f613534565b5b612629826109f0565b600781111561263b5761263a613534565b5b1461267b576040517f08c379a000000000000000000000000000000000000000000000000000000000815260040161267290615454565b60405180910390fd5b6000600660008381526020019081526020016000209050600181600b0160016101000a81548160ff02191690831515021790555060005b816003018054905081101561283b5760008054906101000a900473ffffffffffffffffffffffffffffffffffffffff1673ffffffffffffffffffffffffffffffffffffffff16632224fa2583600401838154811061271357612712614123565b5b906000526020600020015484600301848154811061273457612733614123565b5b9060005260206000200160009054906101000a900473ffffffffffffffffffffffffffffffffffffffff1685600401858154811061277557612774614123565b5b906000526020600020015486600501868154811061279657612795614123565b5b906000526020600020018760060187815481106127b6576127b5614123565b5b906000526020600020016040518663ffffffff1660e01b81526004016127df9493929190615474565b60006040518083038185885af11580156127fd573d6000803e3d6000fd5b50505050506040513d6000823e3d601f19601f820116820180604052508101906128279190615537565b50808061283390614325565b9150506126b2565b507f712ae1383f79ac853f8d882153778e0260ef8f03b504e2866e0593e04d2b291f8260405161286b9190613432565b60405180910390a15050565b6001600781111561288b5761288a613534565b5b612894836109f0565b60078111156128a6576128a5613534565b5b146128e6576040517f08c379a00000000000000000000000000000000000000000000000000000000081526004016128dd906155cc565b60405180910390fd5b600060066000848152602001908152602001600020905060006005600085815260200190815260200160002060008673ffffffffffffffffffffffffffffffffffffffff1673ffffffffffffffffffffffffffffffffffffffff1681526020019081526020016000209050600015158160000160009054906101000a900460ff161515146129a9576040517f08c379a00000000000000000000000000000000000000000000000000000000081526004016129a090615638565b60405180910390fd5b6000600160009054906101000a900473ffffffffffffffffffffffffffffffffffffffff1673ffffffffffffffffffffffffffffffffffffffff1663782d6fe18785600701546040518363ffffffff1660e01b8152600401612a0c92919061404c565b602060405180830381865afa158015612a29573d6000803e3d6000fd5b505050506040513d601f19601f82011682018060405250810190612a4d919061408a565b90508315612a7e57612a718360090154826bffffffffffffffffffffffff16612bab565b8360090181905550612aa3565b612a9a83600a0154826bffffffffffffffffffffffff16612bab565b83600a01819055505b60018260000160006101000a81548160ff021916908315150217905550838260000160016101000a81548160ff021916908315150217905550808260000160026101000a8154816bffffffffffffffffffffffff02191690836bffffffffffffffffffffffff1602179055506001600b60003373ffffffffffffffffffffffffffffffffffffffff1673ffffffffffffffffffffffffffffffffffffffff1681526020019081526020016000206000828254612b5f9190614a1a565b925050819055507f877856338e13f63d0c36822ff0ef736b80934cd90574a3a5bc9262c39d217c4686868684604051612b9b9493929190615658565b60405180910390a1505050505050565b6000808284612bba9190614a1a565b905083811015612bff576040517f08c379a0000000000000000000000000000000000000000000000000000000008152600401612bf6906156e9565b60405180910390fd5b8091505092915050565b600082821115612c4e576040517f08c379a0000000000000000000000000000000000000000000000000000000008152600401612c4590615755565b60405180910390fd5b8183612c5a9190615775565b905092915050565b612cf881604051602401612c769190613432565b6040516020818303038152906040527ff82c50f1000000000000000000000000000000000000000000000000000000007bffffffffffffffffffffffffffffffffffffffffffffffffffffffff19166020820180517bffffffffffffffffffffffffffffffffffffffffffffffffffffffff8381831617835250505050612f3a565b50565b60008054906101000a900473ffffffffffffffffffffffffffffffffffffffff1673ffffffffffffffffffffffffffffffffffffffff1663f2b065378686868686604051602001612d509594939291906157e2565b604051602081830303815290604052805190602001206040518263ffffffff1660e01b8152600401612d82919061585c565b602060405180830381865afa158015612d9f573d6000803e3d6000fd5b505050506040513d601f19601f82011682018060405250810190612dc391906150de565b15612e03576040517f08c379a0000000000000000000000000000000000000000000000000000000008152600401612dfa906158e9565b60405180910390fd5b60008054906101000a900473ffffffffffffffffffffffffffffffffffffffff1673ffffffffffffffffffffffffffffffffffffffff1663abc203bd336040518263ffffffff1660e01b8152600401612e5c91906135c6565b600060405180830381600087803b158015612e7657600080fd5b505af1158015612e8a573d6000803e3d6000fd5b5050505060008054906101000a900473ffffffffffffffffffffffffffffffffffffffff1673ffffffffffffffffffffffffffffffffffffffff16633a66f90186868686866040518663ffffffff1660e01b8152600401612eef9594939291906157e2565b6020604051808303816000875af1158015612f0e573d6000803e3d6000fd5b505050506040513d601f19601f82011682018060405250810190612f329190615935565b505050505050565b612f5181612f49612f54612f75565b63ffffffff16565b50565b60006a636f6e736f6c652e6c6f679050600080835160208501845afa505050565b613109819050919050565b828054828255906000526020600020908101928215612ff9579160200282015b82811115612ff85782518260006101000a81548173ffffffffffffffffffffffffffffffffffffffff021916908373ffffffffffffffffffffffffffffffffffffffff16021790555091602001919060010190612fa0565b5b5090506130069190613113565b5090565b828054828255906000526020600020908101928215613046579160200282015b8281111561304557825182559160200191906001019061302a565b5b5090506130539190613113565b5090565b82805482825590600052602060002090810192821561309f579160200282015b8281111561309e57825182908161308e9190614948565b5091602001919060010190613077565b5b5090506130ac9190613130565b5090565b8280548282559060005260206000209081019282156130f8579160200282015b828111156130f75782518290816130e791906159a8565b50916020019190600101906130d0565b5b5090506131059190613154565b5090565b613111615a7a565b565b5b8082111561312c576000816000905550600101613114565b5090565b5b8082111561315057600081816131479190613178565b50600101613131565b5090565b5b80821115613174576000818161316b91906131b8565b50600101613155565b5090565b50805461318490613f01565b6000825580601f1061319657506131b5565b601f0160209004906000526020600020908101906131b49190613113565b5b50565b5080546131c490613f01565b6000825580601f106131d657506131f5565b601f0160209004906000526020600020908101906131f49190613113565b5b50565b6000604051905090565b600080fd5b600080fd5b6000819050919050565b61321f8161320c565b811461322a57600080fd5b50565b60008135905061323c81613216565b92915050565b60006020828403121561325857613257613202565b5b60006132668482850161322d565b91505092915050565b6132788161320c565b82525050565b600073ffffffffffffffffffffffffffffffffffffffff82169050919050565b60006132a98261327e565b9050919050565b6132b98161329e565b82525050565b60008115159050919050565b6132d4816132bf565b82525050565b600081519050919050565b600082825260208201905092915050565b60005b838110156133145780820151818401526020810190506132f9565b60008484015250505050565b6000601f19601f8301169050919050565b600061333c826132da565b61334681856132e5565b93506133568185602086016132f6565b61335f81613320565b840191505092915050565b600061018082019050613380600083018f61326f565b61338d602083018e6132b0565b61339a604083018d61326f565b6133a7606083018c61326f565b6133b4608083018b61326f565b6133c160a083018a61326f565b6133ce60c083018961326f565b6133db60e08301886132cb565b6133e96101008301876132cb565b6133f76101208301866132cb565b81810361014083015261340a8185613331565b905081810361016083015261341f8184613331565b90509d9c50505050505050505050505050565b6000602082019050613447600083018461326f565b92915050565b600060208201905081810360008301526134678184613331565b905092915050565b6134788161329e565b811461348357600080fd5b50565b6000813590506134958161346f565b92915050565b6000602082840312156134b1576134b0613202565b5b60006134bf84828501613486565b91505092915050565b6134d1816132bf565b81146134dc57600080fd5b50565b6000813590506134ee816134c8565b92915050565b6000806040838503121561350b5761350a613202565b5b60006135198582860161322d565b925050602061352a858286016134df565b9150509250929050565b7f4e487b7100000000000000000000000000000000000000000000000000000000600052602160045260246000fd5b6008811061357457613573613534565b5b50565b600081905061358582613563565b919050565b600061359582613577565b9050919050565b6135a58161358a565b82525050565b60006020820190506135c0600083018461359c565b92915050565b60006020820190506135db60008301846132b0565b92915050565b600080fd5b600080fd5b7f4e487b7100000000000000000000000000000000000000000000000000000000600052604160045260246000fd5b61362382613320565b810181811067ffffffffffffffff82111715613642576136416135eb565b5b80604052505050565b60006136556131f8565b9050613661828261361a565b919050565b600067ffffffffffffffff821115613681576136806135eb565b5b61368a82613320565b9050602081019050919050565b82818337600083830152505050565b60006136b96136b484613666565b61364b565b9050828152602081018484840111156136d5576136d46135e6565b5b6136e0848285613697565b509392505050565b600082601f8301126136fd576136fc6135e1565b5b813561370d8482602086016136a6565b91505092915050565b60006020828403121561372c5761372b613202565b5b600082013567ffffffffffffffff81111561374a57613749613207565b5b613756848285016136e8565b91505092915050565b6000806040838503121561377657613775613202565b5b60006137848582860161322d565b925050602061379585828601613486565b9150509250929050565b60006bffffffffffffffffffffffff82169050919050565b6137c08161379f565b82525050565b60006060820190506137db60008301866132cb565b6137e860208301856132cb565b6137f560408301846137b7565b949350505050565b600060208201905061381260008301846137b7565b92915050565b600067ffffffffffffffff821115613833576138326135eb565b5b602082029050602081019050919050565b600080fd5b600061385c61385784613818565b61364b565b9050808382526020820190506020840283018581111561387f5761387e613844565b5b835b818110156138a857806138948882613486565b845260208401935050602081019050613881565b5050509392505050565b600082601f8301126138c7576138c66135e1565b5b81356138d7848260208601613849565b91505092915050565b600067ffffffffffffffff8211156138fb576138fa6135eb565b5b602082029050602081019050919050565b600061391f61391a846138e0565b61364b565b9050808382526020820190506020840283018581111561394257613941613844565b5b835b8181101561396b5780613957888261322d565b845260208401935050602081019050613944565b5050509392505050565b600082601f83011261398a576139896135e1565b5b813561399a84826020860161390c565b91505092915050565b600067ffffffffffffffff8211156139be576139bd6135eb565b5b602082029050602081019050919050565b60006139e26139dd846139a3565b61364b565b90508083825260208201905060208402830185811115613a0557613a04613844565b5b835b81811015613a4c57803567ffffffffffffffff811115613a2a57613a296135e1565b5b808601613a3789826136e8565b85526020850194505050602081019050613a07565b5050509392505050565b600082601f830112613a6b57613a6a6135e1565b5b8135613a7b8482602086016139cf565b91505092915050565b600067ffffffffffffffff821115613a9f57613a9e6135eb565b5b602082029050602081019050919050565b600067ffffffffffffffff821115613acb57613aca6135eb565b5b613ad482613320565b9050602081019050919050565b6000613af4613aef84613ab0565b61364b565b905082815260208101848484011115613b1057613b0f6135e6565b5b613b1b848285613697565b509392505050565b600082601f830112613b3857613b376135e1565b5b8135613b48848260208601613ae1565b91505092915050565b6000613b64613b5f84613a84565b61364b565b90508083825260208201905060208402830185811115613b8757613b86613844565b5b835b81811015613bce57803567ffffffffffffffff811115613bac57613bab6135e1565b5b808601613bb98982613b23565b85526020850194505050602081019050613b89565b5050509392505050565b600082601f830112613bed57613bec6135e1565b5b8135613bfd848260208601613b51565b91505092915050565b600080600080600080600060e0888a031215613c2557613c24613202565b5b600088013567ffffffffffffffff811115613c4357613c42613207565b5b613c4f8a828b016138b2565b975050602088013567ffffffffffffffff811115613c7057613c6f613207565b5b613c7c8a828b01613975565b965050604088013567ffffffffffffffff811115613c9d57613c9c613207565b5b613ca98a828b01613a56565b955050606088013567ffffffffffffffff811115613cca57613cc9613207565b5b613cd68a828b01613bd8565b945050608088013567ffffffffffffffff811115613cf757613cf6613207565b5b613d038a828b016136e8565b93505060a088013567ffffffffffffffff811115613d2457613d23613207565b5b613d308a828b016136e8565b92505060c088013567ffffffffffffffff811115613d5157613d50613207565b5b613d5d8a828b016136e8565b91505092959891949750929550565b6000819050919050565b6000613d91613d8c613d878461327e565b613d6c565b61327e565b9050919050565b6000613da382613d76565b9050919050565b6000613db582613d98565b9050919050565b613dc581613daa565b82525050565b6000602082019050613de06000830184613dbc565b92915050565b6000602082019050613dfb60008301846132cb565b92915050565b613e0a8161379f565b8114613e1557600080fd5b50565b600081359050613e2781613e01565b92915050565b600060208284031215613e4357613e42613202565b5b6000613e5184828501613e18565b91505092915050565b6000613e6582613d98565b9050919050565b613e7581613e5a565b82525050565b6000602082019050613e906000830184613e6c565b92915050565b6000613ea182613d98565b9050919050565b613eb181613e96565b82525050565b6000602082019050613ecc6000830184613ea8565b92915050565b7f4e487b7100000000000000000000000000000000000000000000000000000000600052602260045260246000fd5b60006002820490506001821680613f1957607f821691505b602082108103613f2c57613f2b613ed2565b5b50919050565b7f696e76616c69642070726f706f73616c20696400000000000000000000000000600082015250565b6000613f686013836132e5565b9150613f7382613f32565b602082019050919050565b60006020820190508181036000830152613f9781613f5b565b9050919050565b600081519050613fad81613216565b92915050565b600060208284031215613fc957613fc8613202565b5b6000613fd784828501613f9e565b91505092915050565b7f63616e6e6f742063616e63656c2065786563757465642070726f706f73616c00600082015250565b6000614016601f836132e5565b915061402182613fe0565b602082019050919050565b6000602082019050818103600083015261404581614009565b9050919050565b600060408201905061406160008301856132b0565b61406e602083018461326f565b9392505050565b60008151905061408481613e01565b92915050565b6000602082840312156140a05761409f613202565b5b60006140ae84828501614075565b91505092915050565b7f70726f706f7365722061626f7665207468726573686f6c640000000000000000600082015250565b60006140ed6018836132e5565b91506140f8826140b7565b602082019050919050565b6000602082019050818103600083015261411c816140e0565b9050919050565b7f4e487b7100000000000000000000000000000000000000000000000000000000600052603260045260246000fd5b60008190508160005260206000209050919050565b6000815461417481613f01565b61417e81866132e5565b9450600182166000811461419957600181146141af576141e2565b60ff1983168652811515602002860193506141e2565b6141b885614152565b60005b838110156141da578154818901526001820191506020810190506141bb565b808801955050505b50505092915050565b600082825260208201905092915050565b60008190508160005260206000209050919050565b6000815461421e81613f01565b61422881866141eb565b9450600182166000811461424357600181146142595761428c565b60ff19831686528115156020028601935061428c565b614262856141fc565b60005b8381101561428457815481890152600182019150602081019050614265565b808801955050505b50505092915050565b600060a0820190506142aa60008301886132b0565b6142b7602083018761326f565b81810360408301526142c98186614167565b905081810360608301526142dd8185614211565b90506142ec608083018461326f565b9695505050505050565b7f4e487b7100000000000000000000000000000000000000000000000000000000600052601160045260246000fd5b60006143308261320c565b91507fffffffffffffffffffffffffffffffffffffffffffffffffffffffffffffffff8203614362576143616142f6565b5b600182019050919050565b600060408201905061438260008301856132b0565b81810360208301526143948184613331565b90509392505050565b7f596f7520617265206e6f7420746865206d656d626572206f662074687320536160008201527f6d686974612044414f0000000000000000000000000000000000000000000000602082015250565b60006143f96029836132e5565b91506144048261439d565b604082019050919050565b60006020820190508181036000830152614428816143ec565b9050919050565b7f596f75206d75737420686176652076616c6964207374616b6520616d6f756e7460008201527f20746f2063726561746520612070726f706f73616c0000000000000000000000602082015250565b600061448b6035836132e5565b91506144968261442f565b604082019050919050565b600060208201905081810360008301526144ba8161447e565b9050919050565b7f70726f706f73657220766f7465732062656c6f772070726f706f73616c20746860008201527f726573686f6c6400000000000000000000000000000000000000000000000000602082015250565b600061451d6027836132e5565b9150614528826144c1565b604082019050919050565b6000602082019050818103600083015261454c81614510565b9050919050565b7f70726f706f73616c2066756e6374696f6e20696e666f726d6174696f6e20617260008201527f697479206d69736d617463680000000000000000000000000000000000000000602082015250565b60006145af602c836132e5565b91506145ba82614553565b604082019050919050565b600060208201905081810360008301526145de816145a2565b9050919050565b7f736f6d6520616374696f6e206d75737420626520746865726500000000000000600082015250565b600061461b6019836132e5565b9150614626826145e5565b602082019050919050565b6000602082019050818103600083015261464a8161460e565b9050919050565b7f746f6f206d616e7920616374696f6e7300000000000000000000000000000000600082015250565b60006146876010836132e5565b915061469282614651565b602082019050919050565b600060208201905081810360008301526146b68161467a565b9050919050565b7f466f756e6420616e20616c7265616479206163746976652070726f706f73616c600082015250565b60006146f36020836132e5565b91506146fe826146bd565b602082019050919050565b60006020820190508181036000830152614722816146e6565b9050919050565b7f466f756e6420616e20616c72656164792070656e64696e672070726f706f736160008201527f6c00000000000000000000000000000000000000000000000000000000000000602082015250565b60006147856021836132e5565b915061479082614729565b604082019050919050565b600060208201905081810360008301526147b481614778565b9050919050565b60006020601f8301049050919050565b600082821b905092915050565b6000600883026148087fffffffffffffffffffffffffffffffffffffffffffffffffffffffffffffffff826147cb565b61481286836147cb565b95508019841693508086168417925050509392505050565b600061484561484061483b8461320c565b613d6c565b61320c565b9050919050565b6000819050919050565b61485f8361482a565b61487361486b8261484c565b8484546147d8565b825550505050565b600090565b61488861487b565b614893818484614856565b505050565b5b818110156148b7576148ac600082614880565b600181019050614899565b5050565b601f8211156148fc576148cd81614152565b6148d6846147bb565b810160208510156148e5578190505b6148f96148f1856147bb565b830182614898565b50505b505050565b600082821c905092915050565b600061491f60001984600802614901565b1980831691505092915050565b6000614938838361490e565b9150826002028217905092915050565b614951826132da565b67ffffffffffffffff81111561496a576149696135eb565b5b6149748254613f01565b61497f8282856148bb565b600060209050601f8311600181146149b257600084156149a0578287015190505b6149aa858261492c565b865550614a12565b601f1984166149c086614152565b60005b828110156149e8578489015182556001820191506020850194506020810190506149c3565b86831015614a055784890151614a01601f89168261490e565b8355505b6001600288020188555050505b505050505050565b6000614a258261320c565b9150614a308361320c565b9250828201905080821115614a4857614a476142f6565b5b92915050565b600081519050919050565b600082825260208201905092915050565b6000819050602082019050919050565b614a838161329e565b82525050565b6000614a958383614a7a565b60208301905092915050565b6000602082019050919050565b6000614ab982614a4e565b614ac38185614a59565b9350614ace83614a6a565b8060005b83811015614aff578151614ae68882614a89565b9750614af183614aa1565b925050600181019050614ad2565b5085935050505092915050565b600081519050919050565b600082825260208201905092915050565b6000819050602082019050919050565b614b418161320c565b82525050565b6000614b538383614b38565b60208301905092915050565b6000602082019050919050565b6000614b7782614b0c565b614b818185614b17565b9350614b8c83614b28565b8060005b83811015614bbd578151614ba48882614b47565b9750614baf83614b5f565b925050600181019050614b90565b5085935050505092915050565b600081519050919050565b600082825260208201905092915050565b6000819050602082019050919050565b600082825260208201905092915050565b6000614c12826132da565b614c1c8185614bf6565b9350614c2c8185602086016132f6565b614c3581613320565b840191505092915050565b6000614c4c8383614c07565b905092915050565b6000602082019050919050565b6000614c6c82614bca565b614c768185614bd5565b935083602082028501614c8885614be6565b8060005b85811015614cc45784840389528151614ca58582614c40565b9450614cb083614c54565b925060208a01995050600181019050614c8c565b50829750879550505050505092915050565b600081519050919050565b600082825260208201905092915050565b6000819050602082019050919050565b600081519050919050565b600082825260208201905092915050565b6000614d2982614d02565b614d338185614d0d565b9350614d438185602086016132f6565b614d4c81613320565b840191505092915050565b6000614d638383614d1e565b905092915050565b6000602082019050919050565b6000614d8382614cd6565b614d8d8185614ce1565b935083602082028501614d9f85614cf2565b8060005b85811015614ddb5784840389528151614dbc8582614d57565b9450614dc783614d6b565b925060208a01995050600181019050614da3565b50829750879550505050505092915050565b600061012082019050614e03600083018c61326f565b614e10602083018b6132b0565b8181036040830152614e22818a614aae565b90508181036060830152614e368189614b6c565b90508181036080830152614e4a8188614c61565b905081810360a0830152614e5e8187614d78565b9050614e6d60c083018661326f565b614e7a60e083018561326f565b818103610100830152614e8d8184613331565b90509a9950505050505050505050565b7f596f75206d757374207075726368617365206174206c6561737420313020746f60008201527f6b656e7320746f206265636f6d652061206d656d626572000000000000000000602082015250565b6000614ef96037836132e5565b9150614f0482614e9d565b604082019050919050565b60006020820190508181036000830152614f2881614eec565b9050919050565b6000614f3a8261320c565b9150614f458361320c565b9250828202614f538161320c565b91508282048414831517614f6a57614f696142f6565b5b5092915050565b7f4e6f7420656e6f7567682076616c756500000000000000000000000000000000600082015250565b6000614fa76010836132e5565b9150614fb282614f71565b602082019050919050565b60006020820190508181036000830152614fd681614f9a565b9050919050565b7f436f6e747261637420646f6573206e6f74206861766520656e6f75676820736160008201527f6d68697461546f6b656e73000000000000000000000000000000000000000000602082015250565b6000615039602b836132e5565b915061504482614fdd565b604082019050919050565b600060208201905081810360008301526150688161502c565b9050919050565b600061508a6150856150808461379f565b613d6c565b61320c565b9050919050565b61509a8161506f565b82525050565b60006040820190506150b560008301856132b0565b6150c26020830184615091565b9392505050565b6000815190506150d8816134c8565b92915050565b6000602082840312156150f4576150f3613202565b5b6000615102848285016150c9565b91505092915050565b7f496e76616c69642070726f706f73616c20494400000000000000000000000000600082015250565b60006151416013836132e5565b915061514c8261510b565b602082019050919050565b6000602082019050818103600083015261517081615134565b9050919050565b7f70726f706f73616c2063616e206f6e6c7920626520717565756564206966206960008201527f7420697320737563636565646564000000000000000000000000000000000000602082015250565b60006151d3602e836132e5565b91506151de82615177565b604082019050919050565b60006020820190508181036000830152615202816151c6565b9050919050565b600081905092915050565b7f74656d706c617465000000000000000000000000000000000000000000000000600082015250565b600061524a600883615209565b915061525582615214565b600882019050919050565b600061526b8261523d565b9150819050919050565b6000815461528281613f01565b61528c8186615209565b945060018216600081146152a757600181146152bc576152ef565b60ff19831686528115158202860193506152ef565b6152c585614152565b60005b838110156152e7578154818901526001820191506020810190506152c8565b838801955050505b50505092915050565b60006153048284615275565b915081905092915050565b7f4e6f7420612074656d706c6174652070726f706f73616c000000000000000000600082015250565b60006153456017836132e5565b91506153508261530f565b602082019050919050565b6000602082019050818103600083015261537481615338565b9050919050565b600060608201905061539060008301866132b0565b81810360208301526153a28185614167565b90506153b1604083018461326f565b949350505050565b60006040820190506153ce600083018561326f565b6153db602083018461326f565b9392505050565b7f70726f706f73616c2063616e206f6e6c7920626520657865637574656420696660008201527f2069742069732071756575656400000000000000000000000000000000000000602082015250565b600061543e602d836132e5565b9150615449826153e2565b604082019050919050565b6000602082019050818103600083015261546d81615431565b9050919050565b600060808201905061548960008301876132b0565b615496602083018661326f565b81810360408301526154a88185614167565b905081810360608301526154bc8184614211565b905095945050505050565b60006154da6154d584613ab0565b61364b565b9050828152602081018484840111156154f6576154f56135e6565b5b6155018482856132f6565b509392505050565b600082601f83011261551e5761551d6135e1565b5b815161552e8482602086016154c7565b91505092915050565b60006020828403121561554d5761554c613202565b5b600082015167ffffffffffffffff81111561556b5761556a613207565b5b61557784828501615509565b91505092915050565b7f766f74696e6720697320636c6f73656400000000000000000000000000000000600082015250565b60006155b66010836132e5565b91506155c182615580565b602082019050919050565b600060208201905081810360008301526155e5816155a9565b9050919050565b7f766f7465722068617320616c726561647920766f746564000000000000000000600082015250565b60006156226017836132e5565b915061562d826155ec565b602082019050919050565b6000602082019050818103600083015261565181615615565b9050919050565b600060808201905061566d60008301876132b0565b61567a602083018661326f565b61568760408301856132cb565b6156946060830184615091565b95945050505050565b7f6164646974696f6e206f766572666c6f77000000000000000000000000000000600082015250565b60006156d36011836132e5565b91506156de8261569d565b602082019050919050565b60006020820190508181036000830152615702816156c6565b9050919050565b7f7375627472616374696f6e20756e646572666c6f770000000000000000000000600082015250565b600061573f6015836132e5565b915061574a82615709565b602082019050919050565b6000602082019050818103600083015261576e81615732565b9050919050565b60006157808261320c565b915061578b8361320c565b92508282039050818111156157a3576157a26142f6565b5b92915050565b60006157b482614d02565b6157be81856141eb565b93506157ce8185602086016132f6565b6157d781613320565b840191505092915050565b600060a0820190506157f760008301886132b0565b615804602083018761326f565b81810360408301526158168186613331565b9050818103606083015261582a81856157a9565b9050615839608083018461326f565b9695505050505050565b6000819050919050565b61585681615843565b82525050565b6000602082019050615871600083018461584d565b92915050565b7f2070726f706f73616c20616374696f6e20616c7265616479207175657565642060008201527f6174206574610000000000000000000000000000000000000000000000000000602082015250565b60006158d36026836132e5565b91506158de82615877565b604082019050919050565b60006020820190508181036000830152615902816158c6565b9050919050565b61591281615843565b811461591d57600080fd5b50565b60008151905061592f81615909565b92915050565b60006020828403121561594b5761594a613202565b5b600061595984828501615920565b91505092915050565b601f8211156159a357615974816141fc565b61597d846147bb565b8101602085101561598c578190505b6159a0615998856147bb565b830182614898565b50505b505050565b6159b182614d02565b67ffffffffffffffff8111156159ca576159c96135eb565b5b6159d48254613f01565b6159df828285615962565b600060209050601f831160018114615a125760008415615a00578287015190505b615a0a858261492c565b865550615a72565b601f198416615a20866141fc565b60005b82811015615a4857848901518255600182019150602085019450602081019050615a23565b86831015615a655784890151615a61601f89168261490e565b8355505b6001600288020188555050505b505050505050565b7f4e487b7100000000000000000000000000000000000000000000000000000000600052605160045260246000fdfea2646970667358221220664410f893aca51b7c0b623c0f6b947d4c5481d204fd07bc78ce89991d5d9bde64736f6c63430008130033",
  "linkReferences": {},
  "deployedLinkReferences": {}
}