{
  "_format": "hh-sol-artifact-1",
  "contractName": "Samhita",
  "sourceName": "contracts/samhita.sol",
  "abi": [
    {
      "inputs": [
        {
          "internalType": "address",
          "name": "timelock_",
          "type": "address"
        },
        {
          "internalType": "address",
          "name": "token_",
          "type": "address"
        },
        {
          "internalType": "address",
          "name": "templateNFT_",
          "type": "address"
        },
        {
          "internalType": "string",
          "name": "_nftUri",
          "type": "string"
        }
      ],
      "stateMutability": "nonpayable",
      "type": "constructor"
    },
    {
      "anonymous": false,
      "inputs": [
        {
          "indexed": false,
          "internalType": "uint256",
          "name": "id",
          "type": "uint256"
        }
      ],
      "name": "ProposalCanceled",
      "type": "event"
    },
    {
      "anonymous": false,
      "inputs": [
        {
          "indexed": false,
          "internalType": "uint256",
          "name": "id",
          "type": "uint256"
        },
        {
          "indexed": false,
          "internalType": "address",
          "name": "proposer",
          "type": "address"
        },
        {
          "indexed": false,
          "internalType": "address[]",
          "name": "targets",
          "type": "address[]"
        },
        {
          "indexed": false,
          "internalType": "uint256[]",
          "name": "values",
          "type": "uint256[]"
        },
        {
          "indexed": false,
          "internalType": "string[]",
          "name": "signatures",
          "type": "string[]"
        },
        {
          "indexed": false,
          "internalType": "bytes[]",
          "name": "calldatas",
          "type": "bytes[]"
        },
        {
          "indexed": false,
          "internalType": "string",
          "name": "title",
          "type": "string"
        },
        {
          "indexed": false,
          "internalType": "uint256",
          "name": "startBlock",
          "type": "uint256"
        },
        {
          "indexed": false,
          "internalType": "uint256",
          "name": "endBlock",
          "type": "uint256"
        }
      ],
      "name": "ProposalCreated",
      "type": "event"
    },
    {
      "anonymous": false,
      "inputs": [
        {
          "indexed": false,
          "internalType": "uint256",
          "name": "id",
          "type": "uint256"
        }
      ],
      "name": "ProposalExecuted",
      "type": "event"
    },
    {
      "anonymous": false,
      "inputs": [
        {
          "indexed": false,
          "internalType": "uint256",
          "name": "id",
          "type": "uint256"
        },
        {
          "indexed": false,
          "internalType": "uint256",
          "name": "eta",
          "type": "uint256"
        }
      ],
      "name": "ProposalQueued",
      "type": "event"
    },
    {
      "anonymous": false,
      "inputs": [
        {
          "indexed": false,
          "internalType": "address",
          "name": "voter",
          "type": "address"
        },
        {
          "indexed": false,
          "internalType": "uint256",
          "name": "proposalId",
          "type": "uint256"
        },
        {
          "indexed": false,
          "internalType": "bool",
          "name": "support",
          "type": "bool"
        },
        {
          "indexed": false,
          "internalType": "uint256",
          "name": "votes",
          "type": "uint256"
        }
      ],
      "name": "VoteCast",
      "type": "event"
    },
    {
      "inputs": [
        {
          "internalType": "uint96",
          "name": "_tokens",
          "type": "uint96"
        }
      ],
      "name": "addMember",
      "outputs": [],
      "stateMutability": "payable",
      "type": "function"
    },
    {
      "inputs": [
        {
          "internalType": "uint256",
          "name": "_proposalId",
          "type": "uint256"
        }
      ],
      "name": "cancel",
      "outputs": [],
      "stateMutability": "nonpayable",
      "type": "function"
    },
    {
      "inputs": [
        {
          "internalType": "uint256",
          "name": "_proposalId",
          "type": "uint256"
        },
        {
          "internalType": "bool",
          "name": "support",
          "type": "bool"
        }
      ],
      "name": "castVote",
      "outputs": [],
      "stateMutability": "nonpayable",
      "type": "function"
    },
    {
      "inputs": [
        {
          "internalType": "string",
          "name": "_nftUri",
          "type": "string"
        }
      ],
      "name": "claimMemberNft",
      "outputs": [],
      "stateMutability": "nonpayable",
      "type": "function"
    },
    {
      "inputs": [
        {
          "internalType": "uint256",
          "name": "_proposalId",
          "type": "uint256"
        }
      ],
      "name": "execute",
      "outputs": [],
      "stateMutability": "payable",
      "type": "function"
    },
    {
      "inputs": [
        {
          "internalType": "uint256",
          "name": "proposalId",
          "type": "uint256"
        }
      ],
      "name": "getForVotes",
      "outputs": [
        {
          "internalType": "uint256",
          "name": "",
          "type": "uint256"
        }
      ],
      "stateMutability": "view",
      "type": "function"
    },
    {
      "inputs": [],
      "name": "guardian",
      "outputs": [
        {
          "internalType": "address",
          "name": "",
          "type": "address"
        }
      ],
      "stateMutability": "view",
      "type": "function"
    },
    {
      "inputs": [
        {
          "internalType": "address",
          "name": "",
          "type": "address"
        }
      ],
      "name": "isMemberAdded",
      "outputs": [
        {
          "internalType": "bool",
          "name": "",
          "type": "bool"
        }
      ],
      "stateMutability": "view",
      "type": "function"
    },
    {
      "inputs": [
        {
          "internalType": "address",
          "name": "",
          "type": "address"
        }
      ],
      "name": "latestProposalIds",
      "outputs": [
        {
          "internalType": "uint256",
          "name": "",
          "type": "uint256"
        }
      ],
      "stateMutability": "view",
      "type": "function"
    },
    {
      "inputs": [
        {
          "internalType": "address",
          "name": "",
          "type": "address"
        }
      ],
      "name": "memberProposals",
      "outputs": [
        {
          "internalType": "uint256",
          "name": "",
          "type": "uint256"
        }
      ],
      "stateMutability": "view",
      "type": "function"
    },
    {
      "inputs": [
        {
          "internalType": "address",
          "name": "",
          "type": "address"
        }
      ],
      "name": "memberVotes",
      "outputs": [
        {
          "internalType": "uint256",
          "name": "",
          "type": "uint256"
        }
      ],
      "stateMutability": "view",
      "type": "function"
    },
    {
      "inputs": [
        {
          "internalType": "address",
          "name": "",
          "type": "address"
        }
      ],
      "name": "memberWithdrawAmount",
      "outputs": [
        {
          "internalType": "uint256",
          "name": "",
          "type": "uint256"
        }
      ],
      "stateMutability": "view",
      "type": "function"
    },
    {
      "inputs": [],
      "name": "name",
      "outputs": [
        {
          "internalType": "string",
          "name": "",
          "type": "string"
        }
      ],
      "stateMutability": "view",
      "type": "function"
    },
    {
      "inputs": [],
      "name": "proposalCount",
      "outputs": [
        {
          "internalType": "uint256",
          "name": "",
          "type": "uint256"
        }
      ],
      "stateMutability": "view",
      "type": "function"
    },
    {
      "inputs": [],
      "name": "proposalMaxOperations",
      "outputs": [
        {
          "internalType": "uint256",
          "name": "",
          "type": "uint256"
        }
      ],
      "stateMutability": "pure",
      "type": "function"
    },
    {
      "inputs": [
        {
          "internalType": "uint256",
          "name": "",
          "type": "uint256"
        },
        {
          "internalType": "address",
          "name": "",
          "type": "address"
        }
      ],
      "name": "proposalReceipts",
      "outputs": [
        {
          "internalType": "bool",
          "name": "hasVoted",
          "type": "bool"
        },
        {
          "internalType": "bool",
          "name": "support",
          "type": "bool"
        },
        {
          "internalType": "uint96",
          "name": "votes",
          "type": "uint96"
        }
      ],
      "stateMutability": "view",
      "type": "function"
    },
    {
      "inputs": [],
      "name": "proposalStake",
      "outputs": [
        {
          "internalType": "uint96",
          "name": "",
          "type": "uint96"
        }
      ],
      "stateMutability": "view",
      "type": "function"
    },
    {
      "inputs": [],
      "name": "proposalThreshold",
      "outputs": [
        {
          "internalType": "uint256",
          "name": "",
          "type": "uint256"
        }
      ],
      "stateMutability": "pure",
      "type": "function"
    },
    {
      "inputs": [
        {
          "internalType": "uint256",
          "name": "",
          "type": "uint256"
        }
      ],
      "name": "proposalToNFTOwner",
      "outputs": [
        {
          "internalType": "address",
          "name": "",
          "type": "address"
        }
      ],
      "stateMutability": "view",
      "type": "function"
    },
    {
      "inputs": [
        {
          "internalType": "uint256",
          "name": "",
          "type": "uint256"
        }
      ],
      "name": "proposals",
      "outputs": [
        {
          "internalType": "uint256",
          "name": "id",
          "type": "uint256"
        },
        {
          "internalType": "uint256",
          "name": "eta",
          "type": "uint256"
        },
        {
          "internalType": "uint256",
          "name": "startBlock",
          "type": "uint256"
        },
        {
          "internalType": "uint256",
          "name": "endBlock",
          "type": "uint256"
        },
        {
          "internalType": "address",
          "name": "creator",
          "type": "address"
        },
        {
          "internalType": "bool",
          "name": "cancel",
          "type": "bool"
        },
        {
          "internalType": "bool",
          "name": "executed",
          "type": "bool"
        }
      ],
      "stateMutability": "view",
      "type": "function"
    },
    {
      "inputs": [
        {
          "internalType": "uint256",
          "name": "",
          "type": "uint256"
        }
      ],
      "name": "proposalsBasicData",
      "outputs": [
        {
          "internalType": "uint256",
          "name": "id",
          "type": "uint256"
        },
        {
          "internalType": "address",
          "name": "creator",
          "type": "address"
        },
        {
          "internalType": "uint256",
          "name": "forVotes",
          "type": "uint256"
        },
        {
          "internalType": "uint256",
          "name": "againstVotes",
          "type": "uint256"
        },
        {
          "internalType": "string",
          "name": "title",
          "type": "string"
        },
        {
          "internalType": "string",
          "name": "description",
          "type": "string"
        },
        {
          "internalType": "string",
          "name": "proposalFile",
          "type": "string"
        },
        {
          "internalType": "string",
          "name": "category",
          "type": "string"
        }
      ],
      "stateMutability": "view",
      "type": "function"
    },
    {
      "inputs": [
        {
          "internalType": "address[]",
          "name": "targets",
          "type": "address[]"
        },
        {
          "internalType": "uint256[]",
          "name": "values",
          "type": "uint256[]"
        },
        {
          "internalType": "string[]",
          "name": "signatures",
          "type": "string[]"
        },
        {
          "internalType": "bytes[]",
          "name": "calldatas",
          "type": "bytes[]"
        },
        {
          "internalType": "string",
          "name": "title",
          "type": "string"
        },
        {
          "internalType": "string",
          "name": "description",
          "type": "string"
        },
        {
          "internalType": "string",
          "name": "proposalFile",
          "type": "string"
        },
        {
          "internalType": "string",
          "name": "category",
          "type": "string"
        }
      ],
      "name": "propose",
      "outputs": [
        {
          "internalType": "uint256",
          "name": "",
          "type": "uint256"
        }
      ],
      "stateMutability": "payable",
      "type": "function"
    },
    {
      "inputs": [
        {
          "internalType": "uint256",
          "name": "_proposalId",
          "type": "uint256"
        }
      ],
      "name": "queue",
      "outputs": [],
      "stateMutability": "nonpayable",
      "type": "function"
    },
    {
      "inputs": [],
      "name": "quorumVotes",
      "outputs": [
        {
          "internalType": "uint256",
          "name": "",
          "type": "uint256"
        }
      ],
      "stateMutability": "pure",
      "type": "function"
    },
    {
      "inputs": [
        {
          "internalType": "address",
          "name": "",
          "type": "address"
        }
      ],
      "name": "receivedMemberNFT",
      "outputs": [
        {
          "internalType": "bool",
          "name": "",
          "type": "bool"
        }
      ],
      "stateMutability": "view",
      "type": "function"
    },
    {
      "inputs": [
        {
          "internalType": "uint256",
          "name": "_proposalId",
          "type": "uint256"
        }
      ],
      "name": "state",
      "outputs": [
        {
          "internalType": "enum Samhita.ProposalState",
          "name": "",
          "type": "uint8"
        }
      ],
      "stateMutability": "view",
      "type": "function"
    },
    {
      "inputs": [],
      "name": "templateNFT",
      "outputs": [
        {
          "internalType": "contract ITemplateNFT",
          "name": "",
          "type": "address"
        }
      ],
      "stateMutability": "view",
      "type": "function"
    },
    {
      "inputs": [],
      "name": "timelock",
      "outputs": [
        {
          "internalType": "contract ITimelock",
          "name": "",
          "type": "address"
        }
      ],
      "stateMutability": "view",
      "type": "function"
    },
    {
      "inputs": [],
      "name": "token",
      "outputs": [
        {
          "internalType": "contract ISamhitaToken",
          "name": "",
          "type": "address"
        }
      ],
      "stateMutability": "view",
      "type": "function"
    },
    {
      "inputs": [],
      "name": "votingDelay",
      "outputs": [
        {
          "internalType": "uint256",
          "name": "",
          "type": "uint256"
        }
      ],
      "stateMutability": "pure",
      "type": "function"
    },
    {
      "inputs": [],
      "name": "votingPeriod",
      "outputs": [
        {
          "internalType": "uint256",
          "name": "",
          "type": "uint256"
        }
      ],
      "stateMutability": "pure",
      "type": "function"
    }
  ],
  "bytecode": "0x6080604052674563918244f40000601060006101000a8154816bffffffffffffffffffffffff02191690836bffffffffffffffffffffffff160217905550600a6010600c6101000a8154816bffffffffffffffffffffffff02191690836bffffffffffffffffffffffff1602179055503480156200007c57600080fd5b50604051620061ed380380620061ed8339818101604052810190620000a291906200043a565b836000806101000a81548173ffffffffffffffffffffffffffffffffffffffff021916908373ffffffffffffffffffffffffffffffffffffffff16021790555082600160006101000a81548173ffffffffffffffffffffffffffffffffffffffff021916908373ffffffffffffffffffffffffffffffffffffffff16021790555081600260006101000a81548173ffffffffffffffffffffffffffffffffffffffff021916908373ffffffffffffffffffffffffffffffffffffffff16021790555033600460006101000a81548173ffffffffffffffffffffffffffffffffffffffff021916908373ffffffffffffffffffffffffffffffffffffffff160217905550600260009054906101000a900473ffffffffffffffffffffffffffffffffffffffff1673ffffffffffffffffffffffffffffffffffffffff16638c85826633836040518363ffffffff1660e01b81526004016200020492919062000539565b600060405180830381600087803b1580156200021f57600080fd5b505af115801562000234573d6000803e3d6000fd5b50505050505050506200056d565b6000604051905090565b600080fd5b600080fd5b600073ffffffffffffffffffffffffffffffffffffffff82169050919050565b6000620002838262000256565b9050919050565b620002958162000276565b8114620002a157600080fd5b50565b600081519050620002b5816200028a565b92915050565b600080fd5b600080fd5b6000601f19601f8301169050919050565b7f4e487b7100000000000000000000000000000000000000000000000000000000600052604160045260246000fd5b6200031082620002c5565b810181811067ffffffffffffffff82111715620003325762000331620002d6565b5b80604052505050565b60006200034762000242565b905062000355828262000305565b919050565b600067ffffffffffffffff821115620003785762000377620002d6565b5b6200038382620002c5565b9050602081019050919050565b60005b83811015620003b057808201518184015260208101905062000393565b60008484015250505050565b6000620003d3620003cd846200035a565b6200033b565b905082815260208101848484011115620003f257620003f1620002c0565b5b620003ff84828562000390565b509392505050565b600082601f8301126200041f576200041e620002bb565b5b815162000431848260208601620003bc565b91505092915050565b600080600080608085870312156200045757620004566200024c565b5b60006200046787828801620002a4565b94505060206200047a87828801620002a4565b93505060406200048d87828801620002a4565b925050606085015167ffffffffffffffff811115620004b157620004b062000251565b5b620004bf8782880162000407565b91505092959194509250565b620004d68162000276565b82525050565b600081519050919050565b600082825260208201905092915050565b60006200050582620004dc565b620005118185620004e7565b93506200052381856020860162000390565b6200052e81620002c5565b840191505092915050565b6000604082019050620005506000830185620004cb565b8181036020830152620005648184620004f8565b90509392505050565b615c70806200057d6000396000f3fe6080604052600436106101d85760003560e01c80636ef6c66d11610102578063d33219b411610095578063e8b1eba911610064578063e8b1eba91461071d578063f646a92c1461074d578063fc0c546a14610791578063fe0d94c1146107bc576101d8565b8063d33219b414610661578063da35c6641461068c578063ddf0b009146106b7578063de0b27e5146106e0576101d8565b8063c377a0c5116100d1578063c377a0c51461058e578063c3c79d85146105cb578063c863b48e146105e7578063cd88717614610624576101d8565b80636ef6c66d146104e25780637bdbe4d01461050d57806388fde90a14610538578063b58131b014610563576101d8565b8063392317cd1161017a578063452a932011610149578063452a9320146104125780634a7fdf2d1461043d5780634a9f914e1461046657806366176743146104a3576101d8565b8063392317cd146103445780633932abb1146103815780633e4f49e6146103ac57806340e58ee5146103e9576101d8565b806308006a15116101b657806308006a151461027657806315373e3d146102b357806317977c61146102dc57806324bc1a6414610319576101d8565b8063013cf08b146101dd57806302a251a31461022057806306fdde031461024b575b600080fd5b3480156101e957600080fd5b5061020460048036038101906101ff91906133ce565b6107d8565b6040516102179796959493929190613466565b60405180910390f35b34801561022c57600080fd5b50610235610854565b60405161024291906134d5565b60405180910390f35b34801561025757600080fd5b5061026061085d565b60405161026d9190613580565b60405180910390f35b34801561028257600080fd5b5061029d600480360381019061029891906135ce565b610896565b6040516102aa91906134d5565b60405180910390f35b3480156102bf57600080fd5b506102da60048036038101906102d59190613627565b6108ae565b005b3480156102e857600080fd5b5061030360048036038101906102fe91906135ce565b6108bd565b60405161031091906134d5565b60405180910390f35b34801561032557600080fd5b5061032e6108d5565b60405161033b91906134d5565b60405180910390f35b34801561035057600080fd5b5061036b600480360381019061036691906135ce565b6108de565b60405161037891906134d5565b60405180910390f35b34801561038d57600080fd5b506103966108f6565b6040516103a391906134d5565b60405180910390f35b3480156103b857600080fd5b506103d360048036038101906103ce91906133ce565b6108ff565b6040516103e091906136de565b60405180910390f35b3480156103f557600080fd5b50610410600480360381019061040b91906133ce565b610b08565b005b34801561041e57600080fd5b50610427610eba565b60405161043491906136f9565b60405180910390f35b34801561044957600080fd5b50610464600480360381019061045f9190613849565b610ee0565b005b34801561047257600080fd5b5061048d600480360381019061048891906135ce565b6110b9565b60405161049a91906134d5565b60405180910390f35b3480156104af57600080fd5b506104ca60048036038101906104c59190613892565b6110d1565b6040516104d9939291906138f9565b60405180910390f35b3480156104ee57600080fd5b506104f761113a565b6040516105049190613930565b60405180910390f35b34801561051957600080fd5b50610522611158565b60405161052f91906134d5565b60405180910390f35b34801561054457600080fd5b5061054d611161565b60405161055a91906139aa565b60405180910390f35b34801561056f57600080fd5b50610578611187565b60405161058591906134d5565b60405180910390f35b34801561059a57600080fd5b506105b560048036038101906105b091906135ce565b611190565b6040516105c291906139c5565b60405180910390f35b6105e560048036038101906105e09190613a0c565b6111b0565b005b3480156105f357600080fd5b5061060e600480360381019061060991906133ce565b6115b1565b60405161061b91906134d5565b60405180910390f35b34801561063057600080fd5b5061064b600480360381019061064691906133ce565b611640565b60405161065891906136f9565b60405180910390f35b34801561066d57600080fd5b50610676611673565b6040516106839190613a5a565b60405180910390f35b34801561069857600080fd5b506106a1611697565b6040516106ae91906134d5565b60405180910390f35b3480156106c357600080fd5b506106de60048036038101906106d991906133ce565b61169d565b005b3480156106ec57600080fd5b50610707600480360381019061070291906135ce565b611c68565b60405161071491906139c5565b60405180910390f35b61073760048036038101906107329190613e63565b611c88565b60405161074491906134d5565b60405180910390f35b34801561075957600080fd5b50610774600480360381019061076f91906133ce565b6124a2565b604051610788989796959493929190613ff9565b60405180910390f35b34801561079d57600080fd5b506107a661272a565b6040516107b391906140b4565b60405180910390f35b6107d660048036038101906107d191906133ce565b612750565b005b60066020528060005260406000206000915090508060000154908060010154908060020154908060030154908060040160009054906101000a900473ffffffffffffffffffffffffffffffffffffffff16908060090160009054906101000a900460ff16908060090160019054906101000a900460ff16905087565b60006028905090565b6040518060400160405280600781526020017f53616d686974610000000000000000000000000000000000000000000000000081525081565b600d6020528060005260406000206000915090505481565b6108b93383836129bb565b5050565b60086020528060005260406000206000915090505481565b60006028905090565b60096020528060005260406000206000915090505481565b60006001905090565b600081600354101580156109135750600082115b610952576040517f08c379a00000000000000000000000000000000000000000000000000000000081526004016109499061411b565b60405180910390fd5b60006006600084815260200190815260200160002090508060090160009054906101000a900460ff161561098a576002915050610b03565b8060020154431161099f576000915050610b03565b806003015443116109b4576001915050610b03565b60076000848152602001908152602001600020600301546007600085815260200190815260200160002060020154111580610a0b57506109f26108d5565b6007600085815260200190815260200160002060020154105b15610a1a576003915050610b03565b6000816001015403610a30576004915050610b03565b8060090160019054906101000a900460ff1615610a51576007915050610b03565b610aed816001015460008054906101000a900473ffffffffffffffffffffffffffffffffffffffff1673ffffffffffffffffffffffffffffffffffffffff1663c1a287e26040518163ffffffff1660e01b8152600401602060405180830381865afa158015610ac4573d6000803e3d6000fd5b505050506040513d601f19601f82011682018060405250810190610ae89190614150565b612d37565b4210610afd576006915050610b03565b60059150505b919050565b600780811115610b1b57610b1a613667565b5b610b24826108ff565b6007811115610b3657610b35613667565b5b03610b76576040517f08c379a0000000000000000000000000000000000000000000000000000000008152600401610b6d906141c9565b60405180910390fd5b6000600660008381526020019081526020016000209050600460009054906101000a900473ffffffffffffffffffffffffffffffffffffffff1673ffffffffffffffffffffffffffffffffffffffff163373ffffffffffffffffffffffffffffffffffffffff161480610cc85750610bec611187565b600160009054906101000a900473ffffffffffffffffffffffffffffffffffffffff1673ffffffffffffffffffffffffffffffffffffffff1663782d6fe18360040160009054906101000a900473ffffffffffffffffffffffffffffffffffffffff16610c5a436001612d95565b6040518363ffffffff1660e01b8152600401610c779291906141e9565b602060405180830381865afa158015610c94573d6000803e3d6000fd5b505050506040513d601f19601f82011682018060405250810190610cb89190614227565b6bffffffffffffffffffffffff16105b610d07576040517f08c379a0000000000000000000000000000000000000000000000000000000008152600401610cfe906142a0565b60405180910390fd5b60018160090160006101000a81548160ff02191690831515021790555060005b8160050180549050811015610e7e5760008054906101000a900473ffffffffffffffffffffffffffffffffffffffff1673ffffffffffffffffffffffffffffffffffffffff1663591fcdfe836005018381548110610d8857610d876142c0565b5b9060005260206000200160009054906101000a900473ffffffffffffffffffffffffffffffffffffffff16846006018481548110610dc957610dc86142c0565b5b9060005260206000200154856007018581548110610dea57610de96142c0565b5b90600052602060002001866008018681548110610e0a57610e096142c0565b5b9060005260206000200187600101546040518663ffffffff1660e01b8152600401610e39959493929190614492565b600060405180830381600087803b158015610e5357600080fd5b505af1158015610e67573d6000803e3d6000fd5b505050508080610e7690614522565b915050610d27565b507f789cf55be980739dad1d0699b93b58e806b51c9d96619bfa8fe0a28abaa7b30c82604051610eae91906134d5565b60405180910390a15050565b600460009054906101000a900473ffffffffffffffffffffffffffffffffffffffff1681565b60001515600b60003373ffffffffffffffffffffffffffffffffffffffff1673ffffffffffffffffffffffffffffffffffffffff16815260200190815260200160002060009054906101000a900460ff161515036110b6576002600d60003373ffffffffffffffffffffffffffffffffffffffff1673ffffffffffffffffffffffffffffffffffffffff1681526020019081526020016000205410158015610fc857506005600c60003373ffffffffffffffffffffffffffffffffffffffff1673ffffffffffffffffffffffffffffffffffffffff1681526020019081526020016000205410155b156110b557600260009054906101000a900473ffffffffffffffffffffffffffffffffffffffff1673ffffffffffffffffffffffffffffffffffffffff1663858f1e9233836040518363ffffffff1660e01b815260040161102a92919061456a565b600060405180830381600087803b15801561104457600080fd5b505af1158015611058573d6000803e3d6000fd5b505050506001600b60003373ffffffffffffffffffffffffffffffffffffffff1673ffffffffffffffffffffffffffffffffffffffff16815260200190815260200160002060006101000a81548160ff0219169083151502179055505b5b50565b600c6020528060005260406000206000915090505481565b6005602052816000526040600020602052806000526040600020600091509150508060000160009054906101000a900460ff16908060000160019054906101000a900460ff16908060000160029054906101000a90046bffffffffffffffffffffffff16905083565b601060009054906101000a90046bffffffffffffffffffffffff1681565b6000600a905090565b600260009054906101000a900473ffffffffffffffffffffffffffffffffffffffff1681565b6000600a905090565b600b6020528060005260406000206000915054906101000a900460ff1681565b6010600c9054906101000a90046bffffffffffffffffffffffff166bffffffffffffffffffffffff16816bffffffffffffffffffffffff161015611229576040517f08c379a00000000000000000000000000000000000000000000000000000000081526004016112209061460c565b60405180910390fd5b600160009054906101000a900473ffffffffffffffffffffffffffffffffffffffff1673ffffffffffffffffffffffffffffffffffffffff16634b94f50e6040518163ffffffff1660e01b8152600401602060405180830381865afa158015611296573d6000803e3d6000fd5b505050506040513d601f19601f820116820180604052508101906112ba9190614150565b816bffffffffffffffffffffffff166112d3919061462c565b3414611314576040517f08c379a000000000000000000000000000000000000000000000000000000000815260040161130b906146ba565b60405180910390fd5b806bffffffffffffffffffffffff16600160009054906101000a900473ffffffffffffffffffffffffffffffffffffffff1673ffffffffffffffffffffffffffffffffffffffff166370a08231306040518263ffffffff1660e01b815260040161137e91906136f9565b602060405180830381865afa15801561139b573d6000803e3d6000fd5b505050506040513d601f19601f820116820180604052508101906113bf9190614150565b1015611400576040517f08c379a00000000000000000000000000000000000000000000000000000000081526004016113f79061474c565b60405180910390fd5b600f60003373ffffffffffffffffffffffffffffffffffffffff1673ffffffffffffffffffffffffffffffffffffffff16815260200190815260200160002060009054906101000a900460ff1661150d57600e339080600181540180825580915050600190039060005260206000200160009091909190916101000a81548173ffffffffffffffffffffffffffffffffffffffff021916908373ffffffffffffffffffffffffffffffffffffffff1602179055506001600f60003373ffffffffffffffffffffffffffffffffffffffff1673ffffffffffffffffffffffffffffffffffffffff16815260200190815260200160002060006101000a81548160ff0219169083151502179055505b600160009054906101000a900473ffffffffffffffffffffffffffffffffffffffff1673ffffffffffffffffffffffffffffffffffffffff1663a9059cbb33836040518363ffffffff1660e01b815260040161156a92919061479d565b6020604051808303816000875af1158015611589573d6000803e3d6000fd5b505050506040513d601f19601f820116820180604052508101906115ad91906147db565b5050565b600080821180156115c457506003548211155b611603576040517f08c379a00000000000000000000000000000000000000000000000000000000081526004016115fa90614854565b60405180910390fd5b6116226007600084815260200190815260200160002060020154612dee565b60076000838152602001908152602001600020600201549050919050565b600a6020528060005260406000206000915054906101000a900473ffffffffffffffffffffffffffffffffffffffff1681565b60008054906101000a900473ffffffffffffffffffffffffffffffffffffffff1681565b60035481565b600460078111156116b1576116b0613667565b5b6116ba826108ff565b60078111156116cc576116cb613667565b5b1461170c576040517f08c379a0000000000000000000000000000000000000000000000000000000008152600401611703906148e6565b60405180910390fd5b601060009054906101000a90046bffffffffffffffffffffffff166bffffffffffffffffffffffff16600960006006600085815260200190815260200160002060040160009054906101000a900473ffffffffffffffffffffffffffffffffffffffff1673ffffffffffffffffffffffffffffffffffffffff1673ffffffffffffffffffffffffffffffffffffffff16815260200190815260200160002060008282546117b99190614906565b925050819055506006600082815260200190815260200160002060040160009054906101000a900473ffffffffffffffffffffffffffffffffffffffff16600a600083815260200190815260200160002060006101000a81548173ffffffffffffffffffffffffffffffffffffffff021916908373ffffffffffffffffffffffffffffffffffffffff160217905550600060066000838152602001908152602001600020905060006118f94260008054906101000a900473ffffffffffffffffffffffffffffffffffffffff1673ffffffffffffffffffffffffffffffffffffffff16636a42b8f86040518163ffffffff1660e01b8152600401602060405180830381865afa1580156118d0573d6000803e3d6000fd5b505050506040513d601f19601f820116820180604052508101906118f49190614150565b612d37565b905060005b8260050180549050811015611add57611aca836005018281548110611926576119256142c0565b5b9060005260206000200160009054906101000a900473ffffffffffffffffffffffffffffffffffffffff16846006018381548110611967576119666142c0565b5b9060005260206000200154856007018481548110611988576119876142c0565b5b90600052602060002001805461199d9061431e565b80601f01602080910402602001604051908101604052809291908181526020018280546119c99061431e565b8015611a165780601f106119eb57610100808354040283529160200191611a16565b820191906000526020600020905b8154815290600101906020018083116119f957829003601f168201915b5050505050866008018581548110611a3157611a306142c0565b5b906000526020600020018054611a469061431e565b80601f0160208091040260200160405190810160405280929190818152602001828054611a729061431e565b8015611abf5780601f10611a9457610100808354040283529160200191611abf565b820191906000526020600020905b815481529060010190602001808311611aa257829003601f168201915b505050505086612e87565b8080611ad590614522565b9150506118fe565b50808260010181905550604051602001611af690614991565b6040516020818303038152906040528051906020012060076000858152602001908152602001600020600701604051602001611b329190614a29565b6040516020818303038152906040528051906020012003611c2a57600260009054906101000a900473ffffffffffffffffffffffffffffffffffffffff1673ffffffffffffffffffffffffffffffffffffffff1663b971043b6006600086815260200190815260200160002060040160009054906101000a900473ffffffffffffffffffffffffffffffffffffffff1660076000878152602001908152602001600020600601866040518463ffffffff1660e01b8152600401611bf793929190614a40565b600060405180830381600087803b158015611c1157600080fd5b505af1158015611c25573d6000803e3d6000fd5b505050505b7f9a2e42fd6722813d69113e7d0079d3d940171428df7373df9c7f7617cfda28928382604051611c5b929190614a7e565b60405180910390a1505050565b600f6020528060005260406000206000915054906101000a900460ff1681565b6000600f60003373ffffffffffffffffffffffffffffffffffffffff1673ffffffffffffffffffffffffffffffffffffffff16815260200190815260200160002060009054906101000a900460ff16611d16576040517f08c379a0000000000000000000000000000000000000000000000000000000008152600401611d0d90614b19565b60405180910390fd5b601060009054906101000a90046bffffffffffffffffffffffff166bffffffffffffffffffffffff163414611d80576040517f08c379a0000000000000000000000000000000000000000000000000000000008152600401611d7790614bab565b60405180910390fd5b611d88611187565b600160009054906101000a900473ffffffffffffffffffffffffffffffffffffffff1673ffffffffffffffffffffffffffffffffffffffff1663782d6fe133611dd2436001612d95565b6040518363ffffffff1660e01b8152600401611def9291906141e9565b602060405180830381865afa158015611e0c573d6000803e3d6000fd5b505050506040513d601f19601f82011682018060405250810190611e309190614227565b6bffffffffffffffffffffffff1611611e7e576040517f08c379a0000000000000000000000000000000000000000000000000000000008152600401611e7590614c3d565b60405180910390fd5b87518951148015611e90575086518951145b8015611e9d575085518951145b611edc576040517f08c379a0000000000000000000000000000000000000000000000000000000008152600401611ed390614ccf565b60405180910390fd5b6000895103611f20576040517f08c379a0000000000000000000000000000000000000000000000000000000008152600401611f1790614d3b565b60405180910390fd5b611f28611158565b89511115611f6b576040517f08c379a0000000000000000000000000000000000000000000000000000000008152600401611f6290614da7565b60405180910390fd5b6000600860003373ffffffffffffffffffffffffffffffffffffffff1673ffffffffffffffffffffffffffffffffffffffff16815260200190815260200160002054905060008114612094576000611fc2826108ff565b905060016007811115611fd857611fd7613667565b5b816007811115611feb57611fea613667565b5b0361202b576040517f08c379a000000000000000000000000000000000000000000000000000000000815260040161202290614e13565b60405180910390fd5b6000600781111561203f5761203e613667565b5b81600781111561205257612051613667565b5b03612092576040517f08c379a000000000000000000000000000000000000000000000000000000000815260040161208990614ea5565b60405180910390fd5b505b60006120a7436120a26108f6565b612d37565b905060006120bc826120b7610854565b612d37565b9050600360008154809291906120d190614522565b91905055506040518061016001604052806003548152602001600081526020018381526020018281526020013373ffffffffffffffffffffffffffffffffffffffff1681526020018d81526020018c81526020018b81526020018a8152602001600015158152602001600015158152506006600060035481526020019081526020016000206000820151816000015560208201518160010155604082015181600201556060820151816003015560808201518160040160006101000a81548173ffffffffffffffffffffffffffffffffffffffff021916908373ffffffffffffffffffffffffffffffffffffffff16021790555060a08201518160050190805190602001906121e192919061310c565b5060c08201518160060190805190602001906121fe929190613196565b5060e082015181600701908051906020019061221b9291906131e3565b5061010082015181600801908051906020019061223992919061323c565b506101208201518160090160006101000a81548160ff0219169083151502179055506101408201518160090160016101000a81548160ff02191690831515021790555090505060405180610100016040528060035481526020013373ffffffffffffffffffffffffffffffffffffffff1681526020016000815260200160008152602001898152602001888152602001878152602001868152506007600060035481526020019081526020016000206000820151816000015560208201518160010160006101000a81548173ffffffffffffffffffffffffffffffffffffffff021916908373ffffffffffffffffffffffffffffffffffffffff160217905550604082015181600201556060820151816003015560808201518160040190816123629190615052565b5060a08201518160050190816123789190615052565b5060c082015181600601908161238e9190615052565b5060e08201518160070190816123a49190615052565b50905050600354600860003373ffffffffffffffffffffffffffffffffffffffff1673ffffffffffffffffffffffffffffffffffffffff168152602001908152602001600020819055506001600d60003373ffffffffffffffffffffffffffffffffffffffff1673ffffffffffffffffffffffffffffffffffffffff168152602001908152602001600020600082825461243e9190614906565b925050819055507f9c2b0d68f5edfd1bf6158a1867aced894efcfcf77c7a7603cb571e18ce89ae76600354338e8e8e8e8e8989604051612486999897969594939291906154c3565b60405180910390a1600354935050505098975050505050505050565b60076020528060005260406000206000915090508060000154908060010160009054906101000a900473ffffffffffffffffffffffffffffffffffffffff16908060020154908060030154908060040180546124fd9061431e565b80601f01602080910402602001604051908101604052809291908181526020018280546125299061431e565b80156125765780601f1061254b57610100808354040283529160200191612576565b820191906000526020600020905b81548152906001019060200180831161255957829003601f168201915b50505050509080600501805461258b9061431e565b80601f01602080910402602001604051908101604052809291908181526020018280546125b79061431e565b80156126045780601f106125d957610100808354040283529160200191612604565b820191906000526020600020905b8154815290600101906020018083116125e757829003601f168201915b5050505050908060060180546126199061431e565b80601f01602080910402602001604051908101604052809291908181526020018280546126459061431e565b80156126925780601f1061266757610100808354040283529160200191612692565b820191906000526020600020905b81548152906001019060200180831161267557829003601f168201915b5050505050908060070180546126a79061431e565b80601f01602080910402602001604051908101604052809291908181526020018280546126d39061431e565b80156127205780601f106126f557610100808354040283529160200191612720565b820191906000526020600020905b81548152906001019060200180831161270357829003601f168201915b5050505050905088565b600160009054906101000a900473ffffffffffffffffffffffffffffffffffffffff1681565b6005600781111561276457612763613667565b5b61276d826108ff565b600781111561277f5761277e613667565b5b146127bf576040517f08c379a00000000000000000000000000000000000000000000000000000000081526004016127b6906155e5565b60405180910390fd5b600060066000838152602001908152602001600020905060018160090160016101000a81548160ff02191690831515021790555060005b816005018054905081101561297f5760008054906101000a900473ffffffffffffffffffffffffffffffffffffffff1673ffffffffffffffffffffffffffffffffffffffff16632224fa25836006018381548110612857576128566142c0565b5b9060005260206000200154846005018481548110612878576128776142c0565b5b9060005260206000200160009054906101000a900473ffffffffffffffffffffffffffffffffffffffff168560060185815481106128b9576128b86142c0565b5b90600052602060002001548660070186815481106128da576128d96142c0565b5b906000526020600020018760080187815481106128fa576128f96142c0565b5b906000526020600020016040518663ffffffff1660e01b81526004016129239493929190615605565b60006040518083038185885af1158015612941573d6000803e3d6000fd5b50505050506040513d6000823e3d601f19601f8201168201806040525081019061296b91906156c8565b50808061297790614522565b9150506127f6565b507f712ae1383f79ac853f8d882153778e0260ef8f03b504e2866e0593e04d2b291f826040516129af91906134d5565b60405180910390a15050565b600160078111156129cf576129ce613667565b5b6129d8836108ff565b60078111156129ea576129e9613667565b5b14612a2a576040517f08c379a0000000000000000000000000000000000000000000000000000000008152600401612a219061575d565b60405180910390fd5b600060066000848152602001908152602001600020905060006005600085815260200190815260200160002060008673ffffffffffffffffffffffffffffffffffffffff1673ffffffffffffffffffffffffffffffffffffffff1681526020019081526020016000209050600015158160000160009054906101000a900460ff16151514612aed576040517f08c379a0000000000000000000000000000000000000000000000000000000008152600401612ae4906157c9565b60405180910390fd5b6000600160009054906101000a900473ffffffffffffffffffffffffffffffffffffffff1673ffffffffffffffffffffffffffffffffffffffff1663782d6fe18785600201546040518363ffffffff1660e01b8152600401612b509291906141e9565b602060405180830381865afa158015612b6d573d6000803e3d6000fd5b505050506040513d601f19601f82011682018060405250810190612b919190614227565b90508315612be657612bc76007600087815260200190815260200160002060020154826bffffffffffffffffffffffff16612d37565b6007600087815260200190815260200160002060020181905550612c2f565b612c146007600087815260200190815260200160002060030154826bffffffffffffffffffffffff16612d37565b60076000878152602001908152602001600020600301819055505b60018260000160006101000a81548160ff021916908315150217905550838260000160016101000a81548160ff021916908315150217905550808260000160026101000a8154816bffffffffffffffffffffffff02191690836bffffffffffffffffffffffff1602179055506001600c60003373ffffffffffffffffffffffffffffffffffffffff1673ffffffffffffffffffffffffffffffffffffffff1681526020019081526020016000206000828254612ceb9190614906565b925050819055507f877856338e13f63d0c36822ff0ef736b80934cd90574a3a5bc9262c39d217c4686868684604051612d2794939291906157e9565b60405180910390a1505050505050565b6000808284612d469190614906565b905083811015612d8b576040517f08c379a0000000000000000000000000000000000000000000000000000000008152600401612d829061587a565b60405180910390fd5b8091505092915050565b600082821115612dda576040517f08c379a0000000000000000000000000000000000000000000000000000000008152600401612dd1906158e6565b60405180910390fd5b8183612de69190615906565b905092915050565b612e8481604051602401612e0291906134d5565b6040516020818303038152906040527ff82c50f1000000000000000000000000000000000000000000000000000000007bffffffffffffffffffffffffffffffffffffffffffffffffffffffff19166020820180517bffffffffffffffffffffffffffffffffffffffffffffffffffffffff83818316178352505050506130c6565b50565b60008054906101000a900473ffffffffffffffffffffffffffffffffffffffff1673ffffffffffffffffffffffffffffffffffffffff1663f2b065378686868686604051602001612edc959493929190615973565b604051602081830303815290604052805190602001206040518263ffffffff1660e01b8152600401612f0e91906159ed565b602060405180830381865afa158015612f2b573d6000803e3d6000fd5b505050506040513d601f19601f82011682018060405250810190612f4f91906147db565b15612f8f576040517f08c379a0000000000000000000000000000000000000000000000000000000008152600401612f8690615a7a565b60405180910390fd5b60008054906101000a900473ffffffffffffffffffffffffffffffffffffffff1673ffffffffffffffffffffffffffffffffffffffff1663abc203bd336040518263ffffffff1660e01b8152600401612fe891906136f9565b600060405180830381600087803b15801561300257600080fd5b505af1158015613016573d6000803e3d6000fd5b5050505060008054906101000a900473ffffffffffffffffffffffffffffffffffffffff1673ffffffffffffffffffffffffffffffffffffffff16633a66f90186868686866040518663ffffffff1660e01b815260040161307b959493929190615973565b6020604051808303816000875af115801561309a573d6000803e3d6000fd5b505050506040513d601f19601f820116820180604052508101906130be9190615ac6565b505050505050565b6130dd816130d56130e0613101565b63ffffffff16565b50565b60006a636f6e736f6c652e6c6f679050600080835160208501845afa505050565b613295819050919050565b828054828255906000526020600020908101928215613185579160200282015b828111156131845782518260006101000a81548173ffffffffffffffffffffffffffffffffffffffff021916908373ffffffffffffffffffffffffffffffffffffffff1602179055509160200191906001019061312c565b5b509050613192919061329f565b5090565b8280548282559060005260206000209081019282156131d2579160200282015b828111156131d15782518255916020019190600101906131b6565b5b5090506131df919061329f565b5090565b82805482825590600052602060002090810192821561322b579160200282015b8281111561322a57825182908161321a9190615052565b5091602001919060010190613203565b5b50905061323891906132bc565b5090565b828054828255906000526020600020908101928215613284579160200282015b828111156132835782518290816132739190615b39565b509160200191906001019061325c565b5b50905061329191906132e0565b5090565b61329d615c0b565b565b5b808211156132b85760008160009055506001016132a0565b5090565b5b808211156132dc57600081816132d39190613304565b506001016132bd565b5090565b5b8082111561330057600081816132f79190613344565b506001016132e1565b5090565b5080546133109061431e565b6000825580601f106133225750613341565b601f016020900490600052602060002090810190613340919061329f565b5b50565b5080546133509061431e565b6000825580601f106133625750613381565b601f016020900490600052602060002090810190613380919061329f565b5b50565b6000604051905090565b600080fd5b600080fd5b6000819050919050565b6133ab81613398565b81146133b657600080fd5b50565b6000813590506133c8816133a2565b92915050565b6000602082840312156133e4576133e361338e565b5b60006133f2848285016133b9565b91505092915050565b61340481613398565b82525050565b600073ffffffffffffffffffffffffffffffffffffffff82169050919050565b60006134358261340a565b9050919050565b6134458161342a565b82525050565b60008115159050919050565b6134608161344b565b82525050565b600060e08201905061347b600083018a6133fb565b61348860208301896133fb565b61349560408301886133fb565b6134a260608301876133fb565b6134af608083018661343c565b6134bc60a0830185613457565b6134c960c0830184613457565b98975050505050505050565b60006020820190506134ea60008301846133fb565b92915050565b600081519050919050565b600082825260208201905092915050565b60005b8381101561352a57808201518184015260208101905061350f565b60008484015250505050565b6000601f19601f8301169050919050565b6000613552826134f0565b61355c81856134fb565b935061356c81856020860161350c565b61357581613536565b840191505092915050565b6000602082019050818103600083015261359a8184613547565b905092915050565b6135ab8161342a565b81146135b657600080fd5b50565b6000813590506135c8816135a2565b92915050565b6000602082840312156135e4576135e361338e565b5b60006135f2848285016135b9565b91505092915050565b6136048161344b565b811461360f57600080fd5b50565b600081359050613621816135fb565b92915050565b6000806040838503121561363e5761363d61338e565b5b600061364c858286016133b9565b925050602061365d85828601613612565b9150509250929050565b7f4e487b7100000000000000000000000000000000000000000000000000000000600052602160045260246000fd5b600881106136a7576136a6613667565b5b50565b60008190506136b882613696565b919050565b60006136c8826136aa565b9050919050565b6136d8816136bd565b82525050565b60006020820190506136f360008301846136cf565b92915050565b600060208201905061370e600083018461343c565b92915050565b600080fd5b600080fd5b7f4e487b7100000000000000000000000000000000000000000000000000000000600052604160045260246000fd5b61375682613536565b810181811067ffffffffffffffff821117156137755761377461371e565b5b80604052505050565b6000613788613384565b9050613794828261374d565b919050565b600067ffffffffffffffff8211156137b4576137b361371e565b5b6137bd82613536565b9050602081019050919050565b82818337600083830152505050565b60006137ec6137e784613799565b61377e565b90508281526020810184848401111561380857613807613719565b5b6138138482856137ca565b509392505050565b600082601f8301126138305761382f613714565b5b81356138408482602086016137d9565b91505092915050565b60006020828403121561385f5761385e61338e565b5b600082013567ffffffffffffffff81111561387d5761387c613393565b5b6138898482850161381b565b91505092915050565b600080604083850312156138a9576138a861338e565b5b60006138b7858286016133b9565b92505060206138c8858286016135b9565b9150509250929050565b60006bffffffffffffffffffffffff82169050919050565b6138f3816138d2565b82525050565b600060608201905061390e6000830186613457565b61391b6020830185613457565b61392860408301846138ea565b949350505050565b600060208201905061394560008301846138ea565b92915050565b6000819050919050565b600061397061396b6139668461340a565b61394b565b61340a565b9050919050565b600061398282613955565b9050919050565b600061399482613977565b9050919050565b6139a481613989565b82525050565b60006020820190506139bf600083018461399b565b92915050565b60006020820190506139da6000830184613457565b92915050565b6139e9816138d2565b81146139f457600080fd5b50565b600081359050613a06816139e0565b92915050565b600060208284031215613a2257613a2161338e565b5b6000613a30848285016139f7565b91505092915050565b6000613a4482613977565b9050919050565b613a5481613a39565b82525050565b6000602082019050613a6f6000830184613a4b565b92915050565b600067ffffffffffffffff821115613a9057613a8f61371e565b5b602082029050602081019050919050565b600080fd5b6000613ab9613ab484613a75565b61377e565b90508083825260208201905060208402830185811115613adc57613adb613aa1565b5b835b81811015613b055780613af188826135b9565b845260208401935050602081019050613ade565b5050509392505050565b600082601f830112613b2457613b23613714565b5b8135613b34848260208601613aa6565b91505092915050565b600067ffffffffffffffff821115613b5857613b5761371e565b5b602082029050602081019050919050565b6000613b7c613b7784613b3d565b61377e565b90508083825260208201905060208402830185811115613b9f57613b9e613aa1565b5b835b81811015613bc85780613bb488826133b9565b845260208401935050602081019050613ba1565b5050509392505050565b600082601f830112613be757613be6613714565b5b8135613bf7848260208601613b69565b91505092915050565b600067ffffffffffffffff821115613c1b57613c1a61371e565b5b602082029050602081019050919050565b6000613c3f613c3a84613c00565b61377e565b90508083825260208201905060208402830185811115613c6257613c61613aa1565b5b835b81811015613ca957803567ffffffffffffffff811115613c8757613c86613714565b5b808601613c94898261381b565b85526020850194505050602081019050613c64565b5050509392505050565b600082601f830112613cc857613cc7613714565b5b8135613cd8848260208601613c2c565b91505092915050565b600067ffffffffffffffff821115613cfc57613cfb61371e565b5b602082029050602081019050919050565b600067ffffffffffffffff821115613d2857613d2761371e565b5b613d3182613536565b9050602081019050919050565b6000613d51613d4c84613d0d565b61377e565b905082815260208101848484011115613d6d57613d6c613719565b5b613d788482856137ca565b509392505050565b600082601f830112613d9557613d94613714565b5b8135613da5848260208601613d3e565b91505092915050565b6000613dc1613dbc84613ce1565b61377e565b90508083825260208201905060208402830185811115613de457613de3613aa1565b5b835b81811015613e2b57803567ffffffffffffffff811115613e0957613e08613714565b5b808601613e168982613d80565b85526020850194505050602081019050613de6565b5050509392505050565b600082601f830112613e4a57613e49613714565b5b8135613e5a848260208601613dae565b91505092915050565b600080600080600080600080610100898b031215613e8457613e8361338e565b5b600089013567ffffffffffffffff811115613ea257613ea1613393565b5b613eae8b828c01613b0f565b985050602089013567ffffffffffffffff811115613ecf57613ece613393565b5b613edb8b828c01613bd2565b975050604089013567ffffffffffffffff811115613efc57613efb613393565b5b613f088b828c01613cb3565b965050606089013567ffffffffffffffff811115613f2957613f28613393565b5b613f358b828c01613e35565b955050608089013567ffffffffffffffff811115613f5657613f55613393565b5b613f628b828c0161381b565b94505060a089013567ffffffffffffffff811115613f8357613f82613393565b5b613f8f8b828c0161381b565b93505060c089013567ffffffffffffffff811115613fb057613faf613393565b5b613fbc8b828c0161381b565b92505060e089013567ffffffffffffffff811115613fdd57613fdc613393565b5b613fe98b828c0161381b565b9150509295985092959890939650565b60006101008201905061400f600083018b6133fb565b61401c602083018a61343c565b61402960408301896133fb565b61403660608301886133fb565b81810360808301526140488187613547565b905081810360a083015261405c8186613547565b905081810360c08301526140708185613547565b905081810360e08301526140848184613547565b90509998505050505050505050565b600061409e82613977565b9050919050565b6140ae81614093565b82525050565b60006020820190506140c960008301846140a5565b92915050565b7f696e76616c69642070726f706f73616c20696400000000000000000000000000600082015250565b60006141056013836134fb565b9150614110826140cf565b602082019050919050565b60006020820190508181036000830152614134816140f8565b9050919050565b60008151905061414a816133a2565b92915050565b6000602082840312156141665761416561338e565b5b60006141748482850161413b565b91505092915050565b7f63616e6e6f742063616e63656c2065786563757465642070726f706f73616c00600082015250565b60006141b3601f836134fb565b91506141be8261417d565b602082019050919050565b600060208201905081810360008301526141e2816141a6565b9050919050565b60006040820190506141fe600083018561343c565b61420b60208301846133fb565b9392505050565b600081519050614221816139e0565b92915050565b60006020828403121561423d5761423c61338e565b5b600061424b84828501614212565b91505092915050565b7f70726f706f7365722061626f7665207468726573686f6c640000000000000000600082015250565b600061428a6018836134fb565b915061429582614254565b602082019050919050565b600060208201905081810360008301526142b98161427d565b9050919050565b7f4e487b7100000000000000000000000000000000000000000000000000000000600052603260045260246000fd5b7f4e487b7100000000000000000000000000000000000000000000000000000000600052602260045260246000fd5b6000600282049050600182168061433657607f821691505b602082108103614349576143486142ef565b5b50919050565b60008190508160005260206000209050919050565b600081546143718161431e565b61437b81866134fb565b9450600182166000811461439657600181146143ac576143df565b60ff1983168652811515602002860193506143df565b6143b58561434f565b60005b838110156143d7578154818901526001820191506020810190506143b8565b808801955050505b50505092915050565b600082825260208201905092915050565b60008190508160005260206000209050919050565b6000815461441b8161431e565b61442581866143e8565b94506001821660008114614440576001811461445657614489565b60ff198316865281151560200286019350614489565b61445f856143f9565b60005b8381101561448157815481890152600182019150602081019050614462565b808801955050505b50505092915050565b600060a0820190506144a7600083018861343c565b6144b460208301876133fb565b81810360408301526144c68186614364565b905081810360608301526144da818561440e565b90506144e960808301846133fb565b9695505050505050565b7f4e487b7100000000000000000000000000000000000000000000000000000000600052601160045260246000fd5b600061452d82613398565b91507fffffffffffffffffffffffffffffffffffffffffffffffffffffffffffffffff820361455f5761455e6144f3565b5b600182019050919050565b600060408201905061457f600083018561343c565b81810360208301526145918184613547565b90509392505050565b7f596f75206d757374207075726368617365206174206c6561737420313020746f60008201527f6b656e7320746f206265636f6d652061206d656d626572000000000000000000602082015250565b60006145f66037836134fb565b91506146018261459a565b604082019050919050565b60006020820190508181036000830152614625816145e9565b9050919050565b600061463782613398565b915061464283613398565b925082820261465081613398565b91508282048414831517614667576146666144f3565b5b5092915050565b7f4e6f7420656e6f7567682076616c756500000000000000000000000000000000600082015250565b60006146a46010836134fb565b91506146af8261466e565b602082019050919050565b600060208201905081810360008301526146d381614697565b9050919050565b7f436f6e747261637420646f6573206e6f74206861766520656e6f75676820736160008201527f6d68697461546f6b656e73000000000000000000000000000000000000000000602082015250565b6000614736602b836134fb565b9150614741826146da565b604082019050919050565b6000602082019050818103600083015261476581614729565b9050919050565b600061478761478261477d846138d2565b61394b565b613398565b9050919050565b6147978161476c565b82525050565b60006040820190506147b2600083018561343c565b6147bf602083018461478e565b9392505050565b6000815190506147d5816135fb565b92915050565b6000602082840312156147f1576147f061338e565b5b60006147ff848285016147c6565b91505092915050565b7f496e76616c69642070726f706f73616c20494400000000000000000000000000600082015250565b600061483e6013836134fb565b915061484982614808565b602082019050919050565b6000602082019050818103600083015261486d81614831565b9050919050565b7f70726f706f73616c2063616e206f6e6c7920626520717565756564206966206960008201527f7420697320737563636565646564000000000000000000000000000000000000602082015250565b60006148d0602e836134fb565b91506148db82614874565b604082019050919050565b600060208201905081810360008301526148ff816148c3565b9050919050565b600061491182613398565b915061491c83613398565b9250828201905080821115614934576149336144f3565b5b92915050565b600081905092915050565b7f74656d706c617465000000000000000000000000000000000000000000000000600082015250565b600061497b60088361493a565b915061498682614945565b600882019050919050565b600061499c8261496e565b9150819050919050565b600081546149b38161431e565b6149bd818661493a565b945060018216600081146149d857600181146149ed57614a20565b60ff1983168652811515820286019350614a20565b6149f68561434f565b60005b83811015614a18578154818901526001820191506020810190506149f9565b838801955050505b50505092915050565b6000614a3582846149a6565b915081905092915050565b6000606082019050614a55600083018661343c565b8181036020830152614a678185614364565b9050614a7660408301846133fb565b949350505050565b6000604082019050614a9360008301856133fb565b614aa060208301846133fb565b9392505050565b7f596f7520617265206e6f7420746865206d656d626572206f662074687320536160008201527f6d686974612044414f0000000000000000000000000000000000000000000000602082015250565b6000614b036029836134fb565b9150614b0e82614aa7565b604082019050919050565b60006020820190508181036000830152614b3281614af6565b9050919050565b7f596f75206d75737420686176652076616c6964207374616b6520616d6f756e7460008201527f20746f2063726561746520612070726f706f73616c0000000000000000000000602082015250565b6000614b956035836134fb565b9150614ba082614b39565b604082019050919050565b60006020820190508181036000830152614bc481614b88565b9050919050565b7f70726f706f73657220766f7465732062656c6f772070726f706f73616c20746860008201527f726573686f6c6400000000000000000000000000000000000000000000000000602082015250565b6000614c276027836134fb565b9150614c3282614bcb565b604082019050919050565b60006020820190508181036000830152614c5681614c1a565b9050919050565b7f70726f706f73616c2066756e6374696f6e20696e666f726d6174696f6e20617260008201527f697479206d69736d617463680000000000000000000000000000000000000000602082015250565b6000614cb9602c836134fb565b9150614cc482614c5d565b604082019050919050565b60006020820190508181036000830152614ce881614cac565b9050919050565b7f736f6d6520616374696f6e206d75737420626520746865726500000000000000600082015250565b6000614d256019836134fb565b9150614d3082614cef565b602082019050919050565b60006020820190508181036000830152614d5481614d18565b9050919050565b7f746f6f206d616e7920616374696f6e7300000000000000000000000000000000600082015250565b6000614d916010836134fb565b9150614d9c82614d5b565b602082019050919050565b60006020820190508181036000830152614dc081614d84565b9050919050565b7f466f756e6420616e20616c7265616479206163746976652070726f706f73616c600082015250565b6000614dfd6020836134fb565b9150614e0882614dc7565b602082019050919050565b60006020820190508181036000830152614e2c81614df0565b9050919050565b7f466f756e6420616e20616c72656164792070656e64696e672070726f706f736160008201527f6c00000000000000000000000000000000000000000000000000000000000000602082015250565b6000614e8f6021836134fb565b9150614e9a82614e33565b604082019050919050565b60006020820190508181036000830152614ebe81614e82565b9050919050565b60006020601f8301049050919050565b600082821b905092915050565b600060088302614f127fffffffffffffffffffffffffffffffffffffffffffffffffffffffffffffffff82614ed5565b614f1c8683614ed5565b95508019841693508086168417925050509392505050565b6000614f4f614f4a614f4584613398565b61394b565b613398565b9050919050565b6000819050919050565b614f6983614f34565b614f7d614f7582614f56565b848454614ee2565b825550505050565b600090565b614f92614f85565b614f9d818484614f60565b505050565b5b81811015614fc157614fb6600082614f8a565b600181019050614fa3565b5050565b601f82111561500657614fd78161434f565b614fe084614ec5565b81016020851015614fef578190505b615003614ffb85614ec5565b830182614fa2565b50505b505050565b600082821c905092915050565b60006150296000198460080261500b565b1980831691505092915050565b60006150428383615018565b9150826002028217905092915050565b61505b826134f0565b67ffffffffffffffff8111156150745761507361371e565b5b61507e825461431e565b615089828285614fc5565b600060209050601f8311600181146150bc57600084156150aa578287015190505b6150b48582615036565b86555061511c565b601f1984166150ca8661434f565b60005b828110156150f2578489015182556001820191506020850194506020810190506150cd565b8683101561510f578489015161510b601f891682615018565b8355505b6001600288020188555050505b505050505050565b600081519050919050565b600082825260208201905092915050565b6000819050602082019050919050565b6151598161342a565b82525050565b600061516b8383615150565b60208301905092915050565b6000602082019050919050565b600061518f82615124565b615199818561512f565b93506151a483615140565b8060005b838110156151d55781516151bc888261515f565b97506151c783615177565b9250506001810190506151a8565b5085935050505092915050565b600081519050919050565b600082825260208201905092915050565b6000819050602082019050919050565b61521781613398565b82525050565b6000615229838361520e565b60208301905092915050565b6000602082019050919050565b600061524d826151e2565b61525781856151ed565b9350615262836151fe565b8060005b8381101561529357815161527a888261521d565b975061528583615235565b925050600181019050615266565b5085935050505092915050565b600081519050919050565b600082825260208201905092915050565b6000819050602082019050919050565b600082825260208201905092915050565b60006152e8826134f0565b6152f281856152cc565b935061530281856020860161350c565b61530b81613536565b840191505092915050565b600061532283836152dd565b905092915050565b6000602082019050919050565b6000615342826152a0565b61534c81856152ab565b93508360208202850161535e856152bc565b8060005b8581101561539a578484038952815161537b8582615316565b94506153868361532a565b925060208a01995050600181019050615362565b50829750879550505050505092915050565b600081519050919050565b600082825260208201905092915050565b6000819050602082019050919050565b600081519050919050565b600082825260208201905092915050565b60006153ff826153d8565b61540981856153e3565b935061541981856020860161350c565b61542281613536565b840191505092915050565b600061543983836153f4565b905092915050565b6000602082019050919050565b6000615459826153ac565b61546381856153b7565b935083602082028501615475856153c8565b8060005b858110156154b15784840389528151615492858261542d565b945061549d83615441565b925060208a01995050600181019050615479565b50829750879550505050505092915050565b6000610120820190506154d9600083018c6133fb565b6154e6602083018b61343c565b81810360408301526154f8818a615184565b9050818103606083015261550c8189615242565b905081810360808301526155208188615337565b905081810360a0830152615534818761544e565b905081810360c08301526155488186613547565b905061555760e08301856133fb565b6155656101008301846133fb565b9a9950505050505050505050565b7f70726f706f73616c2063616e206f6e6c7920626520657865637574656420696660008201527f2069742069732071756575656400000000000000000000000000000000000000602082015250565b60006155cf602d836134fb565b91506155da82615573565b604082019050919050565b600060208201905081810360008301526155fe816155c2565b9050919050565b600060808201905061561a600083018761343c565b61562760208301866133fb565b81810360408301526156398185614364565b9050818103606083015261564d818461440e565b905095945050505050565b600061566b61566684613d0d565b61377e565b90508281526020810184848401111561568757615686613719565b5b61569284828561350c565b509392505050565b600082601f8301126156af576156ae613714565b5b81516156bf848260208601615658565b91505092915050565b6000602082840312156156de576156dd61338e565b5b600082015167ffffffffffffffff8111156156fc576156fb613393565b5b6157088482850161569a565b91505092915050565b7f766f74696e6720697320636c6f73656400000000000000000000000000000000600082015250565b60006157476010836134fb565b915061575282615711565b602082019050919050565b600060208201905081810360008301526157768161573a565b9050919050565b7f766f7465722068617320616c726561647920766f746564000000000000000000600082015250565b60006157b36017836134fb565b91506157be8261577d565b602082019050919050565b600060208201905081810360008301526157e2816157a6565b9050919050565b60006080820190506157fe600083018761343c565b61580b60208301866133fb565b6158186040830185613457565b615825606083018461478e565b95945050505050565b7f6164646974696f6e206f766572666c6f77000000000000000000000000000000600082015250565b60006158646011836134fb565b915061586f8261582e565b602082019050919050565b6000602082019050818103600083015261589381615857565b9050919050565b7f7375627472616374696f6e20756e646572666c6f770000000000000000000000600082015250565b60006158d06015836134fb565b91506158db8261589a565b602082019050919050565b600060208201905081810360008301526158ff816158c3565b9050919050565b600061591182613398565b915061591c83613398565b9250828203905081811115615934576159336144f3565b5b92915050565b6000615945826153d8565b61594f81856143e8565b935061595f81856020860161350c565b61596881613536565b840191505092915050565b600060a082019050615988600083018861343c565b61599560208301876133fb565b81810360408301526159a78186613547565b905081810360608301526159bb818561593a565b90506159ca60808301846133fb565b9695505050505050565b6000819050919050565b6159e7816159d4565b82525050565b6000602082019050615a0260008301846159de565b92915050565b7f2070726f706f73616c20616374696f6e20616c7265616479207175657565642060008201527f6174206574610000000000000000000000000000000000000000000000000000602082015250565b6000615a646026836134fb565b9150615a6f82615a08565b604082019050919050565b60006020820190508181036000830152615a9381615a57565b9050919050565b615aa3816159d4565b8114615aae57600080fd5b50565b600081519050615ac081615a9a565b92915050565b600060208284031215615adc57615adb61338e565b5b6000615aea84828501615ab1565b91505092915050565b601f821115615b3457615b05816143f9565b615b0e84614ec5565b81016020851015615b1d578190505b615b31615b2985614ec5565b830182614fa2565b50505b505050565b615b42826153d8565b67ffffffffffffffff811115615b5b57615b5a61371e565b5b615b65825461431e565b615b70828285615af3565b600060209050601f831160018114615ba35760008415615b91578287015190505b615b9b8582615036565b865550615c03565b601f198416615bb1866143f9565b60005b82811015615bd957848901518255600182019150602085019450602081019050615bb4565b86831015615bf65784890151615bf2601f891682615018565b8355505b6001600288020188555050505b505050505050565b7f4e487b7100000000000000000000000000000000000000000000000000000000600052605160045260246000fdfea264697066735822122069d64aca7eaba92db39024c53880f16e8b9b92faec6f9b140f64be9d85c12e6c64736f6c63430008130033",
  "linkReferences": {},
  "deployedLinkReferences": {}
}