{
  "_format": "hh-sol-artifact-1",
  "contractName": "Samhita",
  "sourceName": "contracts/samhita.sol",
  "abi": [
    {
      "inputs": [
        {
          "internalType": "address",
          "name": "timelock_",
          "type": "address"
        },
        {
          "internalType": "address",
          "name": "token_",
          "type": "address"
        },
        {
          "internalType": "address",
          "name": "templateNFT_",
          "type": "address"
        }
      ],
      "stateMutability": "nonpayable",
      "type": "constructor"
    },
    {
      "anonymous": false,
      "inputs": [
        {
          "indexed": false,
          "internalType": "uint256",
          "name": "id",
          "type": "uint256"
        }
      ],
      "name": "ProposalCanceled",
      "type": "event"
    },
    {
      "anonymous": false,
      "inputs": [
        {
          "indexed": false,
          "internalType": "uint256",
          "name": "id",
          "type": "uint256"
        },
        {
          "indexed": false,
          "internalType": "address",
          "name": "proposer",
          "type": "address"
        },
        {
          "indexed": false,
          "internalType": "address[]",
          "name": "targets",
          "type": "address[]"
        },
        {
          "indexed": false,
          "internalType": "uint256[]",
          "name": "values",
          "type": "uint256[]"
        },
        {
          "indexed": false,
          "internalType": "string[]",
          "name": "signatures",
          "type": "string[]"
        },
        {
          "indexed": false,
          "internalType": "bytes[]",
          "name": "calldatas",
          "type": "bytes[]"
        },
        {
          "indexed": false,
          "internalType": "uint256",
          "name": "startBlock",
          "type": "uint256"
        },
        {
          "indexed": false,
          "internalType": "uint256",
          "name": "endBlock",
          "type": "uint256"
        },
        {
          "indexed": false,
          "internalType": "string",
          "name": "description",
          "type": "string"
        }
      ],
      "name": "ProposalCreated",
      "type": "event"
    },
    {
      "anonymous": false,
      "inputs": [
        {
          "indexed": false,
          "internalType": "uint256",
          "name": "id",
          "type": "uint256"
        }
      ],
      "name": "ProposalExecuted",
      "type": "event"
    },
    {
      "anonymous": false,
      "inputs": [
        {
          "indexed": false,
          "internalType": "uint256",
          "name": "id",
          "type": "uint256"
        },
        {
          "indexed": false,
          "internalType": "uint256",
          "name": "eta",
          "type": "uint256"
        }
      ],
      "name": "ProposalQueued",
      "type": "event"
    },
    {
      "anonymous": false,
      "inputs": [
        {
          "indexed": false,
          "internalType": "address",
          "name": "voter",
          "type": "address"
        },
        {
          "indexed": false,
          "internalType": "uint256",
          "name": "proposalId",
          "type": "uint256"
        },
        {
          "indexed": false,
          "internalType": "bool",
          "name": "support",
          "type": "bool"
        },
        {
          "indexed": false,
          "internalType": "uint256",
          "name": "votes",
          "type": "uint256"
        }
      ],
      "name": "VoteCast",
      "type": "event"
    },
    {
      "inputs": [
        {
          "internalType": "uint96",
          "name": "_tokens",
          "type": "uint96"
        }
      ],
      "name": "addMember",
      "outputs": [],
      "stateMutability": "payable",
      "type": "function"
    },
    {
      "inputs": [
        {
          "internalType": "uint256",
          "name": "_proposalId",
          "type": "uint256"
        }
      ],
      "name": "cancel",
      "outputs": [],
      "stateMutability": "nonpayable",
      "type": "function"
    },
    {
      "inputs": [
        {
          "internalType": "uint256",
          "name": "_proposalId",
          "type": "uint256"
        },
        {
          "internalType": "bool",
          "name": "support",
          "type": "bool"
        }
      ],
      "name": "castVote",
      "outputs": [],
      "stateMutability": "nonpayable",
      "type": "function"
    },
    {
      "inputs": [
        {
          "internalType": "uint256",
          "name": "_proposalId",
          "type": "uint256"
        }
      ],
      "name": "execute",
      "outputs": [],
      "stateMutability": "payable",
      "type": "function"
    },
    {
      "inputs": [
        {
          "internalType": "uint256",
          "name": "proposalId",
          "type": "uint256"
        }
      ],
      "name": "getForVotes",
      "outputs": [
        {
          "internalType": "uint256",
          "name": "",
          "type": "uint256"
        }
      ],
      "stateMutability": "view",
      "type": "function"
    },
    {
      "inputs": [],
      "name": "guardian",
      "outputs": [
        {
          "internalType": "address",
          "name": "",
          "type": "address"
        }
      ],
      "stateMutability": "view",
      "type": "function"
    },
    {
      "inputs": [
        {
          "internalType": "address",
          "name": "",
          "type": "address"
        }
      ],
      "name": "isMemberAdded",
      "outputs": [
        {
          "internalType": "bool",
          "name": "",
          "type": "bool"
        }
      ],
      "stateMutability": "view",
      "type": "function"
    },
    {
      "inputs": [
        {
          "internalType": "address",
          "name": "",
          "type": "address"
        }
      ],
      "name": "latestProposalIds",
      "outputs": [
        {
          "internalType": "uint256",
          "name": "",
          "type": "uint256"
        }
      ],
      "stateMutability": "view",
      "type": "function"
    },
    {
      "inputs": [
        {
          "internalType": "address",
          "name": "",
          "type": "address"
        }
      ],
      "name": "memberWithdrawAmount",
      "outputs": [
        {
          "internalType": "uint256",
          "name": "",
          "type": "uint256"
        }
      ],
      "stateMutability": "view",
      "type": "function"
    },
    {
      "inputs": [],
      "name": "name",
      "outputs": [
        {
          "internalType": "string",
          "name": "",
          "type": "string"
        }
      ],
      "stateMutability": "view",
      "type": "function"
    },
    {
      "inputs": [],
      "name": "proposalCount",
      "outputs": [
        {
          "internalType": "uint256",
          "name": "",
          "type": "uint256"
        }
      ],
      "stateMutability": "view",
      "type": "function"
    },
    {
      "inputs": [],
      "name": "proposalMaxOperations",
      "outputs": [
        {
          "internalType": "uint256",
          "name": "",
          "type": "uint256"
        }
      ],
      "stateMutability": "pure",
      "type": "function"
    },
    {
      "inputs": [
        {
          "internalType": "uint256",
          "name": "",
          "type": "uint256"
        },
        {
          "internalType": "address",
          "name": "",
          "type": "address"
        }
      ],
      "name": "proposalReceipts",
      "outputs": [
        {
          "internalType": "bool",
          "name": "hasVoted",
          "type": "bool"
        },
        {
          "internalType": "bool",
          "name": "support",
          "type": "bool"
        },
        {
          "internalType": "uint96",
          "name": "votes",
          "type": "uint96"
        }
      ],
      "stateMutability": "view",
      "type": "function"
    },
    {
      "inputs": [],
      "name": "proposalStake",
      "outputs": [
        {
          "internalType": "uint96",
          "name": "",
          "type": "uint96"
        }
      ],
      "stateMutability": "view",
      "type": "function"
    },
    {
      "inputs": [],
      "name": "proposalThreshold",
      "outputs": [
        {
          "internalType": "uint256",
          "name": "",
          "type": "uint256"
        }
      ],
      "stateMutability": "pure",
      "type": "function"
    },
    {
      "inputs": [
        {
          "internalType": "uint256",
          "name": "",
          "type": "uint256"
        }
      ],
      "name": "proposalToNFTOwner",
      "outputs": [
        {
          "internalType": "address",
          "name": "",
          "type": "address"
        }
      ],
      "stateMutability": "view",
      "type": "function"
    },
    {
      "inputs": [
        {
          "internalType": "uint256",
          "name": "",
          "type": "uint256"
        }
      ],
      "name": "proposals",
      "outputs": [
        {
          "internalType": "uint256",
          "name": "id",
          "type": "uint256"
        },
        {
          "internalType": "address",
          "name": "creator",
          "type": "address"
        },
        {
          "internalType": "uint256",
          "name": "eta",
          "type": "uint256"
        },
        {
          "internalType": "uint256",
          "name": "startBlock",
          "type": "uint256"
        },
        {
          "internalType": "uint256",
          "name": "endBlock",
          "type": "uint256"
        },
        {
          "internalType": "uint256",
          "name": "forVotes",
          "type": "uint256"
        },
        {
          "internalType": "uint256",
          "name": "againstVotes",
          "type": "uint256"
        },
        {
          "internalType": "bool",
          "name": "cancel",
          "type": "bool"
        },
        {
          "internalType": "bool",
          "name": "executed",
          "type": "bool"
        },
        {
          "internalType": "bool",
          "name": "isScrape",
          "type": "bool"
        },
        {
          "internalType": "string",
          "name": "category",
          "type": "string"
        },
        {
          "internalType": "string",
          "name": "proposalFile",
          "type": "string"
        }
      ],
      "stateMutability": "view",
      "type": "function"
    },
    {
      "inputs": [
        {
          "internalType": "address[]",
          "name": "targets",
          "type": "address[]"
        },
        {
          "internalType": "uint256[]",
          "name": "values",
          "type": "uint256[]"
        },
        {
          "internalType": "string[]",
          "name": "signatures",
          "type": "string[]"
        },
        {
          "internalType": "bytes[]",
          "name": "calldatas",
          "type": "bytes[]"
        },
        {
          "internalType": "string",
          "name": "description",
          "type": "string"
        },
        {
          "internalType": "string",
          "name": "category",
          "type": "string"
        },
        {
          "internalType": "string",
          "name": "proposalFile",
          "type": "string"
        }
      ],
      "name": "propose",
      "outputs": [
        {
          "internalType": "uint256",
          "name": "",
          "type": "uint256"
        }
      ],
      "stateMutability": "payable",
      "type": "function"
    },
    {
      "inputs": [
        {
          "internalType": "uint256",
          "name": "_proposalId",
          "type": "uint256"
        }
      ],
      "name": "queue",
      "outputs": [],
      "stateMutability": "nonpayable",
      "type": "function"
    },
    {
      "inputs": [],
      "name": "quorumVotes",
      "outputs": [
        {
          "internalType": "uint256",
          "name": "",
          "type": "uint256"
        }
      ],
      "stateMutability": "pure",
      "type": "function"
    },
    {
      "inputs": [
        {
          "internalType": "address",
          "name": "",
          "type": "address"
        }
      ],
      "name": "receivedTemplateNFT",
      "outputs": [
        {
          "internalType": "bool",
          "name": "",
          "type": "bool"
        }
      ],
      "stateMutability": "view",
      "type": "function"
    },
    {
      "inputs": [
        {
          "internalType": "uint256",
          "name": "_proposalId",
          "type": "uint256"
        }
      ],
      "name": "state",
      "outputs": [
        {
          "internalType": "enum Samhita.ProposalState",
          "name": "",
          "type": "uint8"
        }
      ],
      "stateMutability": "view",
      "type": "function"
    },
    {
      "inputs": [],
      "name": "templateNFT",
      "outputs": [
        {
          "internalType": "contract ITemplateNFT",
          "name": "",
          "type": "address"
        }
      ],
      "stateMutability": "view",
      "type": "function"
    },
    {
      "inputs": [],
      "name": "timelock",
      "outputs": [
        {
          "internalType": "contract ITimelock",
          "name": "",
          "type": "address"
        }
      ],
      "stateMutability": "view",
      "type": "function"
    },
    {
      "inputs": [],
      "name": "token",
      "outputs": [
        {
          "internalType": "contract ISamhitaToken",
          "name": "",
          "type": "address"
        }
      ],
      "stateMutability": "view",
      "type": "function"
    },
    {
      "inputs": [],
      "name": "votingDelay",
      "outputs": [
        {
          "internalType": "uint256",
          "name": "",
          "type": "uint256"
        }
      ],
      "stateMutability": "pure",
      "type": "function"
    },
    {
      "inputs": [],
      "name": "votingPeriod",
      "outputs": [
        {
          "internalType": "uint256",
          "name": "",
          "type": "uint256"
        }
      ],
      "stateMutability": "pure",
      "type": "function"
    }
  ],
  "bytecode": "0x6080604052674563918244f40000600d60006101000a8154816bffffffffffffffffffffffff02191690836bffffffffffffffffffffffff160217905550600a600d600c6101000a8154816bffffffffffffffffffffffff02191690836bffffffffffffffffffffffff1602179055503480156200007c57600080fd5b5060405162005af838038062005af88339818101604052810190620000a2919062000270565b826000806101000a81548173ffffffffffffffffffffffffffffffffffffffff021916908373ffffffffffffffffffffffffffffffffffffffff16021790555081600160006101000a81548173ffffffffffffffffffffffffffffffffffffffff021916908373ffffffffffffffffffffffffffffffffffffffff16021790555080600260006101000a81548173ffffffffffffffffffffffffffffffffffffffff021916908373ffffffffffffffffffffffffffffffffffffffff16021790555033600460006101000a81548173ffffffffffffffffffffffffffffffffffffffff021916908373ffffffffffffffffffffffffffffffffffffffff1602179055506001600c60003373ffffffffffffffffffffffffffffffffffffffff1673ffffffffffffffffffffffffffffffffffffffff16815260200190815260200160002060006101000a81548160ff021916908315150217905550505050620002cc565b600080fd5b600073ffffffffffffffffffffffffffffffffffffffff82169050919050565b600062000238826200020b565b9050919050565b6200024a816200022b565b81146200025657600080fd5b50565b6000815190506200026a816200023f565b92915050565b6000806000606084860312156200028c576200028b62000206565b5b60006200029c8682870162000259565b9350506020620002af8682870162000259565b9250506040620002c28682870162000259565b9150509250925092565b61581c80620002dc6000396000f3fe60806040526004361061019c5760003560e01c80637161f8c2116100ec578063cd8871761161008a578063ddf0b00911610064578063ddf0b0091461060d578063de0b27e514610636578063fc0c546a14610673578063fe0d94c11461069e5761019c565b8063cd8871761461057a578063d33219b4146105b7578063da35c664146105e25761019c565b806388fde90a116100c657806388fde90a146104cb578063b58131b0146104f6578063c3c79d8514610521578063c863b48e1461053d5761019c565b80637161f8c2146104335780637bdbe4d01461047057806388e032111461049b5761019c565b8063392317cd1161015957806340e58ee51161013357806340e58ee514610375578063452a93201461039e57806366176743146103c95780636ef6c66d146104085761019c565b8063392317cd146102d05780633932abb11461030d5780633e4f49e6146103385761019c565b8063013cf08b146101a157806302a251a3146101e957806306fdde031461021457806315373e3d1461023f57806317977c611461026857806324bc1a64146102a5575b600080fd5b3480156101ad57600080fd5b506101c860048036038101906101c39190612f84565b6106ba565b6040516101e09c9b9a999897969594939291906130ac565b60405180910390f35b3480156101f557600080fd5b506101fe610871565b60405161020b9190613174565b60405180910390f35b34801561022057600080fd5b5061022961087a565b604051610236919061318f565b60405180910390f35b34801561024b57600080fd5b50610266600480360381019061026191906131dd565b6108b3565b005b34801561027457600080fd5b5061028f600480360381019061028a9190613249565b6108c2565b60405161029c9190613174565b60405180910390f35b3480156102b157600080fd5b506102ba6108da565b6040516102c79190613174565b60405180910390f35b3480156102dc57600080fd5b506102f760048036038101906102f29190613249565b6108e3565b6040516103049190613174565b60405180910390f35b34801561031957600080fd5b506103226108fb565b60405161032f9190613174565b60405180910390f35b34801561034457600080fd5b5061035f600480360381019061035a9190612f84565b610904565b60405161036c91906132ed565b60405180910390f35b34801561038157600080fd5b5061039c60048036038101906103979190612f84565b610ad7565b005b3480156103aa57600080fd5b506103b3610e89565b6040516103c09190613308565b60405180910390f35b3480156103d557600080fd5b506103f060048036038101906103eb9190613323565b610eaf565b6040516103ff9392919061338a565b60405180910390f35b34801561041457600080fd5b5061041d610f18565b60405161042a91906133c1565b60405180910390f35b34801561043f57600080fd5b5061045a60048036038101906104559190613249565b610f36565b60405161046791906133dc565b60405180910390f35b34801561047c57600080fd5b50610485610f56565b6040516104929190613174565b60405180910390f35b6104b560048036038101906104b0919061391a565b610f5f565b6040516104c29190613174565b60405180910390f35b3480156104d757600080fd5b506104e061173d565b6040516104ed9190613adf565b60405180910390f35b34801561050257600080fd5b5061050b611763565b6040516105189190613174565b60405180910390f35b61053b60048036038101906105369190613b26565b61176c565b005b34801561054957600080fd5b50610564600480360381019061055f9190612f84565b611b80565b6040516105719190613174565b60405180910390f35b34801561058657600080fd5b506105a1600480360381019061059c9190612f84565b611c0f565b6040516105ae9190613308565b60405180910390f35b3480156105c357600080fd5b506105cc611c42565b6040516105d99190613b74565b60405180910390f35b3480156105ee57600080fd5b506105f7611c66565b6040516106049190613174565b60405180910390f35b34801561061957600080fd5b50610634600480360381019061062f9190612f84565b611c6c565b005b34801561064257600080fd5b5061065d60048036038101906106589190613249565b61235f565b60405161066a91906133dc565b60405180910390f35b34801561067f57600080fd5b5061068861237f565b6040516106959190613bb0565b60405180910390f35b6106b860048036038101906106b39190612f84565b6123a5565b005b60066020528060005260406000206000915090508060000154908060010160009054906101000a900473ffffffffffffffffffffffffffffffffffffffff169080600201549080600701549080600801549080600901549080600a01549080600b0160009054906101000a900460ff169080600b0160019054906101000a900460ff169080600b0160029054906101000a900460ff169080600c01805461076090613bfa565b80601f016020809104026020016040519081016040528092919081815260200182805461078c90613bfa565b80156107d95780601f106107ae576101008083540402835291602001916107d9565b820191906000526020600020905b8154815290600101906020018083116107bc57829003601f168201915b50505050509080600d0180546107ee90613bfa565b80601f016020809104026020016040519081016040528092919081815260200182805461081a90613bfa565b80156108675780601f1061083c57610100808354040283529160200191610867565b820191906000526020600020905b81548152906001019060200180831161084a57829003601f168201915b505050505090508c565b60006028905090565b6040518060400160405280600781526020017f53616d686974610000000000000000000000000000000000000000000000000081525081565b6108be338383612610565b5050565b60076020528060005260406000206000915090505481565b60006028905090565b60086020528060005260406000206000915090505481565b60006001905090565b600081600354101580156109185750600082115b610957576040517f08c379a000000000000000000000000000000000000000000000000000000000815260040161094e90613c77565b60405180910390fd5b600060066000848152602001908152602001600020905080600b0160009054906101000a900460ff161561098f576002915050610ad2565b806007015443116109a4576000915050610ad2565b806008015443116109b9576001915050610ad2565b80600a015481600901541115806109da57506109d36108da565b8160090154105b156109e9576003915050610ad2565b60008160020154036109ff576004915050610ad2565b80600b0160019054906101000a900460ff1615610a20576007915050610ad2565b610abc816002015460008054906101000a900473ffffffffffffffffffffffffffffffffffffffff1673ffffffffffffffffffffffffffffffffffffffff1663c1a287e26040518163ffffffff1660e01b8152600401602060405180830381865afa158015610a93573d6000803e3d6000fd5b505050506040513d601f19601f82011682018060405250810190610ab79190613cac565b6128ed565b4210610acc576006915050610ad2565b60059150505b919050565b600780811115610aea57610ae9613276565b5b610af382610904565b6007811115610b0557610b04613276565b5b03610b45576040517f08c379a0000000000000000000000000000000000000000000000000000000008152600401610b3c90613d25565b60405180910390fd5b6000600660008381526020019081526020016000209050600460009054906101000a900473ffffffffffffffffffffffffffffffffffffffff1673ffffffffffffffffffffffffffffffffffffffff163373ffffffffffffffffffffffffffffffffffffffff161480610c975750610bbb611763565b600160009054906101000a900473ffffffffffffffffffffffffffffffffffffffff1673ffffffffffffffffffffffffffffffffffffffff1663782d6fe18360010160009054906101000a900473ffffffffffffffffffffffffffffffffffffffff16610c2943600161294b565b6040518363ffffffff1660e01b8152600401610c46929190613d45565b602060405180830381865afa158015610c63573d6000803e3d6000fd5b505050506040513d601f19601f82011682018060405250810190610c879190613d83565b6bffffffffffffffffffffffff16105b610cd6576040517f08c379a0000000000000000000000000000000000000000000000000000000008152600401610ccd90613dfc565b60405180910390fd5b600181600b0160006101000a81548160ff02191690831515021790555060005b8160030180549050811015610e4d5760008054906101000a900473ffffffffffffffffffffffffffffffffffffffff1673ffffffffffffffffffffffffffffffffffffffff1663591fcdfe836003018381548110610d5757610d56613e1c565b5b9060005260206000200160009054906101000a900473ffffffffffffffffffffffffffffffffffffffff16846004018481548110610d9857610d97613e1c565b5b9060005260206000200154856005018581548110610db957610db8613e1c565b5b90600052602060002001866006018681548110610dd957610dd8613e1c565b5b9060005260206000200187600201546040518663ffffffff1660e01b8152600401610e08959493929190613f8e565b600060405180830381600087803b158015610e2257600080fd5b505af1158015610e36573d6000803e3d6000fd5b505050508080610e459061401e565b915050610cf6565b507f789cf55be980739dad1d0699b93b58e806b51c9d96619bfa8fe0a28abaa7b30c82604051610e7d9190613174565b60405180910390a15050565b600460009054906101000a900473ffffffffffffffffffffffffffffffffffffffff1681565b6005602052816000526040600020602052806000526040600020600091509150508060000160009054906101000a900460ff16908060000160019054906101000a900460ff16908060000160029054906101000a90046bffffffffffffffffffffffff16905083565b600d60009054906101000a90046bffffffffffffffffffffffff1681565b600a6020528060005260406000206000915054906101000a900460ff1681565b6000600a905090565b6000600c60003373ffffffffffffffffffffffffffffffffffffffff1673ffffffffffffffffffffffffffffffffffffffff16815260200190815260200160002060009054906101000a900460ff16610fed576040517f08c379a0000000000000000000000000000000000000000000000000000000008152600401610fe4906140d8565b60405180910390fd5b600d60009054906101000a90046bffffffffffffffffffffffff166bffffffffffffffffffffffff163414611057576040517f08c379a000000000000000000000000000000000000000000000000000000000815260040161104e9061416a565b60405180910390fd5b61105f611763565b600160009054906101000a900473ffffffffffffffffffffffffffffffffffffffff1673ffffffffffffffffffffffffffffffffffffffff1663782d6fe1336110a943600161294b565b6040518363ffffffff1660e01b81526004016110c6929190613d45565b602060405180830381865afa1580156110e3573d6000803e3d6000fd5b505050506040513d601f19601f820116820180604052508101906111079190613d83565b6bffffffffffffffffffffffff1611611155576040517f08c379a000000000000000000000000000000000000000000000000000000000815260040161114c906141fc565b60405180910390fd5b86518851148015611167575085518851145b8015611174575084518851145b6111b3576040517f08c379a00000000000000000000000000000000000000000000000000000000081526004016111aa9061428e565b60405180910390fd5b60008851036111f7576040517f08c379a00000000000000000000000000000000000000000000000000000000081526004016111ee906142fa565b60405180910390fd5b6111ff610f56565b88511115611242576040517f08c379a000000000000000000000000000000000000000000000000000000000815260040161123990614366565b60405180910390fd5b600160009054906101000a900473ffffffffffffffffffffffffffffffffffffffff1673ffffffffffffffffffffffffffffffffffffffff16639a23b2b43330600d60009054906101000a90046bffffffffffffffffffffffff166040518463ffffffff1660e01b81526004016112bb93929190614386565b6020604051808303816000875af11580156112da573d6000803e3d6000fd5b505050506040513d601f19601f820116820180604052508101906112fe91906143d2565b506000600760003373ffffffffffffffffffffffffffffffffffffffff1673ffffffffffffffffffffffffffffffffffffffff1681526020019081526020016000205490506000811461142857600061135682610904565b90506001600781111561136c5761136b613276565b5b81600781111561137f5761137e613276565b5b036113bf576040517f08c379a00000000000000000000000000000000000000000000000000000000081526004016113b69061444b565b60405180910390fd5b600060078111156113d3576113d2613276565b5b8160078111156113e6576113e5613276565b5b03611426576040517f08c379a000000000000000000000000000000000000000000000000000000000815260040161141d906144dd565b60405180910390fd5b505b600061143b436114366108fb565b6128ed565b905060006114508261144b610871565b6128ed565b9050600360008154809291906114659061401e565b919050555060405180610200016040528060035481526020013373ffffffffffffffffffffffffffffffffffffffff168152602001600081526020018c81526020018b81526020018a81526020018981526020018381526020018281526020016000815260200160008152602001600015158152602001600015158152602001600015158152602001878152602001868152506006600060035481526020019081526020016000206000820151816000015560208201518160010160006101000a81548173ffffffffffffffffffffffffffffffffffffffff021916908373ffffffffffffffffffffffffffffffffffffffff160217905550604082015181600201556060820151816003019080519060200190611584929190612cc2565b5060808201518160040190805190602001906115a1929190612d4c565b5060a08201518160050190805190602001906115be929190612d99565b5060c08201518160060190805190602001906115db929190612df2565b5060e082015181600701556101008201518160080155610120820151816009015561014082015181600a015561016082015181600b0160006101000a81548160ff02191690831515021790555061018082015181600b0160016101000a81548160ff0219169083151502179055506101a082015181600b0160026101000a81548160ff0219169083151502179055506101c082015181600c019081611680919061468a565b506101e082015181600d019081611697919061468a565b50905050600354600760003373ffffffffffffffffffffffffffffffffffffffff1673ffffffffffffffffffffffffffffffffffffffff168152602001908152602001600020819055507f7d84a6263ae0d98d3329bd7b46bb4e8d6f98cd35a7adb45c274c8b7fd5ebd5e0600354338d8d8d8d88888f60405161172299989796959493929190614afb565b60405180910390a16003549350505050979650505050505050565b600260009054906101000a900473ffffffffffffffffffffffffffffffffffffffff1681565b6000600a905090565b600d600c9054906101000a90046bffffffffffffffffffffffff166bffffffffffffffffffffffff16816bffffffffffffffffffffffff1610156117e5576040517f08c379a00000000000000000000000000000000000000000000000000000000081526004016117dc90614c1d565b60405180910390fd5b600160009054906101000a900473ffffffffffffffffffffffffffffffffffffffff1673ffffffffffffffffffffffffffffffffffffffff16634b94f50e6040518163ffffffff1660e01b8152600401602060405180830381865afa158015611852573d6000803e3d6000fd5b505050506040513d601f19601f820116820180604052508101906118769190613cac565b816bffffffffffffffffffffffff1661188f9190614c3d565b34146118d0576040517f08c379a00000000000000000000000000000000000000000000000000000000081526004016118c790614ccb565b60405180910390fd5b806bffffffffffffffffffffffff16600160009054906101000a900473ffffffffffffffffffffffffffffffffffffffff1673ffffffffffffffffffffffffffffffffffffffff166370a08231306040518263ffffffff1660e01b815260040161193a9190613308565b602060405180830381865afa158015611957573d6000803e3d6000fd5b505050506040513d601f19601f8201168201806040525081019061197b9190613cac565b10156119bc576040517f08c379a00000000000000000000000000000000000000000000000000000000081526004016119b390614d5d565b60405180910390fd5b600c60003373ffffffffffffffffffffffffffffffffffffffff1673ffffffffffffffffffffffffffffffffffffffff16815260200190815260200160002060009054906101000a900460ff16611ac957600b339080600181540180825580915050600190039060005260206000200160009091909190916101000a81548173ffffffffffffffffffffffffffffffffffffffff021916908373ffffffffffffffffffffffffffffffffffffffff1602179055506001600c60003373ffffffffffffffffffffffffffffffffffffffff1673ffffffffffffffffffffffffffffffffffffffff16815260200190815260200160002060006101000a81548160ff0219169083151502179055505b600160009054906101000a900473ffffffffffffffffffffffffffffffffffffffff1673ffffffffffffffffffffffffffffffffffffffff1663a001793833670de0b6b3a764000084611b1c9190614d7d565b6040518363ffffffff1660e01b8152600401611b39929190614dba565b6020604051808303816000875af1158015611b58573d6000803e3d6000fd5b505050506040513d601f19601f82011682018060405250810190611b7c91906143d2565b5050565b60008082118015611b9357506003548211155b611bd2576040517f08c379a0000000000000000000000000000000000000000000000000000000008152600401611bc990614e2f565b60405180910390fd5b611bf160066000848152602001908152602001600020600901546129a4565b60066000838152602001908152602001600020600901549050919050565b60096020528060005260406000206000915054906101000a900473ffffffffffffffffffffffffffffffffffffffff1681565b60008054906101000a900473ffffffffffffffffffffffffffffffffffffffff1681565b60035481565b60046007811115611c8057611c7f613276565b5b611c8982610904565b6007811115611c9b57611c9a613276565b5b14611cdb576040517f08c379a0000000000000000000000000000000000000000000000000000000008152600401611cd290614ec1565b60405180910390fd5b604051602001611cea90614f38565b6040516020818303038152906040528051906020012060066000838152602001908152602001600020600c01604051602001611d269190614fd0565b6040516020818303038152906040528051906020012014611d7c576040517f08c379a0000000000000000000000000000000000000000000000000000000008152600401611d7390615033565b60405180910390fd5b6006600082815260200190815260200160002060010160009054906101000a900473ffffffffffffffffffffffffffffffffffffffff166009600083815260200190815260200160002060006101000a81548173ffffffffffffffffffffffffffffffffffffffff021916908373ffffffffffffffffffffffffffffffffffffffff1602179055506001600a60003373ffffffffffffffffffffffffffffffffffffffff1673ffffffffffffffffffffffffffffffffffffffff16815260200190815260200160002060006101000a81548160ff02191690831515021790555060006006600083815260200190815260200160002090506000611f0d4260008054906101000a900473ffffffffffffffffffffffffffffffffffffffff1673ffffffffffffffffffffffffffffffffffffffff16636a42b8f86040518163ffffffff1660e01b8152600401602060405180830381865afa158015611ee4573d6000803e3d6000fd5b505050506040513d601f19601f82011682018060405250810190611f089190613cac565b6128ed565b905060005b82600301805490508110156120f1576120de836003018281548110611f3a57611f39613e1c565b5b9060005260206000200160009054906101000a900473ffffffffffffffffffffffffffffffffffffffff16846004018381548110611f7b57611f7a613e1c565b5b9060005260206000200154856005018481548110611f9c57611f9b613e1c565b5b906000526020600020018054611fb190613bfa565b80601f0160208091040260200160405190810160405280929190818152602001828054611fdd90613bfa565b801561202a5780601f10611fff5761010080835404028352916020019161202a565b820191906000526020600020905b81548152906001019060200180831161200d57829003601f168201915b505050505086600601858154811061204557612044613e1c565b5b90600052602060002001805461205a90613bfa565b80601f016020809104026020016040519081016040528092919081815260200182805461208690613bfa565b80156120d35780601f106120a8576101008083540402835291602001916120d3565b820191906000526020600020905b8154815290600101906020018083116120b657829003601f168201915b505050505086612a3d565b80806120e99061401e565b915050611f12565b50808260020181905550600160009054906101000a900473ffffffffffffffffffffffffffffffffffffffff1673ffffffffffffffffffffffffffffffffffffffff1663a00179386006600086815260200190815260200160002060010160009054906101000a900473ffffffffffffffffffffffffffffffffffffffff16600d60009054906101000a90046bffffffffffffffffffffffff166040518363ffffffff1660e01b81526004016121a8929190614dba565b6020604051808303816000875af11580156121c7573d6000803e3d6000fd5b505050506040513d601f19601f820116820180604052508101906121eb91906143d2565b5060001515600a60003373ffffffffffffffffffffffffffffffffffffffff1673ffffffffffffffffffffffffffffffffffffffff16815260200190815260200160002060009054906101000a900460ff1615150361232157600260009054906101000a900473ffffffffffffffffffffffffffffffffffffffff1673ffffffffffffffffffffffffffffffffffffffff1663b971043b6006600086815260200190815260200160002060010160009054906101000a900473ffffffffffffffffffffffffffffffffffffffff1660066000878152602001908152602001600020600d01866040518463ffffffff1660e01b81526004016122ee93929190615053565b600060405180830381600087803b15801561230857600080fd5b505af115801561231c573d6000803e3d6000fd5b505050505b7f9a2e42fd6722813d69113e7d0079d3d940171428df7373df9c7f7617cfda28928382604051612352929190615091565b60405180910390a1505050565b600c6020528060005260406000206000915054906101000a900460ff1681565b600160009054906101000a900473ffffffffffffffffffffffffffffffffffffffff1681565b600560078111156123b9576123b8613276565b5b6123c282610904565b60078111156123d4576123d3613276565b5b14612414576040517f08c379a000000000000000000000000000000000000000000000000000000000815260040161240b9061512c565b60405180910390fd5b6000600660008381526020019081526020016000209050600181600b0160016101000a81548160ff02191690831515021790555060005b81600301805490508110156125d45760008054906101000a900473ffffffffffffffffffffffffffffffffffffffff1673ffffffffffffffffffffffffffffffffffffffff16632224fa258360040183815481106124ac576124ab613e1c565b5b90600052602060002001548460030184815481106124cd576124cc613e1c565b5b9060005260206000200160009054906101000a900473ffffffffffffffffffffffffffffffffffffffff1685600401858154811061250e5761250d613e1c565b5b906000526020600020015486600501868154811061252f5761252e613e1c565b5b9060005260206000200187600601878154811061254f5761254e613e1c565b5b906000526020600020016040518663ffffffff1660e01b8152600401612578949392919061514c565b60006040518083038185885af1158015612596573d6000803e3d6000fd5b50505050506040513d6000823e3d601f19601f820116820180604052508101906125c0919061520f565b5080806125cc9061401e565b91505061244b565b507f712ae1383f79ac853f8d882153778e0260ef8f03b504e2866e0593e04d2b291f826040516126049190613174565b60405180910390a15050565b6001600781111561262457612623613276565b5b61262d83610904565b600781111561263f5761263e613276565b5b1461267f576040517f08c379a0000000000000000000000000000000000000000000000000000000008152600401612676906152a4565b60405180910390fd5b600060066000848152602001908152602001600020905060006005600085815260200190815260200160002060008673ffffffffffffffffffffffffffffffffffffffff1673ffffffffffffffffffffffffffffffffffffffff1681526020019081526020016000209050600015158160000160009054906101000a900460ff16151514612742576040517f08c379a000000000000000000000000000000000000000000000000000000000815260040161273990615310565b60405180910390fd5b6000600160009054906101000a900473ffffffffffffffffffffffffffffffffffffffff1673ffffffffffffffffffffffffffffffffffffffff1663782d6fe18785600701546040518363ffffffff1660e01b81526004016127a5929190613d45565b602060405180830381865afa1580156127c2573d6000803e3d6000fd5b505050506040513d601f19601f820116820180604052508101906127e69190613d83565b905083156128175761280a8360090154826bffffffffffffffffffffffff166128ed565b836009018190555061283c565b61283383600a0154826bffffffffffffffffffffffff166128ed565b83600a01819055505b60018260000160006101000a81548160ff021916908315150217905550838260000160016101000a81548160ff021916908315150217905550808260000160026101000a8154816bffffffffffffffffffffffff02191690836bffffffffffffffffffffffff1602179055507f877856338e13f63d0c36822ff0ef736b80934cd90574a3a5bc9262c39d217c46868686846040516128dd9493929190615361565b60405180910390a1505050505050565b60008082846128fc91906153a6565b905083811015612941576040517f08c379a000000000000000000000000000000000000000000000000000000000815260040161293890615426565b60405180910390fd5b8091505092915050565b600082821115612990576040517f08c379a000000000000000000000000000000000000000000000000000000000815260040161298790615492565b60405180910390fd5b818361299c91906154b2565b905092915050565b612a3a816040516024016129b89190613174565b6040516020818303038152906040527ff82c50f1000000000000000000000000000000000000000000000000000000007bffffffffffffffffffffffffffffffffffffffffffffffffffffffff19166020820180517bffffffffffffffffffffffffffffffffffffffffffffffffffffffff8381831617835250505050612c7c565b50565b60008054906101000a900473ffffffffffffffffffffffffffffffffffffffff1673ffffffffffffffffffffffffffffffffffffffff1663f2b065378686868686604051602001612a9295949392919061551f565b604051602081830303815290604052805190602001206040518263ffffffff1660e01b8152600401612ac49190615599565b602060405180830381865afa158015612ae1573d6000803e3d6000fd5b505050506040513d601f19601f82011682018060405250810190612b0591906143d2565b15612b45576040517f08c379a0000000000000000000000000000000000000000000000000000000008152600401612b3c90615626565b60405180910390fd5b60008054906101000a900473ffffffffffffffffffffffffffffffffffffffff1673ffffffffffffffffffffffffffffffffffffffff1663abc203bd336040518263ffffffff1660e01b8152600401612b9e9190613308565b600060405180830381600087803b158015612bb857600080fd5b505af1158015612bcc573d6000803e3d6000fd5b5050505060008054906101000a900473ffffffffffffffffffffffffffffffffffffffff1673ffffffffffffffffffffffffffffffffffffffff16633a66f90186868686866040518663ffffffff1660e01b8152600401612c3195949392919061551f565b6020604051808303816000875af1158015612c50573d6000803e3d6000fd5b505050506040513d601f19601f82011682018060405250810190612c749190615672565b505050505050565b612c9381612c8b612c96612cb7565b63ffffffff16565b50565b60006a636f6e736f6c652e6c6f679050600080835160208501845afa505050565b612e4b819050919050565b828054828255906000526020600020908101928215612d3b579160200282015b82811115612d3a5782518260006101000a81548173ffffffffffffffffffffffffffffffffffffffff021916908373ffffffffffffffffffffffffffffffffffffffff16021790555091602001919060010190612ce2565b5b509050612d489190612e55565b5090565b828054828255906000526020600020908101928215612d88579160200282015b82811115612d87578251825591602001919060010190612d6c565b5b509050612d959190612e55565b5090565b828054828255906000526020600020908101928215612de1579160200282015b82811115612de0578251829081612dd0919061468a565b5091602001919060010190612db9565b5b509050612dee9190612e72565b5090565b828054828255906000526020600020908101928215612e3a579160200282015b82811115612e39578251829081612e2991906156e5565b5091602001919060010190612e12565b5b509050612e479190612e96565b5090565b612e536157b7565b565b5b80821115612e6e576000816000905550600101612e56565b5090565b5b80821115612e925760008181612e899190612eba565b50600101612e73565b5090565b5b80821115612eb65760008181612ead9190612efa565b50600101612e97565b5090565b508054612ec690613bfa565b6000825580601f10612ed85750612ef7565b601f016020900490600052602060002090810190612ef69190612e55565b5b50565b508054612f0690613bfa565b6000825580601f10612f185750612f37565b601f016020900490600052602060002090810190612f369190612e55565b5b50565b6000604051905090565b600080fd5b600080fd5b6000819050919050565b612f6181612f4e565b8114612f6c57600080fd5b50565b600081359050612f7e81612f58565b92915050565b600060208284031215612f9a57612f99612f44565b5b6000612fa884828501612f6f565b91505092915050565b612fba81612f4e565b82525050565b600073ffffffffffffffffffffffffffffffffffffffff82169050919050565b6000612feb82612fc0565b9050919050565b612ffb81612fe0565b82525050565b60008115159050919050565b61301681613001565b82525050565b600081519050919050565b600082825260208201905092915050565b60005b8381101561305657808201518184015260208101905061303b565b60008484015250505050565b6000601f19601f8301169050919050565b600061307e8261301c565b6130888185613027565b9350613098818560208601613038565b6130a181613062565b840191505092915050565b6000610180820190506130c2600083018f612fb1565b6130cf602083018e612ff2565b6130dc604083018d612fb1565b6130e9606083018c612fb1565b6130f6608083018b612fb1565b61310360a083018a612fb1565b61311060c0830189612fb1565b61311d60e083018861300d565b61312b61010083018761300d565b61313961012083018661300d565b81810361014083015261314c8185613073565b90508181036101608301526131618184613073565b90509d9c50505050505050505050505050565b60006020820190506131896000830184612fb1565b92915050565b600060208201905081810360008301526131a98184613073565b905092915050565b6131ba81613001565b81146131c557600080fd5b50565b6000813590506131d7816131b1565b92915050565b600080604083850312156131f4576131f3612f44565b5b600061320285828601612f6f565b9250506020613213858286016131c8565b9150509250929050565b61322681612fe0565b811461323157600080fd5b50565b6000813590506132438161321d565b92915050565b60006020828403121561325f5761325e612f44565b5b600061326d84828501613234565b91505092915050565b7f4e487b7100000000000000000000000000000000000000000000000000000000600052602160045260246000fd5b600881106132b6576132b5613276565b5b50565b60008190506132c7826132a5565b919050565b60006132d7826132b9565b9050919050565b6132e7816132cc565b82525050565b600060208201905061330260008301846132de565b92915050565b600060208201905061331d6000830184612ff2565b92915050565b6000806040838503121561333a57613339612f44565b5b600061334885828601612f6f565b925050602061335985828601613234565b9150509250929050565b60006bffffffffffffffffffffffff82169050919050565b61338481613363565b82525050565b600060608201905061339f600083018661300d565b6133ac602083018561300d565b6133b9604083018461337b565b949350505050565b60006020820190506133d6600083018461337b565b92915050565b60006020820190506133f1600083018461300d565b92915050565b600080fd5b7f4e487b7100000000000000000000000000000000000000000000000000000000600052604160045260246000fd5b61343482613062565b810181811067ffffffffffffffff82111715613453576134526133fc565b5b80604052505050565b6000613466612f3a565b9050613472828261342b565b919050565b600067ffffffffffffffff821115613492576134916133fc565b5b602082029050602081019050919050565b600080fd5b60006134bb6134b684613477565b61345c565b905080838252602082019050602084028301858111156134de576134dd6134a3565b5b835b8181101561350757806134f38882613234565b8452602084019350506020810190506134e0565b5050509392505050565b600082601f830112613526576135256133f7565b5b81356135368482602086016134a8565b91505092915050565b600067ffffffffffffffff82111561355a576135596133fc565b5b602082029050602081019050919050565b600061357e6135798461353f565b61345c565b905080838252602082019050602084028301858111156135a1576135a06134a3565b5b835b818110156135ca57806135b68882612f6f565b8452602084019350506020810190506135a3565b5050509392505050565b600082601f8301126135e9576135e86133f7565b5b81356135f984826020860161356b565b91505092915050565b600067ffffffffffffffff82111561361d5761361c6133fc565b5b602082029050602081019050919050565b600080fd5b600067ffffffffffffffff82111561364e5761364d6133fc565b5b61365782613062565b9050602081019050919050565b82818337600083830152505050565b600061368661368184613633565b61345c565b9050828152602081018484840111156136a2576136a161362e565b5b6136ad848285613664565b509392505050565b600082601f8301126136ca576136c96133f7565b5b81356136da848260208601613673565b91505092915050565b60006136f66136f184613602565b61345c565b90508083825260208201905060208402830185811115613719576137186134a3565b5b835b8181101561376057803567ffffffffffffffff81111561373e5761373d6133f7565b5b80860161374b89826136b5565b8552602085019450505060208101905061371b565b5050509392505050565b600082601f83011261377f5761377e6133f7565b5b813561378f8482602086016136e3565b91505092915050565b600067ffffffffffffffff8211156137b3576137b26133fc565b5b602082029050602081019050919050565b600067ffffffffffffffff8211156137df576137de6133fc565b5b6137e882613062565b9050602081019050919050565b6000613808613803846137c4565b61345c565b9050828152602081018484840111156138245761382361362e565b5b61382f848285613664565b509392505050565b600082601f83011261384c5761384b6133f7565b5b813561385c8482602086016137f5565b91505092915050565b600061387861387384613798565b61345c565b9050808382526020820190506020840283018581111561389b5761389a6134a3565b5b835b818110156138e257803567ffffffffffffffff8111156138c0576138bf6133f7565b5b8086016138cd8982613837565b8552602085019450505060208101905061389d565b5050509392505050565b600082601f830112613901576139006133f7565b5b8135613911848260208601613865565b91505092915050565b600080600080600080600060e0888a03121561393957613938612f44565b5b600088013567ffffffffffffffff81111561395757613956612f49565b5b6139638a828b01613511565b975050602088013567ffffffffffffffff81111561398457613983612f49565b5b6139908a828b016135d4565b965050604088013567ffffffffffffffff8111156139b1576139b0612f49565b5b6139bd8a828b0161376a565b955050606088013567ffffffffffffffff8111156139de576139dd612f49565b5b6139ea8a828b016138ec565b945050608088013567ffffffffffffffff811115613a0b57613a0a612f49565b5b613a178a828b016136b5565b93505060a088013567ffffffffffffffff811115613a3857613a37612f49565b5b613a448a828b016136b5565b92505060c088013567ffffffffffffffff811115613a6557613a64612f49565b5b613a718a828b016136b5565b91505092959891949750929550565b6000819050919050565b6000613aa5613aa0613a9b84612fc0565b613a80565b612fc0565b9050919050565b6000613ab782613a8a565b9050919050565b6000613ac982613aac565b9050919050565b613ad981613abe565b82525050565b6000602082019050613af46000830184613ad0565b92915050565b613b0381613363565b8114613b0e57600080fd5b50565b600081359050613b2081613afa565b92915050565b600060208284031215613b3c57613b3b612f44565b5b6000613b4a84828501613b11565b91505092915050565b6000613b5e82613aac565b9050919050565b613b6e81613b53565b82525050565b6000602082019050613b896000830184613b65565b92915050565b6000613b9a82613aac565b9050919050565b613baa81613b8f565b82525050565b6000602082019050613bc56000830184613ba1565b92915050565b7f4e487b7100000000000000000000000000000000000000000000000000000000600052602260045260246000fd5b60006002820490506001821680613c1257607f821691505b602082108103613c2557613c24613bcb565b5b50919050565b7f696e76616c69642070726f706f73616c20696400000000000000000000000000600082015250565b6000613c61601383613027565b9150613c6c82613c2b565b602082019050919050565b60006020820190508181036000830152613c9081613c54565b9050919050565b600081519050613ca681612f58565b92915050565b600060208284031215613cc257613cc1612f44565b5b6000613cd084828501613c97565b91505092915050565b7f63616e6e6f742063616e63656c2065786563757465642070726f706f73616c00600082015250565b6000613d0f601f83613027565b9150613d1a82613cd9565b602082019050919050565b60006020820190508181036000830152613d3e81613d02565b9050919050565b6000604082019050613d5a6000830185612ff2565b613d676020830184612fb1565b9392505050565b600081519050613d7d81613afa565b92915050565b600060208284031215613d9957613d98612f44565b5b6000613da784828501613d6e565b91505092915050565b7f70726f706f7365722061626f7665207468726573686f6c640000000000000000600082015250565b6000613de6601883613027565b9150613df182613db0565b602082019050919050565b60006020820190508181036000830152613e1581613dd9565b9050919050565b7f4e487b7100000000000000000000000000000000000000000000000000000000600052603260045260246000fd5b60008190508160005260206000209050919050565b60008154613e6d81613bfa565b613e778186613027565b94506001821660008114613e925760018114613ea857613edb565b60ff198316865281151560200286019350613edb565b613eb185613e4b565b60005b83811015613ed357815481890152600182019150602081019050613eb4565b808801955050505b50505092915050565b600082825260208201905092915050565b60008190508160005260206000209050919050565b60008154613f1781613bfa565b613f218186613ee4565b94506001821660008114613f3c5760018114613f5257613f85565b60ff198316865281151560200286019350613f85565b613f5b85613ef5565b60005b83811015613f7d57815481890152600182019150602081019050613f5e565b808801955050505b50505092915050565b600060a082019050613fa36000830188612ff2565b613fb06020830187612fb1565b8181036040830152613fc28186613e60565b90508181036060830152613fd68185613f0a565b9050613fe56080830184612fb1565b9695505050505050565b7f4e487b7100000000000000000000000000000000000000000000000000000000600052601160045260246000fd5b600061402982612f4e565b91507fffffffffffffffffffffffffffffffffffffffffffffffffffffffffffffffff820361405b5761405a613fef565b5b600182019050919050565b7f596f7520617265206e6f7420746865206d656d626572206f662074687320536160008201527f6d686974612044414f0000000000000000000000000000000000000000000000602082015250565b60006140c2602983613027565b91506140cd82614066565b604082019050919050565b600060208201905081810360008301526140f1816140b5565b9050919050565b7f596f75206d75737420686176652076616c6964207374616b6520616d6f756e7460008201527f20746f2063726561746520612070726f706f73616c0000000000000000000000602082015250565b6000614154603583613027565b915061415f826140f8565b604082019050919050565b6000602082019050818103600083015261418381614147565b9050919050565b7f70726f706f73657220766f7465732062656c6f772070726f706f73616c20746860008201527f726573686f6c6400000000000000000000000000000000000000000000000000602082015250565b60006141e6602783613027565b91506141f18261418a565b604082019050919050565b60006020820190508181036000830152614215816141d9565b9050919050565b7f70726f706f73616c2066756e6374696f6e20696e666f726d6174696f6e20617260008201527f697479206d69736d617463680000000000000000000000000000000000000000602082015250565b6000614278602c83613027565b91506142838261421c565b604082019050919050565b600060208201905081810360008301526142a78161426b565b9050919050565b7f736f6d6520616374696f6e206d75737420626520746865726500000000000000600082015250565b60006142e4601983613027565b91506142ef826142ae565b602082019050919050565b60006020820190508181036000830152614313816142d7565b9050919050565b7f746f6f206d616e7920616374696f6e7300000000000000000000000000000000600082015250565b6000614350601083613027565b915061435b8261431a565b602082019050919050565b6000602082019050818103600083015261437f81614343565b9050919050565b600060608201905061439b6000830186612ff2565b6143a86020830185612ff2565b6143b5604083018461337b565b949350505050565b6000815190506143cc816131b1565b92915050565b6000602082840312156143e8576143e7612f44565b5b60006143f6848285016143bd565b91505092915050565b7f466f756e6420616e20616c7265616479206163746976652070726f706f73616c600082015250565b6000614435602083613027565b9150614440826143ff565b602082019050919050565b6000602082019050818103600083015261446481614428565b9050919050565b7f466f756e6420616e20616c72656164792070656e64696e672070726f706f736160008201527f6c00000000000000000000000000000000000000000000000000000000000000602082015250565b60006144c7602183613027565b91506144d28261446b565b604082019050919050565b600060208201905081810360008301526144f6816144ba565b9050919050565b60006020601f8301049050919050565b600082821b905092915050565b60006008830261454a7fffffffffffffffffffffffffffffffffffffffffffffffffffffffffffffffff8261450d565b614554868361450d565b95508019841693508086168417925050509392505050565b600061458761458261457d84612f4e565b613a80565b612f4e565b9050919050565b6000819050919050565b6145a18361456c565b6145b56145ad8261458e565b84845461451a565b825550505050565b600090565b6145ca6145bd565b6145d5818484614598565b505050565b5b818110156145f9576145ee6000826145c2565b6001810190506145db565b5050565b601f82111561463e5761460f81613e4b565b614618846144fd565b81016020851015614627578190505b61463b614633856144fd565b8301826145da565b50505b505050565b600082821c905092915050565b600061466160001984600802614643565b1980831691505092915050565b600061467a8383614650565b9150826002028217905092915050565b6146938261301c565b67ffffffffffffffff8111156146ac576146ab6133fc565b5b6146b68254613bfa565b6146c18282856145fd565b600060209050601f8311600181146146f457600084156146e2578287015190505b6146ec858261466e565b865550614754565b601f19841661470286613e4b565b60005b8281101561472a57848901518255600182019150602085019450602081019050614705565b868310156147475784890151614743601f891682614650565b8355505b6001600288020188555050505b505050505050565b600081519050919050565b600082825260208201905092915050565b6000819050602082019050919050565b61479181612fe0565b82525050565b60006147a38383614788565b60208301905092915050565b6000602082019050919050565b60006147c78261475c565b6147d18185614767565b93506147dc83614778565b8060005b8381101561480d5781516147f48882614797565b97506147ff836147af565b9250506001810190506147e0565b5085935050505092915050565b600081519050919050565b600082825260208201905092915050565b6000819050602082019050919050565b61484f81612f4e565b82525050565b60006148618383614846565b60208301905092915050565b6000602082019050919050565b60006148858261481a565b61488f8185614825565b935061489a83614836565b8060005b838110156148cb5781516148b28882614855565b97506148bd8361486d565b92505060018101905061489e565b5085935050505092915050565b600081519050919050565b600082825260208201905092915050565b6000819050602082019050919050565b600082825260208201905092915050565b60006149208261301c565b61492a8185614904565b935061493a818560208601613038565b61494381613062565b840191505092915050565b600061495a8383614915565b905092915050565b6000602082019050919050565b600061497a826148d8565b61498481856148e3565b935083602082028501614996856148f4565b8060005b858110156149d257848403895281516149b3858261494e565b94506149be83614962565b925060208a0199505060018101905061499a565b50829750879550505050505092915050565b600081519050919050565b600082825260208201905092915050565b6000819050602082019050919050565b600081519050919050565b600082825260208201905092915050565b6000614a3782614a10565b614a418185614a1b565b9350614a51818560208601613038565b614a5a81613062565b840191505092915050565b6000614a718383614a2c565b905092915050565b6000602082019050919050565b6000614a91826149e4565b614a9b81856149ef565b935083602082028501614aad85614a00565b8060005b85811015614ae95784840389528151614aca8582614a65565b9450614ad583614a79565b925060208a01995050600181019050614ab1565b50829750879550505050505092915050565b600061012082019050614b11600083018c612fb1565b614b1e602083018b612ff2565b8181036040830152614b30818a6147bc565b90508181036060830152614b44818961487a565b90508181036080830152614b58818861496f565b905081810360a0830152614b6c8187614a86565b9050614b7b60c0830186612fb1565b614b8860e0830185612fb1565b818103610100830152614b9b8184613073565b90509a9950505050505050505050565b7f596f75206d757374207075726368617365206174206c6561737420313020746f60008201527f6b656e7320746f206265636f6d652061206d656d626572000000000000000000602082015250565b6000614c07603783613027565b9150614c1282614bab565b604082019050919050565b60006020820190508181036000830152614c3681614bfa565b9050919050565b6000614c4882612f4e565b9150614c5383612f4e565b9250828202614c6181612f4e565b91508282048414831517614c7857614c77613fef565b5b5092915050565b7f4e6f7420656e6f7567682076616c756500000000000000000000000000000000600082015250565b6000614cb5601083613027565b9150614cc082614c7f565b602082019050919050565b60006020820190508181036000830152614ce481614ca8565b9050919050565b7f436f6e747261637420646f6573206e6f74206861766520656e6f75676820736160008201527f6d68697461546f6b656e73000000000000000000000000000000000000000000602082015250565b6000614d47602b83613027565b9150614d5282614ceb565b604082019050919050565b60006020820190508181036000830152614d7681614d3a565b9050919050565b6000614d8882613363565b9150614d9383613363565b9250828202614da181613363565b9150808214614db357614db2613fef565b5b5092915050565b6000604082019050614dcf6000830185612ff2565b614ddc602083018461337b565b9392505050565b7f496e76616c69642070726f706f73616c20494400000000000000000000000000600082015250565b6000614e19601383613027565b9150614e2482614de3565b602082019050919050565b60006020820190508181036000830152614e4881614e0c565b9050919050565b7f70726f706f73616c2063616e206f6e6c7920626520717565756564206966206960008201527f7420697320737563636565646564000000000000000000000000000000000000602082015250565b6000614eab602e83613027565b9150614eb682614e4f565b604082019050919050565b60006020820190508181036000830152614eda81614e9e565b9050919050565b600081905092915050565b7f74656d706c617465000000000000000000000000000000000000000000000000600082015250565b6000614f22600883614ee1565b9150614f2d82614eec565b600882019050919050565b6000614f4382614f15565b9150819050919050565b60008154614f5a81613bfa565b614f648186614ee1565b94506001821660008114614f7f5760018114614f9457614fc7565b60ff1983168652811515820286019350614fc7565b614f9d85613e4b565b60005b83811015614fbf57815481890152600182019150602081019050614fa0565b838801955050505b50505092915050565b6000614fdc8284614f4d565b915081905092915050565b7f4e6f7420612074656d706c6174652070726f706f73616c000000000000000000600082015250565b600061501d601783613027565b915061502882614fe7565b602082019050919050565b6000602082019050818103600083015261504c81615010565b9050919050565b60006060820190506150686000830186612ff2565b818103602083015261507a8185613e60565b90506150896040830184612fb1565b949350505050565b60006040820190506150a66000830185612fb1565b6150b36020830184612fb1565b9392505050565b7f70726f706f73616c2063616e206f6e6c7920626520657865637574656420696660008201527f2069742069732071756575656400000000000000000000000000000000000000602082015250565b6000615116602d83613027565b9150615121826150ba565b604082019050919050565b6000602082019050818103600083015261514581615109565b9050919050565b60006080820190506151616000830187612ff2565b61516e6020830186612fb1565b81810360408301526151808185613e60565b905081810360608301526151948184613f0a565b905095945050505050565b60006151b26151ad846137c4565b61345c565b9050828152602081018484840111156151ce576151cd61362e565b5b6151d9848285613038565b509392505050565b600082601f8301126151f6576151f56133f7565b5b815161520684826020860161519f565b91505092915050565b60006020828403121561522557615224612f44565b5b600082015167ffffffffffffffff81111561524357615242612f49565b5b61524f848285016151e1565b91505092915050565b7f766f74696e6720697320636c6f73656400000000000000000000000000000000600082015250565b600061528e601083613027565b915061529982615258565b602082019050919050565b600060208201905081810360008301526152bd81615281565b9050919050565b7f766f7465722068617320616c726561647920766f746564000000000000000000600082015250565b60006152fa601783613027565b9150615305826152c4565b602082019050919050565b60006020820190508181036000830152615329816152ed565b9050919050565b600061534b61534661534184613363565b613a80565b612f4e565b9050919050565b61535b81615330565b82525050565b60006080820190506153766000830187612ff2565b6153836020830186612fb1565b615390604083018561300d565b61539d6060830184615352565b95945050505050565b60006153b182612f4e565b91506153bc83612f4e565b92508282019050808211156153d4576153d3613fef565b5b92915050565b7f6164646974696f6e206f766572666c6f77000000000000000000000000000000600082015250565b6000615410601183613027565b915061541b826153da565b602082019050919050565b6000602082019050818103600083015261543f81615403565b9050919050565b7f7375627472616374696f6e20756e646572666c6f770000000000000000000000600082015250565b600061547c601583613027565b915061548782615446565b602082019050919050565b600060208201905081810360008301526154ab8161546f565b9050919050565b60006154bd82612f4e565b91506154c883612f4e565b92508282039050818111156154e0576154df613fef565b5b92915050565b60006154f182614a10565b6154fb8185613ee4565b935061550b818560208601613038565b61551481613062565b840191505092915050565b600060a0820190506155346000830188612ff2565b6155416020830187612fb1565b81810360408301526155538186613073565b9050818103606083015261556781856154e6565b90506155766080830184612fb1565b9695505050505050565b6000819050919050565b61559381615580565b82525050565b60006020820190506155ae600083018461558a565b92915050565b7f2070726f706f73616c20616374696f6e20616c7265616479207175657565642060008201527f6174206574610000000000000000000000000000000000000000000000000000602082015250565b6000615610602683613027565b915061561b826155b4565b604082019050919050565b6000602082019050818103600083015261563f81615603565b9050919050565b61564f81615580565b811461565a57600080fd5b50565b60008151905061566c81615646565b92915050565b60006020828403121561568857615687612f44565b5b60006156968482850161565d565b91505092915050565b601f8211156156e0576156b181613ef5565b6156ba846144fd565b810160208510156156c9578190505b6156dd6156d5856144fd565b8301826145da565b50505b505050565b6156ee82614a10565b67ffffffffffffffff811115615707576157066133fc565b5b6157118254613bfa565b61571c82828561569f565b600060209050601f83116001811461574f576000841561573d578287015190505b615747858261466e565b8655506157af565b601f19841661575d86613ef5565b60005b8281101561578557848901518255600182019150602085019450602081019050615760565b868310156157a2578489015161579e601f891682614650565b8355505b6001600288020188555050505b505050505050565b7f4e487b7100000000000000000000000000000000000000000000000000000000600052605160045260246000fdfea2646970667358221220ac8efb5da95087b7553ac6e32c61981fed598d3b735f3b1b27ea45811d503eee64736f6c63430008130033",
  "linkReferences": {},
  "deployedLinkReferences": {}
}