{
  "_format": "hh-sol-artifact-1",
  "contractName": "TemplateNFT",
  "sourceName": "contracts/TemplateNFT.sol",
  "abi": [
    {
      "inputs": [],
      "stateMutability": "nonpayable",
      "type": "constructor"
    },
    {
      "anonymous": false,
      "inputs": [
        {
          "indexed": true,
          "internalType": "address",
          "name": "owner",
          "type": "address"
        },
        {
          "indexed": true,
          "internalType": "address",
          "name": "approved",
          "type": "address"
        },
        {
          "indexed": true,
          "internalType": "uint256",
          "name": "tokenId",
          "type": "uint256"
        }
      ],
      "name": "Approval",
      "type": "event"
    },
    {
      "anonymous": false,
      "inputs": [
        {
          "indexed": true,
          "internalType": "address",
          "name": "owner",
          "type": "address"
        },
        {
          "indexed": true,
          "internalType": "address",
          "name": "operator",
          "type": "address"
        },
        {
          "indexed": false,
          "internalType": "bool",
          "name": "approved",
          "type": "bool"
        }
      ],
      "name": "ApprovalForAll",
      "type": "event"
    },
    {
      "anonymous": false,
      "inputs": [
        {
          "indexed": false,
          "internalType": "uint256",
          "name": "_fromTokenId",
          "type": "uint256"
        },
        {
          "indexed": false,
          "internalType": "uint256",
          "name": "_toTokenId",
          "type": "uint256"
        }
      ],
      "name": "BatchMetadataUpdate",
      "type": "event"
    },
    {
      "anonymous": false,
      "inputs": [
        {
          "indexed": false,
          "internalType": "uint256",
          "name": "_tokenId",
          "type": "uint256"
        }
      ],
      "name": "MetadataUpdate",
      "type": "event"
    },
    {
      "anonymous": false,
      "inputs": [
        {
          "indexed": true,
          "internalType": "address",
          "name": "previousOwner",
          "type": "address"
        },
        {
          "indexed": true,
          "internalType": "address",
          "name": "newOwner",
          "type": "address"
        }
      ],
      "name": "OwnershipTransferred",
      "type": "event"
    },
    {
      "anonymous": false,
      "inputs": [
        {
          "indexed": true,
          "internalType": "address",
          "name": "from",
          "type": "address"
        },
        {
          "indexed": true,
          "internalType": "address",
          "name": "to",
          "type": "address"
        },
        {
          "indexed": true,
          "internalType": "uint256",
          "name": "tokenId",
          "type": "uint256"
        }
      ],
      "name": "Transfer",
      "type": "event"
    },
    {
      "inputs": [
        {
          "internalType": "address",
          "name": "to",
          "type": "address"
        },
        {
          "internalType": "uint256",
          "name": "tokenId",
          "type": "uint256"
        }
      ],
      "name": "approve",
      "outputs": [],
      "stateMutability": "nonpayable",
      "type": "function"
    },
    {
      "inputs": [
        {
          "internalType": "address",
          "name": "owner",
          "type": "address"
        }
      ],
      "name": "balanceOf",
      "outputs": [
        {
          "internalType": "uint256",
          "name": "",
          "type": "uint256"
        }
      ],
      "stateMutability": "view",
      "type": "function"
    },
    {
      "inputs": [
        {
          "internalType": "uint256",
          "name": "",
          "type": "uint256"
        }
      ],
      "name": "creatorIdTocreatorData",
      "outputs": [
        {
          "internalType": "uint256",
          "name": "creatorId",
          "type": "uint256"
        },
        {
          "internalType": "address",
          "name": "owner",
          "type": "address"
        },
        {
          "internalType": "string",
          "name": "badgeIpfsUri",
          "type": "string"
        }
      ],
      "stateMutability": "view",
      "type": "function"
    },
    {
      "inputs": [
        {
          "internalType": "address",
          "name": "_user",
          "type": "address"
        }
      ],
      "name": "getAlltemplateIDS",
      "outputs": [
        {
          "internalType": "uint256[]",
          "name": "",
          "type": "uint256[]"
        }
      ],
      "stateMutability": "view",
      "type": "function"
    },
    {
      "inputs": [
        {
          "internalType": "uint256",
          "name": "tokenId",
          "type": "uint256"
        }
      ],
      "name": "getApproved",
      "outputs": [
        {
          "internalType": "address",
          "name": "",
          "type": "address"
        }
      ],
      "stateMutability": "view",
      "type": "function"
    },
    {
      "inputs": [
        {
          "internalType": "uint256",
          "name": "_templateId",
          "type": "uint256"
        }
      ],
      "name": "getTemplateData",
      "outputs": [
        {
          "components": [
            {
              "internalType": "uint256",
              "name": "tokenIds",
              "type": "uint256"
            },
            {
              "internalType": "address",
              "name": "creator",
              "type": "address"
            },
            {
              "internalType": "string",
              "name": "tokenIpfsUri",
              "type": "string"
            }
          ],
          "internalType": "struct TemplateNFT.TemplateData",
          "name": "",
          "type": "tuple"
        }
      ],
      "stateMutability": "view",
      "type": "function"
    },
    {
      "inputs": [
        {
          "internalType": "uint256",
          "name": "_templateId",
          "type": "uint256"
        }
      ],
      "name": "getTemplateDetails",
      "outputs": [
        {
          "internalType": "address",
          "name": "",
          "type": "address"
        }
      ],
      "stateMutability": "view",
      "type": "function"
    },
    {
      "inputs": [
        {
          "internalType": "address",
          "name": "_user",
          "type": "address"
        }
      ],
      "name": "getUsercreatorNFTs",
      "outputs": [
        {
          "internalType": "uint256[]",
          "name": "",
          "type": "uint256[]"
        }
      ],
      "stateMutability": "view",
      "type": "function"
    },
    {
      "inputs": [
        {
          "internalType": "uint256",
          "name": "_creatorId",
          "type": "uint256"
        }
      ],
      "name": "getcreatorData",
      "outputs": [
        {
          "components": [
            {
              "internalType": "uint256",
              "name": "creatorId",
              "type": "uint256"
            },
            {
              "internalType": "address",
              "name": "owner",
              "type": "address"
            },
            {
              "internalType": "string",
              "name": "badgeIpfsUri",
              "type": "string"
            }
          ],
          "internalType": "struct TemplateNFT.creatorData",
          "name": "",
          "type": "tuple"
        }
      ],
      "stateMutability": "view",
      "type": "function"
    },
    {
      "inputs": [
        {
          "internalType": "uint256",
          "name": "",
          "type": "uint256"
        }
      ],
      "name": "idToTemplateData",
      "outputs": [
        {
          "internalType": "uint256",
          "name": "tokenIds",
          "type": "uint256"
        },
        {
          "internalType": "address",
          "name": "creator",
          "type": "address"
        },
        {
          "internalType": "string",
          "name": "tokenIpfsUri",
          "type": "string"
        }
      ],
      "stateMutability": "view",
      "type": "function"
    },
    {
      "inputs": [
        {
          "internalType": "address",
          "name": "owner",
          "type": "address"
        },
        {
          "internalType": "address",
          "name": "operator",
          "type": "address"
        }
      ],
      "name": "isApprovedForAll",
      "outputs": [
        {
          "internalType": "bool",
          "name": "",
          "type": "bool"
        }
      ],
      "stateMutability": "view",
      "type": "function"
    },
    {
      "inputs": [
        {
          "internalType": "uint256",
          "name": "",
          "type": "uint256"
        }
      ],
      "name": "memberIdTomemberData",
      "outputs": [
        {
          "internalType": "uint256",
          "name": "memberId",
          "type": "uint256"
        },
        {
          "internalType": "address",
          "name": "member",
          "type": "address"
        },
        {
          "internalType": "string",
          "name": "memberIpfsUri",
          "type": "string"
        }
      ],
      "stateMutability": "view",
      "type": "function"
    },
    {
      "inputs": [
        {
          "internalType": "address",
          "name": "",
          "type": "address"
        }
      ],
      "name": "memberNFTReceived",
      "outputs": [
        {
          "internalType": "bool",
          "name": "",
          "type": "bool"
        }
      ],
      "stateMutability": "view",
      "type": "function"
    },
    {
      "inputs": [
        {
          "internalType": "address",
          "name": "_to",
          "type": "address"
        },
        {
          "internalType": "string",
          "name": "_uri",
          "type": "string"
        }
      ],
      "name": "mintMemberNFT",
      "outputs": [],
      "stateMutability": "nonpayable",
      "type": "function"
    },
    {
      "inputs": [
        {
          "internalType": "address",
          "name": "_to",
          "type": "address"
        },
        {
          "internalType": "string",
          "name": "_uri",
          "type": "string"
        },
        {
          "internalType": "uint256",
          "name": "_proposalId",
          "type": "uint256"
        }
      ],
      "name": "mintTemplate",
      "outputs": [],
      "stateMutability": "nonpayable",
      "type": "function"
    },
    {
      "inputs": [
        {
          "internalType": "address",
          "name": "_to",
          "type": "address"
        },
        {
          "internalType": "string",
          "name": "_uri",
          "type": "string"
        }
      ],
      "name": "mintcreatorNFT",
      "outputs": [],
      "stateMutability": "nonpayable",
      "type": "function"
    },
    {
      "inputs": [],
      "name": "name",
      "outputs": [
        {
          "internalType": "string",
          "name": "",
          "type": "string"
        }
      ],
      "stateMutability": "view",
      "type": "function"
    },
    {
      "inputs": [],
      "name": "owner",
      "outputs": [
        {
          "internalType": "address",
          "name": "",
          "type": "address"
        }
      ],
      "stateMutability": "view",
      "type": "function"
    },
    {
      "inputs": [
        {
          "internalType": "uint256",
          "name": "tokenId",
          "type": "uint256"
        }
      ],
      "name": "ownerOf",
      "outputs": [
        {
          "internalType": "address",
          "name": "",
          "type": "address"
        }
      ],
      "stateMutability": "view",
      "type": "function"
    },
    {
      "inputs": [
        {
          "internalType": "uint256",
          "name": "",
          "type": "uint256"
        }
      ],
      "name": "proposalIdToTempId",
      "outputs": [
        {
          "internalType": "uint256",
          "name": "",
          "type": "uint256"
        }
      ],
      "stateMutability": "view",
      "type": "function"
    },
    {
      "inputs": [],
      "name": "renounceOwnership",
      "outputs": [],
      "stateMutability": "nonpayable",
      "type": "function"
    },
    {
      "inputs": [
        {
          "internalType": "address",
          "name": "to",
          "type": "address"
        },
        {
          "internalType": "uint256",
          "name": "tokenId",
          "type": "uint256"
        },
        {
          "internalType": "string",
          "name": "uri",
          "type": "string"
        }
      ],
      "name": "safeMint",
      "outputs": [],
      "stateMutability": "nonpayable",
      "type": "function"
    },
    {
      "inputs": [
        {
          "internalType": "address",
          "name": "to",
          "type": "address"
        },
        {
          "internalType": "uint256",
          "name": "creatorId",
          "type": "uint256"
        },
        {
          "internalType": "string",
          "name": "uri",
          "type": "string"
        }
      ],
      "name": "safeMintOwnership",
      "outputs": [],
      "stateMutability": "nonpayable",
      "type": "function"
    },
    {
      "inputs": [
        {
          "internalType": "address",
          "name": "from",
          "type": "address"
        },
        {
          "internalType": "address",
          "name": "to",
          "type": "address"
        },
        {
          "internalType": "uint256",
          "name": "tokenId",
          "type": "uint256"
        }
      ],
      "name": "safeTransferFrom",
      "outputs": [],
      "stateMutability": "nonpayable",
      "type": "function"
    },
    {
      "inputs": [
        {
          "internalType": "address",
          "name": "from",
          "type": "address"
        },
        {
          "internalType": "address",
          "name": "to",
          "type": "address"
        },
        {
          "internalType": "uint256",
          "name": "tokenId",
          "type": "uint256"
        },
        {
          "internalType": "bytes",
          "name": "data",
          "type": "bytes"
        }
      ],
      "name": "safeTransferFrom",
      "outputs": [],
      "stateMutability": "nonpayable",
      "type": "function"
    },
    {
      "inputs": [
        {
          "internalType": "address",
          "name": "operator",
          "type": "address"
        },
        {
          "internalType": "bool",
          "name": "approved",
          "type": "bool"
        }
      ],
      "name": "setApprovalForAll",
      "outputs": [],
      "stateMutability": "nonpayable",
      "type": "function"
    },
    {
      "inputs": [
        {
          "internalType": "bytes4",
          "name": "interfaceId",
          "type": "bytes4"
        }
      ],
      "name": "supportsInterface",
      "outputs": [
        {
          "internalType": "bool",
          "name": "",
          "type": "bool"
        }
      ],
      "stateMutability": "view",
      "type": "function"
    },
    {
      "inputs": [],
      "name": "symbol",
      "outputs": [
        {
          "internalType": "string",
          "name": "",
          "type": "string"
        }
      ],
      "stateMutability": "view",
      "type": "function"
    },
    {
      "inputs": [
        {
          "internalType": "address",
          "name": "",
          "type": "address"
        },
        {
          "internalType": "uint256",
          "name": "",
          "type": "uint256"
        }
      ],
      "name": "templateIdToUser",
      "outputs": [
        {
          "internalType": "uint256",
          "name": "",
          "type": "uint256"
        }
      ],
      "stateMutability": "view",
      "type": "function"
    },
    {
      "inputs": [
        {
          "internalType": "uint256",
          "name": "tokenId",
          "type": "uint256"
        }
      ],
      "name": "tokenURI",
      "outputs": [
        {
          "internalType": "string",
          "name": "",
          "type": "string"
        }
      ],
      "stateMutability": "view",
      "type": "function"
    },
    {
      "inputs": [
        {
          "internalType": "address",
          "name": "from",
          "type": "address"
        },
        {
          "internalType": "address",
          "name": "to",
          "type": "address"
        },
        {
          "internalType": "uint256",
          "name": "tokenId",
          "type": "uint256"
        }
      ],
      "name": "transferFrom",
      "outputs": [],
      "stateMutability": "nonpayable",
      "type": "function"
    },
    {
      "inputs": [
        {
          "internalType": "address",
          "name": "newOwner",
          "type": "address"
        }
      ],
      "name": "transferOwnership",
      "outputs": [],
      "stateMutability": "nonpayable",
      "type": "function"
    },
    {
      "inputs": [
        {
          "internalType": "address",
          "name": "",
          "type": "address"
        },
        {
          "internalType": "uint256",
          "name": "",
          "type": "uint256"
        }
      ],
      "name": "userTocreatorNFTs",
      "outputs": [
        {
          "internalType": "uint256",
          "name": "",
          "type": "uint256"
        }
      ],
      "stateMutability": "view",
      "type": "function"
    },
    {
      "inputs": [
        {
          "internalType": "address",
          "name": "",
          "type": "address"
        },
        {
          "internalType": "uint256",
          "name": "",
          "type": "uint256"
        }
      ],
      "name": "userTomemberNFTs",
      "outputs": [
        {
          "internalType": "uint256",
          "name": "",
          "type": "uint256"
        }
      ],
      "stateMutability": "view",
      "type": "function"
    }
  ],
  "bytecode": "0x60806040523480156200001157600080fd5b506040518060400160405280600a81526020017f4d7954656d706c617465000000000000000000000000000000000000000000008152506040518060400160405280600381526020017f4d544c000000000000000000000000000000000000000000000000000000000081525081600090816200008f919062000412565b508060019081620000a1919062000412565b505050620000c4620000b8620000ca60201b60201c565b620000d260201b60201c565b620004f9565b600033905090565b6000600760009054906101000a900473ffffffffffffffffffffffffffffffffffffffff16905081600760006101000a81548173ffffffffffffffffffffffffffffffffffffffff021916908373ffffffffffffffffffffffffffffffffffffffff1602179055508173ffffffffffffffffffffffffffffffffffffffff168173ffffffffffffffffffffffffffffffffffffffff167f8be0079c531659141344cd1fd0a4f28419497f9722a3daafe3b4186f6b6457e060405160405180910390a35050565b600081519050919050565b7f4e487b7100000000000000000000000000000000000000000000000000000000600052604160045260246000fd5b7f4e487b7100000000000000000000000000000000000000000000000000000000600052602260045260246000fd5b600060028204905060018216806200021a57607f821691505b60208210810362000230576200022f620001d2565b5b50919050565b60008190508160005260206000209050919050565b60006020601f8301049050919050565b600082821b905092915050565b6000600883026200029a7fffffffffffffffffffffffffffffffffffffffffffffffffffffffffffffffff826200025b565b620002a686836200025b565b95508019841693508086168417925050509392505050565b6000819050919050565b6000819050919050565b6000620002f3620002ed620002e784620002be565b620002c8565b620002be565b9050919050565b6000819050919050565b6200030f83620002d2565b620003276200031e82620002fa565b84845462000268565b825550505050565b600090565b6200033e6200032f565b6200034b81848462000304565b505050565b5b8181101562000373576200036760008262000334565b60018101905062000351565b5050565b601f821115620003c2576200038c8162000236565b62000397846200024b565b81016020851015620003a7578190505b620003bf620003b6856200024b565b83018262000350565b50505b505050565b600082821c905092915050565b6000620003e760001984600802620003c7565b1980831691505092915050565b6000620004028383620003d4565b9150826002028217905092915050565b6200041d8262000198565b67ffffffffffffffff811115620004395762000438620001a3565b5b62000445825462000201565b6200045282828562000377565b600060209050601f8311600181146200048a576000841562000475578287015190505b620004818582620003f4565b865550620004f1565b601f1984166200049a8662000236565b60005b82811015620004c4578489015182556001820191506020850194506020810190506200049d565b86831015620004e45784890151620004e0601f891682620003d4565b8355505b6001600288020188555050505b505050505050565b61416d80620005096000396000f3fe608060405234801561001057600080fd5b50600436106102065760003560e01c80638da5cb5b1161011a578063bd60f816116100ad578063cebf64f51161007c578063cebf64f51461065d578063e27ec75e1461068d578063e4236478146106bd578063e985e9c5146106ed578063f2fde38b1461071d57610206565b8063bd60f816146105c5578063c87b56dd146105e1578063c91757b414610611578063cd279c7c1461064157610206565b8063ae6cd363116100e9578063ae6cd3631461052d578063b06183821461055d578063b88d4fde1461058d578063b971043b146105a957610206565b80638da5cb5b146104a357806395d89b41146104c1578063a22cb465146104df578063ae63b363146104fb57610206565b806343e2310d1161019d57806370a082311161016c57806370a08231146103ff578063715018a61461042f5780638250db7a14610439578063858f1e921461046b5780638c8582661461048757610206565b806343e2310d1461033d57806351ff05931461036d578063536483951461039f5780636352211e146103cf57610206565b80631cdac77b116101d95780631cdac77b146102a557806323b872dd146102d557806342653968146102f157806342842e0e1461032157610206565b806301ffc9a71461020b57806306fdde031461023b578063081812fc14610259578063095ea7b314610289575b600080fd5b61022560048036038101906102209190612c25565b610739565b6040516102329190612c6d565b60405180910390f35b61024361074b565b6040516102509190612d18565b60405180910390f35b610273600480360381019061026e9190612d70565b6107dd565b6040516102809190612dde565b60405180910390f35b6102a3600480360381019061029e9190612e25565b610823565b005b6102bf60048036038101906102ba9190612d70565b61093a565b6040516102cc9190612f1d565b60405180910390f35b6102ef60048036038101906102ea9190612f3f565b610a59565b005b61030b60048036038101906103069190612d70565b610ab9565b6040516103189190612fe2565b60405180910390f35b61033b60048036038101906103369190612f3f565b610bd8565b005b61035760048036038101906103529190613004565b610bf8565b60405161036491906130e0565b60405180910390f35b61038760048036038101906103829190612d70565b610c8f565b60405161039693929190613111565b60405180910390f35b6103b960048036038101906103b49190612e25565b610d61565b6040516103c6919061314f565b60405180910390f35b6103e960048036038101906103e49190612d70565b610d92565b6040516103f69190612dde565b60405180910390f35b61041960048036038101906104149190613004565b610e18565b604051610426919061314f565b60405180910390f35b610437610ecf565b005b610453600480360381019061044e9190612d70565b610ee3565b60405161046293929190613111565b60405180910390f35b6104856004803603810190610480919061329f565b610fb5565b005b6104a1600480360381019061049c919061329f565b611149565b005b6104ab61128d565b6040516104b89190612dde565b60405180910390f35b6104c96112b7565b6040516104d69190612d18565b60405180910390f35b6104f960048036038101906104f49190613327565b611349565b005b61051560048036038101906105109190612d70565b61135f565b60405161052493929190613111565b60405180910390f35b61054760048036038101906105429190613004565b611431565b60405161055491906130e0565b60405180910390f35b61057760048036038101906105729190612d70565b6114c8565b604051610584919061314f565b60405180910390f35b6105a760048036038101906105a29190613408565b6114e0565b005b6105c360048036038101906105be919061348b565b611542565b005b6105df60048036038101906105da91906134fa565b611697565b005b6105fb60048036038101906105f69190612d70565b6116b0565b6040516106089190612d18565b60405180910390f35b61062b60048036038101906106269190612e25565b6116c2565b604051610638919061314f565b60405180910390f35b61065b600480360381019061065691906134fa565b6116f3565b005b61067760048036038101906106729190612d70565b61170c565b6040516106849190612dde565b60405180910390f35b6106a760048036038101906106a29190613004565b61174c565b6040516106b49190612c6d565b60405180910390f35b6106d760048036038101906106d29190612e25565b61176c565b6040516106e4919061314f565b60405180910390f35b61070760048036038101906107029190613569565b61179d565b6040516107149190612c6d565b60405180910390f35b61073760048036038101906107329190613004565b611831565b005b6000610744826118b4565b9050919050565b60606000805461075a906135d8565b80601f0160208091040260200160405190810160405280929190818152602001828054610786906135d8565b80156107d35780601f106107a8576101008083540402835291602001916107d3565b820191906000526020600020905b8154815290600101906020018083116107b657829003601f168201915b5050505050905090565b60006107e882611915565b6004600083815260200190815260200160002060009054906101000a900473ffffffffffffffffffffffffffffffffffffffff169050919050565b600061082e82610d92565b90508073ffffffffffffffffffffffffffffffffffffffff168373ffffffffffffffffffffffffffffffffffffffff160361089e576040517f08c379a00000000000000000000000000000000000000000000000000000000081526004016108959061367b565b60405180910390fd5b8073ffffffffffffffffffffffffffffffffffffffff166108bd611960565b73ffffffffffffffffffffffffffffffffffffffff1614806108ec57506108eb816108e6611960565b61179d565b5b61092b576040517f08c379a00000000000000000000000000000000000000000000000000000000081526004016109229061370d565b60405180910390fd5b6109358383611968565b505050565b610942612b4b565b600f6000838152602001908152602001600020604051806060016040529081600082015481526020016001820160009054906101000a900473ffffffffffffffffffffffffffffffffffffffff1673ffffffffffffffffffffffffffffffffffffffff1673ffffffffffffffffffffffffffffffffffffffff1681526020016002820180546109d0906135d8565b80601f01602080910402602001604051908101604052809291908181526020018280546109fc906135d8565b8015610a495780601f10610a1e57610100808354040283529160200191610a49565b820191906000526020600020905b815481529060010190602001808311610a2c57829003601f168201915b5050505050815250509050919050565b610a6a610a64611960565b82611a21565b610aa9576040517f08c379a0000000000000000000000000000000000000000000000000000000008152600401610aa09061379f565b60405180910390fd5b610ab4838383611ab6565b505050565b610ac1612b82565b600c6000838152602001908152602001600020604051806060016040529081600082015481526020016001820160009054906101000a900473ffffffffffffffffffffffffffffffffffffffff1673ffffffffffffffffffffffffffffffffffffffff1673ffffffffffffffffffffffffffffffffffffffff168152602001600282018054610b4f906135d8565b80601f0160208091040260200160405190810160405280929190818152602001828054610b7b906135d8565b8015610bc85780601f10610b9d57610100808354040283529160200191610bc8565b820191906000526020600020905b815481529060010190602001808311610bab57829003601f168201915b5050505050815250509050919050565b610bf3838383604051806020016040528060008152506114e0565b505050565b6060600b60008373ffffffffffffffffffffffffffffffffffffffff1673ffffffffffffffffffffffffffffffffffffffff168152602001908152602001600020805480602002602001604051908101604052809291908181526020018280548015610c8357602002820191906000526020600020905b815481526020019060010190808311610c6f575b50505050509050919050565b600c6020528060005260406000206000915090508060000154908060010160009054906101000a900473ffffffffffffffffffffffffffffffffffffffff1690806002018054610cde906135d8565b80601f0160208091040260200160405190810160405280929190818152602001828054610d0a906135d8565b8015610d575780601f10610d2c57610100808354040283529160200191610d57565b820191906000526020600020905b815481529060010190602001808311610d3a57829003601f168201915b5050505050905083565b600e6020528160005260406000208181548110610d7d57600080fd5b90600052602060002001600091509150505481565b600080610d9e83611daf565b9050600073ffffffffffffffffffffffffffffffffffffffff168173ffffffffffffffffffffffffffffffffffffffff1603610e0f576040517f08c379a0000000000000000000000000000000000000000000000000000000008152600401610e069061380b565b60405180910390fd5b80915050919050565b60008073ffffffffffffffffffffffffffffffffffffffff168273ffffffffffffffffffffffffffffffffffffffff1603610e88576040517f08c379a0000000000000000000000000000000000000000000000000000000008152600401610e7f9061389d565b60405180910390fd5b600360008373ffffffffffffffffffffffffffffffffffffffff1673ffffffffffffffffffffffffffffffffffffffff168152602001908152602001600020549050919050565b610ed7611dec565b610ee16000611e6a565b565b600f6020528060005260406000206000915090508060000154908060010160009054906101000a900473ffffffffffffffffffffffffffffffffffffffff1690806002018054610f32906135d8565b80601f0160208091040260200160405190810160405280929190818152602001828054610f5e906135d8565b8015610fab5780601f10610f8057610100808354040283529160200191610fab565b820191906000526020600020905b815481529060010190602001808311610f8e57829003601f168201915b5050505050905083565b6000610fc1600a611f30565b9050610fcd600a611f3e565b610fd8838284611697565b60405180606001604052808281526020018473ffffffffffffffffffffffffffffffffffffffff16815260200183815250601260008381526020019081526020016000206000820151816000015560208201518160010160006101000a81548173ffffffffffffffffffffffffffffffffffffffff021916908373ffffffffffffffffffffffffffffffffffffffff16021790555060408201518160020190816110829190613a69565b50905050601160008473ffffffffffffffffffffffffffffffffffffffff1673ffffffffffffffffffffffffffffffffffffffff1681526020019081526020016000208190806001815401808255809150506001900390600052602060002001600090919091909150556001601060008573ffffffffffffffffffffffffffffffffffffffff1673ffffffffffffffffffffffffffffffffffffffff16815260200190815260200160002060006101000a81548160ff021916908315150217905550505050565b611151611dec565b600061115d6009611f30565b90506111696009611f3e565b611174838284611697565b60405180606001604052808281526020018473ffffffffffffffffffffffffffffffffffffffff16815260200183815250600f60008381526020019081526020016000206000820151816000015560208201518160010160006101000a81548173ffffffffffffffffffffffffffffffffffffffff021916908373ffffffffffffffffffffffffffffffffffffffff160217905550604082015181600201908161121e9190613a69565b50905050600e60008473ffffffffffffffffffffffffffffffffffffffff1673ffffffffffffffffffffffffffffffffffffffff168152602001908152602001600020819080600181540180825580915050600190039060005260206000200160009091909190915055505050565b6000600760009054906101000a900473ffffffffffffffffffffffffffffffffffffffff16905090565b6060600180546112c6906135d8565b80601f01602080910402602001604051908101604052809291908181526020018280546112f2906135d8565b801561133f5780601f106113145761010080835404028352916020019161133f565b820191906000526020600020905b81548152906001019060200180831161132257829003601f168201915b5050505050905090565b61135b611354611960565b8383611f54565b5050565b60126020528060005260406000206000915090508060000154908060010160009054906101000a900473ffffffffffffffffffffffffffffffffffffffff16908060020180546113ae906135d8565b80601f01602080910402602001604051908101604052809291908181526020018280546113da906135d8565b80156114275780601f106113fc57610100808354040283529160200191611427565b820191906000526020600020905b81548152906001019060200180831161140a57829003601f168201915b5050505050905083565b6060600e60008373ffffffffffffffffffffffffffffffffffffffff1673ffffffffffffffffffffffffffffffffffffffff1681526020019081526020016000208054806020026020016040519081016040528092919081815260200182805480156114bc57602002820191906000526020600020905b8154815260200190600101908083116114a8575b50505050509050919050565b600d6020528060005260406000206000915090505481565b6114f16114eb611960565b83611a21565b611530576040517f08c379a00000000000000000000000000000000000000000000000000000000081526004016115279061379f565b60405180910390fd5b61153c848484846120c0565b50505050565b600061154e6008611f30565b905080600d6000848152602001908152602001600020819055506115726008611f3e565b61157d8482856116f3565b600b60008573ffffffffffffffffffffffffffffffffffffffff1673ffffffffffffffffffffffffffffffffffffffff16815260200190815260200160002081908060018154018082558091505060019003906000526020600020016000909190919091505560405180606001604052808281526020018573ffffffffffffffffffffffffffffffffffffffff16815260200184815250600c60008381526020019081526020016000206000820151816000015560208201518160010160006101000a81548173ffffffffffffffffffffffffffffffffffffffff021916908373ffffffffffffffffffffffffffffffffffffffff160217905550604082015181600201908161168d9190613a69565b5090505050505050565b6116a1838361211c565b6116ab828261213a565b505050565b60606116bb826121de565b9050919050565b601160205281600052604060002081815481106116de57600080fd5b90600052602060002001600091509150505481565b6116fd838361211c565b611707828261213a565b505050565b6000600c600083815260200190815260200160002060010160009054906101000a900473ffffffffffffffffffffffffffffffffffffffff169050919050565b60106020528060005260406000206000915054906101000a900460ff1681565b600b602052816000526040600020818154811061178857600080fd5b90600052602060002001600091509150505481565b6000600560008473ffffffffffffffffffffffffffffffffffffffff1673ffffffffffffffffffffffffffffffffffffffff16815260200190815260200160002060008373ffffffffffffffffffffffffffffffffffffffff1673ffffffffffffffffffffffffffffffffffffffff16815260200190815260200160002060009054906101000a900460ff16905092915050565b611839611dec565b600073ffffffffffffffffffffffffffffffffffffffff168173ffffffffffffffffffffffffffffffffffffffff16036118a8576040517f08c379a000000000000000000000000000000000000000000000000000000000815260040161189f90613bad565b60405180910390fd5b6118b181611e6a565b50565b6000634906490660e01b7bffffffffffffffffffffffffffffffffffffffffffffffffffffffff1916827bffffffffffffffffffffffffffffffffffffffffffffffffffffffff1916148061190e575061190d826122f0565b5b9050919050565b61191e816123d2565b61195d576040517f08c379a00000000000000000000000000000000000000000000000000000000081526004016119549061380b565b60405180910390fd5b50565b600033905090565b816004600083815260200190815260200160002060006101000a81548173ffffffffffffffffffffffffffffffffffffffff021916908373ffffffffffffffffffffffffffffffffffffffff160217905550808273ffffffffffffffffffffffffffffffffffffffff166119db83610d92565b73ffffffffffffffffffffffffffffffffffffffff167f8c5be1e5ebec7d5bd14f71427d1e84f3dd0314c0f7b2291e5b200ac8c7c3b92560405160405180910390a45050565b600080611a2d83610d92565b90508073ffffffffffffffffffffffffffffffffffffffff168473ffffffffffffffffffffffffffffffffffffffff161480611a6f5750611a6e818561179d565b5b80611aad57508373ffffffffffffffffffffffffffffffffffffffff16611a95846107dd565b73ffffffffffffffffffffffffffffffffffffffff16145b91505092915050565b8273ffffffffffffffffffffffffffffffffffffffff16611ad682610d92565b73ffffffffffffffffffffffffffffffffffffffff1614611b2c576040517f08c379a0000000000000000000000000000000000000000000000000000000008152600401611b2390613c3f565b60405180910390fd5b600073ffffffffffffffffffffffffffffffffffffffff168273ffffffffffffffffffffffffffffffffffffffff1603611b9b576040517f08c379a0000000000000000000000000000000000000000000000000000000008152600401611b9290613cd1565b60405180910390fd5b611ba88383836001612413565b8273ffffffffffffffffffffffffffffffffffffffff16611bc882610d92565b73ffffffffffffffffffffffffffffffffffffffff1614611c1e576040517f08c379a0000000000000000000000000000000000000000000000000000000008152600401611c1590613c3f565b60405180910390fd5b6004600082815260200190815260200160002060006101000a81549073ffffffffffffffffffffffffffffffffffffffff02191690556001600360008573ffffffffffffffffffffffffffffffffffffffff1673ffffffffffffffffffffffffffffffffffffffff168152602001908152602001600020600082825403925050819055506001600360008473ffffffffffffffffffffffffffffffffffffffff1673ffffffffffffffffffffffffffffffffffffffff16815260200190815260200160002060008282540192505081905550816002600083815260200190815260200160002060006101000a81548173ffffffffffffffffffffffffffffffffffffffff021916908373ffffffffffffffffffffffffffffffffffffffff160217905550808273ffffffffffffffffffffffffffffffffffffffff168473ffffffffffffffffffffffffffffffffffffffff167fddf252ad1be2c89b69c2b068fc378daa952ba7f163c4a11628f55a4df523b3ef60405160405180910390a4611daa8383836001612419565b505050565b60006002600083815260200190815260200160002060009054906101000a900473ffffffffffffffffffffffffffffffffffffffff169050919050565b611df4611960565b73ffffffffffffffffffffffffffffffffffffffff16611e1261128d565b73ffffffffffffffffffffffffffffffffffffffff1614611e68576040517f08c379a0000000000000000000000000000000000000000000000000000000008152600401611e5f90613d3d565b60405180910390fd5b565b6000600760009054906101000a900473ffffffffffffffffffffffffffffffffffffffff16905081600760006101000a81548173ffffffffffffffffffffffffffffffffffffffff021916908373ffffffffffffffffffffffffffffffffffffffff1602179055508173ffffffffffffffffffffffffffffffffffffffff168173ffffffffffffffffffffffffffffffffffffffff167f8be0079c531659141344cd1fd0a4f28419497f9722a3daafe3b4186f6b6457e060405160405180910390a35050565b600081600001549050919050565b6001816000016000828254019250508190555050565b8173ffffffffffffffffffffffffffffffffffffffff168373ffffffffffffffffffffffffffffffffffffffff1603611fc2576040517f08c379a0000000000000000000000000000000000000000000000000000000008152600401611fb990613da9565b60405180910390fd5b80600560008573ffffffffffffffffffffffffffffffffffffffff1673ffffffffffffffffffffffffffffffffffffffff16815260200190815260200160002060008473ffffffffffffffffffffffffffffffffffffffff1673ffffffffffffffffffffffffffffffffffffffff16815260200190815260200160002060006101000a81548160ff0219169083151502179055508173ffffffffffffffffffffffffffffffffffffffff168373ffffffffffffffffffffffffffffffffffffffff167f17307eab39ab6107e8899845ad3d59bd9653f200f220920489ca2b5937696c31836040516120b39190612c6d565b60405180910390a3505050565b6120cb848484611ab6565b6120d78484848461241f565b612116576040517f08c379a000000000000000000000000000000000000000000000000000000000815260040161210d90613e3b565b60405180910390fd5b50505050565b6121368282604051806020016040528060008152506125a6565b5050565b612143826123d2565b612182576040517f08c379a000000000000000000000000000000000000000000000000000000000815260040161217990613ecd565b60405180910390fd5b806006600084815260200190815260200160002090816121a29190613a69565b507ff8e1a15aba9398e019f0b49df1a4fde98ee17ae345cb5f6b5e2c27f5033e8ce7826040516121d2919061314f565b60405180910390a15050565b60606121e982611915565b6000600660008481526020019081526020016000208054612209906135d8565b80601f0160208091040260200160405190810160405280929190818152602001828054612235906135d8565b80156122825780601f1061225757610100808354040283529160200191612282565b820191906000526020600020905b81548152906001019060200180831161226557829003601f168201915b505050505090506000612293612601565b905060008151036122a85781925050506122eb565b6000825111156122dd5780826040516020016122c5929190613f29565b604051602081830303815290604052925050506122eb565b6122e684612618565b925050505b919050565b60007f80ac58cd000000000000000000000000000000000000000000000000000000007bffffffffffffffffffffffffffffffffffffffffffffffffffffffff1916827bffffffffffffffffffffffffffffffffffffffffffffffffffffffff191614806123bb57507f5b5e139f000000000000000000000000000000000000000000000000000000007bffffffffffffffffffffffffffffffffffffffffffffffffffffffff1916827bffffffffffffffffffffffffffffffffffffffffffffffffffffffff1916145b806123cb57506123ca82612680565b5b9050919050565b60008073ffffffffffffffffffffffffffffffffffffffff166123f483611daf565b73ffffffffffffffffffffffffffffffffffffffff1614159050919050565b50505050565b50505050565b60006124408473ffffffffffffffffffffffffffffffffffffffff166126ea565b15612599578373ffffffffffffffffffffffffffffffffffffffff1663150b7a02612469611960565b8786866040518563ffffffff1660e01b815260040161248b9493929190613fa2565b6020604051808303816000875af19250505080156124c757506040513d601f19601f820116820180604052508101906124c49190614003565b60015b612549573d80600081146124f7576040519150601f19603f3d011682016040523d82523d6000602084013e6124fc565b606091505b506000815103612541576040517f08c379a000000000000000000000000000000000000000000000000000000000815260040161253890613e3b565b60405180910390fd5b805181602001fd5b63150b7a0260e01b7bffffffffffffffffffffffffffffffffffffffffffffffffffffffff1916817bffffffffffffffffffffffffffffffffffffffffffffffffffffffff19161491505061259e565b600190505b949350505050565b6125b0838361270d565b6125bd600084848461241f565b6125fc576040517f08c379a00000000000000000000000000000000000000000000000000000000081526004016125f390613e3b565b60405180910390fd5b505050565b606060405180602001604052806000815250905090565b606061262382611915565b600061262d612601565b9050600081511161264d5760405180602001604052806000815250612678565b806126578461292a565b604051602001612668929190613f29565b6040516020818303038152906040525b915050919050565b60007f01ffc9a7000000000000000000000000000000000000000000000000000000007bffffffffffffffffffffffffffffffffffffffffffffffffffffffff1916827bffffffffffffffffffffffffffffffffffffffffffffffffffffffff1916149050919050565b6000808273ffffffffffffffffffffffffffffffffffffffff163b119050919050565b600073ffffffffffffffffffffffffffffffffffffffff168273ffffffffffffffffffffffffffffffffffffffff160361277c576040517f08c379a00000000000000000000000000000000000000000000000000000000081526004016127739061407c565b60405180910390fd5b612785816123d2565b156127c5576040517f08c379a00000000000000000000000000000000000000000000000000000000081526004016127bc906140e8565b60405180910390fd5b6127d3600083836001612413565b6127dc816123d2565b1561281c576040517f08c379a0000000000000000000000000000000000000000000000000000000008152600401612813906140e8565b60405180910390fd5b6001600360008473ffffffffffffffffffffffffffffffffffffffff1673ffffffffffffffffffffffffffffffffffffffff16815260200190815260200160002060008282540192505081905550816002600083815260200190815260200160002060006101000a81548173ffffffffffffffffffffffffffffffffffffffff021916908373ffffffffffffffffffffffffffffffffffffffff160217905550808273ffffffffffffffffffffffffffffffffffffffff16600073ffffffffffffffffffffffffffffffffffffffff167fddf252ad1be2c89b69c2b068fc378daa952ba7f163c4a11628f55a4df523b3ef60405160405180910390a4612926600083836001612419565b5050565b606060006001612939846129f8565b01905060008167ffffffffffffffff81111561295857612957613174565b5b6040519080825280601f01601f19166020018201604052801561298a5781602001600182028036833780820191505090505b509050600082602001820190505b6001156129ed578080600190039150507f3031323334353637383961626364656600000000000000000000000000000000600a86061a8153600a85816129e1576129e0614108565b5b04945060008503612998575b819350505050919050565b600080600090507a184f03e93ff9f4daa797ed6e38ed64bf6a1f0100000000000000008310612a56577a184f03e93ff9f4daa797ed6e38ed64bf6a1f0100000000000000008381612a4c57612a4b614108565b5b0492506040810190505b6d04ee2d6d415b85acef81000000008310612a93576d04ee2d6d415b85acef81000000008381612a8957612a88614108565b5b0492506020810190505b662386f26fc100008310612ac257662386f26fc100008381612ab857612ab7614108565b5b0492506010810190505b6305f5e1008310612aeb576305f5e1008381612ae157612ae0614108565b5b0492506008810190505b6127108310612b10576127108381612b0657612b05614108565b5b0492506004810190505b60648310612b335760648381612b2957612b28614108565b5b0492506002810190505b600a8310612b42576001810190505b80915050919050565b604051806060016040528060008152602001600073ffffffffffffffffffffffffffffffffffffffff168152602001606081525090565b604051806060016040528060008152602001600073ffffffffffffffffffffffffffffffffffffffff168152602001606081525090565b6000604051905090565b600080fd5b600080fd5b60007fffffffff0000000000000000000000000000000000000000000000000000000082169050919050565b612c0281612bcd565b8114612c0d57600080fd5b50565b600081359050612c1f81612bf9565b92915050565b600060208284031215612c3b57612c3a612bc3565b5b6000612c4984828501612c10565b91505092915050565b60008115159050919050565b612c6781612c52565b82525050565b6000602082019050612c826000830184612c5e565b92915050565b600081519050919050565b600082825260208201905092915050565b60005b83811015612cc2578082015181840152602081019050612ca7565b60008484015250505050565b6000601f19601f8301169050919050565b6000612cea82612c88565b612cf48185612c93565b9350612d04818560208601612ca4565b612d0d81612cce565b840191505092915050565b60006020820190508181036000830152612d328184612cdf565b905092915050565b6000819050919050565b612d4d81612d3a565b8114612d5857600080fd5b50565b600081359050612d6a81612d44565b92915050565b600060208284031215612d8657612d85612bc3565b5b6000612d9484828501612d5b565b91505092915050565b600073ffffffffffffffffffffffffffffffffffffffff82169050919050565b6000612dc882612d9d565b9050919050565b612dd881612dbd565b82525050565b6000602082019050612df36000830184612dcf565b92915050565b612e0281612dbd565b8114612e0d57600080fd5b50565b600081359050612e1f81612df9565b92915050565b60008060408385031215612e3c57612e3b612bc3565b5b6000612e4a85828601612e10565b9250506020612e5b85828601612d5b565b9150509250929050565b612e6e81612d3a565b82525050565b612e7d81612dbd565b82525050565b600082825260208201905092915050565b6000612e9f82612c88565b612ea98185612e83565b9350612eb9818560208601612ca4565b612ec281612cce565b840191505092915050565b6000606083016000830151612ee56000860182612e65565b506020830151612ef86020860182612e74565b5060408301518482036040860152612f108282612e94565b9150508091505092915050565b60006020820190508181036000830152612f378184612ecd565b905092915050565b600080600060608486031215612f5857612f57612bc3565b5b6000612f6686828701612e10565b9350506020612f7786828701612e10565b9250506040612f8886828701612d5b565b9150509250925092565b6000606083016000830151612faa6000860182612e65565b506020830151612fbd6020860182612e74565b5060408301518482036040860152612fd58282612e94565b9150508091505092915050565b60006020820190508181036000830152612ffc8184612f92565b905092915050565b60006020828403121561301a57613019612bc3565b5b600061302884828501612e10565b91505092915050565b600081519050919050565b600082825260208201905092915050565b6000819050602082019050919050565b60006130698383612e65565b60208301905092915050565b6000602082019050919050565b600061308d82613031565b613097818561303c565b93506130a28361304d565b8060005b838110156130d35781516130ba888261305d565b97506130c583613075565b9250506001810190506130a6565b5085935050505092915050565b600060208201905081810360008301526130fa8184613082565b905092915050565b61310b81612d3a565b82525050565b60006060820190506131266000830186613102565b6131336020830185612dcf565b81810360408301526131458184612cdf565b9050949350505050565b60006020820190506131646000830184613102565b92915050565b600080fd5b600080fd5b7f4e487b7100000000000000000000000000000000000000000000000000000000600052604160045260246000fd5b6131ac82612cce565b810181811067ffffffffffffffff821117156131cb576131ca613174565b5b80604052505050565b60006131de612bb9565b90506131ea82826131a3565b919050565b600067ffffffffffffffff82111561320a57613209613174565b5b61321382612cce565b9050602081019050919050565b82818337600083830152505050565b600061324261323d846131ef565b6131d4565b90508281526020810184848401111561325e5761325d61316f565b5b613269848285613220565b509392505050565b600082601f8301126132865761328561316a565b5b813561329684826020860161322f565b91505092915050565b600080604083850312156132b6576132b5612bc3565b5b60006132c485828601612e10565b925050602083013567ffffffffffffffff8111156132e5576132e4612bc8565b5b6132f185828601613271565b9150509250929050565b61330481612c52565b811461330f57600080fd5b50565b600081359050613321816132fb565b92915050565b6000806040838503121561333e5761333d612bc3565b5b600061334c85828601612e10565b925050602061335d85828601613312565b9150509250929050565b600067ffffffffffffffff82111561338257613381613174565b5b61338b82612cce565b9050602081019050919050565b60006133ab6133a684613367565b6131d4565b9050828152602081018484840111156133c7576133c661316f565b5b6133d2848285613220565b509392505050565b600082601f8301126133ef576133ee61316a565b5b81356133ff848260208601613398565b91505092915050565b6000806000806080858703121561342257613421612bc3565b5b600061343087828801612e10565b945050602061344187828801612e10565b935050604061345287828801612d5b565b925050606085013567ffffffffffffffff81111561347357613472612bc8565b5b61347f878288016133da565b91505092959194509250565b6000806000606084860312156134a4576134a3612bc3565b5b60006134b286828701612e10565b935050602084013567ffffffffffffffff8111156134d3576134d2612bc8565b5b6134df86828701613271565b92505060406134f086828701612d5b565b9150509250925092565b60008060006060848603121561351357613512612bc3565b5b600061352186828701612e10565b935050602061353286828701612d5b565b925050604084013567ffffffffffffffff81111561355357613552612bc8565b5b61355f86828701613271565b9150509250925092565b600080604083850312156135805761357f612bc3565b5b600061358e85828601612e10565b925050602061359f85828601612e10565b9150509250929050565b7f4e487b7100000000000000000000000000000000000000000000000000000000600052602260045260246000fd5b600060028204905060018216806135f057607f821691505b602082108103613603576136026135a9565b5b50919050565b7f4552433732313a20617070726f76616c20746f2063757272656e74206f776e6560008201527f7200000000000000000000000000000000000000000000000000000000000000602082015250565b6000613665602183612c93565b915061367082613609565b604082019050919050565b6000602082019050818103600083015261369481613658565b9050919050565b7f4552433732313a20617070726f76652063616c6c6572206973206e6f7420746f60008201527f6b656e206f776e6572206f7220617070726f76656420666f7220616c6c000000602082015250565b60006136f7603d83612c93565b91506137028261369b565b604082019050919050565b60006020820190508181036000830152613726816136ea565b9050919050565b7f4552433732313a2063616c6c6572206973206e6f7420746f6b656e206f776e6560008201527f72206f7220617070726f76656400000000000000000000000000000000000000602082015250565b6000613789602d83612c93565b91506137948261372d565b604082019050919050565b600060208201905081810360008301526137b88161377c565b9050919050565b7f4552433732313a20696e76616c696420746f6b656e2049440000000000000000600082015250565b60006137f5601883612c93565b9150613800826137bf565b602082019050919050565b60006020820190508181036000830152613824816137e8565b9050919050565b7f4552433732313a2061646472657373207a65726f206973206e6f74206120766160008201527f6c6964206f776e65720000000000000000000000000000000000000000000000602082015250565b6000613887602983612c93565b91506138928261382b565b604082019050919050565b600060208201905081810360008301526138b68161387a565b9050919050565b60008190508160005260206000209050919050565b60006020601f8301049050919050565b600082821b905092915050565b60006008830261391f7fffffffffffffffffffffffffffffffffffffffffffffffffffffffffffffffff826138e2565b61392986836138e2565b95508019841693508086168417925050509392505050565b6000819050919050565b600061396661396161395c84612d3a565b613941565b612d3a565b9050919050565b6000819050919050565b6139808361394b565b61399461398c8261396d565b8484546138ef565b825550505050565b600090565b6139a961399c565b6139b4818484613977565b505050565b5b818110156139d8576139cd6000826139a1565b6001810190506139ba565b5050565b601f821115613a1d576139ee816138bd565b6139f7846138d2565b81016020851015613a06578190505b613a1a613a12856138d2565b8301826139b9565b50505b505050565b600082821c905092915050565b6000613a4060001984600802613a22565b1980831691505092915050565b6000613a598383613a2f565b9150826002028217905092915050565b613a7282612c88565b67ffffffffffffffff811115613a8b57613a8a613174565b5b613a9582546135d8565b613aa08282856139dc565b600060209050601f831160018114613ad35760008415613ac1578287015190505b613acb8582613a4d565b865550613b33565b601f198416613ae1866138bd565b60005b82811015613b0957848901518255600182019150602085019450602081019050613ae4565b86831015613b265784890151613b22601f891682613a2f565b8355505b6001600288020188555050505b505050505050565b7f4f776e61626c653a206e6577206f776e657220697320746865207a65726f206160008201527f6464726573730000000000000000000000000000000000000000000000000000602082015250565b6000613b97602683612c93565b9150613ba282613b3b565b604082019050919050565b60006020820190508181036000830152613bc681613b8a565b9050919050565b7f4552433732313a207472616e736665722066726f6d20696e636f72726563742060008201527f6f776e6572000000000000000000000000000000000000000000000000000000602082015250565b6000613c29602583612c93565b9150613c3482613bcd565b604082019050919050565b60006020820190508181036000830152613c5881613c1c565b9050919050565b7f4552433732313a207472616e7366657220746f20746865207a65726f2061646460008201527f7265737300000000000000000000000000000000000000000000000000000000602082015250565b6000613cbb602483612c93565b9150613cc682613c5f565b604082019050919050565b60006020820190508181036000830152613cea81613cae565b9050919050565b7f4f776e61626c653a2063616c6c6572206973206e6f7420746865206f776e6572600082015250565b6000613d27602083612c93565b9150613d3282613cf1565b602082019050919050565b60006020820190508181036000830152613d5681613d1a565b9050919050565b7f4552433732313a20617070726f766520746f2063616c6c657200000000000000600082015250565b6000613d93601983612c93565b9150613d9e82613d5d565b602082019050919050565b60006020820190508181036000830152613dc281613d86565b9050919050565b7f4552433732313a207472616e7366657220746f206e6f6e20455243373231526560008201527f63656976657220696d706c656d656e7465720000000000000000000000000000602082015250565b6000613e25603283612c93565b9150613e3082613dc9565b604082019050919050565b60006020820190508181036000830152613e5481613e18565b9050919050565b7f45524337323155524953746f726167653a2055524920736574206f66206e6f6e60008201527f6578697374656e7420746f6b656e000000000000000000000000000000000000602082015250565b6000613eb7602e83612c93565b9150613ec282613e5b565b604082019050919050565b60006020820190508181036000830152613ee681613eaa565b9050919050565b600081905092915050565b6000613f0382612c88565b613f0d8185613eed565b9350613f1d818560208601612ca4565b80840191505092915050565b6000613f358285613ef8565b9150613f418284613ef8565b91508190509392505050565b600081519050919050565b600082825260208201905092915050565b6000613f7482613f4d565b613f7e8185613f58565b9350613f8e818560208601612ca4565b613f9781612cce565b840191505092915050565b6000608082019050613fb76000830187612dcf565b613fc46020830186612dcf565b613fd16040830185613102565b8181036060830152613fe38184613f69565b905095945050505050565b600081519050613ffd81612bf9565b92915050565b60006020828403121561401957614018612bc3565b5b600061402784828501613fee565b91505092915050565b7f4552433732313a206d696e7420746f20746865207a65726f2061646472657373600082015250565b6000614066602083612c93565b915061407182614030565b602082019050919050565b6000602082019050818103600083015261409581614059565b9050919050565b7f4552433732313a20746f6b656e20616c7265616479206d696e74656400000000600082015250565b60006140d2601c83612c93565b91506140dd8261409c565b602082019050919050565b60006020820190508181036000830152614101816140c5565b9050919050565b7f4e487b7100000000000000000000000000000000000000000000000000000000600052601260045260246000fdfea2646970667358221220af73783893f9bbc72a078dbc63341bfec1ced212e86bd5b47188c3193e9bb33164736f6c63430008130033",
  "linkReferences": {},
  "deployedLinkReferences": {}
}