{
  "_format": "hh-sol-artifact-1",
  "contractName": "TemplateNFT",
  "sourceName": "contracts/TemplateNFT.sol",
  "abi": [
    {
      "inputs": [],
      "stateMutability": "nonpayable",
      "type": "constructor"
    },
    {
      "anonymous": false,
      "inputs": [
        {
          "indexed": true,
          "internalType": "address",
          "name": "owner",
          "type": "address"
        },
        {
          "indexed": true,
          "internalType": "address",
          "name": "approved",
          "type": "address"
        },
        {
          "indexed": true,
          "internalType": "uint256",
          "name": "tokenId",
          "type": "uint256"
        }
      ],
      "name": "Approval",
      "type": "event"
    },
    {
      "anonymous": false,
      "inputs": [
        {
          "indexed": true,
          "internalType": "address",
          "name": "owner",
          "type": "address"
        },
        {
          "indexed": true,
          "internalType": "address",
          "name": "operator",
          "type": "address"
        },
        {
          "indexed": false,
          "internalType": "bool",
          "name": "approved",
          "type": "bool"
        }
      ],
      "name": "ApprovalForAll",
      "type": "event"
    },
    {
      "anonymous": false,
      "inputs": [
        {
          "indexed": false,
          "internalType": "uint256",
          "name": "_fromTokenId",
          "type": "uint256"
        },
        {
          "indexed": false,
          "internalType": "uint256",
          "name": "_toTokenId",
          "type": "uint256"
        }
      ],
      "name": "BatchMetadataUpdate",
      "type": "event"
    },
    {
      "anonymous": false,
      "inputs": [
        {
          "indexed": false,
          "internalType": "uint256",
          "name": "_tokenId",
          "type": "uint256"
        }
      ],
      "name": "MetadataUpdate",
      "type": "event"
    },
    {
      "anonymous": false,
      "inputs": [
        {
          "indexed": true,
          "internalType": "address",
          "name": "previousOwner",
          "type": "address"
        },
        {
          "indexed": true,
          "internalType": "address",
          "name": "newOwner",
          "type": "address"
        }
      ],
      "name": "OwnershipTransferred",
      "type": "event"
    },
    {
      "anonymous": false,
      "inputs": [
        {
          "indexed": true,
          "internalType": "address",
          "name": "from",
          "type": "address"
        },
        {
          "indexed": true,
          "internalType": "address",
          "name": "to",
          "type": "address"
        },
        {
          "indexed": true,
          "internalType": "uint256",
          "name": "tokenId",
          "type": "uint256"
        }
      ],
      "name": "Transfer",
      "type": "event"
    },
    {
      "inputs": [
        {
          "internalType": "address",
          "name": "to",
          "type": "address"
        },
        {
          "internalType": "uint256",
          "name": "tokenId",
          "type": "uint256"
        }
      ],
      "name": "approve",
      "outputs": [],
      "stateMutability": "nonpayable",
      "type": "function"
    },
    {
      "inputs": [
        {
          "internalType": "address",
          "name": "owner",
          "type": "address"
        }
      ],
      "name": "balanceOf",
      "outputs": [
        {
          "internalType": "uint256",
          "name": "",
          "type": "uint256"
        }
      ],
      "stateMutability": "view",
      "type": "function"
    },
    {
      "inputs": [
        {
          "internalType": "uint256",
          "name": "",
          "type": "uint256"
        }
      ],
      "name": "creatorIdTocreatorData",
      "outputs": [
        {
          "internalType": "uint256",
          "name": "creatorId",
          "type": "uint256"
        },
        {
          "internalType": "address",
          "name": "owner",
          "type": "address"
        },
        {
          "internalType": "string",
          "name": "badgeIpfsUri",
          "type": "string"
        }
      ],
      "stateMutability": "view",
      "type": "function"
    },
    {
      "inputs": [
        {
          "internalType": "address",
          "name": "_user",
          "type": "address"
        }
      ],
      "name": "getAlltemplateIDS",
      "outputs": [
        {
          "internalType": "uint256[]",
          "name": "",
          "type": "uint256[]"
        }
      ],
      "stateMutability": "view",
      "type": "function"
    },
    {
      "inputs": [
        {
          "internalType": "uint256",
          "name": "tokenId",
          "type": "uint256"
        }
      ],
      "name": "getApproved",
      "outputs": [
        {
          "internalType": "address",
          "name": "",
          "type": "address"
        }
      ],
      "stateMutability": "view",
      "type": "function"
    },
    {
      "inputs": [
        {
          "internalType": "uint256",
          "name": "_templateId",
          "type": "uint256"
        }
      ],
      "name": "getTemplateDetails",
      "outputs": [
        {
          "internalType": "address",
          "name": "",
          "type": "address"
        }
      ],
      "stateMutability": "view",
      "type": "function"
    },
    {
      "inputs": [
        {
          "internalType": "address",
          "name": "_user",
          "type": "address"
        }
      ],
      "name": "getUsercreatorNFTs",
      "outputs": [
        {
          "internalType": "uint256[]",
          "name": "",
          "type": "uint256[]"
        }
      ],
      "stateMutability": "view",
      "type": "function"
    },
    {
      "inputs": [
        {
          "internalType": "uint256",
          "name": "",
          "type": "uint256"
        }
      ],
      "name": "idToTemplateData",
      "outputs": [
        {
          "internalType": "uint256",
          "name": "tokenIds",
          "type": "uint256"
        },
        {
          "internalType": "address",
          "name": "creator",
          "type": "address"
        },
        {
          "internalType": "string",
          "name": "tokenIpfsUri",
          "type": "string"
        }
      ],
      "stateMutability": "view",
      "type": "function"
    },
    {
      "inputs": [
        {
          "internalType": "address",
          "name": "owner",
          "type": "address"
        },
        {
          "internalType": "address",
          "name": "operator",
          "type": "address"
        }
      ],
      "name": "isApprovedForAll",
      "outputs": [
        {
          "internalType": "bool",
          "name": "",
          "type": "bool"
        }
      ],
      "stateMutability": "view",
      "type": "function"
    },
    {
      "inputs": [
        {
          "internalType": "uint256",
          "name": "",
          "type": "uint256"
        }
      ],
      "name": "memberIdTomemberData",
      "outputs": [
        {
          "internalType": "uint256",
          "name": "memberId",
          "type": "uint256"
        },
        {
          "internalType": "address",
          "name": "member",
          "type": "address"
        },
        {
          "internalType": "string",
          "name": "memberIpfsUri",
          "type": "string"
        }
      ],
      "stateMutability": "view",
      "type": "function"
    },
    {
      "inputs": [
        {
          "internalType": "address",
          "name": "_to",
          "type": "address"
        },
        {
          "internalType": "string",
          "name": "_uri",
          "type": "string"
        }
      ],
      "name": "mintMemberNFT",
      "outputs": [],
      "stateMutability": "nonpayable",
      "type": "function"
    },
    {
      "inputs": [
        {
          "internalType": "address",
          "name": "_to",
          "type": "address"
        },
        {
          "internalType": "string",
          "name": "_uri",
          "type": "string"
        },
        {
          "internalType": "uint256",
          "name": "_proposalId",
          "type": "uint256"
        }
      ],
      "name": "mintTemplate",
      "outputs": [],
      "stateMutability": "nonpayable",
      "type": "function"
    },
    {
      "inputs": [
        {
          "internalType": "address",
          "name": "_to",
          "type": "address"
        },
        {
          "internalType": "string",
          "name": "_uri",
          "type": "string"
        }
      ],
      "name": "mintcreatorNFT",
      "outputs": [],
      "stateMutability": "nonpayable",
      "type": "function"
    },
    {
      "inputs": [],
      "name": "name",
      "outputs": [
        {
          "internalType": "string",
          "name": "",
          "type": "string"
        }
      ],
      "stateMutability": "view",
      "type": "function"
    },
    {
      "inputs": [],
      "name": "owner",
      "outputs": [
        {
          "internalType": "address",
          "name": "",
          "type": "address"
        }
      ],
      "stateMutability": "view",
      "type": "function"
    },
    {
      "inputs": [
        {
          "internalType": "uint256",
          "name": "tokenId",
          "type": "uint256"
        }
      ],
      "name": "ownerOf",
      "outputs": [
        {
          "internalType": "address",
          "name": "",
          "type": "address"
        }
      ],
      "stateMutability": "view",
      "type": "function"
    },
    {
      "inputs": [
        {
          "internalType": "uint256",
          "name": "",
          "type": "uint256"
        }
      ],
      "name": "proposalIdToTempId",
      "outputs": [
        {
          "internalType": "uint256",
          "name": "",
          "type": "uint256"
        }
      ],
      "stateMutability": "view",
      "type": "function"
    },
    {
      "inputs": [],
      "name": "renounceOwnership",
      "outputs": [],
      "stateMutability": "nonpayable",
      "type": "function"
    },
    {
      "inputs": [
        {
          "internalType": "address",
          "name": "to",
          "type": "address"
        },
        {
          "internalType": "uint256",
          "name": "tokenId",
          "type": "uint256"
        },
        {
          "internalType": "string",
          "name": "uri",
          "type": "string"
        }
      ],
      "name": "safeMint",
      "outputs": [],
      "stateMutability": "nonpayable",
      "type": "function"
    },
    {
      "inputs": [
        {
          "internalType": "address",
          "name": "from",
          "type": "address"
        },
        {
          "internalType": "address",
          "name": "to",
          "type": "address"
        },
        {
          "internalType": "uint256",
          "name": "tokenId",
          "type": "uint256"
        }
      ],
      "name": "safeTransferFrom",
      "outputs": [],
      "stateMutability": "nonpayable",
      "type": "function"
    },
    {
      "inputs": [
        {
          "internalType": "address",
          "name": "from",
          "type": "address"
        },
        {
          "internalType": "address",
          "name": "to",
          "type": "address"
        },
        {
          "internalType": "uint256",
          "name": "tokenId",
          "type": "uint256"
        },
        {
          "internalType": "bytes",
          "name": "data",
          "type": "bytes"
        }
      ],
      "name": "safeTransferFrom",
      "outputs": [],
      "stateMutability": "nonpayable",
      "type": "function"
    },
    {
      "inputs": [
        {
          "internalType": "address",
          "name": "operator",
          "type": "address"
        },
        {
          "internalType": "bool",
          "name": "approved",
          "type": "bool"
        }
      ],
      "name": "setApprovalForAll",
      "outputs": [],
      "stateMutability": "nonpayable",
      "type": "function"
    },
    {
      "inputs": [
        {
          "internalType": "address",
          "name": "_address",
          "type": "address"
        }
      ],
      "name": "setSamhitaAddress",
      "outputs": [],
      "stateMutability": "nonpayable",
      "type": "function"
    },
    {
      "inputs": [
        {
          "internalType": "bytes4",
          "name": "interfaceId",
          "type": "bytes4"
        }
      ],
      "name": "supportsInterface",
      "outputs": [
        {
          "internalType": "bool",
          "name": "",
          "type": "bool"
        }
      ],
      "stateMutability": "view",
      "type": "function"
    },
    {
      "inputs": [],
      "name": "symbol",
      "outputs": [
        {
          "internalType": "string",
          "name": "",
          "type": "string"
        }
      ],
      "stateMutability": "view",
      "type": "function"
    },
    {
      "inputs": [
        {
          "internalType": "address",
          "name": "",
          "type": "address"
        },
        {
          "internalType": "uint256",
          "name": "",
          "type": "uint256"
        }
      ],
      "name": "templateIdToUser",
      "outputs": [
        {
          "internalType": "uint256",
          "name": "",
          "type": "uint256"
        }
      ],
      "stateMutability": "view",
      "type": "function"
    },
    {
      "inputs": [
        {
          "internalType": "uint256",
          "name": "tokenId",
          "type": "uint256"
        }
      ],
      "name": "tokenURI",
      "outputs": [
        {
          "internalType": "string",
          "name": "",
          "type": "string"
        }
      ],
      "stateMutability": "view",
      "type": "function"
    },
    {
      "inputs": [
        {
          "internalType": "address",
          "name": "from",
          "type": "address"
        },
        {
          "internalType": "address",
          "name": "to",
          "type": "address"
        },
        {
          "internalType": "uint256",
          "name": "tokenId",
          "type": "uint256"
        }
      ],
      "name": "transferFrom",
      "outputs": [],
      "stateMutability": "nonpayable",
      "type": "function"
    },
    {
      "inputs": [
        {
          "internalType": "address",
          "name": "newOwner",
          "type": "address"
        }
      ],
      "name": "transferOwnership",
      "outputs": [],
      "stateMutability": "nonpayable",
      "type": "function"
    },
    {
      "inputs": [
        {
          "internalType": "address",
          "name": "",
          "type": "address"
        },
        {
          "internalType": "uint256",
          "name": "",
          "type": "uint256"
        }
      ],
      "name": "userTocreatorNFTs",
      "outputs": [
        {
          "internalType": "uint256",
          "name": "",
          "type": "uint256"
        }
      ],
      "stateMutability": "view",
      "type": "function"
    },
    {
      "inputs": [
        {
          "internalType": "address",
          "name": "",
          "type": "address"
        },
        {
          "internalType": "uint256",
          "name": "",
          "type": "uint256"
        }
      ],
      "name": "userTomemberNFTs",
      "outputs": [
        {
          "internalType": "uint256",
          "name": "",
          "type": "uint256"
        }
      ],
      "stateMutability": "view",
      "type": "function"
    }
  ],
  "bytecode": "0x60806040523480156200001157600080fd5b506040518060400160405280600a81526020017f4d7954656d706c617465000000000000000000000000000000000000000000008152506040518060400160405280600381526020017f4d544c000000000000000000000000000000000000000000000000000000000081525081600090816200008f919062000412565b508060019081620000a1919062000412565b505050620000c4620000b8620000ca60201b60201c565b620000d260201b60201c565b620004f9565b600033905090565b6000600760009054906101000a900473ffffffffffffffffffffffffffffffffffffffff16905081600760006101000a81548173ffffffffffffffffffffffffffffffffffffffff021916908373ffffffffffffffffffffffffffffffffffffffff1602179055508173ffffffffffffffffffffffffffffffffffffffff168173ffffffffffffffffffffffffffffffffffffffff167f8be0079c531659141344cd1fd0a4f28419497f9722a3daafe3b4186f6b6457e060405160405180910390a35050565b600081519050919050565b7f4e487b7100000000000000000000000000000000000000000000000000000000600052604160045260246000fd5b7f4e487b7100000000000000000000000000000000000000000000000000000000600052602260045260246000fd5b600060028204905060018216806200021a57607f821691505b60208210810362000230576200022f620001d2565b5b50919050565b60008190508160005260206000209050919050565b60006020601f8301049050919050565b600082821b905092915050565b6000600883026200029a7fffffffffffffffffffffffffffffffffffffffffffffffffffffffffffffffff826200025b565b620002a686836200025b565b95508019841693508086168417925050509392505050565b6000819050919050565b6000819050919050565b6000620002f3620002ed620002e784620002be565b620002c8565b620002be565b9050919050565b6000819050919050565b6200030f83620002d2565b620003276200031e82620002fa565b84845462000268565b825550505050565b600090565b6200033e6200032f565b6200034b81848462000304565b505050565b5b8181101562000373576200036760008262000334565b60018101905062000351565b5050565b601f821115620003c2576200038c8162000236565b62000397846200024b565b81016020851015620003a7578190505b620003bf620003b6856200024b565b83018262000350565b50505b505050565b600082821c905092915050565b6000620003e760001984600802620003c7565b1980831691505092915050565b6000620004028383620003d4565b9150826002028217905092915050565b6200041d8262000198565b67ffffffffffffffff811115620004395762000438620001a3565b5b62000445825462000201565b6200045282828562000377565b600060209050601f8311600181146200048a576000841562000475578287015190505b620004818582620003f4565b865550620004f1565b601f1984166200049a8662000236565b60005b82811015620004c4578489015182556001820191506020850194506020810190506200049d565b86831015620004e45784890151620004e0601f891682620003d4565b8355505b6001600288020188555050505b505050505050565b613da880620005096000396000f3fe608060405234801561001057600080fd5b50600436106101e55760003560e01c80638da5cb5b1161010f578063c87b56dd116100a2578063e3de026411610071578063e3de0264146105f0578063e42364781461060c578063e985e9c51461063c578063f2fde38b1461066c576101e5565b8063c87b56dd14610544578063c91757b414610574578063cd279c7c146105a4578063cebf64f5146105c0576101e5565b8063ae6cd363116100de578063ae6cd363146104ac578063b0618382146104dc578063b88d4fde1461050c578063b971043b14610528576101e5565b80638da5cb5b1461042257806395d89b4114610440578063a22cb4651461045e578063ae63b3631461047a576101e5565b806351ff059311610187578063715018a611610156578063715018a6146103ae5780638250db7a146103b8578063858f1e92146103ea5780638c85826614610406576101e5565b806351ff0593146102ec578063536483951461031e5780636352211e1461034e57806370a082311461037e576101e5565b8063095ea7b3116101c3578063095ea7b31461026857806323b872dd1461028457806342842e0e146102a057806343e2310d146102bc576101e5565b806301ffc9a7146101ea57806306fdde031461021a578063081812fc14610238575b600080fd5b61020460048036038101906101ff919061290b565b610688565b6040516102119190612953565b60405180910390f35b61022261069a565b60405161022f91906129fe565b60405180910390f35b610252600480360381019061024d9190612a56565b61072c565b60405161025f9190612ac4565b60405180910390f35b610282600480360381019061027d9190612b0b565b610772565b005b61029e60048036038101906102999190612b4b565b610889565b005b6102ba60048036038101906102b59190612b4b565b6108e9565b005b6102d660048036038101906102d19190612b9e565b610909565b6040516102e39190612c89565b60405180910390f35b61030660048036038101906103019190612a56565b6109a0565b60405161031593929190612cba565b60405180910390f35b61033860048036038101906103339190612b0b565b610a72565b6040516103459190612cf8565b60405180910390f35b61036860048036038101906103639190612a56565b610aa3565b6040516103759190612ac4565b60405180910390f35b61039860048036038101906103939190612b9e565b610b29565b6040516103a59190612cf8565b60405180910390f35b6103b6610be0565b005b6103d260048036038101906103cd9190612a56565b610bf4565b6040516103e193929190612cba565b60405180910390f35b61040460048036038101906103ff9190612e48565b610cc6565b005b610420600480360381019061041b9190612e48565b610e02565b005b61042a610f3e565b6040516104379190612ac4565b60405180910390f35b610448610f68565b60405161045591906129fe565b60405180910390f35b61047860048036038101906104739190612ed0565b610ffa565b005b610494600480360381019061048f9190612a56565b611010565b6040516104a393929190612cba565b60405180910390f35b6104c660048036038101906104c19190612b9e565b6110e2565b6040516104d39190612c89565b60405180910390f35b6104f660048036038101906104f19190612a56565b611179565b6040516105039190612cf8565b60405180910390f35b61052660048036038101906105219190612fb1565b611191565b005b610542600480360381019061053d9190613034565b6111f3565b005b61055e60048036038101906105599190612a56565b6113d8565b60405161056b91906129fe565b60405180910390f35b61058e60048036038101906105899190612b0b565b6113ea565b60405161059b9190612cf8565b60405180910390f35b6105be60048036038101906105b991906130a3565b61141b565b005b6105da60048036038101906105d59190612a56565b611434565b6040516105e79190612ac4565b60405180910390f35b61060a60048036038101906106059190612b9e565b611474565b005b61062660048036038101906106219190612b0b565b6114c0565b6040516106339190612cf8565b60405180910390f35b61065660048036038101906106519190613112565b6114f1565b6040516106639190612953565b60405180910390f35b61068660048036038101906106819190612b9e565b611585565b005b600061069382611608565b9050919050565b6060600080546106a990613181565b80601f01602080910402602001604051908101604052809291908181526020018280546106d590613181565b80156107225780601f106106f757610100808354040283529160200191610722565b820191906000526020600020905b81548152906001019060200180831161070557829003601f168201915b5050505050905090565b600061073782611669565b6004600083815260200190815260200160002060009054906101000a900473ffffffffffffffffffffffffffffffffffffffff169050919050565b600061077d82610aa3565b90508073ffffffffffffffffffffffffffffffffffffffff168373ffffffffffffffffffffffffffffffffffffffff16036107ed576040517f08c379a00000000000000000000000000000000000000000000000000000000081526004016107e490613224565b60405180910390fd5b8073ffffffffffffffffffffffffffffffffffffffff1661080c6116b4565b73ffffffffffffffffffffffffffffffffffffffff16148061083b575061083a816108356116b4565b6114f1565b5b61087a576040517f08c379a0000000000000000000000000000000000000000000000000000000008152600401610871906132b6565b60405180910390fd5b61088483836116bc565b505050565b61089a6108946116b4565b82611775565b6108d9576040517f08c379a00000000000000000000000000000000000000000000000000000000081526004016108d090613348565b60405180910390fd5b6108e483838361180a565b505050565b61090483838360405180602001604052806000815250611191565b505050565b6060600b60008373ffffffffffffffffffffffffffffffffffffffff1673ffffffffffffffffffffffffffffffffffffffff16815260200190815260200160002080548060200260200160405190810160405280929190818152602001828054801561099457602002820191906000526020600020905b815481526020019060010190808311610980575b50505050509050919050565b600c6020528060005260406000206000915090508060000154908060010160009054906101000a900473ffffffffffffffffffffffffffffffffffffffff16908060020180546109ef90613181565b80601f0160208091040260200160405190810160405280929190818152602001828054610a1b90613181565b8015610a685780601f10610a3d57610100808354040283529160200191610a68565b820191906000526020600020905b815481529060010190602001808311610a4b57829003601f168201915b5050505050905083565b600e6020528160005260406000208181548110610a8e57600080fd5b90600052602060002001600091509150505481565b600080610aaf83611b03565b9050600073ffffffffffffffffffffffffffffffffffffffff168173ffffffffffffffffffffffffffffffffffffffff1603610b20576040517f08c379a0000000000000000000000000000000000000000000000000000000008152600401610b17906133b4565b60405180910390fd5b80915050919050565b60008073ffffffffffffffffffffffffffffffffffffffff168273ffffffffffffffffffffffffffffffffffffffff1603610b99576040517f08c379a0000000000000000000000000000000000000000000000000000000008152600401610b9090613446565b60405180910390fd5b600360008373ffffffffffffffffffffffffffffffffffffffff1673ffffffffffffffffffffffffffffffffffffffff168152602001908152602001600020549050919050565b610be8611b40565b610bf26000611bbe565b565b600f6020528060005260406000206000915090508060000154908060010160009054906101000a900473ffffffffffffffffffffffffffffffffffffffff1690806002018054610c4390613181565b80601f0160208091040260200160405190810160405280929190818152602001828054610c6f90613181565b8015610cbc5780601f10610c9157610100808354040283529160200191610cbc565b820191906000526020600020905b815481529060010190602001808311610c9f57829003601f168201915b5050505050905083565b6000610cd2600a611c84565b9050610cde600a611c92565b610ce983828461141b565b60405180606001604052808281526020018473ffffffffffffffffffffffffffffffffffffffff16815260200183815250601160008381526020019081526020016000206000820151816000015560208201518160010160006101000a81548173ffffffffffffffffffffffffffffffffffffffff021916908373ffffffffffffffffffffffffffffffffffffffff1602179055506040820151816002019081610d939190613612565b50905050601060008473ffffffffffffffffffffffffffffffffffffffff1673ffffffffffffffffffffffffffffffffffffffff168152602001908152602001600020819080600181540180825580915050600190039060005260206000200160009091909190915055505050565b6000610e0e6009611c84565b9050610e1a6009611c92565b610e2583828461141b565b60405180606001604052808281526020018473ffffffffffffffffffffffffffffffffffffffff16815260200183815250600f60008381526020019081526020016000206000820151816000015560208201518160010160006101000a81548173ffffffffffffffffffffffffffffffffffffffff021916908373ffffffffffffffffffffffffffffffffffffffff1602179055506040820151816002019081610ecf9190613612565b50905050600e60008473ffffffffffffffffffffffffffffffffffffffff1673ffffffffffffffffffffffffffffffffffffffff168152602001908152602001600020819080600181540180825580915050600190039060005260206000200160009091909190915055505050565b6000600760009054906101000a900473ffffffffffffffffffffffffffffffffffffffff16905090565b606060018054610f7790613181565b80601f0160208091040260200160405190810160405280929190818152602001828054610fa390613181565b8015610ff05780601f10610fc557610100808354040283529160200191610ff0565b820191906000526020600020905b815481529060010190602001808311610fd357829003601f168201915b5050505050905090565b61100c6110056116b4565b8383611ca8565b5050565b60116020528060005260406000206000915090508060000154908060010160009054906101000a900473ffffffffffffffffffffffffffffffffffffffff169080600201805461105f90613181565b80601f016020809104026020016040519081016040528092919081815260200182805461108b90613181565b80156110d85780601f106110ad576101008083540402835291602001916110d8565b820191906000526020600020905b8154815290600101906020018083116110bb57829003601f168201915b5050505050905083565b6060600e60008373ffffffffffffffffffffffffffffffffffffffff1673ffffffffffffffffffffffffffffffffffffffff16815260200190815260200160002080548060200260200160405190810160405280929190818152602001828054801561116d57602002820191906000526020600020905b815481526020019060010190808311611159575b50505050509050919050565b600d6020528060005260406000206000915090505481565b6111a261119c6116b4565b83611775565b6111e1576040517f08c379a00000000000000000000000000000000000000000000000000000000081526004016111d890613348565b60405180910390fd5b6111ed84848484611e14565b50505050565b601260009054906101000a900473ffffffffffffffffffffffffffffffffffffffff1673ffffffffffffffffffffffffffffffffffffffff163373ffffffffffffffffffffffffffffffffffffffff1614611283576040517f08c379a000000000000000000000000000000000000000000000000000000000815260040161127a90613756565b60405180910390fd5b600061128f6008611c84565b905080600d6000848152602001908152602001600020819055506112b36008611c92565b6112be84828561141b565b600b60008573ffffffffffffffffffffffffffffffffffffffff1673ffffffffffffffffffffffffffffffffffffffff16815260200190815260200160002081908060018154018082558091505060019003906000526020600020016000909190919091505560405180606001604052808281526020018573ffffffffffffffffffffffffffffffffffffffff16815260200184815250600c60008381526020019081526020016000206000820151816000015560208201518160010160006101000a81548173ffffffffffffffffffffffffffffffffffffffff021916908373ffffffffffffffffffffffffffffffffffffffff16021790555060408201518160020190816113ce9190613612565b5090505050505050565b60606113e382611e70565b9050919050565b6010602052816000526040600020818154811061140657600080fd5b90600052602060002001600091509150505481565b6114258383611f82565b61142f8282611fa0565b505050565b6000600c600083815260200190815260200160002060010160009054906101000a900473ffffffffffffffffffffffffffffffffffffffff169050919050565b61147c611b40565b80601260006101000a81548173ffffffffffffffffffffffffffffffffffffffff021916908373ffffffffffffffffffffffffffffffffffffffff16021790555050565b600b60205281600052604060002081815481106114dc57600080fd5b90600052602060002001600091509150505481565b6000600560008473ffffffffffffffffffffffffffffffffffffffff1673ffffffffffffffffffffffffffffffffffffffff16815260200190815260200160002060008373ffffffffffffffffffffffffffffffffffffffff1673ffffffffffffffffffffffffffffffffffffffff16815260200190815260200160002060009054906101000a900460ff16905092915050565b61158d611b40565b600073ffffffffffffffffffffffffffffffffffffffff168173ffffffffffffffffffffffffffffffffffffffff16036115fc576040517f08c379a00000000000000000000000000000000000000000000000000000000081526004016115f3906137e8565b60405180910390fd5b61160581611bbe565b50565b6000634906490660e01b7bffffffffffffffffffffffffffffffffffffffffffffffffffffffff1916827bffffffffffffffffffffffffffffffffffffffffffffffffffffffff19161480611662575061166182612044565b5b9050919050565b61167281612126565b6116b1576040517f08c379a00000000000000000000000000000000000000000000000000000000081526004016116a8906133b4565b60405180910390fd5b50565b600033905090565b816004600083815260200190815260200160002060006101000a81548173ffffffffffffffffffffffffffffffffffffffff021916908373ffffffffffffffffffffffffffffffffffffffff160217905550808273ffffffffffffffffffffffffffffffffffffffff1661172f83610aa3565b73ffffffffffffffffffffffffffffffffffffffff167f8c5be1e5ebec7d5bd14f71427d1e84f3dd0314c0f7b2291e5b200ac8c7c3b92560405160405180910390a45050565b60008061178183610aa3565b90508073ffffffffffffffffffffffffffffffffffffffff168473ffffffffffffffffffffffffffffffffffffffff1614806117c357506117c281856114f1565b5b8061180157508373ffffffffffffffffffffffffffffffffffffffff166117e98461072c565b73ffffffffffffffffffffffffffffffffffffffff16145b91505092915050565b8273ffffffffffffffffffffffffffffffffffffffff1661182a82610aa3565b73ffffffffffffffffffffffffffffffffffffffff1614611880576040517f08c379a00000000000000000000000000000000000000000000000000000000081526004016118779061387a565b60405180910390fd5b600073ffffffffffffffffffffffffffffffffffffffff168273ffffffffffffffffffffffffffffffffffffffff16036118ef576040517f08c379a00000000000000000000000000000000000000000000000000000000081526004016118e69061390c565b60405180910390fd5b6118fc8383836001612167565b8273ffffffffffffffffffffffffffffffffffffffff1661191c82610aa3565b73ffffffffffffffffffffffffffffffffffffffff1614611972576040517f08c379a00000000000000000000000000000000000000000000000000000000081526004016119699061387a565b60405180910390fd5b6004600082815260200190815260200160002060006101000a81549073ffffffffffffffffffffffffffffffffffffffff02191690556001600360008573ffffffffffffffffffffffffffffffffffffffff1673ffffffffffffffffffffffffffffffffffffffff168152602001908152602001600020600082825403925050819055506001600360008473ffffffffffffffffffffffffffffffffffffffff1673ffffffffffffffffffffffffffffffffffffffff16815260200190815260200160002060008282540192505081905550816002600083815260200190815260200160002060006101000a81548173ffffffffffffffffffffffffffffffffffffffff021916908373ffffffffffffffffffffffffffffffffffffffff160217905550808273ffffffffffffffffffffffffffffffffffffffff168473ffffffffffffffffffffffffffffffffffffffff167fddf252ad1be2c89b69c2b068fc378daa952ba7f163c4a11628f55a4df523b3ef60405160405180910390a4611afe838383600161216d565b505050565b60006002600083815260200190815260200160002060009054906101000a900473ffffffffffffffffffffffffffffffffffffffff169050919050565b611b486116b4565b73ffffffffffffffffffffffffffffffffffffffff16611b66610f3e565b73ffffffffffffffffffffffffffffffffffffffff1614611bbc576040517f08c379a0000000000000000000000000000000000000000000000000000000008152600401611bb390613978565b60405180910390fd5b565b6000600760009054906101000a900473ffffffffffffffffffffffffffffffffffffffff16905081600760006101000a81548173ffffffffffffffffffffffffffffffffffffffff021916908373ffffffffffffffffffffffffffffffffffffffff1602179055508173ffffffffffffffffffffffffffffffffffffffff168173ffffffffffffffffffffffffffffffffffffffff167f8be0079c531659141344cd1fd0a4f28419497f9722a3daafe3b4186f6b6457e060405160405180910390a35050565b600081600001549050919050565b6001816000016000828254019250508190555050565b8173ffffffffffffffffffffffffffffffffffffffff168373ffffffffffffffffffffffffffffffffffffffff1603611d16576040517f08c379a0000000000000000000000000000000000000000000000000000000008152600401611d0d906139e4565b60405180910390fd5b80600560008573ffffffffffffffffffffffffffffffffffffffff1673ffffffffffffffffffffffffffffffffffffffff16815260200190815260200160002060008473ffffffffffffffffffffffffffffffffffffffff1673ffffffffffffffffffffffffffffffffffffffff16815260200190815260200160002060006101000a81548160ff0219169083151502179055508173ffffffffffffffffffffffffffffffffffffffff168373ffffffffffffffffffffffffffffffffffffffff167f17307eab39ab6107e8899845ad3d59bd9653f200f220920489ca2b5937696c3183604051611e079190612953565b60405180910390a3505050565b611e1f84848461180a565b611e2b84848484612173565b611e6a576040517f08c379a0000000000000000000000000000000000000000000000000000000008152600401611e6190613a76565b60405180910390fd5b50505050565b6060611e7b82611669565b6000600660008481526020019081526020016000208054611e9b90613181565b80601f0160208091040260200160405190810160405280929190818152602001828054611ec790613181565b8015611f145780601f10611ee957610100808354040283529160200191611f14565b820191906000526020600020905b815481529060010190602001808311611ef757829003601f168201915b505050505090506000611f256122fa565b90506000815103611f3a578192505050611f7d565b600082511115611f6f578082604051602001611f57929190613ad2565b60405160208183030381529060405292505050611f7d565b611f7884612311565b925050505b919050565b611f9c828260405180602001604052806000815250612379565b5050565b611fa982612126565b611fe8576040517f08c379a0000000000000000000000000000000000000000000000000000000008152600401611fdf90613b68565b60405180910390fd5b806006600084815260200190815260200160002090816120089190613612565b507ff8e1a15aba9398e019f0b49df1a4fde98ee17ae345cb5f6b5e2c27f5033e8ce7826040516120389190612cf8565b60405180910390a15050565b60007f80ac58cd000000000000000000000000000000000000000000000000000000007bffffffffffffffffffffffffffffffffffffffffffffffffffffffff1916827bffffffffffffffffffffffffffffffffffffffffffffffffffffffff1916148061210f57507f5b5e139f000000000000000000000000000000000000000000000000000000007bffffffffffffffffffffffffffffffffffffffffffffffffffffffff1916827bffffffffffffffffffffffffffffffffffffffffffffffffffffffff1916145b8061211f575061211e826123d4565b5b9050919050565b60008073ffffffffffffffffffffffffffffffffffffffff1661214883611b03565b73ffffffffffffffffffffffffffffffffffffffff1614159050919050565b50505050565b50505050565b60006121948473ffffffffffffffffffffffffffffffffffffffff1661243e565b156122ed578373ffffffffffffffffffffffffffffffffffffffff1663150b7a026121bd6116b4565b8786866040518563ffffffff1660e01b81526004016121df9493929190613bdd565b6020604051808303816000875af192505050801561221b57506040513d601f19601f820116820180604052508101906122189190613c3e565b60015b61229d573d806000811461224b576040519150601f19603f3d011682016040523d82523d6000602084013e612250565b606091505b506000815103612295576040517f08c379a000000000000000000000000000000000000000000000000000000000815260040161228c90613a76565b60405180910390fd5b805181602001fd5b63150b7a0260e01b7bffffffffffffffffffffffffffffffffffffffffffffffffffffffff1916817bffffffffffffffffffffffffffffffffffffffffffffffffffffffff1916149150506122f2565b600190505b949350505050565b606060405180602001604052806000815250905090565b606061231c82611669565b60006123266122fa565b905060008151116123465760405180602001604052806000815250612371565b8061235084612461565b604051602001612361929190613ad2565b6040516020818303038152906040525b915050919050565b612383838361252f565b6123906000848484612173565b6123cf576040517f08c379a00000000000000000000000000000000000000000000000000000000081526004016123c690613a76565b60405180910390fd5b505050565b60007f01ffc9a7000000000000000000000000000000000000000000000000000000007bffffffffffffffffffffffffffffffffffffffffffffffffffffffff1916827bffffffffffffffffffffffffffffffffffffffffffffffffffffffff1916149050919050565b6000808273ffffffffffffffffffffffffffffffffffffffff163b119050919050565b6060600060016124708461274c565b01905060008167ffffffffffffffff81111561248f5761248e612d1d565b5b6040519080825280601f01601f1916602001820160405280156124c15781602001600182028036833780820191505090505b509050600082602001820190505b600115612524578080600190039150507f3031323334353637383961626364656600000000000000000000000000000000600a86061a8153600a858161251857612517613c6b565b5b049450600085036124cf575b819350505050919050565b600073ffffffffffffffffffffffffffffffffffffffff168273ffffffffffffffffffffffffffffffffffffffff160361259e576040517f08c379a000000000000000000000000000000000000000000000000000000000815260040161259590613ce6565b60405180910390fd5b6125a781612126565b156125e7576040517f08c379a00000000000000000000000000000000000000000000000000000000081526004016125de90613d52565b60405180910390fd5b6125f5600083836001612167565b6125fe81612126565b1561263e576040517f08c379a000000000000000000000000000000000000000000000000000000000815260040161263590613d52565b60405180910390fd5b6001600360008473ffffffffffffffffffffffffffffffffffffffff1673ffffffffffffffffffffffffffffffffffffffff16815260200190815260200160002060008282540192505081905550816002600083815260200190815260200160002060006101000a81548173ffffffffffffffffffffffffffffffffffffffff021916908373ffffffffffffffffffffffffffffffffffffffff160217905550808273ffffffffffffffffffffffffffffffffffffffff16600073ffffffffffffffffffffffffffffffffffffffff167fddf252ad1be2c89b69c2b068fc378daa952ba7f163c4a11628f55a4df523b3ef60405160405180910390a461274860008383600161216d565b5050565b600080600090507a184f03e93ff9f4daa797ed6e38ed64bf6a1f01000000000000000083106127aa577a184f03e93ff9f4daa797ed6e38ed64bf6a1f01000000000000000083816127a05761279f613c6b565b5b0492506040810190505b6d04ee2d6d415b85acef810000000083106127e7576d04ee2d6d415b85acef810000000083816127dd576127dc613c6b565b5b0492506020810190505b662386f26fc10000831061281657662386f26fc10000838161280c5761280b613c6b565b5b0492506010810190505b6305f5e100831061283f576305f5e100838161283557612834613c6b565b5b0492506008810190505b612710831061286457612710838161285a57612859613c6b565b5b0492506004810190505b60648310612887576064838161287d5761287c613c6b565b5b0492506002810190505b600a8310612896576001810190505b80915050919050565b6000604051905090565b600080fd5b600080fd5b60007fffffffff0000000000000000000000000000000000000000000000000000000082169050919050565b6128e8816128b3565b81146128f357600080fd5b50565b600081359050612905816128df565b92915050565b600060208284031215612921576129206128a9565b5b600061292f848285016128f6565b91505092915050565b60008115159050919050565b61294d81612938565b82525050565b60006020820190506129686000830184612944565b92915050565b600081519050919050565b600082825260208201905092915050565b60005b838110156129a857808201518184015260208101905061298d565b60008484015250505050565b6000601f19601f8301169050919050565b60006129d08261296e565b6129da8185612979565b93506129ea81856020860161298a565b6129f3816129b4565b840191505092915050565b60006020820190508181036000830152612a1881846129c5565b905092915050565b6000819050919050565b612a3381612a20565b8114612a3e57600080fd5b50565b600081359050612a5081612a2a565b92915050565b600060208284031215612a6c57612a6b6128a9565b5b6000612a7a84828501612a41565b91505092915050565b600073ffffffffffffffffffffffffffffffffffffffff82169050919050565b6000612aae82612a83565b9050919050565b612abe81612aa3565b82525050565b6000602082019050612ad96000830184612ab5565b92915050565b612ae881612aa3565b8114612af357600080fd5b50565b600081359050612b0581612adf565b92915050565b60008060408385031215612b2257612b216128a9565b5b6000612b3085828601612af6565b9250506020612b4185828601612a41565b9150509250929050565b600080600060608486031215612b6457612b636128a9565b5b6000612b7286828701612af6565b9350506020612b8386828701612af6565b9250506040612b9486828701612a41565b9150509250925092565b600060208284031215612bb457612bb36128a9565b5b6000612bc284828501612af6565b91505092915050565b600081519050919050565b600082825260208201905092915050565b6000819050602082019050919050565b612c0081612a20565b82525050565b6000612c128383612bf7565b60208301905092915050565b6000602082019050919050565b6000612c3682612bcb565b612c408185612bd6565b9350612c4b83612be7565b8060005b83811015612c7c578151612c638882612c06565b9750612c6e83612c1e565b925050600181019050612c4f565b5085935050505092915050565b60006020820190508181036000830152612ca38184612c2b565b905092915050565b612cb481612a20565b82525050565b6000606082019050612ccf6000830186612cab565b612cdc6020830185612ab5565b8181036040830152612cee81846129c5565b9050949350505050565b6000602082019050612d0d6000830184612cab565b92915050565b600080fd5b600080fd5b7f4e487b7100000000000000000000000000000000000000000000000000000000600052604160045260246000fd5b612d55826129b4565b810181811067ffffffffffffffff82111715612d7457612d73612d1d565b5b80604052505050565b6000612d8761289f565b9050612d938282612d4c565b919050565b600067ffffffffffffffff821115612db357612db2612d1d565b5b612dbc826129b4565b9050602081019050919050565b82818337600083830152505050565b6000612deb612de684612d98565b612d7d565b905082815260208101848484011115612e0757612e06612d18565b5b612e12848285612dc9565b509392505050565b600082601f830112612e2f57612e2e612d13565b5b8135612e3f848260208601612dd8565b91505092915050565b60008060408385031215612e5f57612e5e6128a9565b5b6000612e6d85828601612af6565b925050602083013567ffffffffffffffff811115612e8e57612e8d6128ae565b5b612e9a85828601612e1a565b9150509250929050565b612ead81612938565b8114612eb857600080fd5b50565b600081359050612eca81612ea4565b92915050565b60008060408385031215612ee757612ee66128a9565b5b6000612ef585828601612af6565b9250506020612f0685828601612ebb565b9150509250929050565b600067ffffffffffffffff821115612f2b57612f2a612d1d565b5b612f34826129b4565b9050602081019050919050565b6000612f54612f4f84612f10565b612d7d565b905082815260208101848484011115612f7057612f6f612d18565b5b612f7b848285612dc9565b509392505050565b600082601f830112612f9857612f97612d13565b5b8135612fa8848260208601612f41565b91505092915050565b60008060008060808587031215612fcb57612fca6128a9565b5b6000612fd987828801612af6565b9450506020612fea87828801612af6565b9350506040612ffb87828801612a41565b925050606085013567ffffffffffffffff81111561301c5761301b6128ae565b5b61302887828801612f83565b91505092959194509250565b60008060006060848603121561304d5761304c6128a9565b5b600061305b86828701612af6565b935050602084013567ffffffffffffffff81111561307c5761307b6128ae565b5b61308886828701612e1a565b925050604061309986828701612a41565b9150509250925092565b6000806000606084860312156130bc576130bb6128a9565b5b60006130ca86828701612af6565b93505060206130db86828701612a41565b925050604084013567ffffffffffffffff8111156130fc576130fb6128ae565b5b61310886828701612e1a565b9150509250925092565b60008060408385031215613129576131286128a9565b5b600061313785828601612af6565b925050602061314885828601612af6565b9150509250929050565b7f4e487b7100000000000000000000000000000000000000000000000000000000600052602260045260246000fd5b6000600282049050600182168061319957607f821691505b6020821081036131ac576131ab613152565b5b50919050565b7f4552433732313a20617070726f76616c20746f2063757272656e74206f776e6560008201527f7200000000000000000000000000000000000000000000000000000000000000602082015250565b600061320e602183612979565b9150613219826131b2565b604082019050919050565b6000602082019050818103600083015261323d81613201565b9050919050565b7f4552433732313a20617070726f76652063616c6c6572206973206e6f7420746f60008201527f6b656e206f776e6572206f7220617070726f76656420666f7220616c6c000000602082015250565b60006132a0603d83612979565b91506132ab82613244565b604082019050919050565b600060208201905081810360008301526132cf81613293565b9050919050565b7f4552433732313a2063616c6c6572206973206e6f7420746f6b656e206f776e6560008201527f72206f7220617070726f76656400000000000000000000000000000000000000602082015250565b6000613332602d83612979565b915061333d826132d6565b604082019050919050565b6000602082019050818103600083015261336181613325565b9050919050565b7f4552433732313a20696e76616c696420746f6b656e2049440000000000000000600082015250565b600061339e601883612979565b91506133a982613368565b602082019050919050565b600060208201905081810360008301526133cd81613391565b9050919050565b7f4552433732313a2061646472657373207a65726f206973206e6f74206120766160008201527f6c6964206f776e65720000000000000000000000000000000000000000000000602082015250565b6000613430602983612979565b915061343b826133d4565b604082019050919050565b6000602082019050818103600083015261345f81613423565b9050919050565b60008190508160005260206000209050919050565b60006020601f8301049050919050565b600082821b905092915050565b6000600883026134c87fffffffffffffffffffffffffffffffffffffffffffffffffffffffffffffffff8261348b565b6134d2868361348b565b95508019841693508086168417925050509392505050565b6000819050919050565b600061350f61350a61350584612a20565b6134ea565b612a20565b9050919050565b6000819050919050565b613529836134f4565b61353d61353582613516565b848454613498565b825550505050565b600090565b613552613545565b61355d818484613520565b505050565b5b818110156135815761357660008261354a565b600181019050613563565b5050565b601f8211156135c65761359781613466565b6135a08461347b565b810160208510156135af578190505b6135c36135bb8561347b565b830182613562565b50505b505050565b600082821c905092915050565b60006135e9600019846008026135cb565b1980831691505092915050565b600061360283836135d8565b9150826002028217905092915050565b61361b8261296e565b67ffffffffffffffff81111561363457613633612d1d565b5b61363e8254613181565b613649828285613585565b600060209050601f83116001811461367c576000841561366a578287015190505b61367485826135f6565b8655506136dc565b601f19841661368a86613466565b60005b828110156136b25784890151825560018201915060208501945060208101905061368d565b868310156136cf57848901516136cb601f8916826135d8565b8355505b6001600288020188555050505b505050505050565b7f6f6e6c792073616d6869746120636f6e74726163742063616e2063616c6c207460008201527f6869732066756e6374696f6e0000000000000000000000000000000000000000602082015250565b6000613740602c83612979565b915061374b826136e4565b604082019050919050565b6000602082019050818103600083015261376f81613733565b9050919050565b7f4f776e61626c653a206e6577206f776e657220697320746865207a65726f206160008201527f6464726573730000000000000000000000000000000000000000000000000000602082015250565b60006137d2602683612979565b91506137dd82613776565b604082019050919050565b60006020820190508181036000830152613801816137c5565b9050919050565b7f4552433732313a207472616e736665722066726f6d20696e636f72726563742060008201527f6f776e6572000000000000000000000000000000000000000000000000000000602082015250565b6000613864602583612979565b915061386f82613808565b604082019050919050565b6000602082019050818103600083015261389381613857565b9050919050565b7f4552433732313a207472616e7366657220746f20746865207a65726f2061646460008201527f7265737300000000000000000000000000000000000000000000000000000000602082015250565b60006138f6602483612979565b91506139018261389a565b604082019050919050565b60006020820190508181036000830152613925816138e9565b9050919050565b7f4f776e61626c653a2063616c6c6572206973206e6f7420746865206f776e6572600082015250565b6000613962602083612979565b915061396d8261392c565b602082019050919050565b6000602082019050818103600083015261399181613955565b9050919050565b7f4552433732313a20617070726f766520746f2063616c6c657200000000000000600082015250565b60006139ce601983612979565b91506139d982613998565b602082019050919050565b600060208201905081810360008301526139fd816139c1565b9050919050565b7f4552433732313a207472616e7366657220746f206e6f6e20455243373231526560008201527f63656976657220696d706c656d656e7465720000000000000000000000000000602082015250565b6000613a60603283612979565b9150613a6b82613a04565b604082019050919050565b60006020820190508181036000830152613a8f81613a53565b9050919050565b600081905092915050565b6000613aac8261296e565b613ab68185613a96565b9350613ac681856020860161298a565b80840191505092915050565b6000613ade8285613aa1565b9150613aea8284613aa1565b91508190509392505050565b7f45524337323155524953746f726167653a2055524920736574206f66206e6f6e60008201527f6578697374656e7420746f6b656e000000000000000000000000000000000000602082015250565b6000613b52602e83612979565b9150613b5d82613af6565b604082019050919050565b60006020820190508181036000830152613b8181613b45565b9050919050565b600081519050919050565b600082825260208201905092915050565b6000613baf82613b88565b613bb98185613b93565b9350613bc981856020860161298a565b613bd2816129b4565b840191505092915050565b6000608082019050613bf26000830187612ab5565b613bff6020830186612ab5565b613c0c6040830185612cab565b8181036060830152613c1e8184613ba4565b905095945050505050565b600081519050613c38816128df565b92915050565b600060208284031215613c5457613c536128a9565b5b6000613c6284828501613c29565b91505092915050565b7f4e487b7100000000000000000000000000000000000000000000000000000000600052601260045260246000fd5b7f4552433732313a206d696e7420746f20746865207a65726f2061646472657373600082015250565b6000613cd0602083612979565b9150613cdb82613c9a565b602082019050919050565b60006020820190508181036000830152613cff81613cc3565b9050919050565b7f4552433732313a20746f6b656e20616c7265616479206d696e74656400000000600082015250565b6000613d3c601c83612979565b9150613d4782613d06565b602082019050919050565b60006020820190508181036000830152613d6b81613d2f565b905091905056fea264697066735822122063463ab71fbc9bdf1a66efe2648616e0be63a5704ac6f347ff269d557ab9cdaa64736f6c63430008130033",
  "linkReferences": {},
  "deployedLinkReferences": {}
}