{
  "_format": "hh-sol-artifact-1",
  "contractName": "TemplateNFT",
  "sourceName": "contracts/TemplateNFT.sol",
  "abi": [
    {
      "inputs": [],
      "stateMutability": "nonpayable",
      "type": "constructor"
    },
    {
      "anonymous": false,
      "inputs": [
        {
          "indexed": true,
          "internalType": "address",
          "name": "owner",
          "type": "address"
        },
        {
          "indexed": true,
          "internalType": "address",
          "name": "approved",
          "type": "address"
        },
        {
          "indexed": true,
          "internalType": "uint256",
          "name": "tokenId",
          "type": "uint256"
        }
      ],
      "name": "Approval",
      "type": "event"
    },
    {
      "anonymous": false,
      "inputs": [
        {
          "indexed": true,
          "internalType": "address",
          "name": "owner",
          "type": "address"
        },
        {
          "indexed": true,
          "internalType": "address",
          "name": "operator",
          "type": "address"
        },
        {
          "indexed": false,
          "internalType": "bool",
          "name": "approved",
          "type": "bool"
        }
      ],
      "name": "ApprovalForAll",
      "type": "event"
    },
    {
      "anonymous": false,
      "inputs": [
        {
          "indexed": false,
          "internalType": "uint256",
          "name": "_fromTokenId",
          "type": "uint256"
        },
        {
          "indexed": false,
          "internalType": "uint256",
          "name": "_toTokenId",
          "type": "uint256"
        }
      ],
      "name": "BatchMetadataUpdate",
      "type": "event"
    },
    {
      "anonymous": false,
      "inputs": [
        {
          "indexed": false,
          "internalType": "uint256",
          "name": "_tokenId",
          "type": "uint256"
        }
      ],
      "name": "MetadataUpdate",
      "type": "event"
    },
    {
      "anonymous": false,
      "inputs": [
        {
          "indexed": true,
          "internalType": "address",
          "name": "previousOwner",
          "type": "address"
        },
        {
          "indexed": true,
          "internalType": "address",
          "name": "newOwner",
          "type": "address"
        }
      ],
      "name": "OwnershipTransferred",
      "type": "event"
    },
    {
      "anonymous": false,
      "inputs": [
        {
          "indexed": true,
          "internalType": "address",
          "name": "from",
          "type": "address"
        },
        {
          "indexed": true,
          "internalType": "address",
          "name": "to",
          "type": "address"
        },
        {
          "indexed": true,
          "internalType": "uint256",
          "name": "tokenId",
          "type": "uint256"
        }
      ],
      "name": "Transfer",
      "type": "event"
    },
    {
      "inputs": [
        {
          "internalType": "address",
          "name": "to",
          "type": "address"
        },
        {
          "internalType": "uint256",
          "name": "tokenId",
          "type": "uint256"
        }
      ],
      "name": "approve",
      "outputs": [],
      "stateMutability": "nonpayable",
      "type": "function"
    },
    {
      "inputs": [
        {
          "internalType": "address",
          "name": "owner",
          "type": "address"
        }
      ],
      "name": "balanceOf",
      "outputs": [
        {
          "internalType": "uint256",
          "name": "",
          "type": "uint256"
        }
      ],
      "stateMutability": "view",
      "type": "function"
    },
    {
      "inputs": [
        {
          "internalType": "uint256",
          "name": "",
          "type": "uint256"
        }
      ],
      "name": "creatorIdTocreatorData",
      "outputs": [
        {
          "internalType": "uint256",
          "name": "creatorId",
          "type": "uint256"
        },
        {
          "internalType": "address",
          "name": "owner",
          "type": "address"
        },
        {
          "internalType": "string",
          "name": "badgeIpfsUri",
          "type": "string"
        }
      ],
      "stateMutability": "view",
      "type": "function"
    },
    {
      "inputs": [
        {
          "internalType": "address",
          "name": "_user",
          "type": "address"
        }
      ],
      "name": "getAlltemplateIDS",
      "outputs": [
        {
          "internalType": "uint256[]",
          "name": "",
          "type": "uint256[]"
        }
      ],
      "stateMutability": "view",
      "type": "function"
    },
    {
      "inputs": [
        {
          "internalType": "uint256",
          "name": "tokenId",
          "type": "uint256"
        }
      ],
      "name": "getApproved",
      "outputs": [
        {
          "internalType": "address",
          "name": "",
          "type": "address"
        }
      ],
      "stateMutability": "view",
      "type": "function"
    },
    {
      "inputs": [
        {
          "internalType": "address",
          "name": "_user",
          "type": "address"
        }
      ],
      "name": "getCreatorNFTs",
      "outputs": [
        {
          "internalType": "uint256[]",
          "name": "",
          "type": "uint256[]"
        }
      ],
      "stateMutability": "view",
      "type": "function"
    },
    {
      "inputs": [
        {
          "internalType": "uint256",
          "name": "_templateId",
          "type": "uint256"
        }
      ],
      "name": "getTemplateDetails",
      "outputs": [
        {
          "internalType": "address",
          "name": "",
          "type": "address"
        }
      ],
      "stateMutability": "view",
      "type": "function"
    },
    {
      "inputs": [
        {
          "internalType": "address",
          "name": "_user",
          "type": "address"
        }
      ],
      "name": "getUsercreatorNFTs",
      "outputs": [
        {
          "internalType": "uint256[]",
          "name": "",
          "type": "uint256[]"
        }
      ],
      "stateMutability": "view",
      "type": "function"
    },
    {
      "inputs": [
        {
          "internalType": "uint256",
          "name": "",
          "type": "uint256"
        }
      ],
      "name": "idToTemplateData",
      "outputs": [
        {
          "internalType": "uint256",
          "name": "tokenIds",
          "type": "uint256"
        },
        {
          "internalType": "address",
          "name": "creator",
          "type": "address"
        },
        {
          "internalType": "string",
          "name": "tokenIpfsUri",
          "type": "string"
        }
      ],
      "stateMutability": "view",
      "type": "function"
    },
    {
      "inputs": [
        {
          "internalType": "address",
          "name": "owner",
          "type": "address"
        },
        {
          "internalType": "address",
          "name": "operator",
          "type": "address"
        }
      ],
      "name": "isApprovedForAll",
      "outputs": [
        {
          "internalType": "bool",
          "name": "",
          "type": "bool"
        }
      ],
      "stateMutability": "view",
      "type": "function"
    },
    {
      "inputs": [
        {
          "internalType": "uint256",
          "name": "",
          "type": "uint256"
        }
      ],
      "name": "memberIdTomemberData",
      "outputs": [
        {
          "internalType": "uint256",
          "name": "memberId",
          "type": "uint256"
        },
        {
          "internalType": "address",
          "name": "member",
          "type": "address"
        },
        {
          "internalType": "string",
          "name": "memberIpfsUri",
          "type": "string"
        }
      ],
      "stateMutability": "view",
      "type": "function"
    },
    {
      "inputs": [
        {
          "internalType": "address",
          "name": "_to",
          "type": "address"
        },
        {
          "internalType": "string",
          "name": "_uri",
          "type": "string"
        }
      ],
      "name": "mintMemberNFT",
      "outputs": [],
      "stateMutability": "nonpayable",
      "type": "function"
    },
    {
      "inputs": [
        {
          "internalType": "address",
          "name": "_to",
          "type": "address"
        },
        {
          "internalType": "string",
          "name": "_uri",
          "type": "string"
        },
        {
          "internalType": "uint256",
          "name": "_proposalId",
          "type": "uint256"
        }
      ],
      "name": "mintTemplate",
      "outputs": [],
      "stateMutability": "nonpayable",
      "type": "function"
    },
    {
      "inputs": [
        {
          "internalType": "address",
          "name": "_to",
          "type": "address"
        },
        {
          "internalType": "string",
          "name": "_uri",
          "type": "string"
        }
      ],
      "name": "mintcreatorNFT",
      "outputs": [],
      "stateMutability": "nonpayable",
      "type": "function"
    },
    {
      "inputs": [],
      "name": "name",
      "outputs": [
        {
          "internalType": "string",
          "name": "",
          "type": "string"
        }
      ],
      "stateMutability": "view",
      "type": "function"
    },
    {
      "inputs": [],
      "name": "owner",
      "outputs": [
        {
          "internalType": "address",
          "name": "",
          "type": "address"
        }
      ],
      "stateMutability": "view",
      "type": "function"
    },
    {
      "inputs": [
        {
          "internalType": "uint256",
          "name": "tokenId",
          "type": "uint256"
        }
      ],
      "name": "ownerOf",
      "outputs": [
        {
          "internalType": "address",
          "name": "",
          "type": "address"
        }
      ],
      "stateMutability": "view",
      "type": "function"
    },
    {
      "inputs": [
        {
          "internalType": "uint256",
          "name": "",
          "type": "uint256"
        }
      ],
      "name": "proposalIdToTempId",
      "outputs": [
        {
          "internalType": "uint256",
          "name": "",
          "type": "uint256"
        }
      ],
      "stateMutability": "view",
      "type": "function"
    },
    {
      "inputs": [],
      "name": "renounceOwnership",
      "outputs": [],
      "stateMutability": "nonpayable",
      "type": "function"
    },
    {
      "inputs": [
        {
          "internalType": "address",
          "name": "to",
          "type": "address"
        },
        {
          "internalType": "uint256",
          "name": "tokenId",
          "type": "uint256"
        },
        {
          "internalType": "string",
          "name": "uri",
          "type": "string"
        }
      ],
      "name": "safeMint",
      "outputs": [],
      "stateMutability": "nonpayable",
      "type": "function"
    },
    {
      "inputs": [
        {
          "internalType": "address",
          "name": "from",
          "type": "address"
        },
        {
          "internalType": "address",
          "name": "to",
          "type": "address"
        },
        {
          "internalType": "uint256",
          "name": "tokenId",
          "type": "uint256"
        }
      ],
      "name": "safeTransferFrom",
      "outputs": [],
      "stateMutability": "nonpayable",
      "type": "function"
    },
    {
      "inputs": [
        {
          "internalType": "address",
          "name": "from",
          "type": "address"
        },
        {
          "internalType": "address",
          "name": "to",
          "type": "address"
        },
        {
          "internalType": "uint256",
          "name": "tokenId",
          "type": "uint256"
        },
        {
          "internalType": "bytes",
          "name": "data",
          "type": "bytes"
        }
      ],
      "name": "safeTransferFrom",
      "outputs": [],
      "stateMutability": "nonpayable",
      "type": "function"
    },
    {
      "inputs": [],
      "name": "samhitaAddress",
      "outputs": [
        {
          "internalType": "address",
          "name": "",
          "type": "address"
        }
      ],
      "stateMutability": "view",
      "type": "function"
    },
    {
      "inputs": [
        {
          "internalType": "address",
          "name": "operator",
          "type": "address"
        },
        {
          "internalType": "bool",
          "name": "approved",
          "type": "bool"
        }
      ],
      "name": "setApprovalForAll",
      "outputs": [],
      "stateMutability": "nonpayable",
      "type": "function"
    },
    {
      "inputs": [
        {
          "internalType": "address",
          "name": "_address",
          "type": "address"
        }
      ],
      "name": "setSamhitaAddress",
      "outputs": [],
      "stateMutability": "nonpayable",
      "type": "function"
    },
    {
      "inputs": [
        {
          "internalType": "bytes4",
          "name": "interfaceId",
          "type": "bytes4"
        }
      ],
      "name": "supportsInterface",
      "outputs": [
        {
          "internalType": "bool",
          "name": "",
          "type": "bool"
        }
      ],
      "stateMutability": "view",
      "type": "function"
    },
    {
      "inputs": [],
      "name": "symbol",
      "outputs": [
        {
          "internalType": "string",
          "name": "",
          "type": "string"
        }
      ],
      "stateMutability": "view",
      "type": "function"
    },
    {
      "inputs": [
        {
          "internalType": "address",
          "name": "",
          "type": "address"
        },
        {
          "internalType": "uint256",
          "name": "",
          "type": "uint256"
        }
      ],
      "name": "templateIdToUser",
      "outputs": [
        {
          "internalType": "uint256",
          "name": "",
          "type": "uint256"
        }
      ],
      "stateMutability": "view",
      "type": "function"
    },
    {
      "inputs": [
        {
          "internalType": "uint256",
          "name": "tokenId",
          "type": "uint256"
        }
      ],
      "name": "tokenURI",
      "outputs": [
        {
          "internalType": "string",
          "name": "",
          "type": "string"
        }
      ],
      "stateMutability": "view",
      "type": "function"
    },
    {
      "inputs": [
        {
          "internalType": "address",
          "name": "from",
          "type": "address"
        },
        {
          "internalType": "address",
          "name": "to",
          "type": "address"
        },
        {
          "internalType": "uint256",
          "name": "tokenId",
          "type": "uint256"
        }
      ],
      "name": "transferFrom",
      "outputs": [],
      "stateMutability": "nonpayable",
      "type": "function"
    },
    {
      "inputs": [
        {
          "internalType": "address",
          "name": "newOwner",
          "type": "address"
        }
      ],
      "name": "transferOwnership",
      "outputs": [],
      "stateMutability": "nonpayable",
      "type": "function"
    },
    {
      "inputs": [
        {
          "internalType": "address",
          "name": "",
          "type": "address"
        },
        {
          "internalType": "uint256",
          "name": "",
          "type": "uint256"
        }
      ],
      "name": "userTocreatorNFTs",
      "outputs": [
        {
          "internalType": "uint256",
          "name": "",
          "type": "uint256"
        }
      ],
      "stateMutability": "view",
      "type": "function"
    },
    {
      "inputs": [
        {
          "internalType": "address",
          "name": "",
          "type": "address"
        },
        {
          "internalType": "uint256",
          "name": "",
          "type": "uint256"
        }
      ],
      "name": "userTomemberNFTs",
      "outputs": [
        {
          "internalType": "uint256",
          "name": "",
          "type": "uint256"
        }
      ],
      "stateMutability": "view",
      "type": "function"
    }
  ],
  "bytecode": "0x60806040523480156200001157600080fd5b506040518060400160405280600a81526020017f4d7954656d706c617465000000000000000000000000000000000000000000008152506040518060400160405280600381526020017f4d544c000000000000000000000000000000000000000000000000000000000081525081600090816200008f919062000412565b508060019081620000a1919062000412565b505050620000c4620000b8620000ca60201b60201c565b620000d260201b60201c565b620004f9565b600033905090565b6000600760009054906101000a900473ffffffffffffffffffffffffffffffffffffffff16905081600760006101000a81548173ffffffffffffffffffffffffffffffffffffffff021916908373ffffffffffffffffffffffffffffffffffffffff1602179055508173ffffffffffffffffffffffffffffffffffffffff168173ffffffffffffffffffffffffffffffffffffffff167f8be0079c531659141344cd1fd0a4f28419497f9722a3daafe3b4186f6b6457e060405160405180910390a35050565b600081519050919050565b7f4e487b7100000000000000000000000000000000000000000000000000000000600052604160045260246000fd5b7f4e487b7100000000000000000000000000000000000000000000000000000000600052602260045260246000fd5b600060028204905060018216806200021a57607f821691505b60208210810362000230576200022f620001d2565b5b50919050565b60008190508160005260206000209050919050565b60006020601f8301049050919050565b600082821b905092915050565b6000600883026200029a7fffffffffffffffffffffffffffffffffffffffffffffffffffffffffffffffff826200025b565b620002a686836200025b565b95508019841693508086168417925050509392505050565b6000819050919050565b6000819050919050565b6000620002f3620002ed620002e784620002be565b620002c8565b620002be565b9050919050565b6000819050919050565b6200030f83620002d2565b620003276200031e82620002fa565b84845462000268565b825550505050565b600090565b6200033e6200032f565b6200034b81848462000304565b505050565b5b8181101562000373576200036760008262000334565b60018101905062000351565b5050565b601f821115620003c2576200038c8162000236565b62000397846200024b565b81016020851015620003a7578190505b620003bf620003b6856200024b565b83018262000350565b50505b505050565b600082821c905092915050565b6000620003e760001984600802620003c7565b1980831691505092915050565b6000620004028383620003d4565b9150826002028217905092915050565b6200041d8262000198565b67ffffffffffffffff811115620004395762000438620001a3565b5b62000445825462000201565b6200045282828562000377565b600060209050601f8311600181146200048a576000841562000475578287015190505b620004818582620003f4565b865550620004f1565b601f1984166200049a8662000236565b60005b82811015620004c4578489015182556001820191506020850194506020810190506200049d565b86831015620004e45784890151620004e0601f891682620003d4565b8355505b6001600288020188555050505b505050505050565b613ec980620005096000396000f3fe608060405234801561001057600080fd5b50600436106101fb5760003560e01c80638da5cb5b1161011a578063b971043b116100ad578063cebf64f51161007c578063cebf64f514610624578063e3de026414610654578063e423647814610670578063e985e9c5146106a0578063f2fde38b146106d0576101fb565b8063b971043b1461058c578063c87b56dd146105a8578063c91757b4146105d8578063cd279c7c14610608576101fb565b8063ae63b363116100e9578063ae63b363146104de578063ae6cd36314610510578063b061838214610540578063b88d4fde14610570576101fb565b80638da5cb5b146104565780638f81ea611461047457806395d89b41146104a4578063a22cb465146104c2576101fb565b806351ff059311610192578063715018a611610161578063715018a6146103e25780638250db7a146103ec578063858f1e921461041e5780638c8582661461043a576101fb565b806351ff05931461032057806353648395146103525780636352211e1461038257806370a08231146103b2576101fb565b806323b872dd116101ce57806323b872dd1461029a57806342842e0e146102b657806343e2310d146102d257806350f38bbf14610302576101fb565b806301ffc9a71461020057806306fdde0314610230578063081812fc1461024e578063095ea7b31461027e575b600080fd5b61021a60048036038101906102159190612a2c565b6106ec565b6040516102279190612a74565b60405180910390f35b6102386106fe565b6040516102459190612b1f565b60405180910390f35b61026860048036038101906102639190612b77565b610790565b6040516102759190612be5565b60405180910390f35b61029860048036038101906102939190612c2c565b6107d6565b005b6102b460048036038101906102af9190612c6c565b6108ed565b005b6102d060048036038101906102cb9190612c6c565b61094d565b005b6102ec60048036038101906102e79190612cbf565b61096d565b6040516102f99190612daa565b60405180910390f35b61030a610a04565b6040516103179190612be5565b60405180910390f35b61033a60048036038101906103359190612b77565b610a2a565b60405161034993929190612ddb565b60405180910390f35b61036c60048036038101906103679190612c2c565b610afc565b6040516103799190612e19565b60405180910390f35b61039c60048036038101906103979190612b77565b610b2d565b6040516103a99190612be5565b60405180910390f35b6103cc60048036038101906103c79190612cbf565b610bb3565b6040516103d99190612e19565b60405180910390f35b6103ea610c6a565b005b61040660048036038101906104019190612b77565b610c7e565b60405161041593929190612ddb565b60405180910390f35b61043860048036038101906104339190612f69565b610d50565b005b610454600480360381019061044f9190612f69565b610e8c565b005b61045e610fc8565b60405161046b9190612be5565b60405180910390f35b61048e60048036038101906104899190612cbf565b610ff2565b60405161049b9190612daa565b60405180910390f35b6104ac611089565b6040516104b99190612b1f565b60405180910390f35b6104dc60048036038101906104d79190612ff1565b61111b565b005b6104f860048036038101906104f39190612b77565b611131565b60405161050793929190612ddb565b60405180910390f35b61052a60048036038101906105259190612cbf565b611203565b6040516105379190612daa565b60405180910390f35b61055a60048036038101906105559190612b77565b61129a565b6040516105679190612e19565b60405180910390f35b61058a600480360381019061058591906130d2565b6112b2565b005b6105a660048036038101906105a19190613155565b611314565b005b6105c260048036038101906105bd9190612b77565b6114f9565b6040516105cf9190612b1f565b60405180910390f35b6105f260048036038101906105ed9190612c2c565b61150b565b6040516105ff9190612e19565b60405180910390f35b610622600480360381019061061d91906131c4565b61153c565b005b61063e60048036038101906106399190612b77565b611555565b60405161064b9190612be5565b60405180910390f35b61066e60048036038101906106699190612cbf565b611595565b005b61068a60048036038101906106859190612c2c565b6115e1565b6040516106979190612e19565b60405180910390f35b6106ba60048036038101906106b59190613233565b611612565b6040516106c79190612a74565b60405180910390f35b6106ea60048036038101906106e59190612cbf565b6116a6565b005b60006106f782611729565b9050919050565b60606000805461070d906132a2565b80601f0160208091040260200160405190810160405280929190818152602001828054610739906132a2565b80156107865780601f1061075b57610100808354040283529160200191610786565b820191906000526020600020905b81548152906001019060200180831161076957829003601f168201915b5050505050905090565b600061079b8261178a565b6004600083815260200190815260200160002060009054906101000a900473ffffffffffffffffffffffffffffffffffffffff169050919050565b60006107e182610b2d565b90508073ffffffffffffffffffffffffffffffffffffffff168373ffffffffffffffffffffffffffffffffffffffff1603610851576040517f08c379a000000000000000000000000000000000000000000000000000000000815260040161084890613345565b60405180910390fd5b8073ffffffffffffffffffffffffffffffffffffffff166108706117d5565b73ffffffffffffffffffffffffffffffffffffffff16148061089f575061089e816108996117d5565b611612565b5b6108de576040517f08c379a00000000000000000000000000000000000000000000000000000000081526004016108d5906133d7565b60405180910390fd5b6108e883836117dd565b505050565b6108fe6108f86117d5565b82611896565b61093d576040517f08c379a000000000000000000000000000000000000000000000000000000000815260040161093490613469565b60405180910390fd5b61094883838361192b565b505050565b610968838383604051806020016040528060008152506112b2565b505050565b6060600b60008373ffffffffffffffffffffffffffffffffffffffff1673ffffffffffffffffffffffffffffffffffffffff1681526020019081526020016000208054806020026020016040519081016040528092919081815260200182805480156109f857602002820191906000526020600020905b8154815260200190600101908083116109e4575b50505050509050919050565b601260009054906101000a900473ffffffffffffffffffffffffffffffffffffffff1681565b600c6020528060005260406000206000915090508060000154908060010160009054906101000a900473ffffffffffffffffffffffffffffffffffffffff1690806002018054610a79906132a2565b80601f0160208091040260200160405190810160405280929190818152602001828054610aa5906132a2565b8015610af25780601f10610ac757610100808354040283529160200191610af2565b820191906000526020600020905b815481529060010190602001808311610ad557829003601f168201915b5050505050905083565b600e6020528160005260406000208181548110610b1857600080fd5b90600052602060002001600091509150505481565b600080610b3983611c24565b9050600073ffffffffffffffffffffffffffffffffffffffff168173ffffffffffffffffffffffffffffffffffffffff1603610baa576040517f08c379a0000000000000000000000000000000000000000000000000000000008152600401610ba1906134d5565b60405180910390fd5b80915050919050565b60008073ffffffffffffffffffffffffffffffffffffffff168273ffffffffffffffffffffffffffffffffffffffff1603610c23576040517f08c379a0000000000000000000000000000000000000000000000000000000008152600401610c1a90613567565b60405180910390fd5b600360008373ffffffffffffffffffffffffffffffffffffffff1673ffffffffffffffffffffffffffffffffffffffff168152602001908152602001600020549050919050565b610c72611c61565b610c7c6000611cdf565b565b600f6020528060005260406000206000915090508060000154908060010160009054906101000a900473ffffffffffffffffffffffffffffffffffffffff1690806002018054610ccd906132a2565b80601f0160208091040260200160405190810160405280929190818152602001828054610cf9906132a2565b8015610d465780601f10610d1b57610100808354040283529160200191610d46565b820191906000526020600020905b815481529060010190602001808311610d2957829003601f168201915b5050505050905083565b6000610d5c600a611da5565b9050610d68600a611db3565b610d7383828461153c565b60405180606001604052808281526020018473ffffffffffffffffffffffffffffffffffffffff16815260200183815250601160008381526020019081526020016000206000820151816000015560208201518160010160006101000a81548173ffffffffffffffffffffffffffffffffffffffff021916908373ffffffffffffffffffffffffffffffffffffffff1602179055506040820151816002019081610e1d9190613733565b50905050601060008473ffffffffffffffffffffffffffffffffffffffff1673ffffffffffffffffffffffffffffffffffffffff168152602001908152602001600020819080600181540180825580915050600190039060005260206000200160009091909190915055505050565b6000610e986009611da5565b9050610ea46009611db3565b610eaf83828461153c565b60405180606001604052808281526020018473ffffffffffffffffffffffffffffffffffffffff16815260200183815250600f60008381526020019081526020016000206000820151816000015560208201518160010160006101000a81548173ffffffffffffffffffffffffffffffffffffffff021916908373ffffffffffffffffffffffffffffffffffffffff1602179055506040820151816002019081610f599190613733565b50905050600e60008473ffffffffffffffffffffffffffffffffffffffff1673ffffffffffffffffffffffffffffffffffffffff168152602001908152602001600020819080600181540180825580915050600190039060005260206000200160009091909190915055505050565b6000600760009054906101000a900473ffffffffffffffffffffffffffffffffffffffff16905090565b6060600e60008373ffffffffffffffffffffffffffffffffffffffff1673ffffffffffffffffffffffffffffffffffffffff16815260200190815260200160002080548060200260200160405190810160405280929190818152602001828054801561107d57602002820191906000526020600020905b815481526020019060010190808311611069575b50505050509050919050565b606060018054611098906132a2565b80601f01602080910402602001604051908101604052809291908181526020018280546110c4906132a2565b80156111115780601f106110e657610100808354040283529160200191611111565b820191906000526020600020905b8154815290600101906020018083116110f457829003601f168201915b5050505050905090565b61112d6111266117d5565b8383611dc9565b5050565b60116020528060005260406000206000915090508060000154908060010160009054906101000a900473ffffffffffffffffffffffffffffffffffffffff1690806002018054611180906132a2565b80601f01602080910402602001604051908101604052809291908181526020018280546111ac906132a2565b80156111f95780601f106111ce576101008083540402835291602001916111f9565b820191906000526020600020905b8154815290600101906020018083116111dc57829003601f168201915b5050505050905083565b6060600e60008373ffffffffffffffffffffffffffffffffffffffff1673ffffffffffffffffffffffffffffffffffffffff16815260200190815260200160002080548060200260200160405190810160405280929190818152602001828054801561128e57602002820191906000526020600020905b81548152602001906001019080831161127a575b50505050509050919050565b600d6020528060005260406000206000915090505481565b6112c36112bd6117d5565b83611896565b611302576040517f08c379a00000000000000000000000000000000000000000000000000000000081526004016112f990613469565b60405180910390fd5b61130e84848484611f35565b50505050565b601260009054906101000a900473ffffffffffffffffffffffffffffffffffffffff1673ffffffffffffffffffffffffffffffffffffffff163373ffffffffffffffffffffffffffffffffffffffff16146113a4576040517f08c379a000000000000000000000000000000000000000000000000000000000815260040161139b90613877565b60405180910390fd5b60006113b06008611da5565b905080600d6000848152602001908152602001600020819055506113d46008611db3565b6113df84828561153c565b600b60008573ffffffffffffffffffffffffffffffffffffffff1673ffffffffffffffffffffffffffffffffffffffff16815260200190815260200160002081908060018154018082558091505060019003906000526020600020016000909190919091505560405180606001604052808281526020018573ffffffffffffffffffffffffffffffffffffffff16815260200184815250600c60008381526020019081526020016000206000820151816000015560208201518160010160006101000a81548173ffffffffffffffffffffffffffffffffffffffff021916908373ffffffffffffffffffffffffffffffffffffffff16021790555060408201518160020190816114ef9190613733565b5090505050505050565b606061150482611f91565b9050919050565b6010602052816000526040600020818154811061152757600080fd5b90600052602060002001600091509150505481565b61154683836120a3565b61155082826120c1565b505050565b6000600c600083815260200190815260200160002060010160009054906101000a900473ffffffffffffffffffffffffffffffffffffffff169050919050565b61159d611c61565b80601260006101000a81548173ffffffffffffffffffffffffffffffffffffffff021916908373ffffffffffffffffffffffffffffffffffffffff16021790555050565b600b60205281600052604060002081815481106115fd57600080fd5b90600052602060002001600091509150505481565b6000600560008473ffffffffffffffffffffffffffffffffffffffff1673ffffffffffffffffffffffffffffffffffffffff16815260200190815260200160002060008373ffffffffffffffffffffffffffffffffffffffff1673ffffffffffffffffffffffffffffffffffffffff16815260200190815260200160002060009054906101000a900460ff16905092915050565b6116ae611c61565b600073ffffffffffffffffffffffffffffffffffffffff168173ffffffffffffffffffffffffffffffffffffffff160361171d576040517f08c379a000000000000000000000000000000000000000000000000000000000815260040161171490613909565b60405180910390fd5b61172681611cdf565b50565b6000634906490660e01b7bffffffffffffffffffffffffffffffffffffffffffffffffffffffff1916827bffffffffffffffffffffffffffffffffffffffffffffffffffffffff19161480611783575061178282612165565b5b9050919050565b61179381612247565b6117d2576040517f08c379a00000000000000000000000000000000000000000000000000000000081526004016117c9906134d5565b60405180910390fd5b50565b600033905090565b816004600083815260200190815260200160002060006101000a81548173ffffffffffffffffffffffffffffffffffffffff021916908373ffffffffffffffffffffffffffffffffffffffff160217905550808273ffffffffffffffffffffffffffffffffffffffff1661185083610b2d565b73ffffffffffffffffffffffffffffffffffffffff167f8c5be1e5ebec7d5bd14f71427d1e84f3dd0314c0f7b2291e5b200ac8c7c3b92560405160405180910390a45050565b6000806118a283610b2d565b90508073ffffffffffffffffffffffffffffffffffffffff168473ffffffffffffffffffffffffffffffffffffffff1614806118e457506118e38185611612565b5b8061192257508373ffffffffffffffffffffffffffffffffffffffff1661190a84610790565b73ffffffffffffffffffffffffffffffffffffffff16145b91505092915050565b8273ffffffffffffffffffffffffffffffffffffffff1661194b82610b2d565b73ffffffffffffffffffffffffffffffffffffffff16146119a1576040517f08c379a00000000000000000000000000000000000000000000000000000000081526004016119989061399b565b60405180910390fd5b600073ffffffffffffffffffffffffffffffffffffffff168273ffffffffffffffffffffffffffffffffffffffff1603611a10576040517f08c379a0000000000000000000000000000000000000000000000000000000008152600401611a0790613a2d565b60405180910390fd5b611a1d8383836001612288565b8273ffffffffffffffffffffffffffffffffffffffff16611a3d82610b2d565b73ffffffffffffffffffffffffffffffffffffffff1614611a93576040517f08c379a0000000000000000000000000000000000000000000000000000000008152600401611a8a9061399b565b60405180910390fd5b6004600082815260200190815260200160002060006101000a81549073ffffffffffffffffffffffffffffffffffffffff02191690556001600360008573ffffffffffffffffffffffffffffffffffffffff1673ffffffffffffffffffffffffffffffffffffffff168152602001908152602001600020600082825403925050819055506001600360008473ffffffffffffffffffffffffffffffffffffffff1673ffffffffffffffffffffffffffffffffffffffff16815260200190815260200160002060008282540192505081905550816002600083815260200190815260200160002060006101000a81548173ffffffffffffffffffffffffffffffffffffffff021916908373ffffffffffffffffffffffffffffffffffffffff160217905550808273ffffffffffffffffffffffffffffffffffffffff168473ffffffffffffffffffffffffffffffffffffffff167fddf252ad1be2c89b69c2b068fc378daa952ba7f163c4a11628f55a4df523b3ef60405160405180910390a4611c1f838383600161228e565b505050565b60006002600083815260200190815260200160002060009054906101000a900473ffffffffffffffffffffffffffffffffffffffff169050919050565b611c696117d5565b73ffffffffffffffffffffffffffffffffffffffff16611c87610fc8565b73ffffffffffffffffffffffffffffffffffffffff1614611cdd576040517f08c379a0000000000000000000000000000000000000000000000000000000008152600401611cd490613a99565b60405180910390fd5b565b6000600760009054906101000a900473ffffffffffffffffffffffffffffffffffffffff16905081600760006101000a81548173ffffffffffffffffffffffffffffffffffffffff021916908373ffffffffffffffffffffffffffffffffffffffff1602179055508173ffffffffffffffffffffffffffffffffffffffff168173ffffffffffffffffffffffffffffffffffffffff167f8be0079c531659141344cd1fd0a4f28419497f9722a3daafe3b4186f6b6457e060405160405180910390a35050565b600081600001549050919050565b6001816000016000828254019250508190555050565b8173ffffffffffffffffffffffffffffffffffffffff168373ffffffffffffffffffffffffffffffffffffffff1603611e37576040517f08c379a0000000000000000000000000000000000000000000000000000000008152600401611e2e90613b05565b60405180910390fd5b80600560008573ffffffffffffffffffffffffffffffffffffffff1673ffffffffffffffffffffffffffffffffffffffff16815260200190815260200160002060008473ffffffffffffffffffffffffffffffffffffffff1673ffffffffffffffffffffffffffffffffffffffff16815260200190815260200160002060006101000a81548160ff0219169083151502179055508173ffffffffffffffffffffffffffffffffffffffff168373ffffffffffffffffffffffffffffffffffffffff167f17307eab39ab6107e8899845ad3d59bd9653f200f220920489ca2b5937696c3183604051611f289190612a74565b60405180910390a3505050565b611f4084848461192b565b611f4c84848484612294565b611f8b576040517f08c379a0000000000000000000000000000000000000000000000000000000008152600401611f8290613b97565b60405180910390fd5b50505050565b6060611f9c8261178a565b6000600660008481526020019081526020016000208054611fbc906132a2565b80601f0160208091040260200160405190810160405280929190818152602001828054611fe8906132a2565b80156120355780601f1061200a57610100808354040283529160200191612035565b820191906000526020600020905b81548152906001019060200180831161201857829003601f168201915b50505050509050600061204661241b565b9050600081510361205b57819250505061209e565b600082511115612090578082604051602001612078929190613bf3565b6040516020818303038152906040529250505061209e565b61209984612432565b925050505b919050565b6120bd82826040518060200160405280600081525061249a565b5050565b6120ca82612247565b612109576040517f08c379a000000000000000000000000000000000000000000000000000000000815260040161210090613c89565b60405180910390fd5b806006600084815260200190815260200160002090816121299190613733565b507ff8e1a15aba9398e019f0b49df1a4fde98ee17ae345cb5f6b5e2c27f5033e8ce7826040516121599190612e19565b60405180910390a15050565b60007f80ac58cd000000000000000000000000000000000000000000000000000000007bffffffffffffffffffffffffffffffffffffffffffffffffffffffff1916827bffffffffffffffffffffffffffffffffffffffffffffffffffffffff1916148061223057507f5b5e139f000000000000000000000000000000000000000000000000000000007bffffffffffffffffffffffffffffffffffffffffffffffffffffffff1916827bffffffffffffffffffffffffffffffffffffffffffffffffffffffff1916145b80612240575061223f826124f5565b5b9050919050565b60008073ffffffffffffffffffffffffffffffffffffffff1661226983611c24565b73ffffffffffffffffffffffffffffffffffffffff1614159050919050565b50505050565b50505050565b60006122b58473ffffffffffffffffffffffffffffffffffffffff1661255f565b1561240e578373ffffffffffffffffffffffffffffffffffffffff1663150b7a026122de6117d5565b8786866040518563ffffffff1660e01b81526004016123009493929190613cfe565b6020604051808303816000875af192505050801561233c57506040513d601f19601f820116820180604052508101906123399190613d5f565b60015b6123be573d806000811461236c576040519150601f19603f3d011682016040523d82523d6000602084013e612371565b606091505b5060008151036123b6576040517f08c379a00000000000000000000000000000000000000000000000000000000081526004016123ad90613b97565b60405180910390fd5b805181602001fd5b63150b7a0260e01b7bffffffffffffffffffffffffffffffffffffffffffffffffffffffff1916817bffffffffffffffffffffffffffffffffffffffffffffffffffffffff191614915050612413565b600190505b949350505050565b606060405180602001604052806000815250905090565b606061243d8261178a565b600061244761241b565b905060008151116124675760405180602001604052806000815250612492565b8061247184612582565b604051602001612482929190613bf3565b6040516020818303038152906040525b915050919050565b6124a48383612650565b6124b16000848484612294565b6124f0576040517f08c379a00000000000000000000000000000000000000000000000000000000081526004016124e790613b97565b60405180910390fd5b505050565b60007f01ffc9a7000000000000000000000000000000000000000000000000000000007bffffffffffffffffffffffffffffffffffffffffffffffffffffffff1916827bffffffffffffffffffffffffffffffffffffffffffffffffffffffff1916149050919050565b6000808273ffffffffffffffffffffffffffffffffffffffff163b119050919050565b6060600060016125918461286d565b01905060008167ffffffffffffffff8111156125b0576125af612e3e565b5b6040519080825280601f01601f1916602001820160405280156125e25781602001600182028036833780820191505090505b509050600082602001820190505b600115612645578080600190039150507f3031323334353637383961626364656600000000000000000000000000000000600a86061a8153600a858161263957612638613d8c565b5b049450600085036125f0575b819350505050919050565b600073ffffffffffffffffffffffffffffffffffffffff168273ffffffffffffffffffffffffffffffffffffffff16036126bf576040517f08c379a00000000000000000000000000000000000000000000000000000000081526004016126b690613e07565b60405180910390fd5b6126c881612247565b15612708576040517f08c379a00000000000000000000000000000000000000000000000000000000081526004016126ff90613e73565b60405180910390fd5b612716600083836001612288565b61271f81612247565b1561275f576040517f08c379a000000000000000000000000000000000000000000000000000000000815260040161275690613e73565b60405180910390fd5b6001600360008473ffffffffffffffffffffffffffffffffffffffff1673ffffffffffffffffffffffffffffffffffffffff16815260200190815260200160002060008282540192505081905550816002600083815260200190815260200160002060006101000a81548173ffffffffffffffffffffffffffffffffffffffff021916908373ffffffffffffffffffffffffffffffffffffffff160217905550808273ffffffffffffffffffffffffffffffffffffffff16600073ffffffffffffffffffffffffffffffffffffffff167fddf252ad1be2c89b69c2b068fc378daa952ba7f163c4a11628f55a4df523b3ef60405160405180910390a461286960008383600161228e565b5050565b600080600090507a184f03e93ff9f4daa797ed6e38ed64bf6a1f01000000000000000083106128cb577a184f03e93ff9f4daa797ed6e38ed64bf6a1f01000000000000000083816128c1576128c0613d8c565b5b0492506040810190505b6d04ee2d6d415b85acef81000000008310612908576d04ee2d6d415b85acef810000000083816128fe576128fd613d8c565b5b0492506020810190505b662386f26fc10000831061293757662386f26fc10000838161292d5761292c613d8c565b5b0492506010810190505b6305f5e1008310612960576305f5e100838161295657612955613d8c565b5b0492506008810190505b612710831061298557612710838161297b5761297a613d8c565b5b0492506004810190505b606483106129a8576064838161299e5761299d613d8c565b5b0492506002810190505b600a83106129b7576001810190505b80915050919050565b6000604051905090565b600080fd5b600080fd5b60007fffffffff0000000000000000000000000000000000000000000000000000000082169050919050565b612a09816129d4565b8114612a1457600080fd5b50565b600081359050612a2681612a00565b92915050565b600060208284031215612a4257612a416129ca565b5b6000612a5084828501612a17565b91505092915050565b60008115159050919050565b612a6e81612a59565b82525050565b6000602082019050612a896000830184612a65565b92915050565b600081519050919050565b600082825260208201905092915050565b60005b83811015612ac9578082015181840152602081019050612aae565b60008484015250505050565b6000601f19601f8301169050919050565b6000612af182612a8f565b612afb8185612a9a565b9350612b0b818560208601612aab565b612b1481612ad5565b840191505092915050565b60006020820190508181036000830152612b398184612ae6565b905092915050565b6000819050919050565b612b5481612b41565b8114612b5f57600080fd5b50565b600081359050612b7181612b4b565b92915050565b600060208284031215612b8d57612b8c6129ca565b5b6000612b9b84828501612b62565b91505092915050565b600073ffffffffffffffffffffffffffffffffffffffff82169050919050565b6000612bcf82612ba4565b9050919050565b612bdf81612bc4565b82525050565b6000602082019050612bfa6000830184612bd6565b92915050565b612c0981612bc4565b8114612c1457600080fd5b50565b600081359050612c2681612c00565b92915050565b60008060408385031215612c4357612c426129ca565b5b6000612c5185828601612c17565b9250506020612c6285828601612b62565b9150509250929050565b600080600060608486031215612c8557612c846129ca565b5b6000612c9386828701612c17565b9350506020612ca486828701612c17565b9250506040612cb586828701612b62565b9150509250925092565b600060208284031215612cd557612cd46129ca565b5b6000612ce384828501612c17565b91505092915050565b600081519050919050565b600082825260208201905092915050565b6000819050602082019050919050565b612d2181612b41565b82525050565b6000612d338383612d18565b60208301905092915050565b6000602082019050919050565b6000612d5782612cec565b612d618185612cf7565b9350612d6c83612d08565b8060005b83811015612d9d578151612d848882612d27565b9750612d8f83612d3f565b925050600181019050612d70565b5085935050505092915050565b60006020820190508181036000830152612dc48184612d4c565b905092915050565b612dd581612b41565b82525050565b6000606082019050612df06000830186612dcc565b612dfd6020830185612bd6565b8181036040830152612e0f8184612ae6565b9050949350505050565b6000602082019050612e2e6000830184612dcc565b92915050565b600080fd5b600080fd5b7f4e487b7100000000000000000000000000000000000000000000000000000000600052604160045260246000fd5b612e7682612ad5565b810181811067ffffffffffffffff82111715612e9557612e94612e3e565b5b80604052505050565b6000612ea86129c0565b9050612eb48282612e6d565b919050565b600067ffffffffffffffff821115612ed457612ed3612e3e565b5b612edd82612ad5565b9050602081019050919050565b82818337600083830152505050565b6000612f0c612f0784612eb9565b612e9e565b905082815260208101848484011115612f2857612f27612e39565b5b612f33848285612eea565b509392505050565b600082601f830112612f5057612f4f612e34565b5b8135612f60848260208601612ef9565b91505092915050565b60008060408385031215612f8057612f7f6129ca565b5b6000612f8e85828601612c17565b925050602083013567ffffffffffffffff811115612faf57612fae6129cf565b5b612fbb85828601612f3b565b9150509250929050565b612fce81612a59565b8114612fd957600080fd5b50565b600081359050612feb81612fc5565b92915050565b60008060408385031215613008576130076129ca565b5b600061301685828601612c17565b925050602061302785828601612fdc565b9150509250929050565b600067ffffffffffffffff82111561304c5761304b612e3e565b5b61305582612ad5565b9050602081019050919050565b600061307561307084613031565b612e9e565b90508281526020810184848401111561309157613090612e39565b5b61309c848285612eea565b509392505050565b600082601f8301126130b9576130b8612e34565b5b81356130c9848260208601613062565b91505092915050565b600080600080608085870312156130ec576130eb6129ca565b5b60006130fa87828801612c17565b945050602061310b87828801612c17565b935050604061311c87828801612b62565b925050606085013567ffffffffffffffff81111561313d5761313c6129cf565b5b613149878288016130a4565b91505092959194509250565b60008060006060848603121561316e5761316d6129ca565b5b600061317c86828701612c17565b935050602084013567ffffffffffffffff81111561319d5761319c6129cf565b5b6131a986828701612f3b565b92505060406131ba86828701612b62565b9150509250925092565b6000806000606084860312156131dd576131dc6129ca565b5b60006131eb86828701612c17565b93505060206131fc86828701612b62565b925050604084013567ffffffffffffffff81111561321d5761321c6129cf565b5b61322986828701612f3b565b9150509250925092565b6000806040838503121561324a576132496129ca565b5b600061325885828601612c17565b925050602061326985828601612c17565b9150509250929050565b7f4e487b7100000000000000000000000000000000000000000000000000000000600052602260045260246000fd5b600060028204905060018216806132ba57607f821691505b6020821081036132cd576132cc613273565b5b50919050565b7f4552433732313a20617070726f76616c20746f2063757272656e74206f776e6560008201527f7200000000000000000000000000000000000000000000000000000000000000602082015250565b600061332f602183612a9a565b915061333a826132d3565b604082019050919050565b6000602082019050818103600083015261335e81613322565b9050919050565b7f4552433732313a20617070726f76652063616c6c6572206973206e6f7420746f60008201527f6b656e206f776e6572206f7220617070726f76656420666f7220616c6c000000602082015250565b60006133c1603d83612a9a565b91506133cc82613365565b604082019050919050565b600060208201905081810360008301526133f0816133b4565b9050919050565b7f4552433732313a2063616c6c6572206973206e6f7420746f6b656e206f776e6560008201527f72206f7220617070726f76656400000000000000000000000000000000000000602082015250565b6000613453602d83612a9a565b915061345e826133f7565b604082019050919050565b6000602082019050818103600083015261348281613446565b9050919050565b7f4552433732313a20696e76616c696420746f6b656e2049440000000000000000600082015250565b60006134bf601883612a9a565b91506134ca82613489565b602082019050919050565b600060208201905081810360008301526134ee816134b2565b9050919050565b7f4552433732313a2061646472657373207a65726f206973206e6f74206120766160008201527f6c6964206f776e65720000000000000000000000000000000000000000000000602082015250565b6000613551602983612a9a565b915061355c826134f5565b604082019050919050565b6000602082019050818103600083015261358081613544565b9050919050565b60008190508160005260206000209050919050565b60006020601f8301049050919050565b600082821b905092915050565b6000600883026135e97fffffffffffffffffffffffffffffffffffffffffffffffffffffffffffffffff826135ac565b6135f386836135ac565b95508019841693508086168417925050509392505050565b6000819050919050565b600061363061362b61362684612b41565b61360b565b612b41565b9050919050565b6000819050919050565b61364a83613615565b61365e61365682613637565b8484546135b9565b825550505050565b600090565b613673613666565b61367e818484613641565b505050565b5b818110156136a25761369760008261366b565b600181019050613684565b5050565b601f8211156136e7576136b881613587565b6136c18461359c565b810160208510156136d0578190505b6136e46136dc8561359c565b830182613683565b50505b505050565b600082821c905092915050565b600061370a600019846008026136ec565b1980831691505092915050565b600061372383836136f9565b9150826002028217905092915050565b61373c82612a8f565b67ffffffffffffffff81111561375557613754612e3e565b5b61375f82546132a2565b61376a8282856136a6565b600060209050601f83116001811461379d576000841561378b578287015190505b6137958582613717565b8655506137fd565b601f1984166137ab86613587565b60005b828110156137d3578489015182556001820191506020850194506020810190506137ae565b868310156137f057848901516137ec601f8916826136f9565b8355505b6001600288020188555050505b505050505050565b7f6f6e6c792073616d6869746120636f6e74726163742063616e2063616c6c207460008201527f6869732066756e6374696f6e0000000000000000000000000000000000000000602082015250565b6000613861602c83612a9a565b915061386c82613805565b604082019050919050565b6000602082019050818103600083015261389081613854565b9050919050565b7f4f776e61626c653a206e6577206f776e657220697320746865207a65726f206160008201527f6464726573730000000000000000000000000000000000000000000000000000602082015250565b60006138f3602683612a9a565b91506138fe82613897565b604082019050919050565b60006020820190508181036000830152613922816138e6565b9050919050565b7f4552433732313a207472616e736665722066726f6d20696e636f72726563742060008201527f6f776e6572000000000000000000000000000000000000000000000000000000602082015250565b6000613985602583612a9a565b915061399082613929565b604082019050919050565b600060208201905081810360008301526139b481613978565b9050919050565b7f4552433732313a207472616e7366657220746f20746865207a65726f2061646460008201527f7265737300000000000000000000000000000000000000000000000000000000602082015250565b6000613a17602483612a9a565b9150613a22826139bb565b604082019050919050565b60006020820190508181036000830152613a4681613a0a565b9050919050565b7f4f776e61626c653a2063616c6c6572206973206e6f7420746865206f776e6572600082015250565b6000613a83602083612a9a565b9150613a8e82613a4d565b602082019050919050565b60006020820190508181036000830152613ab281613a76565b9050919050565b7f4552433732313a20617070726f766520746f2063616c6c657200000000000000600082015250565b6000613aef601983612a9a565b9150613afa82613ab9565b602082019050919050565b60006020820190508181036000830152613b1e81613ae2565b9050919050565b7f4552433732313a207472616e7366657220746f206e6f6e20455243373231526560008201527f63656976657220696d706c656d656e7465720000000000000000000000000000602082015250565b6000613b81603283612a9a565b9150613b8c82613b25565b604082019050919050565b60006020820190508181036000830152613bb081613b74565b9050919050565b600081905092915050565b6000613bcd82612a8f565b613bd78185613bb7565b9350613be7818560208601612aab565b80840191505092915050565b6000613bff8285613bc2565b9150613c0b8284613bc2565b91508190509392505050565b7f45524337323155524953746f726167653a2055524920736574206f66206e6f6e60008201527f6578697374656e7420746f6b656e000000000000000000000000000000000000602082015250565b6000613c73602e83612a9a565b9150613c7e82613c17565b604082019050919050565b60006020820190508181036000830152613ca281613c66565b9050919050565b600081519050919050565b600082825260208201905092915050565b6000613cd082613ca9565b613cda8185613cb4565b9350613cea818560208601612aab565b613cf381612ad5565b840191505092915050565b6000608082019050613d136000830187612bd6565b613d206020830186612bd6565b613d2d6040830185612dcc565b8181036060830152613d3f8184613cc5565b905095945050505050565b600081519050613d5981612a00565b92915050565b600060208284031215613d7557613d746129ca565b5b6000613d8384828501613d4a565b91505092915050565b7f4e487b7100000000000000000000000000000000000000000000000000000000600052601260045260246000fd5b7f4552433732313a206d696e7420746f20746865207a65726f2061646472657373600082015250565b6000613df1602083612a9a565b9150613dfc82613dbb565b602082019050919050565b60006020820190508181036000830152613e2081613de4565b9050919050565b7f4552433732313a20746f6b656e20616c7265616479206d696e74656400000000600082015250565b6000613e5d601c83612a9a565b9150613e6882613e27565b602082019050919050565b60006020820190508181036000830152613e8c81613e50565b905091905056fea26469706673582212207abf07dc369ab1c2622e8a304b689cf5139a286dad28e379a42f50afc112f2a864736f6c63430008130033",
  "linkReferences": {},
  "deployedLinkReferences": {}
}