{
  "_format": "hh-sol-artifact-1",
  "contractName": "samhitaToken",
  "sourceName": "contracts/samhitaToken.sol",
  "abi": [
    {
      "inputs": [
        {
          "internalType": "uint96",
          "name": "_initialSupplyToOwner",
          "type": "uint96"
        }
      ],
      "stateMutability": "nonpayable",
      "type": "constructor"
    },
    {
      "anonymous": false,
      "inputs": [
        {
          "indexed": true,
          "internalType": "address",
          "name": "owner",
          "type": "address"
        },
        {
          "indexed": true,
          "internalType": "address",
          "name": "spender",
          "type": "address"
        },
        {
          "indexed": false,
          "internalType": "uint256",
          "name": "value",
          "type": "uint256"
        }
      ],
      "name": "Approval",
      "type": "event"
    },
    {
      "anonymous": false,
      "inputs": [
        {
          "indexed": true,
          "internalType": "address",
          "name": "delegator",
          "type": "address"
        },
        {
          "indexed": true,
          "internalType": "address",
          "name": "fromDelegate",
          "type": "address"
        },
        {
          "indexed": true,
          "internalType": "address",
          "name": "toDelegate",
          "type": "address"
        }
      ],
      "name": "DelegateChanged",
      "type": "event"
    },
    {
      "anonymous": false,
      "inputs": [
        {
          "indexed": true,
          "internalType": "address",
          "name": "delegate",
          "type": "address"
        },
        {
          "indexed": false,
          "internalType": "uint256",
          "name": "previousBalance",
          "type": "uint256"
        },
        {
          "indexed": false,
          "internalType": "uint256",
          "name": "newBalance",
          "type": "uint256"
        }
      ],
      "name": "DelegateVotesChanged",
      "type": "event"
    },
    {
      "anonymous": false,
      "inputs": [
        {
          "indexed": true,
          "internalType": "address",
          "name": "previousOwner",
          "type": "address"
        },
        {
          "indexed": true,
          "internalType": "address",
          "name": "newOwner",
          "type": "address"
        }
      ],
      "name": "OwnershipTransferred",
      "type": "event"
    },
    {
      "anonymous": false,
      "inputs": [
        {
          "indexed": true,
          "internalType": "address",
          "name": "from",
          "type": "address"
        },
        {
          "indexed": true,
          "internalType": "address",
          "name": "to",
          "type": "address"
        },
        {
          "indexed": false,
          "internalType": "uint256",
          "name": "value",
          "type": "uint256"
        }
      ],
      "name": "Transfer",
      "type": "event"
    },
    {
      "inputs": [],
      "name": "DELEGATION_TYPEHASH",
      "outputs": [
        {
          "internalType": "bytes32",
          "name": "",
          "type": "bytes32"
        }
      ],
      "stateMutability": "view",
      "type": "function"
    },
    {
      "inputs": [],
      "name": "DOMAIN_TYPEHASH",
      "outputs": [
        {
          "internalType": "bytes32",
          "name": "",
          "type": "bytes32"
        }
      ],
      "stateMutability": "view",
      "type": "function"
    },
    {
      "inputs": [],
      "name": "admin",
      "outputs": [
        {
          "internalType": "address",
          "name": "",
          "type": "address"
        }
      ],
      "stateMutability": "view",
      "type": "function"
    },
    {
      "inputs": [
        {
          "internalType": "address",
          "name": "owner",
          "type": "address"
        },
        {
          "internalType": "address",
          "name": "spender",
          "type": "address"
        }
      ],
      "name": "allowance",
      "outputs": [
        {
          "internalType": "uint256",
          "name": "",
          "type": "uint256"
        }
      ],
      "stateMutability": "view",
      "type": "function"
    },
    {
      "inputs": [
        {
          "internalType": "address",
          "name": "spender",
          "type": "address"
        },
        {
          "internalType": "uint256",
          "name": "amount",
          "type": "uint256"
        }
      ],
      "name": "approve",
      "outputs": [
        {
          "internalType": "bool",
          "name": "",
          "type": "bool"
        }
      ],
      "stateMutability": "nonpayable",
      "type": "function"
    },
    {
      "inputs": [
        {
          "internalType": "address",
          "name": "account",
          "type": "address"
        }
      ],
      "name": "balanceOf",
      "outputs": [
        {
          "internalType": "uint256",
          "name": "",
          "type": "uint256"
        }
      ],
      "stateMutability": "view",
      "type": "function"
    },
    {
      "inputs": [
        {
          "internalType": "address",
          "name": "",
          "type": "address"
        },
        {
          "internalType": "uint32",
          "name": "",
          "type": "uint32"
        }
      ],
      "name": "checkpoints",
      "outputs": [
        {
          "internalType": "uint32",
          "name": "fromBlock",
          "type": "uint32"
        },
        {
          "internalType": "uint96",
          "name": "votes",
          "type": "uint96"
        }
      ],
      "stateMutability": "view",
      "type": "function"
    },
    {
      "inputs": [],
      "name": "decimals",
      "outputs": [
        {
          "internalType": "uint8",
          "name": "",
          "type": "uint8"
        }
      ],
      "stateMutability": "view",
      "type": "function"
    },
    {
      "inputs": [
        {
          "internalType": "address",
          "name": "spender",
          "type": "address"
        },
        {
          "internalType": "uint256",
          "name": "subtractedValue",
          "type": "uint256"
        }
      ],
      "name": "decreaseAllowance",
      "outputs": [
        {
          "internalType": "bool",
          "name": "",
          "type": "bool"
        }
      ],
      "stateMutability": "nonpayable",
      "type": "function"
    },
    {
      "inputs": [
        {
          "internalType": "address",
          "name": "to",
          "type": "address"
        }
      ],
      "name": "delegate",
      "outputs": [],
      "stateMutability": "payable",
      "type": "function"
    },
    {
      "inputs": [
        {
          "internalType": "address",
          "name": "from",
          "type": "address"
        },
        {
          "internalType": "address",
          "name": "to",
          "type": "address"
        }
      ],
      "name": "delegateTransfer",
      "outputs": [],
      "stateMutability": "nonpayable",
      "type": "function"
    },
    {
      "inputs": [
        {
          "internalType": "address",
          "name": "",
          "type": "address"
        }
      ],
      "name": "delegates",
      "outputs": [
        {
          "internalType": "address",
          "name": "",
          "type": "address"
        }
      ],
      "stateMutability": "view",
      "type": "function"
    },
    {
      "inputs": [
        {
          "internalType": "address",
          "name": "account",
          "type": "address"
        }
      ],
      "name": "getCurrentVotes",
      "outputs": [
        {
          "internalType": "uint96",
          "name": "",
          "type": "uint96"
        }
      ],
      "stateMutability": "view",
      "type": "function"
    },
    {
      "inputs": [
        {
          "internalType": "address",
          "name": "account",
          "type": "address"
        },
        {
          "internalType": "uint256",
          "name": "blockNumber",
          "type": "uint256"
        }
      ],
      "name": "getPriorVotes",
      "outputs": [
        {
          "internalType": "uint96",
          "name": "",
          "type": "uint96"
        }
      ],
      "stateMutability": "view",
      "type": "function"
    },
    {
      "inputs": [],
      "name": "getTokenPrice",
      "outputs": [
        {
          "internalType": "uint256",
          "name": "",
          "type": "uint256"
        }
      ],
      "stateMutability": "view",
      "type": "function"
    },
    {
      "inputs": [
        {
          "internalType": "address",
          "name": "spender",
          "type": "address"
        },
        {
          "internalType": "uint256",
          "name": "addedValue",
          "type": "uint256"
        }
      ],
      "name": "increaseAllowance",
      "outputs": [
        {
          "internalType": "bool",
          "name": "",
          "type": "bool"
        }
      ],
      "stateMutability": "nonpayable",
      "type": "function"
    },
    {
      "inputs": [
        {
          "internalType": "address",
          "name": "",
          "type": "address"
        }
      ],
      "name": "isMemberAdded",
      "outputs": [
        {
          "internalType": "bool",
          "name": "",
          "type": "bool"
        }
      ],
      "stateMutability": "view",
      "type": "function"
    },
    {
      "inputs": [
        {
          "internalType": "address",
          "name": "srcRep",
          "type": "address"
        },
        {
          "internalType": "address",
          "name": "destRep",
          "type": "address"
        },
        {
          "internalType": "uint96",
          "name": "amt",
          "type": "uint96"
        }
      ],
      "name": "moveDelegates",
      "outputs": [],
      "stateMutability": "nonpayable",
      "type": "function"
    },
    {
      "inputs": [],
      "name": "name",
      "outputs": [
        {
          "internalType": "string",
          "name": "",
          "type": "string"
        }
      ],
      "stateMutability": "view",
      "type": "function"
    },
    {
      "inputs": [
        {
          "internalType": "address",
          "name": "",
          "type": "address"
        }
      ],
      "name": "nonces",
      "outputs": [
        {
          "internalType": "uint256",
          "name": "",
          "type": "uint256"
        }
      ],
      "stateMutability": "view",
      "type": "function"
    },
    {
      "inputs": [
        {
          "internalType": "address",
          "name": "",
          "type": "address"
        }
      ],
      "name": "numCheckpoints",
      "outputs": [
        {
          "internalType": "uint32",
          "name": "",
          "type": "uint32"
        }
      ],
      "stateMutability": "view",
      "type": "function"
    },
    {
      "inputs": [],
      "name": "owner",
      "outputs": [
        {
          "internalType": "address",
          "name": "",
          "type": "address"
        }
      ],
      "stateMutability": "view",
      "type": "function"
    },
    {
      "inputs": [],
      "name": "renounceOwnership",
      "outputs": [],
      "stateMutability": "nonpayable",
      "type": "function"
    },
    {
      "inputs": [
        {
          "internalType": "uint256",
          "name": "_tokenPrice",
          "type": "uint256"
        }
      ],
      "name": "setTokenprice",
      "outputs": [],
      "stateMutability": "nonpayable",
      "type": "function"
    },
    {
      "inputs": [],
      "name": "symbol",
      "outputs": [
        {
          "internalType": "string",
          "name": "",
          "type": "string"
        }
      ],
      "stateMutability": "view",
      "type": "function"
    },
    {
      "inputs": [],
      "name": "totalSupply",
      "outputs": [
        {
          "internalType": "uint256",
          "name": "",
          "type": "uint256"
        }
      ],
      "stateMutability": "view",
      "type": "function"
    },
    {
      "inputs": [
        {
          "internalType": "address",
          "name": "to",
          "type": "address"
        },
        {
          "internalType": "uint256",
          "name": "amount",
          "type": "uint256"
        }
      ],
      "name": "transfer",
      "outputs": [
        {
          "internalType": "bool",
          "name": "",
          "type": "bool"
        }
      ],
      "stateMutability": "nonpayable",
      "type": "function"
    },
    {
      "inputs": [
        {
          "internalType": "address",
          "name": "from",
          "type": "address"
        },
        {
          "internalType": "address",
          "name": "to",
          "type": "address"
        },
        {
          "internalType": "uint256",
          "name": "amount",
          "type": "uint256"
        }
      ],
      "name": "transferFrom",
      "outputs": [
        {
          "internalType": "bool",
          "name": "",
          "type": "bool"
        }
      ],
      "stateMutability": "nonpayable",
      "type": "function"
    },
    {
      "inputs": [
        {
          "internalType": "address",
          "name": "newOwner",
          "type": "address"
        }
      ],
      "name": "transferOwnership",
      "outputs": [],
      "stateMutability": "nonpayable",
      "type": "function"
    },
    {
      "inputs": [
        {
          "internalType": "address",
          "name": "delegatee",
          "type": "address"
        },
        {
          "internalType": "uint32",
          "name": "nCheckpoints",
          "type": "uint32"
        },
        {
          "internalType": "uint96",
          "name": "oldVotes",
          "type": "uint96"
        },
        {
          "internalType": "uint96",
          "name": "newVotes",
          "type": "uint96"
        }
      ],
      "name": "writeCheckpoint",
      "outputs": [],
      "stateMutability": "nonpayable",
      "type": "function"
    }
  ],
  "bytecode": "0x6080604052655af3107a40006007553480156200001b57600080fd5b5060405162003bc338038062003bc383398181016040528101906200004191906200045c565b6040518060400160405280600781526020017f4d79546f6b656e000000000000000000000000000000000000000000000000008152506040518060400160405280600381526020017f4d544b00000000000000000000000000000000000000000000000000000000008152508160039081620000be919062000708565b508060049081620000d0919062000708565b505050620000f3620000e7620001c960201b60201c565b620001d160201b60201c565b33600660006101000a81548173ffffffffffffffffffffffffffffffffffffffff021916908373ffffffffffffffffffffffffffffffffffffffff1602179055506200015433826bffffffffffffffffffffffff166200029760201b60201c565b80600860003373ffffffffffffffffffffffffffffffffffffffff1673ffffffffffffffffffffffffffffffffffffffff16815260200190815260200160002060006101000a8154816bffffffffffffffffffffffff02191690836bffffffffffffffffffffffff160217905550506200090a565b600033905090565b6000600560009054906101000a900473ffffffffffffffffffffffffffffffffffffffff16905081600560006101000a81548173ffffffffffffffffffffffffffffffffffffffff021916908373ffffffffffffffffffffffffffffffffffffffff1602179055508173ffffffffffffffffffffffffffffffffffffffff168173ffffffffffffffffffffffffffffffffffffffff167f8be0079c531659141344cd1fd0a4f28419497f9722a3daafe3b4186f6b6457e060405160405180910390a35050565b600073ffffffffffffffffffffffffffffffffffffffff168273ffffffffffffffffffffffffffffffffffffffff160362000309576040517f08c379a0000000000000000000000000000000000000000000000000000000008152600401620003009062000850565b60405180910390fd5b6200031d600083836200040460201b60201c565b8060026000828254620003319190620008a1565b92505081905550806000808473ffffffffffffffffffffffffffffffffffffffff1673ffffffffffffffffffffffffffffffffffffffff168152602001908152602001600020600082825401925050819055508173ffffffffffffffffffffffffffffffffffffffff16600073ffffffffffffffffffffffffffffffffffffffff167fddf252ad1be2c89b69c2b068fc378daa952ba7f163c4a11628f55a4df523b3ef83604051620003e49190620008ed565b60405180910390a362000400600083836200040960201b60201c565b5050565b505050565b505050565b600080fd5b60006bffffffffffffffffffffffff82169050919050565b620004368162000413565b81146200044257600080fd5b50565b60008151905062000456816200042b565b92915050565b6000602082840312156200047557620004746200040e565b5b6000620004858482850162000445565b91505092915050565b600081519050919050565b7f4e487b7100000000000000000000000000000000000000000000000000000000600052604160045260246000fd5b7f4e487b7100000000000000000000000000000000000000000000000000000000600052602260045260246000fd5b600060028204905060018216806200051057607f821691505b602082108103620005265762000525620004c8565b5b50919050565b60008190508160005260206000209050919050565b60006020601f8301049050919050565b600082821b905092915050565b600060088302620005907fffffffffffffffffffffffffffffffffffffffffffffffffffffffffffffffff8262000551565b6200059c868362000551565b95508019841693508086168417925050509392505050565b6000819050919050565b6000819050919050565b6000620005e9620005e3620005dd84620005b4565b620005be565b620005b4565b9050919050565b6000819050919050565b6200060583620005c8565b6200061d6200061482620005f0565b8484546200055e565b825550505050565b600090565b6200063462000625565b62000641818484620005fa565b505050565b5b8181101562000669576200065d6000826200062a565b60018101905062000647565b5050565b601f821115620006b85762000682816200052c565b6200068d8462000541565b810160208510156200069d578190505b620006b5620006ac8562000541565b83018262000646565b50505b505050565b600082821c905092915050565b6000620006dd60001984600802620006bd565b1980831691505092915050565b6000620006f88383620006ca565b9150826002028217905092915050565b62000713826200048e565b67ffffffffffffffff8111156200072f576200072e62000499565b5b6200073b8254620004f7565b620007488282856200066d565b600060209050601f8311600181146200078057600084156200076b578287015190505b620007778582620006ea565b865550620007e7565b601f19841662000790866200052c565b60005b82811015620007ba5784890151825560018201915060208501945060208101905062000793565b86831015620007da5784890151620007d6601f891682620006ca565b8355505b6001600288020188555050505b505050505050565b600082825260208201905092915050565b7f45524332303a206d696e7420746f20746865207a65726f206164647265737300600082015250565b600062000838601f83620007ef565b9150620008458262000800565b602082019050919050565b600060208201905081810360008301526200086b8162000829565b9050919050565b7f4e487b7100000000000000000000000000000000000000000000000000000000600052601160045260246000fd5b6000620008ae82620005b4565b9150620008bb83620005b4565b9250828201905080821115620008d657620008d562000872565b5b92915050565b620008e781620005b4565b82525050565b6000602082019050620009046000830184620008dc565b92915050565b6132a9806200091a6000396000f3fe6080604052600436106101cd5760003560e01c80638da5cb5b116100f7578063cd2eaaf911610095578063f1127ed811610064578063f1127ed8146106f1578063f2fde38b1461072f578063f582d12e14610758578063f851a44014610781576101cd565b8063cd2eaaf914610623578063dd62ed3e1461064c578063de0b27e514610689578063e7a324dc146106c6576101cd565b8063a457c2d7116100d1578063a457c2d714610543578063a71d451c14610580578063a9059cbb146105a9578063b4b5ea57146105e6576101cd565b80638da5cb5b146104c45780638ecb987e146104ef57806395d89b4114610518576101cd565b80634b94f50e1161016f57806370a082311161013e57806370a08231146103f6578063715018a614610433578063782d6fe11461044a5780637ecebe0014610487576101cd565b80634b94f50e14610335578063587cde1e146103605780635c19a95c1461039d5780636fcfff45146103b9576101cd565b806320606b70116101ab57806320606b701461026557806323b872dd14610290578063313ce567146102cd57806339509351146102f8576101cd565b806306fdde03146101d2578063095ea7b3146101fd57806318160ddd1461023a575b600080fd5b3480156101de57600080fd5b506101e76107ac565b6040516101f49190612502565b60405180910390f35b34801561020957600080fd5b50610224600480360381019061021f91906125bd565b61083e565b6040516102319190612618565b60405180910390f35b34801561024657600080fd5b5061024f610861565b60405161025c9190612642565b60405180910390f35b34801561027157600080fd5b5061027a61086b565b6040516102879190612676565b60405180910390f35b34801561029c57600080fd5b506102b760048036038101906102b29190612691565b61088f565b6040516102c49190612618565b60405180910390f35b3480156102d957600080fd5b506102e26108be565b6040516102ef9190612700565b60405180910390f35b34801561030457600080fd5b5061031f600480360381019061031a91906125bd565b6108c7565b60405161032c9190612618565b60405180910390f35b34801561034157600080fd5b5061034a6108fe565b6040516103579190612642565b60405180910390f35b34801561036c57600080fd5b506103876004803603810190610382919061271b565b610908565b6040516103949190612757565b60405180910390f35b6103b760048036038101906103b2919061271b565b61093b565b005b3480156103c557600080fd5b506103e060048036038101906103db919061271b565b610948565b6040516103ed9190612791565b60405180910390f35b34801561040257600080fd5b5061041d6004803603810190610418919061271b565b61096b565b60405161042a9190612642565b60405180910390f35b34801561043f57600080fd5b506104486109b3565b005b34801561045657600080fd5b50610471600480360381019061046c91906125bd565b6109c7565b60405161047e91906127d3565b60405180910390f35b34801561049357600080fd5b506104ae60048036038101906104a9919061271b565b610e00565b6040516104bb9190612642565b60405180910390f35b3480156104d057600080fd5b506104d9610e18565b6040516104e69190612757565b60405180910390f35b3480156104fb57600080fd5b50610516600480360381019061051191906127ee565b610e42565b005b34801561052457600080fd5b5061052d610e4c565b60405161053a9190612502565b60405180910390f35b34801561054f57600080fd5b5061056a600480360381019061056591906125bd565b610ede565b6040516105779190612618565b60405180910390f35b34801561058c57600080fd5b506105a760048036038101906105a2919061281b565b610f55565b005b3480156105b557600080fd5b506105d060048036038101906105cb91906125bd565b611115565b6040516105dd9190612618565b60405180910390f35b3480156105f257600080fd5b5061060d6004803603810190610608919061271b565b611138565b60405161061a91906127d3565b60405180910390f35b34801561062f57600080fd5b5061064a60048036038101906106459190612887565b61122f565b005b34801561065857600080fd5b50610673600480360381019061066e919061281b565b6115f1565b6040516106809190612642565b60405180910390f35b34801561069557600080fd5b506106b060048036038101906106ab919061271b565b611678565b6040516106bd9190612618565b60405180910390f35b3480156106d257600080fd5b506106db611698565b6040516106e89190612676565b60405180910390f35b3480156106fd57600080fd5b5061071860048036038101906107139190612906565b6116bc565b604051610726929190612946565b60405180910390f35b34801561073b57600080fd5b506107566004803603810190610751919061271b565b611715565b005b34801561076457600080fd5b5061077f600480360381019061077a919061296f565b611798565b005b34801561078d57600080fd5b50610796611cdc565b6040516107a39190612757565b60405180910390f35b6060600380546107bb90612a05565b80601f01602080910402602001604051908101604052809291908181526020018280546107e790612a05565b80156108345780601f1061080957610100808354040283529160200191610834565b820191906000526020600020905b81548152906001019060200180831161081757829003601f168201915b5050505050905090565b600080610849611d02565b9050610856818585611d0a565b600191505092915050565b6000600254905090565b7f8cad95687ba82c2ce50e74f7b754645e5117c3a5bec8151c0726d5857980a86681565b60008061089a611d02565b90506108a7858285611ed3565b6108b2858585611f5f565b60019150509392505050565b60006012905090565b6000806108d2611d02565b90506108f38185856108e485896115f1565b6108ee9190612a65565b611d0a565b600191505092915050565b6000600754905090565b60096020528060005260406000206000915054906101000a900473ffffffffffffffffffffffffffffffffffffffff1681565b6109453382610f55565b50565b600b6020528060005260406000206000915054906101000a900463ffffffff1681565b60008060008373ffffffffffffffffffffffffffffffffffffffff1673ffffffffffffffffffffffffffffffffffffffff168152602001908152602001600020549050919050565b6109bb6121d5565b6109c56000612253565b565b6000438210610a0b576040517f08c379a0000000000000000000000000000000000000000000000000000000008152600401610a0290612b0b565b60405180910390fd5b6000600b60008573ffffffffffffffffffffffffffffffffffffffff1673ffffffffffffffffffffffffffffffffffffffff16815260200190815260200160002060009054906101000a900463ffffffff16905060008163ffffffff1603610a77576000915050610dfa565b82600a60008673ffffffffffffffffffffffffffffffffffffffff1673ffffffffffffffffffffffffffffffffffffffff1681526020019081526020016000206000600184610ac69190612b2b565b63ffffffff1663ffffffff16815260200190815260200160002060000160009054906101000a900463ffffffff1663ffffffff1611610b8b57600a60008573ffffffffffffffffffffffffffffffffffffffff1673ffffffffffffffffffffffffffffffffffffffff1681526020019081526020016000206000600183610b4d9190612b2b565b63ffffffff1663ffffffff16815260200190815260200160002060000160049054906101000a90046bffffffffffffffffffffffff16915050610dfa565b82600a60008673ffffffffffffffffffffffffffffffffffffffff1673ffffffffffffffffffffffffffffffffffffffff16815260200190815260200160002060008063ffffffff16815260200190815260200160002060000160009054906101000a900463ffffffff1663ffffffff161115610c0c576000915050610dfa565b600080600183610c1c9190612b2b565b90505b8163ffffffff168163ffffffff161115610d7c57600060028383610c439190612b2b565b610c4d9190612b92565b82610c589190612b2b565b90506000600a60008973ffffffffffffffffffffffffffffffffffffffff1673ffffffffffffffffffffffffffffffffffffffff16815260200190815260200160002060008363ffffffff1663ffffffff1681526020019081526020016000206040518060400160405290816000820160009054906101000a900463ffffffff1663ffffffff1663ffffffff1681526020016000820160049054906101000a90046bffffffffffffffffffffffff166bffffffffffffffffffffffff166bffffffffffffffffffffffff1681525050905086816000015163ffffffff1603610d4b57806020015195505050505050610dfa565b86816000015163ffffffff161015610d6557819350610d75565b600182610d729190612b2b565b92505b5050610c1f565b600a60008773ffffffffffffffffffffffffffffffffffffffff1673ffffffffffffffffffffffffffffffffffffffff16815260200190815260200160002060008363ffffffff1663ffffffff16815260200190815260200160002060000160049054906101000a90046bffffffffffffffffffffffff1693505050505b92915050565b600d6020528060005260406000206000915090505481565b6000600560009054906101000a900473ffffffffffffffffffffffffffffffffffffffff16905090565b8060078190555050565b606060048054610e5b90612a05565b80601f0160208091040260200160405190810160405280929190818152602001828054610e8790612a05565b8015610ed45780601f10610ea957610100808354040283529160200191610ed4565b820191906000526020600020905b815481529060010190602001808311610eb757829003601f168201915b5050505050905090565b600080610ee9611d02565b90506000610ef782866115f1565b905083811015610f3c576040517f08c379a0000000000000000000000000000000000000000000000000000000008152600401610f3390612c35565b60405180910390fd5b610f498286868403611d0a565b60019250505092915050565b6000600960008473ffffffffffffffffffffffffffffffffffffffff1673ffffffffffffffffffffffffffffffffffffffff16815260200190815260200160002060009054906101000a900473ffffffffffffffffffffffffffffffffffffffff1690506000600860008573ffffffffffffffffffffffffffffffffffffffff1673ffffffffffffffffffffffffffffffffffffffff16815260200190815260200160002060009054906101000a90046bffffffffffffffffffffffff16905082600960008673ffffffffffffffffffffffffffffffffffffffff1673ffffffffffffffffffffffffffffffffffffffff16815260200190815260200160002060006101000a81548173ffffffffffffffffffffffffffffffffffffffff021916908373ffffffffffffffffffffffffffffffffffffffff1602179055508273ffffffffffffffffffffffffffffffffffffffff168273ffffffffffffffffffffffffffffffffffffffff168573ffffffffffffffffffffffffffffffffffffffff167f3134e8a2e6d97e929a7e54011ea5485d7d196dd5f0ba4d4ef95803e8e3fc257f60405160405180910390a461110f82848361122f565b50505050565b600080611120611d02565b905061112d818585611f5f565b600191505092915050565b600080600b60008473ffffffffffffffffffffffffffffffffffffffff1673ffffffffffffffffffffffffffffffffffffffff16815260200190815260200160002060009054906101000a900463ffffffff16905060008163ffffffff16116111a2576000611227565b600a60008473ffffffffffffffffffffffffffffffffffffffff1673ffffffffffffffffffffffffffffffffffffffff16815260200190815260200160002060006001836111f09190612b2b565b63ffffffff1663ffffffff16815260200190815260200160002060000160049054906101000a90046bffffffffffffffffffffffff165b915050919050565b8173ffffffffffffffffffffffffffffffffffffffff168373ffffffffffffffffffffffffffffffffffffffff161415801561127957506000816bffffffffffffffffffffffff16115b156115ec57600073ffffffffffffffffffffffffffffffffffffffff168373ffffffffffffffffffffffffffffffffffffffff1614611472576000600b60008573ffffffffffffffffffffffffffffffffffffffff1673ffffffffffffffffffffffffffffffffffffffff16815260200190815260200160002060009054906101000a900463ffffffff1690506000808263ffffffff161161131c5760006113a1565b600a60008673ffffffffffffffffffffffffffffffffffffffff1673ffffffffffffffffffffffffffffffffffffffff168152602001908152602001600020600060018461136a9190612b2b565b63ffffffff1663ffffffff16815260200190815260200160002060000160049054906101000a90046bffffffffffffffffffffffff165b9050826bffffffffffffffffffffffff16816bffffffffffffffffffffffff16101580156113df5750612710816bffffffffffffffffffffffff1610155b61141e576040517f08c379a000000000000000000000000000000000000000000000000000000000815260040161141590612cc7565b60405180910390fd5b600061146082856040518060400160405280601481526020017f766f74657320616d7420756e646572666c6f7773000000000000000000000000815250612319565b905061146e86848484611798565b5050505b600073ffffffffffffffffffffffffffffffffffffffff168273ffffffffffffffffffffffffffffffffffffffff16146115eb576000600b60008473ffffffffffffffffffffffffffffffffffffffff1673ffffffffffffffffffffffffffffffffffffffff16815260200190815260200160002060009054906101000a900463ffffffff1690506000808263ffffffff1611611510576000611595565b600a60008573ffffffffffffffffffffffffffffffffffffffff1673ffffffffffffffffffffffffffffffffffffffff168152602001908152602001600020600060018461155e9190612b2b565b63ffffffff1663ffffffff16815260200190815260200160002060000160049054906101000a90046bffffffffffffffffffffffff165b905060006115d982856040518060400160405280601381526020017f766f74657320616d74206f766572666c6f777300000000000000000000000000815250612393565b90506115e785848484611798565b5050505b5b505050565b6000600160008473ffffffffffffffffffffffffffffffffffffffff1673ffffffffffffffffffffffffffffffffffffffff16815260200190815260200160002060008373ffffffffffffffffffffffffffffffffffffffff1673ffffffffffffffffffffffffffffffffffffffff16815260200190815260200160002054905092915050565b600e6020528060005260406000206000915054906101000a900460ff1681565b7fe48329057bfd03d55e49b547132e39cffd9c1820ad7b9d4c5307691425d15adf81565b600a602052816000526040600020602052806000526040600020600091509150508060000160009054906101000a900463ffffffff16908060000160049054906101000a90046bffffffffffffffffffffffff16905082565b61171d6121d5565b600073ffffffffffffffffffffffffffffffffffffffff168173ffffffffffffffffffffffffffffffffffffffff160361178c576040517f08c379a000000000000000000000000000000000000000000000000000000000815260040161178390612d59565b60405180910390fd5b61179581612253565b50565b60006117d9436040518060400160405280601c81526020017f626c6f636b206e756d6265722065786365656473203332206269747300000000815250612412565b905060008463ffffffff1611801561187757508063ffffffff16600a60008773ffffffffffffffffffffffffffffffffffffffff1673ffffffffffffffffffffffffffffffffffffffff16815260200190815260200160002060006001876118419190612b2b565b63ffffffff1663ffffffff16815260200190815260200160002060000160009054906101000a900463ffffffff1663ffffffff16145b1561191b5781600a60008773ffffffffffffffffffffffffffffffffffffffff1673ffffffffffffffffffffffffffffffffffffffff16815260200190815260200160002060006001876118cb9190612b2b565b63ffffffff1663ffffffff16815260200190815260200160002060000160046101000a8154816bffffffffffffffffffffffff02191690836bffffffffffffffffffffffff160217905550611c85565b60008463ffffffff161180156119b757508063ffffffff16600a60008773ffffffffffffffffffffffffffffffffffffffff1673ffffffffffffffffffffffffffffffffffffffff16815260200190815260200160002060006001876119819190612b2b565b63ffffffff1663ffffffff16815260200190815260200160002060000160009054906101000a900463ffffffff1663ffffffff16105b15611b345760405180604001604052808263ffffffff168152602001600a60008873ffffffffffffffffffffffffffffffffffffffff1673ffffffffffffffffffffffffffffffffffffffff1681526020019081526020016000206000600188611a219190612b2b565b63ffffffff1663ffffffff16815260200190815260200160002060000160049054906101000a90046bffffffffffffffffffffffff166bffffffffffffffffffffffff16815250600a60008773ffffffffffffffffffffffffffffffffffffffff1673ffffffffffffffffffffffffffffffffffffffff16815260200190815260200160002060008663ffffffff1663ffffffff16815260200190815260200160002060008201518160000160006101000a81548163ffffffff021916908363ffffffff16021790555060208201518160000160046101000a8154816bffffffffffffffffffffffff02191690836bffffffffffffffffffffffff1602179055509050508380611b3090612d79565b9450505b60405180604001604052808263ffffffff168152602001836bffffffffffffffffffffffff16815250600a60008773ffffffffffffffffffffffffffffffffffffffff1673ffffffffffffffffffffffffffffffffffffffff16815260200190815260200160002060008663ffffffff1663ffffffff16815260200190815260200160002060008201518160000160006101000a81548163ffffffff021916908363ffffffff16021790555060208201518160000160046101000a8154816bffffffffffffffffffffffff02191690836bffffffffffffffffffffffff160217905550905050600184611c279190612da5565b600b60008773ffffffffffffffffffffffffffffffffffffffff1673ffffffffffffffffffffffffffffffffffffffff16815260200190815260200160002060006101000a81548163ffffffff021916908363ffffffff1602179055505b8473ffffffffffffffffffffffffffffffffffffffff167fdec2bacdd2f05b59de34da9b523dff8be42e5e38e818c82fdb0bae774387a7248484604051611ccd929190612e18565b60405180910390a25050505050565b600660009054906101000a900473ffffffffffffffffffffffffffffffffffffffff1681565b600033905090565b600073ffffffffffffffffffffffffffffffffffffffff168373ffffffffffffffffffffffffffffffffffffffff1603611d79576040517f08c379a0000000000000000000000000000000000000000000000000000000008152600401611d7090612eb3565b60405180910390fd5b600073ffffffffffffffffffffffffffffffffffffffff168273ffffffffffffffffffffffffffffffffffffffff1603611de8576040517f08c379a0000000000000000000000000000000000000000000000000000000008152600401611ddf90612f45565b60405180910390fd5b80600160008573ffffffffffffffffffffffffffffffffffffffff1673ffffffffffffffffffffffffffffffffffffffff16815260200190815260200160002060008473ffffffffffffffffffffffffffffffffffffffff1673ffffffffffffffffffffffffffffffffffffffff168152602001908152602001600020819055508173ffffffffffffffffffffffffffffffffffffffff168373ffffffffffffffffffffffffffffffffffffffff167f8c5be1e5ebec7d5bd14f71427d1e84f3dd0314c0f7b2291e5b200ac8c7c3b92583604051611ec69190612642565b60405180910390a3505050565b6000611edf84846115f1565b90507fffffffffffffffffffffffffffffffffffffffffffffffffffffffffffffffff8114611f595781811015611f4b576040517f08c379a0000000000000000000000000000000000000000000000000000000008152600401611f4290612fb1565b60405180910390fd5b611f588484848403611d0a565b5b50505050565b600073ffffffffffffffffffffffffffffffffffffffff168373ffffffffffffffffffffffffffffffffffffffff1603611fce576040517f08c379a0000000000000000000000000000000000000000000000000000000008152600401611fc590613043565b60405180910390fd5b600073ffffffffffffffffffffffffffffffffffffffff168273ffffffffffffffffffffffffffffffffffffffff160361203d576040517f08c379a0000000000000000000000000000000000000000000000000000000008152600401612034906130d5565b60405180910390fd5b612048838383612468565b60008060008573ffffffffffffffffffffffffffffffffffffffff1673ffffffffffffffffffffffffffffffffffffffff168152602001908152602001600020549050818110156120ce576040517f08c379a00000000000000000000000000000000000000000000000000000000081526004016120c590613167565b60405180910390fd5b8181036000808673ffffffffffffffffffffffffffffffffffffffff1673ffffffffffffffffffffffffffffffffffffffff16815260200190815260200160002081905550816000808573ffffffffffffffffffffffffffffffffffffffff1673ffffffffffffffffffffffffffffffffffffffff168152602001908152602001600020600082825401925050819055508273ffffffffffffffffffffffffffffffffffffffff168473ffffffffffffffffffffffffffffffffffffffff167fddf252ad1be2c89b69c2b068fc378daa952ba7f163c4a11628f55a4df523b3ef846040516121bc9190612642565b60405180910390a36121cf84848461246d565b50505050565b6121dd611d02565b73ffffffffffffffffffffffffffffffffffffffff166121fb610e18565b73ffffffffffffffffffffffffffffffffffffffff1614612251576040517f08c379a0000000000000000000000000000000000000000000000000000000008152600401612248906131d3565b60405180910390fd5b565b6000600560009054906101000a900473ffffffffffffffffffffffffffffffffffffffff16905081600560006101000a81548173ffffffffffffffffffffffffffffffffffffffff021916908373ffffffffffffffffffffffffffffffffffffffff1602179055508173ffffffffffffffffffffffffffffffffffffffff168173ffffffffffffffffffffffffffffffffffffffff167f8be0079c531659141344cd1fd0a4f28419497f9722a3daafe3b4186f6b6457e060405160405180910390a35050565b6000836bffffffffffffffffffffffff16836bffffffffffffffffffffffff161115829061237d576040517f08c379a00000000000000000000000000000000000000000000000000000000081526004016123749190612502565b60405180910390fd5b50828461238a91906131f3565b90509392505050565b60008083856123a29190613233565b9050836bffffffffffffffffffffffff16816bffffffffffffffffffffffff1610158390612406576040517f08c379a00000000000000000000000000000000000000000000000000000000081526004016123fd9190612502565b60405180910390fd5b50809150509392505050565b60006401000000008310829061245e576040517f08c379a00000000000000000000000000000000000000000000000000000000081526004016124559190612502565b60405180910390fd5b5082905092915050565b505050565b505050565b600081519050919050565b600082825260208201905092915050565b60005b838110156124ac578082015181840152602081019050612491565b60008484015250505050565b6000601f19601f8301169050919050565b60006124d482612472565b6124de818561247d565b93506124ee81856020860161248e565b6124f7816124b8565b840191505092915050565b6000602082019050818103600083015261251c81846124c9565b905092915050565b600080fd5b600073ffffffffffffffffffffffffffffffffffffffff82169050919050565b600061255482612529565b9050919050565b61256481612549565b811461256f57600080fd5b50565b6000813590506125818161255b565b92915050565b6000819050919050565b61259a81612587565b81146125a557600080fd5b50565b6000813590506125b781612591565b92915050565b600080604083850312156125d4576125d3612524565b5b60006125e285828601612572565b92505060206125f3858286016125a8565b9150509250929050565b60008115159050919050565b612612816125fd565b82525050565b600060208201905061262d6000830184612609565b92915050565b61263c81612587565b82525050565b60006020820190506126576000830184612633565b92915050565b6000819050919050565b6126708161265d565b82525050565b600060208201905061268b6000830184612667565b92915050565b6000806000606084860312156126aa576126a9612524565b5b60006126b886828701612572565b93505060206126c986828701612572565b92505060406126da868287016125a8565b9150509250925092565b600060ff82169050919050565b6126fa816126e4565b82525050565b600060208201905061271560008301846126f1565b92915050565b60006020828403121561273157612730612524565b5b600061273f84828501612572565b91505092915050565b61275181612549565b82525050565b600060208201905061276c6000830184612748565b92915050565b600063ffffffff82169050919050565b61278b81612772565b82525050565b60006020820190506127a66000830184612782565b92915050565b60006bffffffffffffffffffffffff82169050919050565b6127cd816127ac565b82525050565b60006020820190506127e860008301846127c4565b92915050565b60006020828403121561280457612803612524565b5b6000612812848285016125a8565b91505092915050565b6000806040838503121561283257612831612524565b5b600061284085828601612572565b925050602061285185828601612572565b9150509250929050565b612864816127ac565b811461286f57600080fd5b50565b6000813590506128818161285b565b92915050565b6000806000606084860312156128a05761289f612524565b5b60006128ae86828701612572565b93505060206128bf86828701612572565b92505060406128d086828701612872565b9150509250925092565b6128e381612772565b81146128ee57600080fd5b50565b600081359050612900816128da565b92915050565b6000806040838503121561291d5761291c612524565b5b600061292b85828601612572565b925050602061293c858286016128f1565b9150509250929050565b600060408201905061295b6000830185612782565b61296860208301846127c4565b9392505050565b6000806000806080858703121561298957612988612524565b5b600061299787828801612572565b94505060206129a8878288016128f1565b93505060406129b987828801612872565b92505060606129ca87828801612872565b91505092959194509250565b7f4e487b7100000000000000000000000000000000000000000000000000000000600052602260045260246000fd5b60006002820490506001821680612a1d57607f821691505b602082108103612a3057612a2f6129d6565b5b50919050565b7f4e487b7100000000000000000000000000000000000000000000000000000000600052601160045260246000fd5b6000612a7082612587565b9150612a7b83612587565b9250828201905080821115612a9357612a92612a36565b5b92915050565b7f6765745072696f72566f7465733a206e6f74207965742064657465726d696e6560008201527f6400000000000000000000000000000000000000000000000000000000000000602082015250565b6000612af560218361247d565b9150612b0082612a99565b604082019050919050565b60006020820190508181036000830152612b2481612ae8565b9050919050565b6000612b3682612772565b9150612b4183612772565b9250828203905063ffffffff811115612b5d57612b5c612a36565b5b92915050565b7f4e487b7100000000000000000000000000000000000000000000000000000000600052601260045260246000fd5b6000612b9d82612772565b9150612ba883612772565b925082612bb857612bb7612b63565b5b828204905092915050565b7f45524332303a2064656372656173656420616c6c6f77616e63652062656c6f7760008201527f207a65726f000000000000000000000000000000000000000000000000000000602082015250565b6000612c1f60258361247d565b9150612c2a82612bc3565b604082019050919050565b60006020820190508181036000830152612c4e81612c12565b9050919050565b7f496e73756666696369656e7420766f74696e6720706f776572206f722062616c60008201527f616e636500000000000000000000000000000000000000000000000000000000602082015250565b6000612cb160248361247d565b9150612cbc82612c55565b604082019050919050565b60006020820190508181036000830152612ce081612ca4565b9050919050565b7f4f776e61626c653a206e6577206f776e657220697320746865207a65726f206160008201527f6464726573730000000000000000000000000000000000000000000000000000602082015250565b6000612d4360268361247d565b9150612d4e82612ce7565b604082019050919050565b60006020820190508181036000830152612d7281612d36565b9050919050565b6000612d8482612772565b915063ffffffff8203612d9a57612d99612a36565b5b600182019050919050565b6000612db082612772565b9150612dbb83612772565b9250828201905063ffffffff811115612dd757612dd6612a36565b5b92915050565b6000819050919050565b6000612e02612dfd612df8846127ac565b612ddd565b612587565b9050919050565b612e1281612de7565b82525050565b6000604082019050612e2d6000830185612e09565b612e3a6020830184612e09565b9392505050565b7f45524332303a20617070726f76652066726f6d20746865207a65726f2061646460008201527f7265737300000000000000000000000000000000000000000000000000000000602082015250565b6000612e9d60248361247d565b9150612ea882612e41565b604082019050919050565b60006020820190508181036000830152612ecc81612e90565b9050919050565b7f45524332303a20617070726f766520746f20746865207a65726f20616464726560008201527f7373000000000000000000000000000000000000000000000000000000000000602082015250565b6000612f2f60228361247d565b9150612f3a82612ed3565b604082019050919050565b60006020820190508181036000830152612f5e81612f22565b9050919050565b7f45524332303a20696e73756666696369656e7420616c6c6f77616e6365000000600082015250565b6000612f9b601d8361247d565b9150612fa682612f65565b602082019050919050565b60006020820190508181036000830152612fca81612f8e565b9050919050565b7f45524332303a207472616e736665722066726f6d20746865207a65726f20616460008201527f6472657373000000000000000000000000000000000000000000000000000000602082015250565b600061302d60258361247d565b915061303882612fd1565b604082019050919050565b6000602082019050818103600083015261305c81613020565b9050919050565b7f45524332303a207472616e7366657220746f20746865207a65726f206164647260008201527f6573730000000000000000000000000000000000000000000000000000000000602082015250565b60006130bf60238361247d565b91506130ca82613063565b604082019050919050565b600060208201905081810360008301526130ee816130b2565b9050919050565b7f45524332303a207472616e7366657220616d6f756e742065786365656473206260008201527f616c616e63650000000000000000000000000000000000000000000000000000602082015250565b600061315160268361247d565b915061315c826130f5565b604082019050919050565b6000602082019050818103600083015261318081613144565b9050919050565b7f4f776e61626c653a2063616c6c6572206973206e6f7420746865206f776e6572600082015250565b60006131bd60208361247d565b91506131c882613187565b602082019050919050565b600060208201905081810360008301526131ec816131b0565b9050919050565b60006131fe826127ac565b9150613209836127ac565b925082820390506bffffffffffffffffffffffff81111561322d5761322c612a36565b5b92915050565b600061323e826127ac565b9150613249836127ac565b925082820190506bffffffffffffffffffffffff81111561326d5761326c612a36565b5b9291505056fea26469706673582212209a85ce3bd91d7cbf78436310298180ecbc5c5e27a8018c5e2dc2cb5c2c9d7d7864736f6c63430008130033",
  "linkReferences": {},
  "deployedLinkReferences": {}
}